{
	"landupload.sol": {
		"LandRegistry": {
			"abi": [
				{
					"anonymous": false,
					"inputs": [
						{
							"indexed": true,
							"internalType": "string",
							"name": "documentNo",
							"type": "string"
						},
						{
							"indexed": true,
							"internalType": "string",
							"name": "surveyNo",
							"type": "string"
						},
						{
							"indexed": true,
							"internalType": "address",
							"name": "owner",
							"type": "address"
						}
					],
					"name": "LandRegistered",
					"type": "event"
				},
				{
					"anonymous": false,
					"inputs": [
						{
							"indexed": true,
							"internalType": "address",
							"name": "sellerAddress",
							"type": "address"
						},
						{
							"indexed": false,
							"internalType": "string",
							"name": "aadhaar",
							"type": "string"
						}
					],
					"name": "SellerRegistered",
					"type": "event"
				},
				{
					"inputs": [
						{
							"internalType": "string",
							"name": "_area",
							"type": "string"
						},
						{
							"internalType": "string",
							"name": "_city",
							"type": "string"
						},
						{
							"internalType": "uint256",
							"name": "_amount",
							"type": "uint256"
						},
						{
							"internalType": "uint256",
							"name": "_advance",
							"type": "uint256"
						},
						{
							"internalType": "string",
							"name": "_imageHash",
							"type": "string"
						},
						{
							"internalType": "string",
							"name": "_squareFeet",
							"type": "string"
						},
						{
							"internalType": "string",
							"name": "_documentNo",
							"type": "string"
						},
						{
							"internalType": "string",
							"name": "_surveyNo",
							"type": "string"
						}
					],
					"name": "addLand",
					"outputs": [],
					"stateMutability": "nonpayable",
					"type": "function"
				},
				{
					"inputs": [],
					"name": "getAllLands",
					"outputs": [
						{
							"internalType": "string[]",
							"name": "",
							"type": "string[]"
						}
					],
					"stateMutability": "view",
					"type": "function"
				},
				{
					"inputs": [
						{
							"internalType": "string",
							"name": "_documentNo",
							"type": "string"
						}
					],
					"name": "getLand",
					"outputs": [
						{
							"components": [
								{
									"internalType": "string",
									"name": "area",
									"type": "string"
								},
								{
									"internalType": "string",
									"name": "city",
									"type": "string"
								},
								{
									"internalType": "uint256",
									"name": "amount",
									"type": "uint256"
								},
								{
									"internalType": "uint256",
									"name": "advance",
									"type": "uint256"
								},
								{
									"internalType": "string",
									"name": "imageHash",
									"type": "string"
								},
								{
									"internalType": "string",
									"name": "squareFeet",
									"type": "string"
								},
								{
									"internalType": "string",
									"name": "documentNo",
									"type": "string"
								},
								{
									"internalType": "string",
									"name": "surveyNo",
									"type": "string"
								},
								{
									"internalType": "address",
									"name": "owner",
									"type": "address"
								}
							],
							"internalType": "struct LandRegistry.Land",
							"name": "",
							"type": "tuple"
						}
					],
					"stateMutability": "view",
					"type": "function"
				},
				{
					"inputs": [
						{
							"internalType": "uint256",
							"name": "",
							"type": "uint256"
						}
					],
					"name": "landIds",
					"outputs": [
						{
							"internalType": "string",
							"name": "",
							"type": "string"
						}
					],
					"stateMutability": "view",
					"type": "function"
				},
				{
					"inputs": [
						{
							"internalType": "string",
							"name": "",
							"type": "string"
						}
					],
					"name": "lands",
					"outputs": [
						{
							"internalType": "string",
							"name": "area",
							"type": "string"
						},
						{
							"internalType": "string",
							"name": "city",
							"type": "string"
						},
						{
							"internalType": "uint256",
							"name": "amount",
							"type": "uint256"
						},
						{
							"internalType": "uint256",
							"name": "advance",
							"type": "uint256"
						},
						{
							"internalType": "string",
							"name": "imageHash",
							"type": "string"
						},
						{
							"internalType": "string",
							"name": "squareFeet",
							"type": "string"
						},
						{
							"internalType": "string",
							"name": "documentNo",
							"type": "string"
						},
						{
							"internalType": "string",
							"name": "surveyNo",
							"type": "string"
						},
						{
							"internalType": "address",
							"name": "owner",
							"type": "address"
						}
					],
					"stateMutability": "view",
					"type": "function"
				},
				{
					"inputs": [
						{
							"internalType": "string",
							"name": "_aadhaar",
							"type": "string"
						},
						{
							"internalType": "string",
							"name": "_name",
							"type": "string"
						},
						{
							"internalType": "string",
							"name": "_mobile",
							"type": "string"
						},
						{
							"internalType": "string",
							"name": "_addr",
							"type": "string"
						},
						{
							"internalType": "string",
							"name": "_email",
							"type": "string"
						}
					],
					"name": "registerSeller",
					"outputs": [],
					"stateMutability": "nonpayable",
					"type": "function"
				},
				{
					"inputs": [
						{
							"internalType": "address",
							"name": "",
							"type": "address"
						}
					],
					"name": "sellers",
					"outputs": [
						{
							"internalType": "string",
							"name": "aadhaar",
							"type": "string"
						},
						{
							"internalType": "string",
							"name": "name",
							"type": "string"
						},
						{
							"internalType": "string",
							"name": "mobile",
							"type": "string"
						},
						{
							"internalType": "string",
							"name": "addr",
							"type": "string"
						},
						{
							"internalType": "string",
							"name": "email",
							"type": "string"
						}
					],
					"stateMutability": "view",
					"type": "function"
				}
			],
			"devdoc": {
				"kind": "dev",
				"methods": {},
				"version": 1
			},
			"evm": {
				"assembly": "    /* \"landupload.sol\":60:2318  contract LandRegistry {... */\n  mstore(0x40, 0x80)\n  callvalue\n  dup1\n  iszero\n  tag_1\n  jumpi\n  0x00\n  dup1\n  revert\ntag_1:\n  pop\n  dataSize(sub_0)\n  dup1\n  dataOffset(sub_0)\n  0x00\n  codecopy\n  0x00\n  return\nstop\n\nsub_0: assembly {\n        /* \"landupload.sol\":60:2318  contract LandRegistry {... */\n      mstore(0x40, 0x80)\n      callvalue\n      dup1\n      iszero\n      tag_1\n      jumpi\n      0x00\n      dup1\n      revert\n    tag_1:\n      pop\n      jumpi(tag_2, lt(calldatasize, 0x04))\n      shr(0xe0, calldataload(0x00))\n      dup1\n      0x903a9451\n      gt\n      tag_10\n      jumpi\n      dup1\n      0x903a9451\n      eq\n      tag_6\n      jumpi\n      dup1\n      0xb1c8ad0d\n      eq\n      tag_7\n      jumpi\n      dup1\n      0xb7b6e543\n      eq\n      tag_8\n      jumpi\n      dup1\n      0xdce9b619\n      eq\n      tag_9\n      jumpi\n      jump(tag_2)\n    tag_10:\n      dup1\n      0x6c844a7b\n      eq\n      tag_3\n      jumpi\n      dup1\n      0x6d47ab72\n      eq\n      tag_4\n      jumpi\n      dup1\n      0x7e8555ed\n      eq\n      tag_5\n      jumpi\n    tag_2:\n      0x00\n      dup1\n      revert\n        /* \"landupload.sol\":2091:2213  function getLand(string memory _documentNo) public view returns (Land memory) {... */\n    tag_3:\n      tag_11\n      0x04\n      dup1\n      calldatasize\n      sub\n      dup2\n      add\n      swap1\n      tag_12\n      swap2\n      swap1\n      tag_13\n      jump\t// in\n    tag_12:\n      tag_14\n      jump\t// in\n    tag_11:\n      mload(0x40)\n      tag_15\n      swap2\n      swap1\n      tag_16\n      jump\t// in\n    tag_15:\n      mload(0x40)\n      dup1\n      swap2\n      sub\n      swap1\n      return\n        /* \"landupload.sol\":491:532  mapping(address => Seller) public sellers */\n    tag_4:\n      tag_17\n      0x04\n      dup1\n      calldatasize\n      sub\n      dup2\n      add\n      swap1\n      tag_18\n      swap2\n      swap1\n      tag_19\n      jump\t// in\n    tag_18:\n      tag_20\n      jump\t// in\n    tag_17:\n      mload(0x40)\n      tag_21\n      swap6\n      swap5\n      swap4\n      swap3\n      swap2\n      swap1\n      tag_22\n      jump\t// in\n    tag_21:\n      mload(0x40)\n      dup1\n      swap2\n      sub\n      swap1\n      return\n        /* \"landupload.sol\":855:1191  function registerSeller(... */\n    tag_5:\n      tag_23\n      0x04\n      dup1\n      calldatasize\n      sub\n      dup2\n      add\n      swap1\n      tag_24\n      swap2\n      swap1\n      tag_25\n      jump\t// in\n    tag_24:\n      tag_26\n      jump\t// in\n    tag_23:\n      stop\n        /* \"landupload.sol\":582:605  string[] public landIds */\n    tag_6:\n      tag_27\n      0x04\n      dup1\n      calldatasize\n      sub\n      dup2\n      add\n      swap1\n      tag_28\n      swap2\n      swap1\n      tag_29\n      jump\t// in\n    tag_28:\n      tag_30\n      jump\t// in\n    tag_27:\n      mload(0x40)\n      tag_31\n      swap2\n      swap1\n      tag_32\n      jump\t// in\n    tag_31:\n      mload(0x40)\n      dup1\n      swap2\n      sub\n      swap1\n      return\n        /* \"landupload.sol\":539:575  mapping(string => Land) public lands */\n    tag_7:\n      tag_33\n      0x04\n      dup1\n      calldatasize\n      sub\n      dup2\n      add\n      swap1\n      tag_34\n      swap2\n      swap1\n      tag_13\n      jump\t// in\n    tag_34:\n      tag_35\n      jump\t// in\n    tag_33:\n      mload(0x40)\n      tag_36\n      swap10\n      swap9\n      swap8\n      swap7\n      swap6\n      swap5\n      swap4\n      swap3\n      swap2\n      swap1\n      tag_37\n      jump\t// in\n    tag_36:\n      mload(0x40)\n      dup1\n      swap2\n      sub\n      swap1\n      return\n        /* \"landupload.sol\":2221:2315  function getAllLands() public view returns (string[] memory) {... */\n    tag_8:\n      tag_38\n      tag_39\n      jump\t// in\n    tag_38:\n      mload(0x40)\n      tag_40\n      swap2\n      swap1\n      tag_41\n      jump\t// in\n    tag_40:\n      mload(0x40)\n      dup1\n      swap2\n      sub\n      swap1\n      return\n        /* \"landupload.sol\":1251:2083  function addLand(... */\n    tag_9:\n      tag_42\n      0x04\n      dup1\n      calldatasize\n      sub\n      dup2\n      add\n      swap1\n      tag_43\n      swap2\n      swap1\n      tag_44\n      jump\t// in\n    tag_43:\n      tag_45\n      jump\t// in\n    tag_42:\n      stop\n        /* \"landupload.sol\":2091:2213  function getLand(string memory _documentNo) public view returns (Land memory) {... */\n    tag_14:\n        /* \"landupload.sol\":2156:2167  Land memory */\n      tag_46\n      tag_47\n      jump\t// in\n    tag_46:\n        /* \"landupload.sol\":2187:2192  lands */\n      0x01\n        /* \"landupload.sol\":2193:2204  _documentNo */\n      dup3\n        /* \"landupload.sol\":2187:2205  lands[_documentNo] */\n      mload(0x40)\n      tag_49\n      swap2\n      swap1\n      tag_50\n      jump\t// in\n    tag_49:\n      swap1\n      dup2\n      mstore\n      0x20\n      add\n      mload(0x40)\n      dup1\n      swap2\n      sub\n      swap1\n      keccak256\n        /* \"landupload.sol\":2180:2205  return lands[_documentNo] */\n      mload(0x40)\n      dup1\n      0x0120\n      add\n      0x40\n      mstore\n      swap1\n      dup2\n      0x00\n      dup3\n      add\n      dup1\n      sload\n      tag_51\n      swap1\n      tag_52\n      jump\t// in\n    tag_51:\n      dup1\n      0x1f\n      add\n      0x20\n      dup1\n      swap2\n      div\n      mul\n      0x20\n      add\n      mload(0x40)\n      swap1\n      dup2\n      add\n      0x40\n      mstore\n      dup1\n      swap3\n      swap2\n      swap1\n      dup2\n      dup2\n      mstore\n      0x20\n      add\n      dup3\n      dup1\n      sload\n      tag_53\n      swap1\n      tag_52\n      jump\t// in\n    tag_53:\n      dup1\n      iszero\n      tag_54\n      jumpi\n      dup1\n      0x1f\n      lt\n      tag_55\n      jumpi\n      0x0100\n      dup1\n      dup4\n      sload\n      div\n      mul\n      dup4\n      mstore\n      swap2\n      0x20\n      add\n      swap2\n      jump(tag_54)\n    tag_55:\n      dup3\n      add\n      swap2\n      swap1\n      0x00\n      mstore\n      keccak256(0x00, 0x20)\n      swap1\n    tag_56:\n      dup2\n      sload\n      dup2\n      mstore\n      swap1\n      0x01\n      add\n      swap1\n      0x20\n      add\n      dup1\n      dup4\n      gt\n      tag_56\n      jumpi\n      dup3\n      swap1\n      sub\n      0x1f\n      and\n      dup3\n      add\n      swap2\n    tag_54:\n      pop\n      pop\n      pop\n      pop\n      pop\n      dup2\n      mstore\n      0x20\n      add\n      0x01\n      dup3\n      add\n      dup1\n      sload\n      tag_57\n      swap1\n      tag_52\n      jump\t// in\n    tag_57:\n      dup1\n      0x1f\n      add\n      0x20\n      dup1\n      swap2\n      div\n      mul\n      0x20\n      add\n      mload(0x40)\n      swap1\n      dup2\n      add\n      0x40\n      mstore\n      dup1\n      swap3\n      swap2\n      swap1\n      dup2\n      dup2\n      mstore\n      0x20\n      add\n      dup3\n      dup1\n      sload\n      tag_58\n      swap1\n      tag_52\n      jump\t// in\n    tag_58:\n      dup1\n      iszero\n      tag_59\n      jumpi\n      dup1\n      0x1f\n      lt\n      tag_60\n      jumpi\n      0x0100\n      dup1\n      dup4\n      sload\n      div\n      mul\n      dup4\n      mstore\n      swap2\n      0x20\n      add\n      swap2\n      jump(tag_59)\n    tag_60:\n      dup3\n      add\n      swap2\n      swap1\n      0x00\n      mstore\n      keccak256(0x00, 0x20)\n      swap1\n    tag_61:\n      dup2\n      sload\n      dup2\n      mstore\n      swap1\n      0x01\n      add\n      swap1\n      0x20\n      add\n      dup1\n      dup4\n      gt\n      tag_61\n      jumpi\n      dup3\n      swap1\n      sub\n      0x1f\n      and\n      dup3\n      add\n      swap2\n    tag_59:\n      pop\n      pop\n      pop\n      pop\n      pop\n      dup2\n      mstore\n      0x20\n      add\n      0x02\n      dup3\n      add\n      sload\n      dup2\n      mstore\n      0x20\n      add\n      0x03\n      dup3\n      add\n      sload\n      dup2\n      mstore\n      0x20\n      add\n      0x04\n      dup3\n      add\n      dup1\n      sload\n      tag_62\n      swap1\n      tag_52\n      jump\t// in\n    tag_62:\n      dup1\n      0x1f\n      add\n      0x20\n      dup1\n      swap2\n      div\n      mul\n      0x20\n      add\n      mload(0x40)\n      swap1\n      dup2\n      add\n      0x40\n      mstore\n      dup1\n      swap3\n      swap2\n      swap1\n      dup2\n      dup2\n      mstore\n      0x20\n      add\n      dup3\n      dup1\n      sload\n      tag_63\n      swap1\n      tag_52\n      jump\t// in\n    tag_63:\n      dup1\n      iszero\n      tag_64\n      jumpi\n      dup1\n      0x1f\n      lt\n      tag_65\n      jumpi\n      0x0100\n      dup1\n      dup4\n      sload\n      div\n      mul\n      dup4\n      mstore\n      swap2\n      0x20\n      add\n      swap2\n      jump(tag_64)\n    tag_65:\n      dup3\n      add\n      swap2\n      swap1\n      0x00\n      mstore\n      keccak256(0x00, 0x20)\n      swap1\n    tag_66:\n      dup2\n      sload\n      dup2\n      mstore\n      swap1\n      0x01\n      add\n      swap1\n      0x20\n      add\n      dup1\n      dup4\n      gt\n      tag_66\n      jumpi\n      dup3\n      swap1\n      sub\n      0x1f\n      and\n      dup3\n      add\n      swap2\n    tag_64:\n      pop\n      pop\n      pop\n      pop\n      pop\n      dup2\n      mstore\n      0x20\n      add\n      0x05\n      dup3\n      add\n      dup1\n      sload\n      tag_67\n      swap1\n      tag_52\n      jump\t// in\n    tag_67:\n      dup1\n      0x1f\n      add\n      0x20\n      dup1\n      swap2\n      div\n      mul\n      0x20\n      add\n      mload(0x40)\n      swap1\n      dup2\n      add\n      0x40\n      mstore\n      dup1\n      swap3\n      swap2\n      swap1\n      dup2\n      dup2\n      mstore\n      0x20\n      add\n      dup3\n      dup1\n      sload\n      tag_68\n      swap1\n      tag_52\n      jump\t// in\n    tag_68:\n      dup1\n      iszero\n      tag_69\n      jumpi\n      dup1\n      0x1f\n      lt\n      tag_70\n      jumpi\n      0x0100\n      dup1\n      dup4\n      sload\n      div\n      mul\n      dup4\n      mstore\n      swap2\n      0x20\n      add\n      swap2\n      jump(tag_69)\n    tag_70:\n      dup3\n      add\n      swap2\n      swap1\n      0x00\n      mstore\n      keccak256(0x00, 0x20)\n      swap1\n    tag_71:\n      dup2\n      sload\n      dup2\n      mstore\n      swap1\n      0x01\n      add\n      swap1\n      0x20\n      add\n      dup1\n      dup4\n      gt\n      tag_71\n      jumpi\n      dup3\n      swap1\n      sub\n      0x1f\n      and\n      dup3\n      add\n      swap2\n    tag_69:\n      pop\n      pop\n      pop\n      pop\n      pop\n      dup2\n      mstore\n      0x20\n      add\n      0x06\n      dup3\n      add\n      dup1\n      sload\n      tag_72\n      swap1\n      tag_52\n      jump\t// in\n    tag_72:\n      dup1\n      0x1f\n      add\n      0x20\n      dup1\n      swap2\n      div\n      mul\n      0x20\n      add\n      mload(0x40)\n      swap1\n      dup2\n      add\n      0x40\n      mstore\n      dup1\n      swap3\n      swap2\n      swap1\n      dup2\n      dup2\n      mstore\n      0x20\n      add\n      dup3\n      dup1\n      sload\n      tag_73\n      swap1\n      tag_52\n      jump\t// in\n    tag_73:\n      dup1\n      iszero\n      tag_74\n      jumpi\n      dup1\n      0x1f\n      lt\n      tag_75\n      jumpi\n      0x0100\n      dup1\n      dup4\n      sload\n      div\n      mul\n      dup4\n      mstore\n      swap2\n      0x20\n      add\n      swap2\n      jump(tag_74)\n    tag_75:\n      dup3\n      add\n      swap2\n      swap1\n      0x00\n      mstore\n      keccak256(0x00, 0x20)\n      swap1\n    tag_76:\n      dup2\n      sload\n      dup2\n      mstore\n      swap1\n      0x01\n      add\n      swap1\n      0x20\n      add\n      dup1\n      dup4\n      gt\n      tag_76\n      jumpi\n      dup3\n      swap1\n      sub\n      0x1f\n      and\n      dup3\n      add\n      swap2\n    tag_74:\n      pop\n      pop\n      pop\n      pop\n      pop\n      dup2\n      mstore\n      0x20\n      add\n      0x07\n      dup3\n      add\n      dup1\n      sload\n      tag_77\n      swap1\n      tag_52\n      jump\t// in\n    tag_77:\n      dup1\n      0x1f\n      add\n      0x20\n      dup1\n      swap2\n      div\n      mul\n      0x20\n      add\n      mload(0x40)\n      swap1\n      dup2\n      add\n      0x40\n      mstore\n      dup1\n      swap3\n      swap2\n      swap1\n      dup2\n      dup2\n      mstore\n      0x20\n      add\n      dup3\n      dup1\n      sload\n      tag_78\n      swap1\n      tag_52\n      jump\t// in\n    tag_78:\n      dup1\n      iszero\n      tag_79\n      jumpi\n      dup1\n      0x1f\n      lt\n      tag_80\n      jumpi\n      0x0100\n      dup1\n      dup4\n      sload\n      div\n      mul\n      dup4\n      mstore\n      swap2\n      0x20\n      add\n      swap2\n      jump(tag_79)\n    tag_80:\n      dup3\n      add\n      swap2\n      swap1\n      0x00\n      mstore\n      keccak256(0x00, 0x20)\n      swap1\n    tag_81:\n      dup2\n      sload\n      dup2\n      mstore\n      swap1\n      0x01\n      add\n      swap1\n      0x20\n      add\n      dup1\n      dup4\n      gt\n      tag_81\n      jumpi\n      dup3\n      swap1\n      sub\n      0x1f\n      and\n      dup3\n      add\n      swap2\n    tag_79:\n      pop\n      pop\n      pop\n      pop\n      pop\n      dup2\n      mstore\n      0x20\n      add\n      0x08\n      dup3\n      add\n      0x00\n      swap1\n      sload\n      swap1\n      0x0100\n      exp\n      swap1\n      div\n      0xffffffffffffffffffffffffffffffffffffffff\n      and\n      0xffffffffffffffffffffffffffffffffffffffff\n      and\n      0xffffffffffffffffffffffffffffffffffffffff\n      and\n      dup2\n      mstore\n      pop\n      pop\n      swap1\n      pop\n        /* \"landupload.sol\":2091:2213  function getLand(string memory _documentNo) public view returns (Land memory) {... */\n      swap2\n      swap1\n      pop\n      jump\t// out\n        /* \"landupload.sol\":491:532  mapping(address => Seller) public sellers */\n    tag_20:\n      mstore(0x20, 0x00)\n      dup1\n      0x00\n      mstore\n      keccak256(0x00, 0x40)\n      0x00\n      swap2\n      pop\n      swap1\n      pop\n      dup1\n      0x00\n      add\n      dup1\n      sload\n      tag_82\n      swap1\n      tag_52\n      jump\t// in\n    tag_82:\n      dup1\n      0x1f\n      add\n      0x20\n      dup1\n      swap2\n      div\n      mul\n      0x20\n      add\n      mload(0x40)\n      swap1\n      dup2\n      add\n      0x40\n      mstore\n      dup1\n      swap3\n      swap2\n      swap1\n      dup2\n      dup2\n      mstore\n      0x20\n      add\n      dup3\n      dup1\n      sload\n      tag_83\n      swap1\n      tag_52\n      jump\t// in\n    tag_83:\n      dup1\n      iszero\n      tag_84\n      jumpi\n      dup1\n      0x1f\n      lt\n      tag_85\n      jumpi\n      0x0100\n      dup1\n      dup4\n      sload\n      div\n      mul\n      dup4\n      mstore\n      swap2\n      0x20\n      add\n      swap2\n      jump(tag_84)\n    tag_85:\n      dup3\n      add\n      swap2\n      swap1\n      0x00\n      mstore\n      keccak256(0x00, 0x20)\n      swap1\n    tag_86:\n      dup2\n      sload\n      dup2\n      mstore\n      swap1\n      0x01\n      add\n      swap1\n      0x20\n      add\n      dup1\n      dup4\n      gt\n      tag_86\n      jumpi\n      dup3\n      swap1\n      sub\n      0x1f\n      and\n      dup3\n      add\n      swap2\n    tag_84:\n      pop\n      pop\n      pop\n      pop\n      pop\n      swap1\n      dup1\n      0x01\n      add\n      dup1\n      sload\n      tag_87\n      swap1\n      tag_52\n      jump\t// in\n    tag_87:\n      dup1\n      0x1f\n      add\n      0x20\n      dup1\n      swap2\n      div\n      mul\n      0x20\n      add\n      mload(0x40)\n      swap1\n      dup2\n      add\n      0x40\n      mstore\n      dup1\n      swap3\n      swap2\n      swap1\n      dup2\n      dup2\n      mstore\n      0x20\n      add\n      dup3\n      dup1\n      sload\n      tag_88\n      swap1\n      tag_52\n      jump\t// in\n    tag_88:\n      dup1\n      iszero\n      tag_89\n      jumpi\n      dup1\n      0x1f\n      lt\n      tag_90\n      jumpi\n      0x0100\n      dup1\n      dup4\n      sload\n      div\n      mul\n      dup4\n      mstore\n      swap2\n      0x20\n      add\n      swap2\n      jump(tag_89)\n    tag_90:\n      dup3\n      add\n      swap2\n      swap1\n      0x00\n      mstore\n      keccak256(0x00, 0x20)\n      swap1\n    tag_91:\n      dup2\n      sload\n      dup2\n      mstore\n      swap1\n      0x01\n      add\n      swap1\n      0x20\n      add\n      dup1\n      dup4\n      gt\n      tag_91\n      jumpi\n      dup3\n      swap1\n      sub\n      0x1f\n      and\n      dup3\n      add\n      swap2\n    tag_89:\n      pop\n      pop\n      pop\n      pop\n      pop\n      swap1\n      dup1\n      0x02\n      add\n      dup1\n      sload\n      tag_92\n      swap1\n      tag_52\n      jump\t// in\n    tag_92:\n      dup1\n      0x1f\n      add\n      0x20\n      dup1\n      swap2\n      div\n      mul\n      0x20\n      add\n      mload(0x40)\n      swap1\n      dup2\n      add\n      0x40\n      mstore\n      dup1\n      swap3\n      swap2\n      swap1\n      dup2\n      dup2\n      mstore\n      0x20\n      add\n      dup3\n      dup1\n      sload\n      tag_93\n      swap1\n      tag_52\n      jump\t// in\n    tag_93:\n      dup1\n      iszero\n      tag_94\n      jumpi\n      dup1\n      0x1f\n      lt\n      tag_95\n      jumpi\n      0x0100\n      dup1\n      dup4\n      sload\n      div\n      mul\n      dup4\n      mstore\n      swap2\n      0x20\n      add\n      swap2\n      jump(tag_94)\n    tag_95:\n      dup3\n      add\n      swap2\n      swap1\n      0x00\n      mstore\n      keccak256(0x00, 0x20)\n      swap1\n    tag_96:\n      dup2\n      sload\n      dup2\n      mstore\n      swap1\n      0x01\n      add\n      swap1\n      0x20\n      add\n      dup1\n      dup4\n      gt\n      tag_96\n      jumpi\n      dup3\n      swap1\n      sub\n      0x1f\n      and\n      dup3\n      add\n      swap2\n    tag_94:\n      pop\n      pop\n      pop\n      pop\n      pop\n      swap1\n      dup1\n      0x03\n      add\n      dup1\n      sload\n      tag_97\n      swap1\n      tag_52\n      jump\t// in\n    tag_97:\n      dup1\n      0x1f\n      add\n      0x20\n      dup1\n      swap2\n      div\n      mul\n      0x20\n      add\n      mload(0x40)\n      swap1\n      dup2\n      add\n      0x40\n      mstore\n      dup1\n      swap3\n      swap2\n      swap1\n      dup2\n      dup2\n      mstore\n      0x20\n      add\n      dup3\n      dup1\n      sload\n      tag_98\n      swap1\n      tag_52\n      jump\t// in\n    tag_98:\n      dup1\n      iszero\n      tag_99\n      jumpi\n      dup1\n      0x1f\n      lt\n      tag_100\n      jumpi\n      0x0100\n      dup1\n      dup4\n      sload\n      div\n      mul\n      dup4\n      mstore\n      swap2\n      0x20\n      add\n      swap2\n      jump(tag_99)\n    tag_100:\n      dup3\n      add\n      swap2\n      swap1\n      0x00\n      mstore\n      keccak256(0x00, 0x20)\n      swap1\n    tag_101:\n      dup2\n      sload\n      dup2\n      mstore\n      swap1\n      0x01\n      add\n      swap1\n      0x20\n      add\n      dup1\n      dup4\n      gt\n      tag_101\n      jumpi\n      dup3\n      swap1\n      sub\n      0x1f\n      and\n      dup3\n      add\n      swap2\n    tag_99:\n      pop\n      pop\n      pop\n      pop\n      pop\n      swap1\n      dup1\n      0x04\n      add\n      dup1\n      sload\n      tag_102\n      swap1\n      tag_52\n      jump\t// in\n    tag_102:\n      dup1\n      0x1f\n      add\n      0x20\n      dup1\n      swap2\n      div\n      mul\n      0x20\n      add\n      mload(0x40)\n      swap1\n      dup2\n      add\n      0x40\n      mstore\n      dup1\n      swap3\n      swap2\n      swap1\n      dup2\n      dup2\n      mstore\n      0x20\n      add\n      dup3\n      dup1\n      sload\n      tag_103\n      swap1\n      tag_52\n      jump\t// in\n    tag_103:\n      dup1\n      iszero\n      tag_104\n      jumpi\n      dup1\n      0x1f\n      lt\n      tag_105\n      jumpi\n      0x0100\n      dup1\n      dup4\n      sload\n      div\n      mul\n      dup4\n      mstore\n      swap2\n      0x20\n      add\n      swap2\n      jump(tag_104)\n    tag_105:\n      dup3\n      add\n      swap2\n      swap1\n      0x00\n      mstore\n      keccak256(0x00, 0x20)\n      swap1\n    tag_106:\n      dup2\n      sload\n      dup2\n      mstore\n      swap1\n      0x01\n      add\n      swap1\n      0x20\n      add\n      dup1\n      dup4\n      gt\n      tag_106\n      jumpi\n      dup3\n      swap1\n      sub\n      0x1f\n      and\n      dup3\n      add\n      swap2\n    tag_104:\n      pop\n      pop\n      pop\n      pop\n      pop\n      swap1\n      pop\n      dup6\n      jump\t// out\n        /* \"landupload.sol\":855:1191  function registerSeller(... */\n    tag_26:\n        /* \"landupload.sol\":1082:1129  Seller(_aadhaar, _name, _mobile, _addr, _email) */\n      mload(0x40)\n      dup1\n      0xa0\n      add\n      0x40\n      mstore\n      dup1\n        /* \"landupload.sol\":1089:1097  _aadhaar */\n      dup7\n        /* \"landupload.sol\":1082:1129  Seller(_aadhaar, _name, _mobile, _addr, _email) */\n      dup2\n      mstore\n      0x20\n      add\n        /* \"landupload.sol\":1099:1104  _name */\n      dup6\n        /* \"landupload.sol\":1082:1129  Seller(_aadhaar, _name, _mobile, _addr, _email) */\n      dup2\n      mstore\n      0x20\n      add\n        /* \"landupload.sol\":1106:1113  _mobile */\n      dup5\n        /* \"landupload.sol\":1082:1129  Seller(_aadhaar, _name, _mobile, _addr, _email) */\n      dup2\n      mstore\n      0x20\n      add\n        /* \"landupload.sol\":1115:1120  _addr */\n      dup4\n        /* \"landupload.sol\":1082:1129  Seller(_aadhaar, _name, _mobile, _addr, _email) */\n      dup2\n      mstore\n      0x20\n      add\n        /* \"landupload.sol\":1122:1128  _email */\n      dup3\n        /* \"landupload.sol\":1082:1129  Seller(_aadhaar, _name, _mobile, _addr, _email) */\n      dup2\n      mstore\n      pop\n        /* \"landupload.sol\":1060:1067  sellers */\n      0x00\n        /* \"landupload.sol\":1060:1079  sellers[msg.sender] */\n      dup1\n        /* \"landupload.sol\":1068:1078  msg.sender */\n      caller\n        /* \"landupload.sol\":1060:1079  sellers[msg.sender] */\n      0xffffffffffffffffffffffffffffffffffffffff\n      and\n      0xffffffffffffffffffffffffffffffffffffffff\n      and\n      dup2\n      mstore\n      0x20\n      add\n      swap1\n      dup2\n      mstore\n      0x20\n      add\n      0x00\n      keccak256\n        /* \"landupload.sol\":1060:1129  sellers[msg.sender] = Seller(_aadhaar, _name, _mobile, _addr, _email) */\n      0x00\n      dup3\n      add\n      mload\n      dup2\n      0x00\n      add\n      swap1\n      dup2\n      tag_108\n      swap2\n      swap1\n      tag_109\n      jump\t// in\n    tag_108:\n      pop\n      0x20\n      dup3\n      add\n      mload\n      dup2\n      0x01\n      add\n      swap1\n      dup2\n      tag_110\n      swap2\n      swap1\n      tag_109\n      jump\t// in\n    tag_110:\n      pop\n      0x40\n      dup3\n      add\n      mload\n      dup2\n      0x02\n      add\n      swap1\n      dup2\n      tag_111\n      swap2\n      swap1\n      tag_109\n      jump\t// in\n    tag_111:\n      pop\n      0x60\n      dup3\n      add\n      mload\n      dup2\n      0x03\n      add\n      swap1\n      dup2\n      tag_112\n      swap2\n      swap1\n      tag_109\n      jump\t// in\n    tag_112:\n      pop\n      0x80\n      dup3\n      add\n      mload\n      dup2\n      0x04\n      add\n      swap1\n      dup2\n      tag_113\n      swap2\n      swap1\n      tag_109\n      jump\t// in\n    tag_113:\n      pop\n      swap1\n      pop\n      pop\n        /* \"landupload.sol\":1162:1172  msg.sender */\n      caller\n        /* \"landupload.sol\":1145:1183  SellerRegistered(msg.sender, _aadhaar) */\n      0xffffffffffffffffffffffffffffffffffffffff\n      and\n      0xecef9454c60fab6a60b6f2aa319263c0f711cdb927c213e76687f7853b597842\n        /* \"landupload.sol\":1174:1182  _aadhaar */\n      dup7\n        /* \"landupload.sol\":1145:1183  SellerRegistered(msg.sender, _aadhaar) */\n      mload(0x40)\n      tag_114\n      swap2\n      swap1\n      tag_32\n      jump\t// in\n    tag_114:\n      mload(0x40)\n      dup1\n      swap2\n      sub\n      swap1\n      log2\n        /* \"landupload.sol\":855:1191  function registerSeller(... */\n      pop\n      pop\n      pop\n      pop\n      pop\n      jump\t// out\n        /* \"landupload.sol\":582:605  string[] public landIds */\n    tag_30:\n      0x02\n      dup2\n      dup2\n      sload\n      dup2\n      lt\n      tag_115\n      jumpi\n      0x00\n      dup1\n      revert\n    tag_115:\n      swap1\n      0x00\n      mstore\n      keccak256(0x00, 0x20)\n      add\n      0x00\n      swap2\n      pop\n      swap1\n      pop\n      dup1\n      sload\n      tag_117\n      swap1\n      tag_52\n      jump\t// in\n    tag_117:\n      dup1\n      0x1f\n      add\n      0x20\n      dup1\n      swap2\n      div\n      mul\n      0x20\n      add\n      mload(0x40)\n      swap1\n      dup2\n      add\n      0x40\n      mstore\n      dup1\n      swap3\n      swap2\n      swap1\n      dup2\n      dup2\n      mstore\n      0x20\n      add\n      dup3\n      dup1\n      sload\n      tag_118\n      swap1\n      tag_52\n      jump\t// in\n    tag_118:\n      dup1\n      iszero\n      tag_119\n      jumpi\n      dup1\n      0x1f\n      lt\n      tag_120\n      jumpi\n      0x0100\n      dup1\n      dup4\n      sload\n      div\n      mul\n      dup4\n      mstore\n      swap2\n      0x20\n      add\n      swap2\n      jump(tag_119)\n    tag_120:\n      dup3\n      add\n      swap2\n      swap1\n      0x00\n      mstore\n      keccak256(0x00, 0x20)\n      swap1\n    tag_121:\n      dup2\n      sload\n      dup2\n      mstore\n      swap1\n      0x01\n      add\n      swap1\n      0x20\n      add\n      dup1\n      dup4\n      gt\n      tag_121\n      jumpi\n      dup3\n      swap1\n      sub\n      0x1f\n      and\n      dup3\n      add\n      swap2\n    tag_119:\n      pop\n      pop\n      pop\n      pop\n      pop\n      dup2\n      jump\t// out\n        /* \"landupload.sol\":539:575  mapping(string => Land) public lands */\n    tag_35:\n      0x01\n      dup2\n      dup1\n      mload\n      0x20\n      dup2\n      add\n      dup3\n      add\n      dup1\n      mload\n      dup5\n      dup3\n      mstore\n      0x20\n      dup4\n      add\n      0x20\n      dup6\n      add\n      keccak256\n      dup2\n      dup4\n      mstore\n      dup1\n      swap6\n      pop\n      pop\n      pop\n      pop\n      pop\n      pop\n      0x00\n      swap2\n      pop\n      swap1\n      pop\n      dup1\n      0x00\n      add\n      dup1\n      sload\n      tag_122\n      swap1\n      tag_52\n      jump\t// in\n    tag_122:\n      dup1\n      0x1f\n      add\n      0x20\n      dup1\n      swap2\n      div\n      mul\n      0x20\n      add\n      mload(0x40)\n      swap1\n      dup2\n      add\n      0x40\n      mstore\n      dup1\n      swap3\n      swap2\n      swap1\n      dup2\n      dup2\n      mstore\n      0x20\n      add\n      dup3\n      dup1\n      sload\n      tag_123\n      swap1\n      tag_52\n      jump\t// in\n    tag_123:\n      dup1\n      iszero\n      tag_124\n      jumpi\n      dup1\n      0x1f\n      lt\n      tag_125\n      jumpi\n      0x0100\n      dup1\n      dup4\n      sload\n      div\n      mul\n      dup4\n      mstore\n      swap2\n      0x20\n      add\n      swap2\n      jump(tag_124)\n    tag_125:\n      dup3\n      add\n      swap2\n      swap1\n      0x00\n      mstore\n      keccak256(0x00, 0x20)\n      swap1\n    tag_126:\n      dup2\n      sload\n      dup2\n      mstore\n      swap1\n      0x01\n      add\n      swap1\n      0x20\n      add\n      dup1\n      dup4\n      gt\n      tag_126\n      jumpi\n      dup3\n      swap1\n      sub\n      0x1f\n      and\n      dup3\n      add\n      swap2\n    tag_124:\n      pop\n      pop\n      pop\n      pop\n      pop\n      swap1\n      dup1\n      0x01\n      add\n      dup1\n      sload\n      tag_127\n      swap1\n      tag_52\n      jump\t// in\n    tag_127:\n      dup1\n      0x1f\n      add\n      0x20\n      dup1\n      swap2\n      div\n      mul\n      0x20\n      add\n      mload(0x40)\n      swap1\n      dup2\n      add\n      0x40\n      mstore\n      dup1\n      swap3\n      swap2\n      swap1\n      dup2\n      dup2\n      mstore\n      0x20\n      add\n      dup3\n      dup1\n      sload\n      tag_128\n      swap1\n      tag_52\n      jump\t// in\n    tag_128:\n      dup1\n      iszero\n      tag_129\n      jumpi\n      dup1\n      0x1f\n      lt\n      tag_130\n      jumpi\n      0x0100\n      dup1\n      dup4\n      sload\n      div\n      mul\n      dup4\n      mstore\n      swap2\n      0x20\n      add\n      swap2\n      jump(tag_129)\n    tag_130:\n      dup3\n      add\n      swap2\n      swap1\n      0x00\n      mstore\n      keccak256(0x00, 0x20)\n      swap1\n    tag_131:\n      dup2\n      sload\n      dup2\n      mstore\n      swap1\n      0x01\n      add\n      swap1\n      0x20\n      add\n      dup1\n      dup4\n      gt\n      tag_131\n      jumpi\n      dup3\n      swap1\n      sub\n      0x1f\n      and\n      dup3\n      add\n      swap2\n    tag_129:\n      pop\n      pop\n      pop\n      pop\n      pop\n      swap1\n      dup1\n      0x02\n      add\n      sload\n      swap1\n      dup1\n      0x03\n      add\n      sload\n      swap1\n      dup1\n      0x04\n      add\n      dup1\n      sload\n      tag_132\n      swap1\n      tag_52\n      jump\t// in\n    tag_132:\n      dup1\n      0x1f\n      add\n      0x20\n      dup1\n      swap2\n      div\n      mul\n      0x20\n      add\n      mload(0x40)\n      swap1\n      dup2\n      add\n      0x40\n      mstore\n      dup1\n      swap3\n      swap2\n      swap1\n      dup2\n      dup2\n      mstore\n      0x20\n      add\n      dup3\n      dup1\n      sload\n      tag_133\n      swap1\n      tag_52\n      jump\t// in\n    tag_133:\n      dup1\n      iszero\n      tag_134\n      jumpi\n      dup1\n      0x1f\n      lt\n      tag_135\n      jumpi\n      0x0100\n      dup1\n      dup4\n      sload\n      div\n      mul\n      dup4\n      mstore\n      swap2\n      0x20\n      add\n      swap2\n      jump(tag_134)\n    tag_135:\n      dup3\n      add\n      swap2\n      swap1\n      0x00\n      mstore\n      keccak256(0x00, 0x20)\n      swap1\n    tag_136:\n      dup2\n      sload\n      dup2\n      mstore\n      swap1\n      0x01\n      add\n      swap1\n      0x20\n      add\n      dup1\n      dup4\n      gt\n      tag_136\n      jumpi\n      dup3\n      swap1\n      sub\n      0x1f\n      and\n      dup3\n      add\n      swap2\n    tag_134:\n      pop\n      pop\n      pop\n      pop\n      pop\n      swap1\n      dup1\n      0x05\n      add\n      dup1\n      sload\n      tag_137\n      swap1\n      tag_52\n      jump\t// in\n    tag_137:\n      dup1\n      0x1f\n      add\n      0x20\n      dup1\n      swap2\n      div\n      mul\n      0x20\n      add\n      mload(0x40)\n      swap1\n      dup2\n      add\n      0x40\n      mstore\n      dup1\n      swap3\n      swap2\n      swap1\n      dup2\n      dup2\n      mstore\n      0x20\n      add\n      dup3\n      dup1\n      sload\n      tag_138\n      swap1\n      tag_52\n      jump\t// in\n    tag_138:\n      dup1\n      iszero\n      tag_139\n      jumpi\n      dup1\n      0x1f\n      lt\n      tag_140\n      jumpi\n      0x0100\n      dup1\n      dup4\n      sload\n      div\n      mul\n      dup4\n      mstore\n      swap2\n      0x20\n      add\n      swap2\n      jump(tag_139)\n    tag_140:\n      dup3\n      add\n      swap2\n      swap1\n      0x00\n      mstore\n      keccak256(0x00, 0x20)\n      swap1\n    tag_141:\n      dup2\n      sload\n      dup2\n      mstore\n      swap1\n      0x01\n      add\n      swap1\n      0x20\n      add\n      dup1\n      dup4\n      gt\n      tag_141\n      jumpi\n      dup3\n      swap1\n      sub\n      0x1f\n      and\n      dup3\n      add\n      swap2\n    tag_139:\n      pop\n      pop\n      pop\n      pop\n      pop\n      swap1\n      dup1\n      0x06\n      add\n      dup1\n      sload\n      tag_142\n      swap1\n      tag_52\n      jump\t// in\n    tag_142:\n      dup1\n      0x1f\n      add\n      0x20\n      dup1\n      swap2\n      div\n      mul\n      0x20\n      add\n      mload(0x40)\n      swap1\n      dup2\n      add\n      0x40\n      mstore\n      dup1\n      swap3\n      swap2\n      swap1\n      dup2\n      dup2\n      mstore\n      0x20\n      add\n      dup3\n      dup1\n      sload\n      tag_143\n      swap1\n      tag_52\n      jump\t// in\n    tag_143:\n      dup1\n      iszero\n      tag_144\n      jumpi\n      dup1\n      0x1f\n      lt\n      tag_145\n      jumpi\n      0x0100\n      dup1\n      dup4\n      sload\n      div\n      mul\n      dup4\n      mstore\n      swap2\n      0x20\n      add\n      swap2\n      jump(tag_144)\n    tag_145:\n      dup3\n      add\n      swap2\n      swap1\n      0x00\n      mstore\n      keccak256(0x00, 0x20)\n      swap1\n    tag_146:\n      dup2\n      sload\n      dup2\n      mstore\n      swap1\n      0x01\n      add\n      swap1\n      0x20\n      add\n      dup1\n      dup4\n      gt\n      tag_146\n      jumpi\n      dup3\n      swap1\n      sub\n      0x1f\n      and\n      dup3\n      add\n      swap2\n    tag_144:\n      pop\n      pop\n      pop\n      pop\n      pop\n      swap1\n      dup1\n      0x07\n      add\n      dup1\n      sload\n      tag_147\n      swap1\n      tag_52\n      jump\t// in\n    tag_147:\n      dup1\n      0x1f\n      add\n      0x20\n      dup1\n      swap2\n      div\n      mul\n      0x20\n      add\n      mload(0x40)\n      swap1\n      dup2\n      add\n      0x40\n      mstore\n      dup1\n      swap3\n      swap2\n      swap1\n      dup2\n      dup2\n      mstore\n      0x20\n      add\n      dup3\n      dup1\n      sload\n      tag_148\n      swap1\n      tag_52\n      jump\t// in\n    tag_148:\n      dup1\n      iszero\n      tag_149\n      jumpi\n      dup1\n      0x1f\n      lt\n      tag_150\n      jumpi\n      0x0100\n      dup1\n      dup4\n      sload\n      div\n      mul\n      dup4\n      mstore\n      swap2\n      0x20\n      add\n      swap2\n      jump(tag_149)\n    tag_150:\n      dup3\n      add\n      swap2\n      swap1\n      0x00\n      mstore\n      keccak256(0x00, 0x20)\n      swap1\n    tag_151:\n      dup2\n      sload\n      dup2\n      mstore\n      swap1\n      0x01\n      add\n      swap1\n      0x20\n      add\n      dup1\n      dup4\n      gt\n      tag_151\n      jumpi\n      dup3\n      swap1\n      sub\n      0x1f\n      and\n      dup3\n      add\n      swap2\n    tag_149:\n      pop\n      pop\n      pop\n      pop\n      pop\n      swap1\n      dup1\n      0x08\n      add\n      0x00\n      swap1\n      sload\n      swap1\n      0x0100\n      exp\n      swap1\n      div\n      0xffffffffffffffffffffffffffffffffffffffff\n      and\n      swap1\n      pop\n      dup10\n      jump\t// out\n        /* \"landupload.sol\":2221:2315  function getAllLands() public view returns (string[] memory) {... */\n    tag_39:\n        /* \"landupload.sol\":2265:2280  string[] memory */\n      0x60\n        /* \"landupload.sol\":2300:2307  landIds */\n      0x02\n        /* \"landupload.sol\":2293:2307  return landIds */\n      dup1\n      sload\n      dup1\n      0x20\n      mul\n      0x20\n      add\n      mload(0x40)\n      swap1\n      dup2\n      add\n      0x40\n      mstore\n      dup1\n      swap3\n      swap2\n      swap1\n      dup2\n      dup2\n      mstore\n      0x20\n      add\n      0x00\n      swap1\n    tag_153:\n      dup3\n      dup3\n      lt\n      iszero\n      tag_154\n      jumpi\n      dup4\n      dup3\n      swap1\n      0x00\n      mstore\n      keccak256(0x00, 0x20)\n      add\n      dup1\n      sload\n      tag_156\n      swap1\n      tag_52\n      jump\t// in\n    tag_156:\n      dup1\n      0x1f\n      add\n      0x20\n      dup1\n      swap2\n      div\n      mul\n      0x20\n      add\n      mload(0x40)\n      swap1\n      dup2\n      add\n      0x40\n      mstore\n      dup1\n      swap3\n      swap2\n      swap1\n      dup2\n      dup2\n      mstore\n      0x20\n      add\n      dup3\n      dup1\n      sload\n      tag_157\n      swap1\n      tag_52\n      jump\t// in\n    tag_157:\n      dup1\n      iszero\n      tag_158\n      jumpi\n      dup1\n      0x1f\n      lt\n      tag_159\n      jumpi\n      0x0100\n      dup1\n      dup4\n      sload\n      div\n      mul\n      dup4\n      mstore\n      swap2\n      0x20\n      add\n      swap2\n      jump(tag_158)\n    tag_159:\n      dup3\n      add\n      swap2\n      swap1\n      0x00\n      mstore\n      keccak256(0x00, 0x20)\n      swap1\n    tag_160:\n      dup2\n      sload\n      dup2\n      mstore\n      swap1\n      0x01\n      add\n      swap1\n      0x20\n      add\n      dup1\n      dup4\n      gt\n      tag_160\n      jumpi\n      dup3\n      swap1\n      sub\n      0x1f\n      and\n      dup3\n      add\n      swap2\n    tag_158:\n      pop\n      pop\n      pop\n      pop\n      pop\n      dup2\n      mstore\n      0x20\n      add\n      swap1\n      0x01\n      add\n      swap1\n      jump(tag_153)\n    tag_154:\n      pop\n      pop\n      pop\n      pop\n      swap1\n      pop\n        /* \"landupload.sol\":2221:2315  function getAllLands() public view returns (string[] memory) {... */\n      swap1\n      jump\t// out\n        /* \"landupload.sol\":1251:2083  function addLand(... */\n    tag_45:\n        /* \"landupload.sol\":1600:1601  0 */\n      0x00\n        /* \"landupload.sol\":1561:1568  sellers */\n      dup1\n        /* \"landupload.sol\":1561:1580  sellers[msg.sender] */\n      0x00\n        /* \"landupload.sol\":1569:1579  msg.sender */\n      caller\n        /* \"landupload.sol\":1561:1580  sellers[msg.sender] */\n      0xffffffffffffffffffffffffffffffffffffffff\n      and\n      0xffffffffffffffffffffffffffffffffffffffff\n      and\n      dup2\n      mstore\n      0x20\n      add\n      swap1\n      dup2\n      mstore\n      0x20\n      add\n      0x00\n      keccak256\n        /* \"landupload.sol\":1561:1588  sellers[msg.sender].aadhaar */\n      0x00\n      add\n        /* \"landupload.sol\":1555:1596  bytes(sellers[msg.sender].aadhaar).length */\n      dup1\n      sload\n      tag_162\n      swap1\n      tag_52\n      jump\t// in\n    tag_162:\n      swap1\n      pop\n        /* \"landupload.sol\":1555:1601  bytes(sellers[msg.sender].aadhaar).length != 0 */\n      sub\n        /* \"landupload.sol\":1547:1628  require(bytes(sellers[msg.sender].aadhaar).length != 0, \"Seller not registered!\") */\n      tag_163\n      jumpi\n      mload(0x40)\n      0x08c379a000000000000000000000000000000000000000000000000000000000\n      dup2\n      mstore\n      0x04\n      add\n      tag_164\n      swap1\n      tag_165\n      jump\t// in\n    tag_164:\n      mload(0x40)\n      dup1\n      swap2\n      sub\n      swap1\n      revert\n    tag_163:\n        /* \"landupload.sol\":1662:1971  Land({... */\n      mload(0x40)\n      dup1\n      0x0120\n      add\n      0x40\n      mstore\n      dup1\n        /* \"landupload.sol\":1688:1693  _area */\n      dup10\n        /* \"landupload.sol\":1662:1971  Land({... */\n      dup2\n      mstore\n      0x20\n      add\n        /* \"landupload.sol\":1714:1719  _city */\n      dup9\n        /* \"landupload.sol\":1662:1971  Land({... */\n      dup2\n      mstore\n      0x20\n      add\n        /* \"landupload.sol\":1742:1749  _amount */\n      dup8\n        /* \"landupload.sol\":1662:1971  Land({... */\n      dup2\n      mstore\n      0x20\n      add\n        /* \"landupload.sol\":1773:1781  _advance */\n      dup7\n        /* \"landupload.sol\":1662:1971  Land({... */\n      dup2\n      mstore\n      0x20\n      add\n        /* \"landupload.sol\":1807:1817  _imageHash */\n      dup6\n        /* \"landupload.sol\":1662:1971  Land({... */\n      dup2\n      mstore\n      0x20\n      add\n        /* \"landupload.sol\":1844:1855  _squareFeet */\n      dup5\n        /* \"landupload.sol\":1662:1971  Land({... */\n      dup2\n      mstore\n      0x20\n      add\n        /* \"landupload.sol\":1882:1893  _documentNo */\n      dup4\n        /* \"landupload.sol\":1662:1971  Land({... */\n      dup2\n      mstore\n      0x20\n      add\n        /* \"landupload.sol\":1918:1927  _surveyNo */\n      dup3\n        /* \"landupload.sol\":1662:1971  Land({... */\n      dup2\n      mstore\n      0x20\n      add\n        /* \"landupload.sol\":1949:1959  msg.sender */\n      caller\n        /* \"landupload.sol\":1662:1971  Land({... */\n      0xffffffffffffffffffffffffffffffffffffffff\n      and\n      dup2\n      mstore\n      pop\n        /* \"landupload.sol\":1641:1646  lands */\n      0x01\n        /* \"landupload.sol\":1647:1658  _documentNo */\n      dup4\n        /* \"landupload.sol\":1641:1659  lands[_documentNo] */\n      mload(0x40)\n      tag_166\n      swap2\n      swap1\n      tag_50\n      jump\t// in\n    tag_166:\n      swap1\n      dup2\n      mstore\n      0x20\n      add\n      mload(0x40)\n      dup1\n      swap2\n      sub\n      swap1\n      keccak256\n        /* \"landupload.sol\":1641:1971  lands[_documentNo] = Land({... */\n      0x00\n      dup3\n      add\n      mload\n      dup2\n      0x00\n      add\n      swap1\n      dup2\n      tag_167\n      swap2\n      swap1\n      tag_109\n      jump\t// in\n    tag_167:\n      pop\n      0x20\n      dup3\n      add\n      mload\n      dup2\n      0x01\n      add\n      swap1\n      dup2\n      tag_168\n      swap2\n      swap1\n      tag_109\n      jump\t// in\n    tag_168:\n      pop\n      0x40\n      dup3\n      add\n      mload\n      dup2\n      0x02\n      add\n      sstore\n      0x60\n      dup3\n      add\n      mload\n      dup2\n      0x03\n      add\n      sstore\n      0x80\n      dup3\n      add\n      mload\n      dup2\n      0x04\n      add\n      swap1\n      dup2\n      tag_169\n      swap2\n      swap1\n      tag_109\n      jump\t// in\n    tag_169:\n      pop\n      0xa0\n      dup3\n      add\n      mload\n      dup2\n      0x05\n      add\n      swap1\n      dup2\n      tag_170\n      swap2\n      swap1\n      tag_109\n      jump\t// in\n    tag_170:\n      pop\n      0xc0\n      dup3\n      add\n      mload\n      dup2\n      0x06\n      add\n      swap1\n      dup2\n      tag_171\n      swap2\n      swap1\n      tag_109\n      jump\t// in\n    tag_171:\n      pop\n      0xe0\n      dup3\n      add\n      mload\n      dup2\n      0x07\n      add\n      swap1\n      dup2\n      tag_172\n      swap2\n      swap1\n      tag_109\n      jump\t// in\n    tag_172:\n      pop\n      0x0100\n      dup3\n      add\n      mload\n      dup2\n      0x08\n      add\n      exp(0x0100, 0x00)\n      dup2\n      sload\n      dup2\n      0xffffffffffffffffffffffffffffffffffffffff\n      mul\n      not\n      and\n      swap1\n      dup4\n      0xffffffffffffffffffffffffffffffffffffffff\n      and\n      mul\n      or\n      swap1\n      sstore\n      pop\n      swap1\n      pop\n      pop\n        /* \"landupload.sol\":1984:1991  landIds */\n      0x02\n        /* \"landupload.sol\":1997:2008  _documentNo */\n      dup3\n        /* \"landupload.sol\":1984:2009  landIds.push(_documentNo) */\n      swap1\n      dup1\n      0x01\n      dup2\n      sload\n      add\n      dup1\n      dup3\n      sstore\n      dup1\n      swap2\n      pop\n      pop\n      0x01\n      swap1\n      sub\n      swap1\n      0x00\n      mstore\n      keccak256(0x00, 0x20)\n      add\n      0x00\n      swap1\n      swap2\n      swap1\n      swap2\n      swap1\n      swap2\n      pop\n      swap1\n      dup2\n      tag_174\n      swap2\n      swap1\n      tag_109\n      jump\t// in\n    tag_174:\n      pop\n        /* \"landupload.sol\":2064:2074  msg.sender */\n      caller\n        /* \"landupload.sol\":2025:2075  LandRegistered(_documentNo, _surveyNo, msg.sender) */\n      0xffffffffffffffffffffffffffffffffffffffff\n      and\n        /* \"landupload.sol\":2053:2062  _surveyNo */\n      dup2\n        /* \"landupload.sol\":2025:2075  LandRegistered(_documentNo, _surveyNo, msg.sender) */\n      mload(0x40)\n      tag_175\n      swap2\n      swap1\n      tag_50\n      jump\t// in\n    tag_175:\n      mload(0x40)\n      dup1\n      swap2\n      sub\n      swap1\n      keccak256\n        /* \"landupload.sol\":2040:2051  _documentNo */\n      dup4\n        /* \"landupload.sol\":2025:2075  LandRegistered(_documentNo, _surveyNo, msg.sender) */\n      mload(0x40)\n      tag_176\n      swap2\n      swap1\n      tag_50\n      jump\t// in\n    tag_176:\n      mload(0x40)\n      dup1\n      swap2\n      sub\n      swap1\n      keccak256\n      0x8fc0b98e2a4d15d56022a359dfad20c1a2f2dae54da50c061967e456c4c3d655\n      mload(0x40)\n      mload(0x40)\n      dup1\n      swap2\n      sub\n      swap1\n      log4\n        /* \"landupload.sol\":1251:2083  function addLand(... */\n      pop\n      pop\n      pop\n      pop\n      pop\n      pop\n      pop\n      pop\n      jump\t// out\n    tag_47:\n      mload(0x40)\n      dup1\n      0x0120\n      add\n      0x40\n      mstore\n      dup1\n      0x60\n      dup2\n      mstore\n      0x20\n      add\n      0x60\n      dup2\n      mstore\n      0x20\n      add\n      0x00\n      dup2\n      mstore\n      0x20\n      add\n      0x00\n      dup2\n      mstore\n      0x20\n      add\n      0x60\n      dup2\n      mstore\n      0x20\n      add\n      0x60\n      dup2\n      mstore\n      0x20\n      add\n      0x60\n      dup2\n      mstore\n      0x20\n      add\n      0x60\n      dup2\n      mstore\n      0x20\n      add\n      and(0xffffffffffffffffffffffffffffffffffffffff, 0x00)\n      dup2\n      mstore\n      pop\n      swap1\n      jump\t// out\n        /* \"#utility.yul\":7:82   */\n    tag_177:\n        /* \"#utility.yul\":40:46   */\n      0x00\n        /* \"#utility.yul\":73:75   */\n      0x40\n        /* \"#utility.yul\":67:76   */\n      mload\n        /* \"#utility.yul\":57:76   */\n      swap1\n      pop\n        /* \"#utility.yul\":7:82   */\n      swap1\n      jump\t// out\n        /* \"#utility.yul\":88:205   */\n    tag_178:\n        /* \"#utility.yul\":197:198   */\n      0x00\n        /* \"#utility.yul\":194:195   */\n      dup1\n        /* \"#utility.yul\":187:199   */\n      revert\n        /* \"#utility.yul\":211:328   */\n    tag_179:\n        /* \"#utility.yul\":320:321   */\n      0x00\n        /* \"#utility.yul\":317:318   */\n      dup1\n        /* \"#utility.yul\":310:322   */\n      revert\n        /* \"#utility.yul\":334:451   */\n    tag_180:\n        /* \"#utility.yul\":443:444   */\n      0x00\n        /* \"#utility.yul\":440:441   */\n      dup1\n        /* \"#utility.yul\":433:445   */\n      revert\n        /* \"#utility.yul\":457:574   */\n    tag_181:\n        /* \"#utility.yul\":566:567   */\n      0x00\n        /* \"#utility.yul\":563:564   */\n      dup1\n        /* \"#utility.yul\":556:568   */\n      revert\n        /* \"#utility.yul\":580:682   */\n    tag_182:\n        /* \"#utility.yul\":621:627   */\n      0x00\n        /* \"#utility.yul\":672:674   */\n      0x1f\n        /* \"#utility.yul\":668:675   */\n      not\n        /* \"#utility.yul\":663:665   */\n      0x1f\n        /* \"#utility.yul\":656:661   */\n      dup4\n        /* \"#utility.yul\":652:666   */\n      add\n        /* \"#utility.yul\":648:676   */\n      and\n        /* \"#utility.yul\":638:676   */\n      swap1\n      pop\n        /* \"#utility.yul\":580:682   */\n      swap2\n      swap1\n      pop\n      jump\t// out\n        /* \"#utility.yul\":688:868   */\n    tag_183:\n        /* \"#utility.yul\":736:813   */\n      0x4e487b7100000000000000000000000000000000000000000000000000000000\n        /* \"#utility.yul\":733:734   */\n      0x00\n        /* \"#utility.yul\":726:814   */\n      mstore\n        /* \"#utility.yul\":833:837   */\n      0x41\n        /* \"#utility.yul\":830:831   */\n      0x04\n        /* \"#utility.yul\":823:838   */\n      mstore\n        /* \"#utility.yul\":857:861   */\n      0x24\n        /* \"#utility.yul\":854:855   */\n      0x00\n        /* \"#utility.yul\":847:862   */\n      revert\n        /* \"#utility.yul\":874:1155   */\n    tag_184:\n        /* \"#utility.yul\":957:984   */\n      tag_243\n        /* \"#utility.yul\":979:983   */\n      dup3\n        /* \"#utility.yul\":957:984   */\n      tag_182\n      jump\t// in\n    tag_243:\n        /* \"#utility.yul\":949:955   */\n      dup2\n        /* \"#utility.yul\":945:985   */\n      add\n        /* \"#utility.yul\":1087:1093   */\n      dup2\n        /* \"#utility.yul\":1075:1085   */\n      dup2\n        /* \"#utility.yul\":1072:1094   */\n      lt\n        /* \"#utility.yul\":1051:1069   */\n      0xffffffffffffffff\n        /* \"#utility.yul\":1039:1049   */\n      dup3\n        /* \"#utility.yul\":1036:1070   */\n      gt\n        /* \"#utility.yul\":1033:1095   */\n      or\n        /* \"#utility.yul\":1030:1118   */\n      iszero\n      tag_244\n      jumpi\n        /* \"#utility.yul\":1098:1116   */\n      tag_245\n      tag_183\n      jump\t// in\n    tag_245:\n        /* \"#utility.yul\":1030:1118   */\n    tag_244:\n        /* \"#utility.yul\":1138:1148   */\n      dup1\n        /* \"#utility.yul\":1134:1136   */\n      0x40\n        /* \"#utility.yul\":1127:1149   */\n      mstore\n        /* \"#utility.yul\":917:1155   */\n      pop\n        /* \"#utility.yul\":874:1155   */\n      pop\n      pop\n      jump\t// out\n        /* \"#utility.yul\":1161:1290   */\n    tag_185:\n        /* \"#utility.yul\":1195:1201   */\n      0x00\n        /* \"#utility.yul\":1222:1242   */\n      tag_247\n      tag_177\n      jump\t// in\n    tag_247:\n        /* \"#utility.yul\":1212:1242   */\n      swap1\n      pop\n        /* \"#utility.yul\":1251:1284   */\n      tag_248\n        /* \"#utility.yul\":1279:1283   */\n      dup3\n        /* \"#utility.yul\":1271:1277   */\n      dup3\n        /* \"#utility.yul\":1251:1284   */\n      tag_184\n      jump\t// in\n    tag_248:\n        /* \"#utility.yul\":1161:1290   */\n      swap2\n      swap1\n      pop\n      jump\t// out\n        /* \"#utility.yul\":1296:1604   */\n    tag_186:\n        /* \"#utility.yul\":1358:1362   */\n      0x00\n        /* \"#utility.yul\":1448:1466   */\n      0xffffffffffffffff\n        /* \"#utility.yul\":1440:1446   */\n      dup3\n        /* \"#utility.yul\":1437:1467   */\n      gt\n        /* \"#utility.yul\":1434:1490   */\n      iszero\n      tag_250\n      jumpi\n        /* \"#utility.yul\":1470:1488   */\n      tag_251\n      tag_183\n      jump\t// in\n    tag_251:\n        /* \"#utility.yul\":1434:1490   */\n    tag_250:\n        /* \"#utility.yul\":1508:1537   */\n      tag_252\n        /* \"#utility.yul\":1530:1536   */\n      dup3\n        /* \"#utility.yul\":1508:1537   */\n      tag_182\n      jump\t// in\n    tag_252:\n        /* \"#utility.yul\":1500:1537   */\n      swap1\n      pop\n        /* \"#utility.yul\":1592:1596   */\n      0x20\n        /* \"#utility.yul\":1586:1590   */\n      dup2\n        /* \"#utility.yul\":1582:1597   */\n      add\n        /* \"#utility.yul\":1574:1597   */\n      swap1\n      pop\n        /* \"#utility.yul\":1296:1604   */\n      swap2\n      swap1\n      pop\n      jump\t// out\n        /* \"#utility.yul\":1610:1758   */\n    tag_187:\n        /* \"#utility.yul\":1708:1714   */\n      dup3\n        /* \"#utility.yul\":1703:1706   */\n      dup2\n        /* \"#utility.yul\":1698:1701   */\n      dup4\n        /* \"#utility.yul\":1685:1715   */\n      calldatacopy\n        /* \"#utility.yul\":1749:1750   */\n      0x00\n        /* \"#utility.yul\":1740:1746   */\n      dup4\n        /* \"#utility.yul\":1735:1738   */\n      dup4\n        /* \"#utility.yul\":1731:1747   */\n      add\n        /* \"#utility.yul\":1724:1751   */\n      mstore\n        /* \"#utility.yul\":1610:1758   */\n      pop\n      pop\n      pop\n      jump\t// out\n        /* \"#utility.yul\":1764:2189   */\n    tag_188:\n        /* \"#utility.yul\":1842:1847   */\n      0x00\n        /* \"#utility.yul\":1867:1933   */\n      tag_255\n        /* \"#utility.yul\":1883:1932   */\n      tag_256\n        /* \"#utility.yul\":1925:1931   */\n      dup5\n        /* \"#utility.yul\":1883:1932   */\n      tag_186\n      jump\t// in\n    tag_256:\n        /* \"#utility.yul\":1867:1933   */\n      tag_185\n      jump\t// in\n    tag_255:\n        /* \"#utility.yul\":1858:1933   */\n      swap1\n      pop\n        /* \"#utility.yul\":1956:1962   */\n      dup3\n        /* \"#utility.yul\":1949:1954   */\n      dup2\n        /* \"#utility.yul\":1942:1963   */\n      mstore\n        /* \"#utility.yul\":1994:1998   */\n      0x20\n        /* \"#utility.yul\":1987:1992   */\n      dup2\n        /* \"#utility.yul\":1983:1999   */\n      add\n        /* \"#utility.yul\":2032:2035   */\n      dup5\n        /* \"#utility.yul\":2023:2029   */\n      dup5\n        /* \"#utility.yul\":2018:2021   */\n      dup5\n        /* \"#utility.yul\":2014:2030   */\n      add\n        /* \"#utility.yul\":2011:2036   */\n      gt\n        /* \"#utility.yul\":2008:2120   */\n      iszero\n      tag_257\n      jumpi\n        /* \"#utility.yul\":2039:2118   */\n      tag_258\n      tag_181\n      jump\t// in\n    tag_258:\n        /* \"#utility.yul\":2008:2120   */\n    tag_257:\n        /* \"#utility.yul\":2129:2183   */\n      tag_259\n        /* \"#utility.yul\":2176:2182   */\n      dup5\n        /* \"#utility.yul\":2171:2174   */\n      dup3\n        /* \"#utility.yul\":2166:2169   */\n      dup6\n        /* \"#utility.yul\":2129:2183   */\n      tag_187\n      jump\t// in\n    tag_259:\n        /* \"#utility.yul\":1848:2189   */\n      pop\n        /* \"#utility.yul\":1764:2189   */\n      swap4\n      swap3\n      pop\n      pop\n      pop\n      jump\t// out\n        /* \"#utility.yul\":2209:2549   */\n    tag_189:\n        /* \"#utility.yul\":2265:2270   */\n      0x00\n        /* \"#utility.yul\":2314:2317   */\n      dup3\n        /* \"#utility.yul\":2307:2311   */\n      0x1f\n        /* \"#utility.yul\":2299:2305   */\n      dup4\n        /* \"#utility.yul\":2295:2312   */\n      add\n        /* \"#utility.yul\":2291:2318   */\n      slt\n        /* \"#utility.yul\":2281:2403   */\n      tag_261\n      jumpi\n        /* \"#utility.yul\":2322:2401   */\n      tag_262\n      tag_180\n      jump\t// in\n    tag_262:\n        /* \"#utility.yul\":2281:2403   */\n    tag_261:\n        /* \"#utility.yul\":2439:2445   */\n      dup2\n        /* \"#utility.yul\":2426:2446   */\n      calldataload\n        /* \"#utility.yul\":2464:2543   */\n      tag_263\n        /* \"#utility.yul\":2539:2542   */\n      dup5\n        /* \"#utility.yul\":2531:2537   */\n      dup3\n        /* \"#utility.yul\":2524:2528   */\n      0x20\n        /* \"#utility.yul\":2516:2522   */\n      dup7\n        /* \"#utility.yul\":2512:2529   */\n      add\n        /* \"#utility.yul\":2464:2543   */\n      tag_188\n      jump\t// in\n    tag_263:\n        /* \"#utility.yul\":2455:2543   */\n      swap2\n      pop\n        /* \"#utility.yul\":2271:2549   */\n      pop\n        /* \"#utility.yul\":2209:2549   */\n      swap3\n      swap2\n      pop\n      pop\n      jump\t// out\n        /* \"#utility.yul\":2555:3064   */\n    tag_13:\n        /* \"#utility.yul\":2624:2630   */\n      0x00\n        /* \"#utility.yul\":2673:2675   */\n      0x20\n        /* \"#utility.yul\":2661:2670   */\n      dup3\n        /* \"#utility.yul\":2652:2659   */\n      dup5\n        /* \"#utility.yul\":2648:2671   */\n      sub\n        /* \"#utility.yul\":2644:2676   */\n      slt\n        /* \"#utility.yul\":2641:2760   */\n      iszero\n      tag_265\n      jumpi\n        /* \"#utility.yul\":2679:2758   */\n      tag_266\n      tag_178\n      jump\t// in\n    tag_266:\n        /* \"#utility.yul\":2641:2760   */\n    tag_265:\n        /* \"#utility.yul\":2827:2828   */\n      0x00\n        /* \"#utility.yul\":2816:2825   */\n      dup3\n        /* \"#utility.yul\":2812:2829   */\n      add\n        /* \"#utility.yul\":2799:2830   */\n      calldataload\n        /* \"#utility.yul\":2857:2875   */\n      0xffffffffffffffff\n        /* \"#utility.yul\":2849:2855   */\n      dup2\n        /* \"#utility.yul\":2846:2876   */\n      gt\n        /* \"#utility.yul\":2843:2960   */\n      iszero\n      tag_267\n      jumpi\n        /* \"#utility.yul\":2879:2958   */\n      tag_268\n      tag_179\n      jump\t// in\n    tag_268:\n        /* \"#utility.yul\":2843:2960   */\n    tag_267:\n        /* \"#utility.yul\":2984:3047   */\n      tag_269\n        /* \"#utility.yul\":3039:3046   */\n      dup5\n        /* \"#utility.yul\":3030:3036   */\n      dup3\n        /* \"#utility.yul\":3019:3028   */\n      dup6\n        /* \"#utility.yul\":3015:3037   */\n      add\n        /* \"#utility.yul\":2984:3047   */\n      tag_189\n      jump\t// in\n    tag_269:\n        /* \"#utility.yul\":2974:3047   */\n      swap2\n      pop\n        /* \"#utility.yul\":2770:3057   */\n      pop\n        /* \"#utility.yul\":2555:3064   */\n      swap3\n      swap2\n      pop\n      pop\n      jump\t// out\n        /* \"#utility.yul\":3070:3169   */\n    tag_190:\n        /* \"#utility.yul\":3122:3128   */\n      0x00\n        /* \"#utility.yul\":3156:3161   */\n      dup2\n        /* \"#utility.yul\":3150:3162   */\n      mload\n        /* \"#utility.yul\":3140:3162   */\n      swap1\n      pop\n        /* \"#utility.yul\":3070:3169   */\n      swap2\n      swap1\n      pop\n      jump\t// out\n        /* \"#utility.yul\":3175:3334   */\n    tag_191:\n        /* \"#utility.yul\":3249:3260   */\n      0x00\n        /* \"#utility.yul\":3283:3289   */\n      dup3\n        /* \"#utility.yul\":3278:3281   */\n      dup3\n        /* \"#utility.yul\":3271:3290   */\n      mstore\n        /* \"#utility.yul\":3323:3327   */\n      0x20\n        /* \"#utility.yul\":3318:3321   */\n      dup3\n        /* \"#utility.yul\":3314:3328   */\n      add\n        /* \"#utility.yul\":3299:3328   */\n      swap1\n      pop\n        /* \"#utility.yul\":3175:3334   */\n      swap3\n      swap2\n      pop\n      pop\n      jump\t// out\n        /* \"#utility.yul\":3340:3479   */\n    tag_192:\n        /* \"#utility.yul\":3429:3435   */\n      dup3\n        /* \"#utility.yul\":3424:3427   */\n      dup2\n        /* \"#utility.yul\":3419:3422   */\n      dup4\n        /* \"#utility.yul\":3413:3436   */\n      mcopy\n        /* \"#utility.yul\":3470:3471   */\n      0x00\n        /* \"#utility.yul\":3461:3467   */\n      dup4\n        /* \"#utility.yul\":3456:3459   */\n      dup4\n        /* \"#utility.yul\":3452:3468   */\n      add\n        /* \"#utility.yul\":3445:3472   */\n      mstore\n        /* \"#utility.yul\":3340:3479   */\n      pop\n      pop\n      pop\n      jump\t// out\n        /* \"#utility.yul\":3485:3842   */\n    tag_193:\n        /* \"#utility.yul\":3563:3566   */\n      0x00\n        /* \"#utility.yul\":3591:3630   */\n      tag_274\n        /* \"#utility.yul\":3624:3629   */\n      dup3\n        /* \"#utility.yul\":3591:3630   */\n      tag_190\n      jump\t// in\n    tag_274:\n        /* \"#utility.yul\":3646:3707   */\n      tag_275\n        /* \"#utility.yul\":3700:3706   */\n      dup2\n        /* \"#utility.yul\":3695:3698   */\n      dup6\n        /* \"#utility.yul\":3646:3707   */\n      tag_191\n      jump\t// in\n    tag_275:\n        /* \"#utility.yul\":3639:3707   */\n      swap4\n      pop\n        /* \"#utility.yul\":3716:3781   */\n      tag_276\n        /* \"#utility.yul\":3774:3780   */\n      dup2\n        /* \"#utility.yul\":3769:3772   */\n      dup6\n        /* \"#utility.yul\":3762:3766   */\n      0x20\n        /* \"#utility.yul\":3755:3760   */\n      dup7\n        /* \"#utility.yul\":3751:3767   */\n      add\n        /* \"#utility.yul\":3716:3781   */\n      tag_192\n      jump\t// in\n    tag_276:\n        /* \"#utility.yul\":3806:3835   */\n      tag_277\n        /* \"#utility.yul\":3828:3834   */\n      dup2\n        /* \"#utility.yul\":3806:3835   */\n      tag_182\n      jump\t// in\n    tag_277:\n        /* \"#utility.yul\":3801:3804   */\n      dup5\n        /* \"#utility.yul\":3797:3836   */\n      add\n        /* \"#utility.yul\":3790:3836   */\n      swap2\n      pop\n        /* \"#utility.yul\":3567:3842   */\n      pop\n        /* \"#utility.yul\":3485:3842   */\n      swap3\n      swap2\n      pop\n      pop\n      jump\t// out\n        /* \"#utility.yul\":3848:3925   */\n    tag_194:\n        /* \"#utility.yul\":3885:3892   */\n      0x00\n        /* \"#utility.yul\":3914:3919   */\n      dup2\n        /* \"#utility.yul\":3903:3919   */\n      swap1\n      pop\n        /* \"#utility.yul\":3848:3925   */\n      swap2\n      swap1\n      pop\n      jump\t// out\n        /* \"#utility.yul\":3931:4039   */\n    tag_195:\n        /* \"#utility.yul\":4008:4032   */\n      tag_280\n        /* \"#utility.yul\":4026:4031   */\n      dup2\n        /* \"#utility.yul\":4008:4032   */\n      tag_194\n      jump\t// in\n    tag_280:\n        /* \"#utility.yul\":4003:4006   */\n      dup3\n        /* \"#utility.yul\":3996:4033   */\n      mstore\n        /* \"#utility.yul\":3931:4039   */\n      pop\n      pop\n      jump\t// out\n        /* \"#utility.yul\":4045:4171   */\n    tag_196:\n        /* \"#utility.yul\":4082:4089   */\n      0x00\n        /* \"#utility.yul\":4122:4164   */\n      0xffffffffffffffffffffffffffffffffffffffff\n        /* \"#utility.yul\":4115:4120   */\n      dup3\n        /* \"#utility.yul\":4111:4165   */\n      and\n        /* \"#utility.yul\":4100:4165   */\n      swap1\n      pop\n        /* \"#utility.yul\":4045:4171   */\n      swap2\n      swap1\n      pop\n      jump\t// out\n        /* \"#utility.yul\":4177:4273   */\n    tag_197:\n        /* \"#utility.yul\":4214:4221   */\n      0x00\n        /* \"#utility.yul\":4243:4267   */\n      tag_283\n        /* \"#utility.yul\":4261:4266   */\n      dup3\n        /* \"#utility.yul\":4243:4267   */\n      tag_196\n      jump\t// in\n    tag_283:\n        /* \"#utility.yul\":4232:4267   */\n      swap1\n      pop\n        /* \"#utility.yul\":4177:4273   */\n      swap2\n      swap1\n      pop\n      jump\t// out\n        /* \"#utility.yul\":4279:4387   */\n    tag_198:\n        /* \"#utility.yul\":4356:4380   */\n      tag_285\n        /* \"#utility.yul\":4374:4379   */\n      dup2\n        /* \"#utility.yul\":4356:4380   */\n      tag_197\n      jump\t// in\n    tag_285:\n        /* \"#utility.yul\":4351:4354   */\n      dup3\n        /* \"#utility.yul\":4344:4381   */\n      mstore\n        /* \"#utility.yul\":4279:4387   */\n      pop\n      pop\n      jump\t// out\n        /* \"#utility.yul\":4453:6655   */\n    tag_199:\n        /* \"#utility.yul\":4562:4565   */\n      0x00\n        /* \"#utility.yul\":4598:4604   */\n      0x0120\n        /* \"#utility.yul\":4593:4596   */\n      dup4\n        /* \"#utility.yul\":4589:4605   */\n      add\n        /* \"#utility.yul\":4687:4691   */\n      0x00\n        /* \"#utility.yul\":4680:4685   */\n      dup4\n        /* \"#utility.yul\":4676:4692   */\n      add\n        /* \"#utility.yul\":4670:4693   */\n      mload\n        /* \"#utility.yul\":4740:4743   */\n      dup5\n        /* \"#utility.yul\":4734:4738   */\n      dup3\n        /* \"#utility.yul\":4730:4744   */\n      sub\n        /* \"#utility.yul\":4723:4727   */\n      0x00\n        /* \"#utility.yul\":4718:4721   */\n      dup7\n        /* \"#utility.yul\":4714:4728   */\n      add\n        /* \"#utility.yul\":4707:4745   */\n      mstore\n        /* \"#utility.yul\":4766:4839   */\n      tag_287\n        /* \"#utility.yul\":4834:4838   */\n      dup3\n        /* \"#utility.yul\":4820:4832   */\n      dup3\n        /* \"#utility.yul\":4766:4839   */\n      tag_193\n      jump\t// in\n    tag_287:\n        /* \"#utility.yul\":4758:4839   */\n      swap2\n      pop\n        /* \"#utility.yul\":4615:4850   */\n      pop\n        /* \"#utility.yul\":4932:4936   */\n      0x20\n        /* \"#utility.yul\":4925:4930   */\n      dup4\n        /* \"#utility.yul\":4921:4937   */\n      add\n        /* \"#utility.yul\":4915:4938   */\n      mload\n        /* \"#utility.yul\":4985:4988   */\n      dup5\n        /* \"#utility.yul\":4979:4983   */\n      dup3\n        /* \"#utility.yul\":4975:4989   */\n      sub\n        /* \"#utility.yul\":4968:4972   */\n      0x20\n        /* \"#utility.yul\":4963:4966   */\n      dup7\n        /* \"#utility.yul\":4959:4973   */\n      add\n        /* \"#utility.yul\":4952:4990   */\n      mstore\n        /* \"#utility.yul\":5011:5084   */\n      tag_288\n        /* \"#utility.yul\":5079:5083   */\n      dup3\n        /* \"#utility.yul\":5065:5077   */\n      dup3\n        /* \"#utility.yul\":5011:5084   */\n      tag_193\n      jump\t// in\n    tag_288:\n        /* \"#utility.yul\":5003:5084   */\n      swap2\n      pop\n        /* \"#utility.yul\":4860:5095   */\n      pop\n        /* \"#utility.yul\":5179:5183   */\n      0x40\n        /* \"#utility.yul\":5172:5177   */\n      dup4\n        /* \"#utility.yul\":5168:5184   */\n      add\n        /* \"#utility.yul\":5162:5185   */\n      mload\n        /* \"#utility.yul\":5198:5261   */\n      tag_289\n        /* \"#utility.yul\":5255:5259   */\n      0x40\n        /* \"#utility.yul\":5250:5253   */\n      dup7\n        /* \"#utility.yul\":5246:5260   */\n      add\n        /* \"#utility.yul\":5232:5244   */\n      dup3\n        /* \"#utility.yul\":5198:5261   */\n      tag_195\n      jump\t// in\n    tag_289:\n        /* \"#utility.yul\":5105:5271   */\n      pop\n        /* \"#utility.yul\":5356:5360   */\n      0x60\n        /* \"#utility.yul\":5349:5354   */\n      dup4\n        /* \"#utility.yul\":5345:5361   */\n      add\n        /* \"#utility.yul\":5339:5362   */\n      mload\n        /* \"#utility.yul\":5375:5438   */\n      tag_290\n        /* \"#utility.yul\":5432:5436   */\n      0x60\n        /* \"#utility.yul\":5427:5430   */\n      dup7\n        /* \"#utility.yul\":5423:5437   */\n      add\n        /* \"#utility.yul\":5409:5421   */\n      dup3\n        /* \"#utility.yul\":5375:5438   */\n      tag_195\n      jump\t// in\n    tag_290:\n        /* \"#utility.yul\":5281:5448   */\n      pop\n        /* \"#utility.yul\":5535:5539   */\n      0x80\n        /* \"#utility.yul\":5528:5533   */\n      dup4\n        /* \"#utility.yul\":5524:5540   */\n      add\n        /* \"#utility.yul\":5518:5541   */\n      mload\n        /* \"#utility.yul\":5588:5591   */\n      dup5\n        /* \"#utility.yul\":5582:5586   */\n      dup3\n        /* \"#utility.yul\":5578:5592   */\n      sub\n        /* \"#utility.yul\":5571:5575   */\n      0x80\n        /* \"#utility.yul\":5566:5569   */\n      dup7\n        /* \"#utility.yul\":5562:5576   */\n      add\n        /* \"#utility.yul\":5555:5593   */\n      mstore\n        /* \"#utility.yul\":5614:5687   */\n      tag_291\n        /* \"#utility.yul\":5682:5686   */\n      dup3\n        /* \"#utility.yul\":5668:5680   */\n      dup3\n        /* \"#utility.yul\":5614:5687   */\n      tag_193\n      jump\t// in\n    tag_291:\n        /* \"#utility.yul\":5606:5687   */\n      swap2\n      pop\n        /* \"#utility.yul\":5458:5698   */\n      pop\n        /* \"#utility.yul\":5786:5790   */\n      0xa0\n        /* \"#utility.yul\":5779:5784   */\n      dup4\n        /* \"#utility.yul\":5775:5791   */\n      add\n        /* \"#utility.yul\":5769:5792   */\n      mload\n        /* \"#utility.yul\":5839:5842   */\n      dup5\n        /* \"#utility.yul\":5833:5837   */\n      dup3\n        /* \"#utility.yul\":5829:5843   */\n      sub\n        /* \"#utility.yul\":5822:5826   */\n      0xa0\n        /* \"#utility.yul\":5817:5820   */\n      dup7\n        /* \"#utility.yul\":5813:5827   */\n      add\n        /* \"#utility.yul\":5806:5844   */\n      mstore\n        /* \"#utility.yul\":5865:5938   */\n      tag_292\n        /* \"#utility.yul\":5933:5937   */\n      dup3\n        /* \"#utility.yul\":5919:5931   */\n      dup3\n        /* \"#utility.yul\":5865:5938   */\n      tag_193\n      jump\t// in\n    tag_292:\n        /* \"#utility.yul\":5857:5938   */\n      swap2\n      pop\n        /* \"#utility.yul\":5708:5949   */\n      pop\n        /* \"#utility.yul\":6037:6041   */\n      0xc0\n        /* \"#utility.yul\":6030:6035   */\n      dup4\n        /* \"#utility.yul\":6026:6042   */\n      add\n        /* \"#utility.yul\":6020:6043   */\n      mload\n        /* \"#utility.yul\":6090:6093   */\n      dup5\n        /* \"#utility.yul\":6084:6088   */\n      dup3\n        /* \"#utility.yul\":6080:6094   */\n      sub\n        /* \"#utility.yul\":6073:6077   */\n      0xc0\n        /* \"#utility.yul\":6068:6071   */\n      dup7\n        /* \"#utility.yul\":6064:6078   */\n      add\n        /* \"#utility.yul\":6057:6095   */\n      mstore\n        /* \"#utility.yul\":6116:6189   */\n      tag_293\n        /* \"#utility.yul\":6184:6188   */\n      dup3\n        /* \"#utility.yul\":6170:6182   */\n      dup3\n        /* \"#utility.yul\":6116:6189   */\n      tag_193\n      jump\t// in\n    tag_293:\n        /* \"#utility.yul\":6108:6189   */\n      swap2\n      pop\n        /* \"#utility.yul\":5959:6200   */\n      pop\n        /* \"#utility.yul\":6286:6290   */\n      0xe0\n        /* \"#utility.yul\":6279:6284   */\n      dup4\n        /* \"#utility.yul\":6275:6291   */\n      add\n        /* \"#utility.yul\":6269:6292   */\n      mload\n        /* \"#utility.yul\":6339:6342   */\n      dup5\n        /* \"#utility.yul\":6333:6337   */\n      dup3\n        /* \"#utility.yul\":6329:6343   */\n      sub\n        /* \"#utility.yul\":6322:6326   */\n      0xe0\n        /* \"#utility.yul\":6317:6320   */\n      dup7\n        /* \"#utility.yul\":6313:6327   */\n      add\n        /* \"#utility.yul\":6306:6344   */\n      mstore\n        /* \"#utility.yul\":6365:6438   */\n      tag_294\n        /* \"#utility.yul\":6433:6437   */\n      dup3\n        /* \"#utility.yul\":6419:6431   */\n      dup3\n        /* \"#utility.yul\":6365:6438   */\n      tag_193\n      jump\t// in\n    tag_294:\n        /* \"#utility.yul\":6357:6438   */\n      swap2\n      pop\n        /* \"#utility.yul\":6210:6449   */\n      pop\n        /* \"#utility.yul\":6532:6538   */\n      0x0100\n        /* \"#utility.yul\":6525:6530   */\n      dup4\n        /* \"#utility.yul\":6521:6539   */\n      add\n        /* \"#utility.yul\":6515:6540   */\n      mload\n        /* \"#utility.yul\":6553:6618   */\n      tag_295\n        /* \"#utility.yul\":6610:6616   */\n      0x0100\n        /* \"#utility.yul\":6605:6608   */\n      dup7\n        /* \"#utility.yul\":6601:6617   */\n      add\n        /* \"#utility.yul\":6587:6599   */\n      dup3\n        /* \"#utility.yul\":6553:6618   */\n      tag_198\n      jump\t// in\n    tag_295:\n        /* \"#utility.yul\":6459:6628   */\n      pop\n        /* \"#utility.yul\":6645:6649   */\n      dup1\n        /* \"#utility.yul\":6638:6649   */\n      swap2\n      pop\n        /* \"#utility.yul\":4567:6655   */\n      pop\n        /* \"#utility.yul\":4453:6655   */\n      swap3\n      swap2\n      pop\n      pop\n      jump\t// out\n        /* \"#utility.yul\":6661:7014   */\n    tag_16:\n        /* \"#utility.yul\":6794:6798   */\n      0x00\n        /* \"#utility.yul\":6832:6834   */\n      0x20\n        /* \"#utility.yul\":6821:6830   */\n      dup3\n        /* \"#utility.yul\":6817:6835   */\n      add\n        /* \"#utility.yul\":6809:6835   */\n      swap1\n      pop\n        /* \"#utility.yul\":6881:6890   */\n      dup2\n        /* \"#utility.yul\":6875:6879   */\n      dup2\n        /* \"#utility.yul\":6871:6891   */\n      sub\n        /* \"#utility.yul\":6867:6868   */\n      0x00\n        /* \"#utility.yul\":6856:6865   */\n      dup4\n        /* \"#utility.yul\":6852:6869   */\n      add\n        /* \"#utility.yul\":6845:6892   */\n      mstore\n        /* \"#utility.yul\":6909:7007   */\n      tag_297\n        /* \"#utility.yul\":7002:7006   */\n      dup2\n        /* \"#utility.yul\":6993:6999   */\n      dup5\n        /* \"#utility.yul\":6909:7007   */\n      tag_199\n      jump\t// in\n    tag_297:\n        /* \"#utility.yul\":6901:7007   */\n      swap1\n      pop\n        /* \"#utility.yul\":6661:7014   */\n      swap3\n      swap2\n      pop\n      pop\n      jump\t// out\n        /* \"#utility.yul\":7020:7142   */\n    tag_200:\n        /* \"#utility.yul\":7093:7117   */\n      tag_299\n        /* \"#utility.yul\":7111:7116   */\n      dup2\n        /* \"#utility.yul\":7093:7117   */\n      tag_197\n      jump\t// in\n    tag_299:\n        /* \"#utility.yul\":7086:7091   */\n      dup2\n        /* \"#utility.yul\":7083:7118   */\n      eq\n        /* \"#utility.yul\":7073:7136   */\n      tag_300\n      jumpi\n        /* \"#utility.yul\":7132:7133   */\n      0x00\n        /* \"#utility.yul\":7129:7130   */\n      dup1\n        /* \"#utility.yul\":7122:7134   */\n      revert\n        /* \"#utility.yul\":7073:7136   */\n    tag_300:\n        /* \"#utility.yul\":7020:7142   */\n      pop\n      jump\t// out\n        /* \"#utility.yul\":7148:7287   */\n    tag_201:\n        /* \"#utility.yul\":7194:7199   */\n      0x00\n        /* \"#utility.yul\":7232:7238   */\n      dup2\n        /* \"#utility.yul\":7219:7239   */\n      calldataload\n        /* \"#utility.yul\":7210:7239   */\n      swap1\n      pop\n        /* \"#utility.yul\":7248:7281   */\n      tag_302\n        /* \"#utility.yul\":7275:7280   */\n      dup2\n        /* \"#utility.yul\":7248:7281   */\n      tag_200\n      jump\t// in\n    tag_302:\n        /* \"#utility.yul\":7148:7287   */\n      swap3\n      swap2\n      pop\n      pop\n      jump\t// out\n        /* \"#utility.yul\":7293:7622   */\n    tag_19:\n        /* \"#utility.yul\":7352:7358   */\n      0x00\n        /* \"#utility.yul\":7401:7403   */\n      0x20\n        /* \"#utility.yul\":7389:7398   */\n      dup3\n        /* \"#utility.yul\":7380:7387   */\n      dup5\n        /* \"#utility.yul\":7376:7399   */\n      sub\n        /* \"#utility.yul\":7372:7404   */\n      slt\n        /* \"#utility.yul\":7369:7488   */\n      iszero\n      tag_304\n      jumpi\n        /* \"#utility.yul\":7407:7486   */\n      tag_305\n      tag_178\n      jump\t// in\n    tag_305:\n        /* \"#utility.yul\":7369:7488   */\n    tag_304:\n        /* \"#utility.yul\":7527:7528   */\n      0x00\n        /* \"#utility.yul\":7552:7605   */\n      tag_306\n        /* \"#utility.yul\":7597:7604   */\n      dup5\n        /* \"#utility.yul\":7588:7594   */\n      dup3\n        /* \"#utility.yul\":7577:7586   */\n      dup6\n        /* \"#utility.yul\":7573:7595   */\n      add\n        /* \"#utility.yul\":7552:7605   */\n      tag_201\n      jump\t// in\n    tag_306:\n        /* \"#utility.yul\":7542:7605   */\n      swap2\n      pop\n        /* \"#utility.yul\":7498:7615   */\n      pop\n        /* \"#utility.yul\":7293:7622   */\n      swap3\n      swap2\n      pop\n      pop\n      jump\t// out\n        /* \"#utility.yul\":7628:7797   */\n    tag_202:\n        /* \"#utility.yul\":7712:7723   */\n      0x00\n        /* \"#utility.yul\":7746:7752   */\n      dup3\n        /* \"#utility.yul\":7741:7744   */\n      dup3\n        /* \"#utility.yul\":7734:7753   */\n      mstore\n        /* \"#utility.yul\":7786:7790   */\n      0x20\n        /* \"#utility.yul\":7781:7784   */\n      dup3\n        /* \"#utility.yul\":7777:7791   */\n      add\n        /* \"#utility.yul\":7762:7791   */\n      swap1\n      pop\n        /* \"#utility.yul\":7628:7797   */\n      swap3\n      swap2\n      pop\n      pop\n      jump\t// out\n        /* \"#utility.yul\":7803:8180   */\n    tag_203:\n        /* \"#utility.yul\":7891:7894   */\n      0x00\n        /* \"#utility.yul\":7919:7958   */\n      tag_309\n        /* \"#utility.yul\":7952:7957   */\n      dup3\n        /* \"#utility.yul\":7919:7958   */\n      tag_190\n      jump\t// in\n    tag_309:\n        /* \"#utility.yul\":7974:8045   */\n      tag_310\n        /* \"#utility.yul\":8038:8044   */\n      dup2\n        /* \"#utility.yul\":8033:8036   */\n      dup6\n        /* \"#utility.yul\":7974:8045   */\n      tag_202\n      jump\t// in\n    tag_310:\n        /* \"#utility.yul\":7967:8045   */\n      swap4\n      pop\n        /* \"#utility.yul\":8054:8119   */\n      tag_311\n        /* \"#utility.yul\":8112:8118   */\n      dup2\n        /* \"#utility.yul\":8107:8110   */\n      dup6\n        /* \"#utility.yul\":8100:8104   */\n      0x20\n        /* \"#utility.yul\":8093:8098   */\n      dup7\n        /* \"#utility.yul\":8089:8105   */\n      add\n        /* \"#utility.yul\":8054:8119   */\n      tag_192\n      jump\t// in\n    tag_311:\n        /* \"#utility.yul\":8144:8173   */\n      tag_312\n        /* \"#utility.yul\":8166:8172   */\n      dup2\n        /* \"#utility.yul\":8144:8173   */\n      tag_182\n      jump\t// in\n    tag_312:\n        /* \"#utility.yul\":8139:8142   */\n      dup5\n        /* \"#utility.yul\":8135:8174   */\n      add\n        /* \"#utility.yul\":8128:8174   */\n      swap2\n      pop\n        /* \"#utility.yul\":7895:8180   */\n      pop\n        /* \"#utility.yul\":7803:8180   */\n      swap3\n      swap2\n      pop\n      pop\n      jump\t// out\n        /* \"#utility.yul\":8186:9305   */\n    tag_22:\n        /* \"#utility.yul\":8491:8495   */\n      0x00\n        /* \"#utility.yul\":8529:8532   */\n      0xa0\n        /* \"#utility.yul\":8518:8527   */\n      dup3\n        /* \"#utility.yul\":8514:8533   */\n      add\n        /* \"#utility.yul\":8506:8533   */\n      swap1\n      pop\n        /* \"#utility.yul\":8579:8588   */\n      dup2\n        /* \"#utility.yul\":8573:8577   */\n      dup2\n        /* \"#utility.yul\":8569:8589   */\n      sub\n        /* \"#utility.yul\":8565:8566   */\n      0x00\n        /* \"#utility.yul\":8554:8563   */\n      dup4\n        /* \"#utility.yul\":8550:8567   */\n      add\n        /* \"#utility.yul\":8543:8590   */\n      mstore\n        /* \"#utility.yul\":8607:8685   */\n      tag_314\n        /* \"#utility.yul\":8680:8684   */\n      dup2\n        /* \"#utility.yul\":8671:8677   */\n      dup9\n        /* \"#utility.yul\":8607:8685   */\n      tag_203\n      jump\t// in\n    tag_314:\n        /* \"#utility.yul\":8599:8685   */\n      swap1\n      pop\n        /* \"#utility.yul\":8732:8741   */\n      dup2\n        /* \"#utility.yul\":8726:8730   */\n      dup2\n        /* \"#utility.yul\":8722:8742   */\n      sub\n        /* \"#utility.yul\":8717:8719   */\n      0x20\n        /* \"#utility.yul\":8706:8715   */\n      dup4\n        /* \"#utility.yul\":8702:8720   */\n      add\n        /* \"#utility.yul\":8695:8743   */\n      mstore\n        /* \"#utility.yul\":8760:8838   */\n      tag_315\n        /* \"#utility.yul\":8833:8837   */\n      dup2\n        /* \"#utility.yul\":8824:8830   */\n      dup8\n        /* \"#utility.yul\":8760:8838   */\n      tag_203\n      jump\t// in\n    tag_315:\n        /* \"#utility.yul\":8752:8838   */\n      swap1\n      pop\n        /* \"#utility.yul\":8885:8894   */\n      dup2\n        /* \"#utility.yul\":8879:8883   */\n      dup2\n        /* \"#utility.yul\":8875:8895   */\n      sub\n        /* \"#utility.yul\":8870:8872   */\n      0x40\n        /* \"#utility.yul\":8859:8868   */\n      dup4\n        /* \"#utility.yul\":8855:8873   */\n      add\n        /* \"#utility.yul\":8848:8896   */\n      mstore\n        /* \"#utility.yul\":8913:8991   */\n      tag_316\n        /* \"#utility.yul\":8986:8990   */\n      dup2\n        /* \"#utility.yul\":8977:8983   */\n      dup7\n        /* \"#utility.yul\":8913:8991   */\n      tag_203\n      jump\t// in\n    tag_316:\n        /* \"#utility.yul\":8905:8991   */\n      swap1\n      pop\n        /* \"#utility.yul\":9038:9047   */\n      dup2\n        /* \"#utility.yul\":9032:9036   */\n      dup2\n        /* \"#utility.yul\":9028:9048   */\n      sub\n        /* \"#utility.yul\":9023:9025   */\n      0x60\n        /* \"#utility.yul\":9012:9021   */\n      dup4\n        /* \"#utility.yul\":9008:9026   */\n      add\n        /* \"#utility.yul\":9001:9049   */\n      mstore\n        /* \"#utility.yul\":9066:9144   */\n      tag_317\n        /* \"#utility.yul\":9139:9143   */\n      dup2\n        /* \"#utility.yul\":9130:9136   */\n      dup6\n        /* \"#utility.yul\":9066:9144   */\n      tag_203\n      jump\t// in\n    tag_317:\n        /* \"#utility.yul\":9058:9144   */\n      swap1\n      pop\n        /* \"#utility.yul\":9192:9201   */\n      dup2\n        /* \"#utility.yul\":9186:9190   */\n      dup2\n        /* \"#utility.yul\":9182:9202   */\n      sub\n        /* \"#utility.yul\":9176:9179   */\n      0x80\n        /* \"#utility.yul\":9165:9174   */\n      dup4\n        /* \"#utility.yul\":9161:9180   */\n      add\n        /* \"#utility.yul\":9154:9203   */\n      mstore\n        /* \"#utility.yul\":9220:9298   */\n      tag_318\n        /* \"#utility.yul\":9293:9297   */\n      dup2\n        /* \"#utility.yul\":9284:9290   */\n      dup5\n        /* \"#utility.yul\":9220:9298   */\n      tag_203\n      jump\t// in\n    tag_318:\n        /* \"#utility.yul\":9212:9298   */\n      swap1\n      pop\n        /* \"#utility.yul\":8186:9305   */\n      swap7\n      swap6\n      pop\n      pop\n      pop\n      pop\n      pop\n      pop\n      jump\t// out\n        /* \"#utility.yul\":9311:11122   */\n    tag_25:\n        /* \"#utility.yul\":9456:9462   */\n      0x00\n        /* \"#utility.yul\":9464:9470   */\n      dup1\n        /* \"#utility.yul\":9472:9478   */\n      0x00\n        /* \"#utility.yul\":9480:9486   */\n      dup1\n        /* \"#utility.yul\":9488:9494   */\n      0x00\n        /* \"#utility.yul\":9537:9540   */\n      0xa0\n        /* \"#utility.yul\":9525:9534   */\n      dup7\n        /* \"#utility.yul\":9516:9523   */\n      dup9\n        /* \"#utility.yul\":9512:9535   */\n      sub\n        /* \"#utility.yul\":9508:9541   */\n      slt\n        /* \"#utility.yul\":9505:9625   */\n      iszero\n      tag_320\n      jumpi\n        /* \"#utility.yul\":9544:9623   */\n      tag_321\n      tag_178\n      jump\t// in\n    tag_321:\n        /* \"#utility.yul\":9505:9625   */\n    tag_320:\n        /* \"#utility.yul\":9692:9693   */\n      0x00\n        /* \"#utility.yul\":9681:9690   */\n      dup7\n        /* \"#utility.yul\":9677:9694   */\n      add\n        /* \"#utility.yul\":9664:9695   */\n      calldataload\n        /* \"#utility.yul\":9722:9740   */\n      0xffffffffffffffff\n        /* \"#utility.yul\":9714:9720   */\n      dup2\n        /* \"#utility.yul\":9711:9741   */\n      gt\n        /* \"#utility.yul\":9708:9825   */\n      iszero\n      tag_322\n      jumpi\n        /* \"#utility.yul\":9744:9823   */\n      tag_323\n      tag_179\n      jump\t// in\n    tag_323:\n        /* \"#utility.yul\":9708:9825   */\n    tag_322:\n        /* \"#utility.yul\":9849:9912   */\n      tag_324\n        /* \"#utility.yul\":9904:9911   */\n      dup9\n        /* \"#utility.yul\":9895:9901   */\n      dup3\n        /* \"#utility.yul\":9884:9893   */\n      dup10\n        /* \"#utility.yul\":9880:9902   */\n      add\n        /* \"#utility.yul\":9849:9912   */\n      tag_189\n      jump\t// in\n    tag_324:\n        /* \"#utility.yul\":9839:9912   */\n      swap6\n      pop\n        /* \"#utility.yul\":9635:9922   */\n      pop\n        /* \"#utility.yul\":9989:9991   */\n      0x20\n        /* \"#utility.yul\":9978:9987   */\n      dup7\n        /* \"#utility.yul\":9974:9992   */\n      add\n        /* \"#utility.yul\":9961:9993   */\n      calldataload\n        /* \"#utility.yul\":10020:10038   */\n      0xffffffffffffffff\n        /* \"#utility.yul\":10012:10018   */\n      dup2\n        /* \"#utility.yul\":10009:10039   */\n      gt\n        /* \"#utility.yul\":10006:10123   */\n      iszero\n      tag_325\n      jumpi\n        /* \"#utility.yul\":10042:10121   */\n      tag_326\n      tag_179\n      jump\t// in\n    tag_326:\n        /* \"#utility.yul\":10006:10123   */\n    tag_325:\n        /* \"#utility.yul\":10147:10210   */\n      tag_327\n        /* \"#utility.yul\":10202:10209   */\n      dup9\n        /* \"#utility.yul\":10193:10199   */\n      dup3\n        /* \"#utility.yul\":10182:10191   */\n      dup10\n        /* \"#utility.yul\":10178:10200   */\n      add\n        /* \"#utility.yul\":10147:10210   */\n      tag_189\n      jump\t// in\n    tag_327:\n        /* \"#utility.yul\":10137:10210   */\n      swap5\n      pop\n        /* \"#utility.yul\":9932:10220   */\n      pop\n        /* \"#utility.yul\":10287:10289   */\n      0x40\n        /* \"#utility.yul\":10276:10285   */\n      dup7\n        /* \"#utility.yul\":10272:10290   */\n      add\n        /* \"#utility.yul\":10259:10291   */\n      calldataload\n        /* \"#utility.yul\":10318:10336   */\n      0xffffffffffffffff\n        /* \"#utility.yul\":10310:10316   */\n      dup2\n        /* \"#utility.yul\":10307:10337   */\n      gt\n        /* \"#utility.yul\":10304:10421   */\n      iszero\n      tag_328\n      jumpi\n        /* \"#utility.yul\":10340:10419   */\n      tag_329\n      tag_179\n      jump\t// in\n    tag_329:\n        /* \"#utility.yul\":10304:10421   */\n    tag_328:\n        /* \"#utility.yul\":10445:10508   */\n      tag_330\n        /* \"#utility.yul\":10500:10507   */\n      dup9\n        /* \"#utility.yul\":10491:10497   */\n      dup3\n        /* \"#utility.yul\":10480:10489   */\n      dup10\n        /* \"#utility.yul\":10476:10498   */\n      add\n        /* \"#utility.yul\":10445:10508   */\n      tag_189\n      jump\t// in\n    tag_330:\n        /* \"#utility.yul\":10435:10508   */\n      swap4\n      pop\n        /* \"#utility.yul\":10230:10518   */\n      pop\n        /* \"#utility.yul\":10585:10587   */\n      0x60\n        /* \"#utility.yul\":10574:10583   */\n      dup7\n        /* \"#utility.yul\":10570:10588   */\n      add\n        /* \"#utility.yul\":10557:10589   */\n      calldataload\n        /* \"#utility.yul\":10616:10634   */\n      0xffffffffffffffff\n        /* \"#utility.yul\":10608:10614   */\n      dup2\n        /* \"#utility.yul\":10605:10635   */\n      gt\n        /* \"#utility.yul\":10602:10719   */\n      iszero\n      tag_331\n      jumpi\n        /* \"#utility.yul\":10638:10717   */\n      tag_332\n      tag_179\n      jump\t// in\n    tag_332:\n        /* \"#utility.yul\":10602:10719   */\n    tag_331:\n        /* \"#utility.yul\":10743:10806   */\n      tag_333\n        /* \"#utility.yul\":10798:10805   */\n      dup9\n        /* \"#utility.yul\":10789:10795   */\n      dup3\n        /* \"#utility.yul\":10778:10787   */\n      dup10\n        /* \"#utility.yul\":10774:10796   */\n      add\n        /* \"#utility.yul\":10743:10806   */\n      tag_189\n      jump\t// in\n    tag_333:\n        /* \"#utility.yul\":10733:10806   */\n      swap3\n      pop\n        /* \"#utility.yul\":10528:10816   */\n      pop\n        /* \"#utility.yul\":10883:10886   */\n      0x80\n        /* \"#utility.yul\":10872:10881   */\n      dup7\n        /* \"#utility.yul\":10868:10887   */\n      add\n        /* \"#utility.yul\":10855:10888   */\n      calldataload\n        /* \"#utility.yul\":10915:10933   */\n      0xffffffffffffffff\n        /* \"#utility.yul\":10907:10913   */\n      dup2\n        /* \"#utility.yul\":10904:10934   */\n      gt\n        /* \"#utility.yul\":10901:11018   */\n      iszero\n      tag_334\n      jumpi\n        /* \"#utility.yul\":10937:11016   */\n      tag_335\n      tag_179\n      jump\t// in\n    tag_335:\n        /* \"#utility.yul\":10901:11018   */\n    tag_334:\n        /* \"#utility.yul\":11042:11105   */\n      tag_336\n        /* \"#utility.yul\":11097:11104   */\n      dup9\n        /* \"#utility.yul\":11088:11094   */\n      dup3\n        /* \"#utility.yul\":11077:11086   */\n      dup10\n        /* \"#utility.yul\":11073:11095   */\n      add\n        /* \"#utility.yul\":11042:11105   */\n      tag_189\n      jump\t// in\n    tag_336:\n        /* \"#utility.yul\":11032:11105   */\n      swap2\n      pop\n        /* \"#utility.yul\":10826:11115   */\n      pop\n        /* \"#utility.yul\":9311:11122   */\n      swap3\n      swap6\n      pop\n      swap3\n      swap6\n      swap1\n      swap4\n      pop\n      jump\t// out\n        /* \"#utility.yul\":11128:11250   */\n    tag_204:\n        /* \"#utility.yul\":11201:11225   */\n      tag_338\n        /* \"#utility.yul\":11219:11224   */\n      dup2\n        /* \"#utility.yul\":11201:11225   */\n      tag_194\n      jump\t// in\n    tag_338:\n        /* \"#utility.yul\":11194:11199   */\n      dup2\n        /* \"#utility.yul\":11191:11226   */\n      eq\n        /* \"#utility.yul\":11181:11244   */\n      tag_339\n      jumpi\n        /* \"#utility.yul\":11240:11241   */\n      0x00\n        /* \"#utility.yul\":11237:11238   */\n      dup1\n        /* \"#utility.yul\":11230:11242   */\n      revert\n        /* \"#utility.yul\":11181:11244   */\n    tag_339:\n        /* \"#utility.yul\":11128:11250   */\n      pop\n      jump\t// out\n        /* \"#utility.yul\":11256:11395   */\n    tag_205:\n        /* \"#utility.yul\":11302:11307   */\n      0x00\n        /* \"#utility.yul\":11340:11346   */\n      dup2\n        /* \"#utility.yul\":11327:11347   */\n      calldataload\n        /* \"#utility.yul\":11318:11347   */\n      swap1\n      pop\n        /* \"#utility.yul\":11356:11389   */\n      tag_341\n        /* \"#utility.yul\":11383:11388   */\n      dup2\n        /* \"#utility.yul\":11356:11389   */\n      tag_204\n      jump\t// in\n    tag_341:\n        /* \"#utility.yul\":11256:11395   */\n      swap3\n      swap2\n      pop\n      pop\n      jump\t// out\n        /* \"#utility.yul\":11401:11730   */\n    tag_29:\n        /* \"#utility.yul\":11460:11466   */\n      0x00\n        /* \"#utility.yul\":11509:11511   */\n      0x20\n        /* \"#utility.yul\":11497:11506   */\n      dup3\n        /* \"#utility.yul\":11488:11495   */\n      dup5\n        /* \"#utility.yul\":11484:11507   */\n      sub\n        /* \"#utility.yul\":11480:11512   */\n      slt\n        /* \"#utility.yul\":11477:11596   */\n      iszero\n      tag_343\n      jumpi\n        /* \"#utility.yul\":11515:11594   */\n      tag_344\n      tag_178\n      jump\t// in\n    tag_344:\n        /* \"#utility.yul\":11477:11596   */\n    tag_343:\n        /* \"#utility.yul\":11635:11636   */\n      0x00\n        /* \"#utility.yul\":11660:11713   */\n      tag_345\n        /* \"#utility.yul\":11705:11712   */\n      dup5\n        /* \"#utility.yul\":11696:11702   */\n      dup3\n        /* \"#utility.yul\":11685:11694   */\n      dup6\n        /* \"#utility.yul\":11681:11703   */\n      add\n        /* \"#utility.yul\":11660:11713   */\n      tag_205\n      jump\t// in\n    tag_345:\n        /* \"#utility.yul\":11650:11713   */\n      swap2\n      pop\n        /* \"#utility.yul\":11606:11723   */\n      pop\n        /* \"#utility.yul\":11401:11730   */\n      swap3\n      swap2\n      pop\n      pop\n      jump\t// out\n        /* \"#utility.yul\":11736:12049   */\n    tag_32:\n        /* \"#utility.yul\":11849:11853   */\n      0x00\n        /* \"#utility.yul\":11887:11889   */\n      0x20\n        /* \"#utility.yul\":11876:11885   */\n      dup3\n        /* \"#utility.yul\":11872:11890   */\n      add\n        /* \"#utility.yul\":11864:11890   */\n      swap1\n      pop\n        /* \"#utility.yul\":11936:11945   */\n      dup2\n        /* \"#utility.yul\":11930:11934   */\n      dup2\n        /* \"#utility.yul\":11926:11946   */\n      sub\n        /* \"#utility.yul\":11922:11923   */\n      0x00\n        /* \"#utility.yul\":11911:11920   */\n      dup4\n        /* \"#utility.yul\":11907:11924   */\n      add\n        /* \"#utility.yul\":11900:11947   */\n      mstore\n        /* \"#utility.yul\":11964:12042   */\n      tag_347\n        /* \"#utility.yul\":12037:12041   */\n      dup2\n        /* \"#utility.yul\":12028:12034   */\n      dup5\n        /* \"#utility.yul\":11964:12042   */\n      tag_203\n      jump\t// in\n    tag_347:\n        /* \"#utility.yul\":11956:12042   */\n      swap1\n      pop\n        /* \"#utility.yul\":11736:12049   */\n      swap3\n      swap2\n      pop\n      pop\n      jump\t// out\n        /* \"#utility.yul\":12055:12173   */\n    tag_206:\n        /* \"#utility.yul\":12142:12166   */\n      tag_349\n        /* \"#utility.yul\":12160:12165   */\n      dup2\n        /* \"#utility.yul\":12142:12166   */\n      tag_194\n      jump\t// in\n    tag_349:\n        /* \"#utility.yul\":12137:12140   */\n      dup3\n        /* \"#utility.yul\":12130:12167   */\n      mstore\n        /* \"#utility.yul\":12055:12173   */\n      pop\n      pop\n      jump\t// out\n        /* \"#utility.yul\":12179:12297   */\n    tag_207:\n        /* \"#utility.yul\":12266:12290   */\n      tag_351\n        /* \"#utility.yul\":12284:12289   */\n      dup2\n        /* \"#utility.yul\":12266:12290   */\n      tag_197\n      jump\t// in\n    tag_351:\n        /* \"#utility.yul\":12261:12264   */\n      dup3\n        /* \"#utility.yul\":12254:12291   */\n      mstore\n        /* \"#utility.yul\":12179:12297   */\n      pop\n      pop\n      jump\t// out\n        /* \"#utility.yul\":12303:13957   */\n    tag_37:\n        /* \"#utility.yul\":12740:12744   */\n      0x00\n        /* \"#utility.yul\":12778:12781   */\n      0x0120\n        /* \"#utility.yul\":12767:12776   */\n      dup3\n        /* \"#utility.yul\":12763:12782   */\n      add\n        /* \"#utility.yul\":12755:12782   */\n      swap1\n      pop\n        /* \"#utility.yul\":12828:12837   */\n      dup2\n        /* \"#utility.yul\":12822:12826   */\n      dup2\n        /* \"#utility.yul\":12818:12838   */\n      sub\n        /* \"#utility.yul\":12814:12815   */\n      0x00\n        /* \"#utility.yul\":12803:12812   */\n      dup4\n        /* \"#utility.yul\":12799:12816   */\n      add\n        /* \"#utility.yul\":12792:12839   */\n      mstore\n        /* \"#utility.yul\":12856:12934   */\n      tag_353\n        /* \"#utility.yul\":12929:12933   */\n      dup2\n        /* \"#utility.yul\":12920:12926   */\n      dup13\n        /* \"#utility.yul\":12856:12934   */\n      tag_203\n      jump\t// in\n    tag_353:\n        /* \"#utility.yul\":12848:12934   */\n      swap1\n      pop\n        /* \"#utility.yul\":12981:12990   */\n      dup2\n        /* \"#utility.yul\":12975:12979   */\n      dup2\n        /* \"#utility.yul\":12971:12991   */\n      sub\n        /* \"#utility.yul\":12966:12968   */\n      0x20\n        /* \"#utility.yul\":12955:12964   */\n      dup4\n        /* \"#utility.yul\":12951:12969   */\n      add\n        /* \"#utility.yul\":12944:12992   */\n      mstore\n        /* \"#utility.yul\":13009:13087   */\n      tag_354\n        /* \"#utility.yul\":13082:13086   */\n      dup2\n        /* \"#utility.yul\":13073:13079   */\n      dup12\n        /* \"#utility.yul\":13009:13087   */\n      tag_203\n      jump\t// in\n    tag_354:\n        /* \"#utility.yul\":13001:13087   */\n      swap1\n      pop\n        /* \"#utility.yul\":13097:13169   */\n      tag_355\n        /* \"#utility.yul\":13165:13167   */\n      0x40\n        /* \"#utility.yul\":13154:13163   */\n      dup4\n        /* \"#utility.yul\":13150:13168   */\n      add\n        /* \"#utility.yul\":13141:13147   */\n      dup11\n        /* \"#utility.yul\":13097:13169   */\n      tag_206\n      jump\t// in\n    tag_355:\n        /* \"#utility.yul\":13179:13251   */\n      tag_356\n        /* \"#utility.yul\":13247:13249   */\n      0x60\n        /* \"#utility.yul\":13236:13245   */\n      dup4\n        /* \"#utility.yul\":13232:13250   */\n      add\n        /* \"#utility.yul\":13223:13229   */\n      dup10\n        /* \"#utility.yul\":13179:13251   */\n      tag_206\n      jump\t// in\n    tag_356:\n        /* \"#utility.yul\":13299:13308   */\n      dup2\n        /* \"#utility.yul\":13293:13297   */\n      dup2\n        /* \"#utility.yul\":13289:13309   */\n      sub\n        /* \"#utility.yul\":13283:13286   */\n      0x80\n        /* \"#utility.yul\":13272:13281   */\n      dup4\n        /* \"#utility.yul\":13268:13287   */\n      add\n        /* \"#utility.yul\":13261:13310   */\n      mstore\n        /* \"#utility.yul\":13327:13405   */\n      tag_357\n        /* \"#utility.yul\":13400:13404   */\n      dup2\n        /* \"#utility.yul\":13391:13397   */\n      dup9\n        /* \"#utility.yul\":13327:13405   */\n      tag_203\n      jump\t// in\n    tag_357:\n        /* \"#utility.yul\":13319:13405   */\n      swap1\n      pop\n        /* \"#utility.yul\":13453:13462   */\n      dup2\n        /* \"#utility.yul\":13447:13451   */\n      dup2\n        /* \"#utility.yul\":13443:13463   */\n      sub\n        /* \"#utility.yul\":13437:13440   */\n      0xa0\n        /* \"#utility.yul\":13426:13435   */\n      dup4\n        /* \"#utility.yul\":13422:13441   */\n      add\n        /* \"#utility.yul\":13415:13464   */\n      mstore\n        /* \"#utility.yul\":13481:13559   */\n      tag_358\n        /* \"#utility.yul\":13554:13558   */\n      dup2\n        /* \"#utility.yul\":13545:13551   */\n      dup8\n        /* \"#utility.yul\":13481:13559   */\n      tag_203\n      jump\t// in\n    tag_358:\n        /* \"#utility.yul\":13473:13559   */\n      swap1\n      pop\n        /* \"#utility.yul\":13607:13616   */\n      dup2\n        /* \"#utility.yul\":13601:13605   */\n      dup2\n        /* \"#utility.yul\":13597:13617   */\n      sub\n        /* \"#utility.yul\":13591:13594   */\n      0xc0\n        /* \"#utility.yul\":13580:13589   */\n      dup4\n        /* \"#utility.yul\":13576:13595   */\n      add\n        /* \"#utility.yul\":13569:13618   */\n      mstore\n        /* \"#utility.yul\":13635:13713   */\n      tag_359\n        /* \"#utility.yul\":13708:13712   */\n      dup2\n        /* \"#utility.yul\":13699:13705   */\n      dup7\n        /* \"#utility.yul\":13635:13713   */\n      tag_203\n      jump\t// in\n    tag_359:\n        /* \"#utility.yul\":13627:13713   */\n      swap1\n      pop\n        /* \"#utility.yul\":13761:13770   */\n      dup2\n        /* \"#utility.yul\":13755:13759   */\n      dup2\n        /* \"#utility.yul\":13751:13771   */\n      sub\n        /* \"#utility.yul\":13745:13748   */\n      0xe0\n        /* \"#utility.yul\":13734:13743   */\n      dup4\n        /* \"#utility.yul\":13730:13749   */\n      add\n        /* \"#utility.yul\":13723:13772   */\n      mstore\n        /* \"#utility.yul\":13789:13867   */\n      tag_360\n        /* \"#utility.yul\":13862:13866   */\n      dup2\n        /* \"#utility.yul\":13853:13859   */\n      dup6\n        /* \"#utility.yul\":13789:13867   */\n      tag_203\n      jump\t// in\n    tag_360:\n        /* \"#utility.yul\":13781:13867   */\n      swap1\n      pop\n        /* \"#utility.yul\":13877:13950   */\n      tag_361\n        /* \"#utility.yul\":13945:13948   */\n      0x0100\n        /* \"#utility.yul\":13934:13943   */\n      dup4\n        /* \"#utility.yul\":13930:13949   */\n      add\n        /* \"#utility.yul\":13921:13927   */\n      dup5\n        /* \"#utility.yul\":13877:13950   */\n      tag_207\n      jump\t// in\n    tag_361:\n        /* \"#utility.yul\":12303:13957   */\n      swap11\n      swap10\n      pop\n      pop\n      pop\n      pop\n      pop\n      pop\n      pop\n      pop\n      pop\n      pop\n      jump\t// out\n        /* \"#utility.yul\":13963:14087   */\n    tag_208:\n        /* \"#utility.yul\":14040:14046   */\n      0x00\n        /* \"#utility.yul\":14074:14079   */\n      dup2\n        /* \"#utility.yul\":14068:14080   */\n      mload\n        /* \"#utility.yul\":14058:14080   */\n      swap1\n      pop\n        /* \"#utility.yul\":13963:14087   */\n      swap2\n      swap1\n      pop\n      jump\t// out\n        /* \"#utility.yul\":14093:14287   */\n    tag_209:\n        /* \"#utility.yul\":14202:14213   */\n      0x00\n        /* \"#utility.yul\":14236:14242   */\n      dup3\n        /* \"#utility.yul\":14231:14234   */\n      dup3\n        /* \"#utility.yul\":14224:14243   */\n      mstore\n        /* \"#utility.yul\":14276:14280   */\n      0x20\n        /* \"#utility.yul\":14271:14274   */\n      dup3\n        /* \"#utility.yul\":14267:14281   */\n      add\n        /* \"#utility.yul\":14252:14281   */\n      swap1\n      pop\n        /* \"#utility.yul\":14093:14287   */\n      swap3\n      swap2\n      pop\n      pop\n      jump\t// out\n        /* \"#utility.yul\":14293:14435   */\n    tag_210:\n        /* \"#utility.yul\":14370:14374   */\n      0x00\n        /* \"#utility.yul\":14393:14396   */\n      dup2\n        /* \"#utility.yul\":14385:14396   */\n      swap1\n      pop\n        /* \"#utility.yul\":14423:14427   */\n      0x20\n        /* \"#utility.yul\":14418:14421   */\n      dup3\n        /* \"#utility.yul\":14414:14428   */\n      add\n        /* \"#utility.yul\":14406:14428   */\n      swap1\n      pop\n        /* \"#utility.yul\":14293:14435   */\n      swap2\n      swap1\n      pop\n      jump\t// out\n        /* \"#utility.yul\":14441:14637   */\n    tag_211:\n        /* \"#utility.yul\":14530:14540   */\n      0x00\n        /* \"#utility.yul\":14565:14631   */\n      tag_366\n        /* \"#utility.yul\":14627:14630   */\n      dup4\n        /* \"#utility.yul\":14619:14625   */\n      dup4\n        /* \"#utility.yul\":14565:14631   */\n      tag_193\n      jump\t// in\n    tag_366:\n        /* \"#utility.yul\":14551:14631   */\n      swap1\n      pop\n        /* \"#utility.yul\":14441:14637   */\n      swap3\n      swap2\n      pop\n      pop\n      jump\t// out\n        /* \"#utility.yul\":14643:14766   */\n    tag_212:\n        /* \"#utility.yul\":14723:14727   */\n      0x00\n        /* \"#utility.yul\":14755:14759   */\n      0x20\n        /* \"#utility.yul\":14750:14753   */\n      dup3\n        /* \"#utility.yul\":14746:14760   */\n      add\n        /* \"#utility.yul\":14738:14760   */\n      swap1\n      pop\n        /* \"#utility.yul\":14643:14766   */\n      swap2\n      swap1\n      pop\n      jump\t// out\n        /* \"#utility.yul\":14800:15791   */\n    tag_213:\n        /* \"#utility.yul\":14939:14942   */\n      0x00\n        /* \"#utility.yul\":14968:15032   */\n      tag_369\n        /* \"#utility.yul\":15026:15031   */\n      dup3\n        /* \"#utility.yul\":14968:15032   */\n      tag_208\n      jump\t// in\n    tag_369:\n        /* \"#utility.yul\":15048:15144   */\n      tag_370\n        /* \"#utility.yul\":15137:15143   */\n      dup2\n        /* \"#utility.yul\":15132:15135   */\n      dup6\n        /* \"#utility.yul\":15048:15144   */\n      tag_209\n      jump\t// in\n    tag_370:\n        /* \"#utility.yul\":15041:15144   */\n      swap4\n      pop\n        /* \"#utility.yul\":15170:15173   */\n      dup4\n        /* \"#utility.yul\":15215:15219   */\n      0x20\n        /* \"#utility.yul\":15207:15213   */\n      dup3\n        /* \"#utility.yul\":15203:15220   */\n      mul\n        /* \"#utility.yul\":15198:15201   */\n      dup6\n        /* \"#utility.yul\":15194:15221   */\n      add\n        /* \"#utility.yul\":15245:15311   */\n      tag_371\n        /* \"#utility.yul\":15305:15310   */\n      dup6\n        /* \"#utility.yul\":15245:15311   */\n      tag_210\n      jump\t// in\n    tag_371:\n        /* \"#utility.yul\":15334:15341   */\n      dup1\n        /* \"#utility.yul\":15365:15366   */\n      0x00\n        /* \"#utility.yul\":15350:15746   */\n    tag_372:\n        /* \"#utility.yul\":15375:15381   */\n      dup6\n        /* \"#utility.yul\":15372:15373   */\n      dup2\n        /* \"#utility.yul\":15369:15382   */\n      lt\n        /* \"#utility.yul\":15350:15746   */\n      iszero\n      tag_374\n      jumpi\n        /* \"#utility.yul\":15446:15455   */\n      dup5\n        /* \"#utility.yul\":15440:15444   */\n      dup5\n        /* \"#utility.yul\":15436:15456   */\n      sub\n        /* \"#utility.yul\":15431:15434   */\n      dup10\n        /* \"#utility.yul\":15424:15457   */\n      mstore\n        /* \"#utility.yul\":15497:15503   */\n      dup2\n        /* \"#utility.yul\":15491:15504   */\n      mload\n        /* \"#utility.yul\":15525:15609   */\n      tag_375\n        /* \"#utility.yul\":15604:15608   */\n      dup6\n        /* \"#utility.yul\":15589:15602   */\n      dup3\n        /* \"#utility.yul\":15525:15609   */\n      tag_211\n      jump\t// in\n    tag_375:\n        /* \"#utility.yul\":15517:15609   */\n      swap5\n      pop\n        /* \"#utility.yul\":15632:15702   */\n      tag_376\n        /* \"#utility.yul\":15695:15701   */\n      dup4\n        /* \"#utility.yul\":15632:15702   */\n      tag_212\n      jump\t// in\n    tag_376:\n        /* \"#utility.yul\":15622:15702   */\n      swap3\n      pop\n        /* \"#utility.yul\":15731:15735   */\n      0x20\n        /* \"#utility.yul\":15726:15729   */\n      dup11\n        /* \"#utility.yul\":15722:15736   */\n      add\n        /* \"#utility.yul\":15715:15736   */\n      swap10\n      pop\n        /* \"#utility.yul\":15410:15746   */\n      pop\n        /* \"#utility.yul\":15397:15398   */\n      0x01\n        /* \"#utility.yul\":15394:15395   */\n      dup2\n        /* \"#utility.yul\":15390:15399   */\n      add\n        /* \"#utility.yul\":15385:15399   */\n      swap1\n      pop\n        /* \"#utility.yul\":15350:15746   */\n      jump(tag_372)\n    tag_374:\n        /* \"#utility.yul\":15354:15368   */\n      pop\n        /* \"#utility.yul\":15762:15766   */\n      dup3\n        /* \"#utility.yul\":15755:15766   */\n      swap8\n      pop\n        /* \"#utility.yul\":15782:15785   */\n      dup8\n        /* \"#utility.yul\":15775:15785   */\n      swap6\n      pop\n        /* \"#utility.yul\":14944:15791   */\n      pop\n      pop\n      pop\n      pop\n      pop\n        /* \"#utility.yul\":14800:15791   */\n      swap3\n      swap2\n      pop\n      pop\n      jump\t// out\n        /* \"#utility.yul\":15797:16210   */\n    tag_41:\n        /* \"#utility.yul\":15960:15964   */\n      0x00\n        /* \"#utility.yul\":15998:16000   */\n      0x20\n        /* \"#utility.yul\":15987:15996   */\n      dup3\n        /* \"#utility.yul\":15983:16001   */\n      add\n        /* \"#utility.yul\":15975:16001   */\n      swap1\n      pop\n        /* \"#utility.yul\":16047:16056   */\n      dup2\n        /* \"#utility.yul\":16041:16045   */\n      dup2\n        /* \"#utility.yul\":16037:16057   */\n      sub\n        /* \"#utility.yul\":16033:16034   */\n      0x00\n        /* \"#utility.yul\":16022:16031   */\n      dup4\n        /* \"#utility.yul\":16018:16035   */\n      add\n        /* \"#utility.yul\":16011:16058   */\n      mstore\n        /* \"#utility.yul\":16075:16203   */\n      tag_378\n        /* \"#utility.yul\":16198:16202   */\n      dup2\n        /* \"#utility.yul\":16189:16195   */\n      dup5\n        /* \"#utility.yul\":16075:16203   */\n      tag_213\n      jump\t// in\n    tag_378:\n        /* \"#utility.yul\":16067:16203   */\n      swap1\n      pop\n        /* \"#utility.yul\":15797:16210   */\n      swap3\n      swap2\n      pop\n      pop\n      jump\t// out\n        /* \"#utility.yul\":16216:18645   */\n    tag_44:\n        /* \"#utility.yul\":16398:16404   */\n      0x00\n        /* \"#utility.yul\":16406:16412   */\n      dup1\n        /* \"#utility.yul\":16414:16420   */\n      0x00\n        /* \"#utility.yul\":16422:16428   */\n      dup1\n        /* \"#utility.yul\":16430:16436   */\n      0x00\n        /* \"#utility.yul\":16438:16444   */\n      dup1\n        /* \"#utility.yul\":16446:16452   */\n      0x00\n        /* \"#utility.yul\":16454:16460   */\n      dup1\n        /* \"#utility.yul\":16503:16506   */\n      0x0100\n        /* \"#utility.yul\":16491:16500   */\n      dup10\n        /* \"#utility.yul\":16482:16489   */\n      dup12\n        /* \"#utility.yul\":16478:16501   */\n      sub\n        /* \"#utility.yul\":16474:16507   */\n      slt\n        /* \"#utility.yul\":16471:16591   */\n      iszero\n      tag_380\n      jumpi\n        /* \"#utility.yul\":16510:16589   */\n      tag_381\n      tag_178\n      jump\t// in\n    tag_381:\n        /* \"#utility.yul\":16471:16591   */\n    tag_380:\n        /* \"#utility.yul\":16658:16659   */\n      0x00\n        /* \"#utility.yul\":16647:16656   */\n      dup10\n        /* \"#utility.yul\":16643:16660   */\n      add\n        /* \"#utility.yul\":16630:16661   */\n      calldataload\n        /* \"#utility.yul\":16688:16706   */\n      0xffffffffffffffff\n        /* \"#utility.yul\":16680:16686   */\n      dup2\n        /* \"#utility.yul\":16677:16707   */\n      gt\n        /* \"#utility.yul\":16674:16791   */\n      iszero\n      tag_382\n      jumpi\n        /* \"#utility.yul\":16710:16789   */\n      tag_383\n      tag_179\n      jump\t// in\n    tag_383:\n        /* \"#utility.yul\":16674:16791   */\n    tag_382:\n        /* \"#utility.yul\":16815:16878   */\n      tag_384\n        /* \"#utility.yul\":16870:16877   */\n      dup12\n        /* \"#utility.yul\":16861:16867   */\n      dup3\n        /* \"#utility.yul\":16850:16859   */\n      dup13\n        /* \"#utility.yul\":16846:16868   */\n      add\n        /* \"#utility.yul\":16815:16878   */\n      tag_189\n      jump\t// in\n    tag_384:\n        /* \"#utility.yul\":16805:16878   */\n      swap9\n      pop\n        /* \"#utility.yul\":16601:16888   */\n      pop\n        /* \"#utility.yul\":16955:16957   */\n      0x20\n        /* \"#utility.yul\":16944:16953   */\n      dup10\n        /* \"#utility.yul\":16940:16958   */\n      add\n        /* \"#utility.yul\":16927:16959   */\n      calldataload\n        /* \"#utility.yul\":16986:17004   */\n      0xffffffffffffffff\n        /* \"#utility.yul\":16978:16984   */\n      dup2\n        /* \"#utility.yul\":16975:17005   */\n      gt\n        /* \"#utility.yul\":16972:17089   */\n      iszero\n      tag_385\n      jumpi\n        /* \"#utility.yul\":17008:17087   */\n      tag_386\n      tag_179\n      jump\t// in\n    tag_386:\n        /* \"#utility.yul\":16972:17089   */\n    tag_385:\n        /* \"#utility.yul\":17113:17176   */\n      tag_387\n        /* \"#utility.yul\":17168:17175   */\n      dup12\n        /* \"#utility.yul\":17159:17165   */\n      dup3\n        /* \"#utility.yul\":17148:17157   */\n      dup13\n        /* \"#utility.yul\":17144:17166   */\n      add\n        /* \"#utility.yul\":17113:17176   */\n      tag_189\n      jump\t// in\n    tag_387:\n        /* \"#utility.yul\":17103:17176   */\n      swap8\n      pop\n        /* \"#utility.yul\":16898:17186   */\n      pop\n        /* \"#utility.yul\":17225:17227   */\n      0x40\n        /* \"#utility.yul\":17251:17304   */\n      tag_388\n        /* \"#utility.yul\":17296:17303   */\n      dup12\n        /* \"#utility.yul\":17287:17293   */\n      dup3\n        /* \"#utility.yul\":17276:17285   */\n      dup13\n        /* \"#utility.yul\":17272:17294   */\n      add\n        /* \"#utility.yul\":17251:17304   */\n      tag_205\n      jump\t// in\n    tag_388:\n        /* \"#utility.yul\":17241:17304   */\n      swap7\n      pop\n        /* \"#utility.yul\":17196:17314   */\n      pop\n        /* \"#utility.yul\":17353:17355   */\n      0x60\n        /* \"#utility.yul\":17379:17432   */\n      tag_389\n        /* \"#utility.yul\":17424:17431   */\n      dup12\n        /* \"#utility.yul\":17415:17421   */\n      dup3\n        /* \"#utility.yul\":17404:17413   */\n      dup13\n        /* \"#utility.yul\":17400:17422   */\n      add\n        /* \"#utility.yul\":17379:17432   */\n      tag_205\n      jump\t// in\n    tag_389:\n        /* \"#utility.yul\":17369:17432   */\n      swap6\n      pop\n        /* \"#utility.yul\":17324:17442   */\n      pop\n        /* \"#utility.yul\":17509:17512   */\n      0x80\n        /* \"#utility.yul\":17498:17507   */\n      dup10\n        /* \"#utility.yul\":17494:17513   */\n      add\n        /* \"#utility.yul\":17481:17514   */\n      calldataload\n        /* \"#utility.yul\":17541:17559   */\n      0xffffffffffffffff\n        /* \"#utility.yul\":17533:17539   */\n      dup2\n        /* \"#utility.yul\":17530:17560   */\n      gt\n        /* \"#utility.yul\":17527:17644   */\n      iszero\n      tag_390\n      jumpi\n        /* \"#utility.yul\":17563:17642   */\n      tag_391\n      tag_179\n      jump\t// in\n    tag_391:\n        /* \"#utility.yul\":17527:17644   */\n    tag_390:\n        /* \"#utility.yul\":17668:17731   */\n      tag_392\n        /* \"#utility.yul\":17723:17730   */\n      dup12\n        /* \"#utility.yul\":17714:17720   */\n      dup3\n        /* \"#utility.yul\":17703:17712   */\n      dup13\n        /* \"#utility.yul\":17699:17721   */\n      add\n        /* \"#utility.yul\":17668:17731   */\n      tag_189\n      jump\t// in\n    tag_392:\n        /* \"#utility.yul\":17658:17731   */\n      swap5\n      pop\n        /* \"#utility.yul\":17452:17741   */\n      pop\n        /* \"#utility.yul\":17808:17811   */\n      0xa0\n        /* \"#utility.yul\":17797:17806   */\n      dup10\n        /* \"#utility.yul\":17793:17812   */\n      add\n        /* \"#utility.yul\":17780:17813   */\n      calldataload\n        /* \"#utility.yul\":17840:17858   */\n      0xffffffffffffffff\n        /* \"#utility.yul\":17832:17838   */\n      dup2\n        /* \"#utility.yul\":17829:17859   */\n      gt\n        /* \"#utility.yul\":17826:17943   */\n      iszero\n      tag_393\n      jumpi\n        /* \"#utility.yul\":17862:17941   */\n      tag_394\n      tag_179\n      jump\t// in\n    tag_394:\n        /* \"#utility.yul\":17826:17943   */\n    tag_393:\n        /* \"#utility.yul\":17967:18030   */\n      tag_395\n        /* \"#utility.yul\":18022:18029   */\n      dup12\n        /* \"#utility.yul\":18013:18019   */\n      dup3\n        /* \"#utility.yul\":18002:18011   */\n      dup13\n        /* \"#utility.yul\":17998:18020   */\n      add\n        /* \"#utility.yul\":17967:18030   */\n      tag_189\n      jump\t// in\n    tag_395:\n        /* \"#utility.yul\":17957:18030   */\n      swap4\n      pop\n        /* \"#utility.yul\":17751:18040   */\n      pop\n        /* \"#utility.yul\":18107:18110   */\n      0xc0\n        /* \"#utility.yul\":18096:18105   */\n      dup10\n        /* \"#utility.yul\":18092:18111   */\n      add\n        /* \"#utility.yul\":18079:18112   */\n      calldataload\n        /* \"#utility.yul\":18139:18157   */\n      0xffffffffffffffff\n        /* \"#utility.yul\":18131:18137   */\n      dup2\n        /* \"#utility.yul\":18128:18158   */\n      gt\n        /* \"#utility.yul\":18125:18242   */\n      iszero\n      tag_396\n      jumpi\n        /* \"#utility.yul\":18161:18240   */\n      tag_397\n      tag_179\n      jump\t// in\n    tag_397:\n        /* \"#utility.yul\":18125:18242   */\n    tag_396:\n        /* \"#utility.yul\":18266:18329   */\n      tag_398\n        /* \"#utility.yul\":18321:18328   */\n      dup12\n        /* \"#utility.yul\":18312:18318   */\n      dup3\n        /* \"#utility.yul\":18301:18310   */\n      dup13\n        /* \"#utility.yul\":18297:18319   */\n      add\n        /* \"#utility.yul\":18266:18329   */\n      tag_189\n      jump\t// in\n    tag_398:\n        /* \"#utility.yul\":18256:18329   */\n      swap3\n      pop\n        /* \"#utility.yul\":18050:18339   */\n      pop\n        /* \"#utility.yul\":18406:18409   */\n      0xe0\n        /* \"#utility.yul\":18395:18404   */\n      dup10\n        /* \"#utility.yul\":18391:18410   */\n      add\n        /* \"#utility.yul\":18378:18411   */\n      calldataload\n        /* \"#utility.yul\":18438:18456   */\n      0xffffffffffffffff\n        /* \"#utility.yul\":18430:18436   */\n      dup2\n        /* \"#utility.yul\":18427:18457   */\n      gt\n        /* \"#utility.yul\":18424:18541   */\n      iszero\n      tag_399\n      jumpi\n        /* \"#utility.yul\":18460:18539   */\n      tag_400\n      tag_179\n      jump\t// in\n    tag_400:\n        /* \"#utility.yul\":18424:18541   */\n    tag_399:\n        /* \"#utility.yul\":18565:18628   */\n      tag_401\n        /* \"#utility.yul\":18620:18627   */\n      dup12\n        /* \"#utility.yul\":18611:18617   */\n      dup3\n        /* \"#utility.yul\":18600:18609   */\n      dup13\n        /* \"#utility.yul\":18596:18618   */\n      add\n        /* \"#utility.yul\":18565:18628   */\n      tag_189\n      jump\t// in\n    tag_401:\n        /* \"#utility.yul\":18555:18628   */\n      swap2\n      pop\n        /* \"#utility.yul\":18349:18638   */\n      pop\n        /* \"#utility.yul\":16216:18645   */\n      swap3\n      swap6\n      swap9\n      pop\n      swap3\n      swap6\n      swap9\n      swap1\n      swap4\n      swap7\n      pop\n      jump\t// out\n        /* \"#utility.yul\":18651:18799   */\n    tag_214:\n        /* \"#utility.yul\":18753:18764   */\n      0x00\n        /* \"#utility.yul\":18790:18793   */\n      dup2\n        /* \"#utility.yul\":18775:18793   */\n      swap1\n      pop\n        /* \"#utility.yul\":18651:18799   */\n      swap3\n      swap2\n      pop\n      pop\n      jump\t// out\n        /* \"#utility.yul\":18805:19195   */\n    tag_215:\n        /* \"#utility.yul\":18911:18914   */\n      0x00\n        /* \"#utility.yul\":18939:18978   */\n      tag_404\n        /* \"#utility.yul\":18972:18977   */\n      dup3\n        /* \"#utility.yul\":18939:18978   */\n      tag_190\n      jump\t// in\n    tag_404:\n        /* \"#utility.yul\":18994:19083   */\n      tag_405\n        /* \"#utility.yul\":19076:19082   */\n      dup2\n        /* \"#utility.yul\":19071:19074   */\n      dup6\n        /* \"#utility.yul\":18994:19083   */\n      tag_214\n      jump\t// in\n    tag_405:\n        /* \"#utility.yul\":18987:19083   */\n      swap4\n      pop\n        /* \"#utility.yul\":19092:19157   */\n      tag_406\n        /* \"#utility.yul\":19150:19156   */\n      dup2\n        /* \"#utility.yul\":19145:19148   */\n      dup6\n        /* \"#utility.yul\":19138:19142   */\n      0x20\n        /* \"#utility.yul\":19131:19136   */\n      dup7\n        /* \"#utility.yul\":19127:19143   */\n      add\n        /* \"#utility.yul\":19092:19157   */\n      tag_192\n      jump\t// in\n    tag_406:\n        /* \"#utility.yul\":19182:19188   */\n      dup1\n        /* \"#utility.yul\":19177:19180   */\n      dup5\n        /* \"#utility.yul\":19173:19189   */\n      add\n        /* \"#utility.yul\":19166:19189   */\n      swap2\n      pop\n        /* \"#utility.yul\":18915:19195   */\n      pop\n        /* \"#utility.yul\":18805:19195   */\n      swap3\n      swap2\n      pop\n      pop\n      jump\t// out\n        /* \"#utility.yul\":19201:19476   */\n    tag_50:\n        /* \"#utility.yul\":19333:19336   */\n      0x00\n        /* \"#utility.yul\":19355:19450   */\n      tag_408\n        /* \"#utility.yul\":19446:19449   */\n      dup3\n        /* \"#utility.yul\":19437:19443   */\n      dup5\n        /* \"#utility.yul\":19355:19450   */\n      tag_215\n      jump\t// in\n    tag_408:\n        /* \"#utility.yul\":19348:19450   */\n      swap2\n      pop\n        /* \"#utility.yul\":19467:19470   */\n      dup2\n        /* \"#utility.yul\":19460:19470   */\n      swap1\n      pop\n        /* \"#utility.yul\":19201:19476   */\n      swap3\n      swap2\n      pop\n      pop\n      jump\t// out\n        /* \"#utility.yul\":19482:19662   */\n    tag_216:\n        /* \"#utility.yul\":19530:19607   */\n      0x4e487b7100000000000000000000000000000000000000000000000000000000\n        /* \"#utility.yul\":19527:19528   */\n      0x00\n        /* \"#utility.yul\":19520:19608   */\n      mstore\n        /* \"#utility.yul\":19627:19631   */\n      0x22\n        /* \"#utility.yul\":19624:19625   */\n      0x04\n        /* \"#utility.yul\":19617:19632   */\n      mstore\n        /* \"#utility.yul\":19651:19655   */\n      0x24\n        /* \"#utility.yul\":19648:19649   */\n      0x00\n        /* \"#utility.yul\":19641:19656   */\n      revert\n        /* \"#utility.yul\":19668:19988   */\n    tag_52:\n        /* \"#utility.yul\":19712:19718   */\n      0x00\n        /* \"#utility.yul\":19749:19750   */\n      0x02\n        /* \"#utility.yul\":19743:19747   */\n      dup3\n        /* \"#utility.yul\":19739:19751   */\n      div\n        /* \"#utility.yul\":19729:19751   */\n      swap1\n      pop\n        /* \"#utility.yul\":19796:19797   */\n      0x01\n        /* \"#utility.yul\":19790:19794   */\n      dup3\n        /* \"#utility.yul\":19786:19798   */\n      and\n        /* \"#utility.yul\":19817:19835   */\n      dup1\n        /* \"#utility.yul\":19807:19888   */\n      tag_411\n      jumpi\n        /* \"#utility.yul\":19873:19877   */\n      0x7f\n        /* \"#utility.yul\":19865:19871   */\n      dup3\n        /* \"#utility.yul\":19861:19878   */\n      and\n        /* \"#utility.yul\":19851:19878   */\n      swap2\n      pop\n        /* \"#utility.yul\":19807:19888   */\n    tag_411:\n        /* \"#utility.yul\":19935:19937   */\n      0x20\n        /* \"#utility.yul\":19927:19933   */\n      dup3\n        /* \"#utility.yul\":19924:19938   */\n      lt\n        /* \"#utility.yul\":19904:19922   */\n      dup2\n        /* \"#utility.yul\":19901:19939   */\n      sub\n        /* \"#utility.yul\":19898:19982   */\n      tag_412\n      jumpi\n        /* \"#utility.yul\":19954:19972   */\n      tag_413\n      tag_216\n      jump\t// in\n    tag_413:\n        /* \"#utility.yul\":19898:19982   */\n    tag_412:\n        /* \"#utility.yul\":19719:19988   */\n      pop\n        /* \"#utility.yul\":19668:19988   */\n      swap2\n      swap1\n      pop\n      jump\t// out\n        /* \"#utility.yul\":19994:20135   */\n    tag_217:\n        /* \"#utility.yul\":20043:20047   */\n      0x00\n        /* \"#utility.yul\":20066:20069   */\n      dup2\n        /* \"#utility.yul\":20058:20069   */\n      swap1\n      pop\n        /* \"#utility.yul\":20089:20092   */\n      dup2\n        /* \"#utility.yul\":20086:20087   */\n      0x00\n        /* \"#utility.yul\":20079:20093   */\n      mstore\n        /* \"#utility.yul\":20123:20127   */\n      0x20\n        /* \"#utility.yul\":20120:20121   */\n      0x00\n        /* \"#utility.yul\":20110:20128   */\n      keccak256\n        /* \"#utility.yul\":20102:20128   */\n      swap1\n      pop\n        /* \"#utility.yul\":19994:20135   */\n      swap2\n      swap1\n      pop\n      jump\t// out\n        /* \"#utility.yul\":20141:20234   */\n    tag_218:\n        /* \"#utility.yul\":20178:20184   */\n      0x00\n        /* \"#utility.yul\":20225:20227   */\n      0x20\n        /* \"#utility.yul\":20220:20222   */\n      0x1f\n        /* \"#utility.yul\":20213:20218   */\n      dup4\n        /* \"#utility.yul\":20209:20223   */\n      add\n        /* \"#utility.yul\":20205:20228   */\n      div\n        /* \"#utility.yul\":20195:20228   */\n      swap1\n      pop\n        /* \"#utility.yul\":20141:20234   */\n      swap2\n      swap1\n      pop\n      jump\t// out\n        /* \"#utility.yul\":20240:20347   */\n    tag_219:\n        /* \"#utility.yul\":20284:20292   */\n      0x00\n        /* \"#utility.yul\":20334:20339   */\n      dup3\n        /* \"#utility.yul\":20328:20332   */\n      dup3\n        /* \"#utility.yul\":20324:20340   */\n      shl\n        /* \"#utility.yul\":20303:20340   */\n      swap1\n      pop\n        /* \"#utility.yul\":20240:20347   */\n      swap3\n      swap2\n      pop\n      pop\n      jump\t// out\n        /* \"#utility.yul\":20353:20746   */\n    tag_220:\n        /* \"#utility.yul\":20422:20428   */\n      0x00\n        /* \"#utility.yul\":20472:20473   */\n      0x08\n        /* \"#utility.yul\":20460:20470   */\n      dup4\n        /* \"#utility.yul\":20456:20474   */\n      mul\n        /* \"#utility.yul\":20495:20592   */\n      tag_418\n        /* \"#utility.yul\":20525:20591   */\n      0xffffffffffffffffffffffffffffffffffffffffffffffffffffffffffffffff\n        /* \"#utility.yul\":20514:20523   */\n      dup3\n        /* \"#utility.yul\":20495:20592   */\n      tag_219\n      jump\t// in\n    tag_418:\n        /* \"#utility.yul\":20613:20652   */\n      tag_419\n        /* \"#utility.yul\":20643:20651   */\n      dup7\n        /* \"#utility.yul\":20632:20641   */\n      dup4\n        /* \"#utility.yul\":20613:20652   */\n      tag_219\n      jump\t// in\n    tag_419:\n        /* \"#utility.yul\":20601:20652   */\n      swap6\n      pop\n        /* \"#utility.yul\":20685:20689   */\n      dup1\n        /* \"#utility.yul\":20681:20690   */\n      not\n        /* \"#utility.yul\":20674:20679   */\n      dup5\n        /* \"#utility.yul\":20670:20691   */\n      and\n        /* \"#utility.yul\":20661:20691   */\n      swap4\n      pop\n        /* \"#utility.yul\":20734:20738   */\n      dup1\n        /* \"#utility.yul\":20724:20732   */\n      dup7\n        /* \"#utility.yul\":20720:20739   */\n      and\n        /* \"#utility.yul\":20713:20718   */\n      dup5\n        /* \"#utility.yul\":20710:20740   */\n      or\n        /* \"#utility.yul\":20700:20740   */\n      swap3\n      pop\n        /* \"#utility.yul\":20429:20746   */\n      pop\n      pop\n        /* \"#utility.yul\":20353:20746   */\n      swap4\n      swap3\n      pop\n      pop\n      pop\n      jump\t// out\n        /* \"#utility.yul\":20752:20812   */\n    tag_221:\n        /* \"#utility.yul\":20780:20783   */\n      0x00\n        /* \"#utility.yul\":20801:20806   */\n      dup2\n        /* \"#utility.yul\":20794:20806   */\n      swap1\n      pop\n        /* \"#utility.yul\":20752:20812   */\n      swap2\n      swap1\n      pop\n      jump\t// out\n        /* \"#utility.yul\":20818:20960   */\n    tag_222:\n        /* \"#utility.yul\":20868:20877   */\n      0x00\n        /* \"#utility.yul\":20901:20954   */\n      tag_422\n        /* \"#utility.yul\":20919:20953   */\n      tag_423\n        /* \"#utility.yul\":20928:20952   */\n      tag_424\n        /* \"#utility.yul\":20946:20951   */\n      dup5\n        /* \"#utility.yul\":20928:20952   */\n      tag_194\n      jump\t// in\n    tag_424:\n        /* \"#utility.yul\":20919:20953   */\n      tag_221\n      jump\t// in\n    tag_423:\n        /* \"#utility.yul\":20901:20954   */\n      tag_194\n      jump\t// in\n    tag_422:\n        /* \"#utility.yul\":20888:20954   */\n      swap1\n      pop\n        /* \"#utility.yul\":20818:20960   */\n      swap2\n      swap1\n      pop\n      jump\t// out\n        /* \"#utility.yul\":20966:21041   */\n    tag_223:\n        /* \"#utility.yul\":21009:21012   */\n      0x00\n        /* \"#utility.yul\":21030:21035   */\n      dup2\n        /* \"#utility.yul\":21023:21035   */\n      swap1\n      pop\n        /* \"#utility.yul\":20966:21041   */\n      swap2\n      swap1\n      pop\n      jump\t// out\n        /* \"#utility.yul\":21047:21316   */\n    tag_224:\n        /* \"#utility.yul\":21157:21196   */\n      tag_427\n        /* \"#utility.yul\":21188:21195   */\n      dup4\n        /* \"#utility.yul\":21157:21196   */\n      tag_222\n      jump\t// in\n    tag_427:\n        /* \"#utility.yul\":21218:21309   */\n      tag_428\n        /* \"#utility.yul\":21267:21308   */\n      tag_429\n        /* \"#utility.yul\":21291:21307   */\n      dup3\n        /* \"#utility.yul\":21267:21308   */\n      tag_223\n      jump\t// in\n    tag_429:\n        /* \"#utility.yul\":21259:21265   */\n      dup5\n        /* \"#utility.yul\":21252:21256   */\n      dup5\n        /* \"#utility.yul\":21246:21257   */\n      sload\n        /* \"#utility.yul\":21218:21309   */\n      tag_220\n      jump\t// in\n    tag_428:\n        /* \"#utility.yul\":21212:21216   */\n      dup3\n        /* \"#utility.yul\":21205:21310   */\n      sstore\n        /* \"#utility.yul\":21123:21316   */\n      pop\n        /* \"#utility.yul\":21047:21316   */\n      pop\n      pop\n      pop\n      jump\t// out\n        /* \"#utility.yul\":21322:21395   */\n    tag_225:\n        /* \"#utility.yul\":21367:21370   */\n      0x00\n        /* \"#utility.yul\":21322:21395   */\n      swap1\n      jump\t// out\n        /* \"#utility.yul\":21401:21590   */\n    tag_226:\n        /* \"#utility.yul\":21478:21510   */\n      tag_432\n      tag_225\n      jump\t// in\n    tag_432:\n        /* \"#utility.yul\":21519:21584   */\n      tag_433\n        /* \"#utility.yul\":21577:21583   */\n      dup2\n        /* \"#utility.yul\":21569:21575   */\n      dup5\n        /* \"#utility.yul\":21563:21567   */\n      dup5\n        /* \"#utility.yul\":21519:21584   */\n      tag_224\n      jump\t// in\n    tag_433:\n        /* \"#utility.yul\":21454:21590   */\n      pop\n        /* \"#utility.yul\":21401:21590   */\n      pop\n      pop\n      jump\t// out\n        /* \"#utility.yul\":21596:21782   */\n    tag_227:\n        /* \"#utility.yul\":21656:21776   */\n    tag_435:\n        /* \"#utility.yul\":21673:21676   */\n      dup2\n        /* \"#utility.yul\":21666:21671   */\n      dup2\n        /* \"#utility.yul\":21663:21677   */\n      lt\n        /* \"#utility.yul\":21656:21776   */\n      iszero\n      tag_437\n      jumpi\n        /* \"#utility.yul\":21727:21766   */\n      tag_438\n        /* \"#utility.yul\":21764:21765   */\n      0x00\n        /* \"#utility.yul\":21757:21762   */\n      dup3\n        /* \"#utility.yul\":21727:21766   */\n      tag_226\n      jump\t// in\n    tag_438:\n        /* \"#utility.yul\":21700:21701   */\n      0x01\n        /* \"#utility.yul\":21693:21698   */\n      dup2\n        /* \"#utility.yul\":21689:21702   */\n      add\n        /* \"#utility.yul\":21680:21702   */\n      swap1\n      pop\n        /* \"#utility.yul\":21656:21776   */\n      jump(tag_435)\n    tag_437:\n        /* \"#utility.yul\":21596:21782   */\n      pop\n      pop\n      jump\t// out\n        /* \"#utility.yul\":21788:22331   */\n    tag_228:\n        /* \"#utility.yul\":21889:21891   */\n      0x1f\n        /* \"#utility.yul\":21884:21887   */\n      dup3\n        /* \"#utility.yul\":21881:21892   */\n      gt\n        /* \"#utility.yul\":21878:22324   */\n      iszero\n      tag_440\n      jumpi\n        /* \"#utility.yul\":21923:21961   */\n      tag_441\n        /* \"#utility.yul\":21955:21960   */\n      dup2\n        /* \"#utility.yul\":21923:21961   */\n      tag_217\n      jump\t// in\n    tag_441:\n        /* \"#utility.yul\":22007:22036   */\n      tag_442\n        /* \"#utility.yul\":22025:22035   */\n      dup5\n        /* \"#utility.yul\":22007:22036   */\n      tag_218\n      jump\t// in\n    tag_442:\n        /* \"#utility.yul\":21997:22005   */\n      dup2\n        /* \"#utility.yul\":21993:22037   */\n      add\n        /* \"#utility.yul\":22190:22192   */\n      0x20\n        /* \"#utility.yul\":22178:22188   */\n      dup6\n        /* \"#utility.yul\":22175:22193   */\n      lt\n        /* \"#utility.yul\":22172:22221   */\n      iszero\n      tag_443\n      jumpi\n        /* \"#utility.yul\":22211:22219   */\n      dup2\n        /* \"#utility.yul\":22196:22219   */\n      swap1\n      pop\n        /* \"#utility.yul\":22172:22221   */\n    tag_443:\n        /* \"#utility.yul\":22234:22314   */\n      tag_444\n        /* \"#utility.yul\":22290:22312   */\n      tag_445\n        /* \"#utility.yul\":22308:22311   */\n      dup6\n        /* \"#utility.yul\":22290:22312   */\n      tag_218\n      jump\t// in\n    tag_445:\n        /* \"#utility.yul\":22280:22288   */\n      dup4\n        /* \"#utility.yul\":22276:22313   */\n      add\n        /* \"#utility.yul\":22263:22274   */\n      dup3\n        /* \"#utility.yul\":22234:22314   */\n      tag_227\n      jump\t// in\n    tag_444:\n        /* \"#utility.yul\":21893:22324   */\n      pop\n      pop\n        /* \"#utility.yul\":21878:22324   */\n    tag_440:\n        /* \"#utility.yul\":21788:22331   */\n      pop\n      pop\n      pop\n      jump\t// out\n        /* \"#utility.yul\":22337:22454   */\n    tag_229:\n        /* \"#utility.yul\":22391:22399   */\n      0x00\n        /* \"#utility.yul\":22441:22446   */\n      dup3\n        /* \"#utility.yul\":22435:22439   */\n      dup3\n        /* \"#utility.yul\":22431:22447   */\n      shr\n        /* \"#utility.yul\":22410:22447   */\n      swap1\n      pop\n        /* \"#utility.yul\":22337:22454   */\n      swap3\n      swap2\n      pop\n      pop\n      jump\t// out\n        /* \"#utility.yul\":22460:22629   */\n    tag_230:\n        /* \"#utility.yul\":22504:22510   */\n      0x00\n        /* \"#utility.yul\":22537:22588   */\n      tag_448\n        /* \"#utility.yul\":22585:22586   */\n      0x00\n        /* \"#utility.yul\":22581:22587   */\n      not\n        /* \"#utility.yul\":22573:22578   */\n      dup5\n        /* \"#utility.yul\":22570:22571   */\n      0x08\n        /* \"#utility.yul\":22566:22579   */\n      mul\n        /* \"#utility.yul\":22537:22588   */\n      tag_229\n      jump\t// in\n    tag_448:\n        /* \"#utility.yul\":22533:22589   */\n      not\n        /* \"#utility.yul\":22618:22622   */\n      dup1\n        /* \"#utility.yul\":22612:22616   */\n      dup4\n        /* \"#utility.yul\":22608:22623   */\n      and\n        /* \"#utility.yul\":22598:22623   */\n      swap2\n      pop\n        /* \"#utility.yul\":22511:22629   */\n      pop\n        /* \"#utility.yul\":22460:22629   */\n      swap3\n      swap2\n      pop\n      pop\n      jump\t// out\n        /* \"#utility.yul\":22634:22929   */\n    tag_231:\n        /* \"#utility.yul\":22710:22714   */\n      0x00\n        /* \"#utility.yul\":22856:22885   */\n      tag_450\n        /* \"#utility.yul\":22881:22884   */\n      dup4\n        /* \"#utility.yul\":22875:22879   */\n      dup4\n        /* \"#utility.yul\":22856:22885   */\n      tag_230\n      jump\t// in\n    tag_450:\n        /* \"#utility.yul\":22848:22885   */\n      swap2\n      pop\n        /* \"#utility.yul\":22918:22921   */\n      dup3\n        /* \"#utility.yul\":22915:22916   */\n      0x02\n        /* \"#utility.yul\":22911:22922   */\n      mul\n        /* \"#utility.yul\":22905:22909   */\n      dup3\n        /* \"#utility.yul\":22902:22923   */\n      or\n        /* \"#utility.yul\":22894:22923   */\n      swap1\n      pop\n        /* \"#utility.yul\":22634:22929   */\n      swap3\n      swap2\n      pop\n      pop\n      jump\t// out\n        /* \"#utility.yul\":22934:24329   */\n    tag_109:\n        /* \"#utility.yul\":23051:23088   */\n      tag_452\n        /* \"#utility.yul\":23084:23087   */\n      dup3\n        /* \"#utility.yul\":23051:23088   */\n      tag_190\n      jump\t// in\n    tag_452:\n        /* \"#utility.yul\":23153:23171   */\n      0xffffffffffffffff\n        /* \"#utility.yul\":23145:23151   */\n      dup2\n        /* \"#utility.yul\":23142:23172   */\n      gt\n        /* \"#utility.yul\":23139:23195   */\n      iszero\n      tag_453\n      jumpi\n        /* \"#utility.yul\":23175:23193   */\n      tag_454\n      tag_183\n      jump\t// in\n    tag_454:\n        /* \"#utility.yul\":23139:23195   */\n    tag_453:\n        /* \"#utility.yul\":23219:23257   */\n      tag_455\n        /* \"#utility.yul\":23251:23255   */\n      dup3\n        /* \"#utility.yul\":23245:23256   */\n      sload\n        /* \"#utility.yul\":23219:23257   */\n      tag_52\n      jump\t// in\n    tag_455:\n        /* \"#utility.yul\":23304:23371   */\n      tag_456\n        /* \"#utility.yul\":23364:23370   */\n      dup3\n        /* \"#utility.yul\":23356:23362   */\n      dup3\n        /* \"#utility.yul\":23350:23354   */\n      dup6\n        /* \"#utility.yul\":23304:23371   */\n      tag_228\n      jump\t// in\n    tag_456:\n        /* \"#utility.yul\":23398:23399   */\n      0x00\n        /* \"#utility.yul\":23422:23426   */\n      0x20\n        /* \"#utility.yul\":23409:23426   */\n      swap1\n      pop\n        /* \"#utility.yul\":23454:23456   */\n      0x1f\n        /* \"#utility.yul\":23446:23452   */\n      dup4\n        /* \"#utility.yul\":23443:23457   */\n      gt\n        /* \"#utility.yul\":23471:23472   */\n      0x01\n        /* \"#utility.yul\":23466:24084   */\n      dup2\n      eq\n      tag_458\n      jumpi\n        /* \"#utility.yul\":24128:24129   */\n      0x00\n        /* \"#utility.yul\":24145:24151   */\n      dup5\n        /* \"#utility.yul\":24142:24219   */\n      iszero\n      tag_459\n      jumpi\n        /* \"#utility.yul\":24194:24203   */\n      dup3\n        /* \"#utility.yul\":24189:24192   */\n      dup8\n        /* \"#utility.yul\":24185:24204   */\n      add\n        /* \"#utility.yul\":24179:24205   */\n      mload\n        /* \"#utility.yul\":24170:24205   */\n      swap1\n      pop\n        /* \"#utility.yul\":24142:24219   */\n    tag_459:\n        /* \"#utility.yul\":24245:24312   */\n      tag_460\n        /* \"#utility.yul\":24305:24311   */\n      dup6\n        /* \"#utility.yul\":24298:24303   */\n      dup3\n        /* \"#utility.yul\":24245:24312   */\n      tag_231\n      jump\t// in\n    tag_460:\n        /* \"#utility.yul\":24239:24243   */\n      dup7\n        /* \"#utility.yul\":24232:24313   */\n      sstore\n        /* \"#utility.yul\":24101:24323   */\n      pop\n        /* \"#utility.yul\":23436:24323   */\n      jump(tag_457)\n        /* \"#utility.yul\":23466:24084   */\n    tag_458:\n        /* \"#utility.yul\":23518:23522   */\n      0x1f\n        /* \"#utility.yul\":23514:23523   */\n      not\n        /* \"#utility.yul\":23506:23512   */\n      dup5\n        /* \"#utility.yul\":23502:23524   */\n      and\n        /* \"#utility.yul\":23552:23589   */\n      tag_461\n        /* \"#utility.yul\":23584:23588   */\n      dup7\n        /* \"#utility.yul\":23552:23589   */\n      tag_217\n      jump\t// in\n    tag_461:\n        /* \"#utility.yul\":23611:23612   */\n      0x00\n        /* \"#utility.yul\":23625:23833   */\n    tag_462:\n        /* \"#utility.yul\":23639:23646   */\n      dup3\n        /* \"#utility.yul\":23636:23637   */\n      dup2\n        /* \"#utility.yul\":23633:23647   */\n      lt\n        /* \"#utility.yul\":23625:23833   */\n      iszero\n      tag_464\n      jumpi\n        /* \"#utility.yul\":23718:23727   */\n      dup5\n        /* \"#utility.yul\":23713:23716   */\n      dup10\n        /* \"#utility.yul\":23709:23728   */\n      add\n        /* \"#utility.yul\":23703:23729   */\n      mload\n        /* \"#utility.yul\":23695:23701   */\n      dup3\n        /* \"#utility.yul\":23688:23730   */\n      sstore\n        /* \"#utility.yul\":23769:23770   */\n      0x01\n        /* \"#utility.yul\":23761:23767   */\n      dup3\n        /* \"#utility.yul\":23757:23771   */\n      add\n        /* \"#utility.yul\":23747:23771   */\n      swap2\n      pop\n        /* \"#utility.yul\":23816:23818   */\n      0x20\n        /* \"#utility.yul\":23805:23814   */\n      dup6\n        /* \"#utility.yul\":23801:23819   */\n      add\n        /* \"#utility.yul\":23788:23819   */\n      swap5\n      pop\n        /* \"#utility.yul\":23662:23666   */\n      0x20\n        /* \"#utility.yul\":23659:23660   */\n      dup2\n        /* \"#utility.yul\":23655:23667   */\n      add\n        /* \"#utility.yul\":23650:23667   */\n      swap1\n      pop\n        /* \"#utility.yul\":23625:23833   */\n      jump(tag_462)\n    tag_464:\n        /* \"#utility.yul\":23861:23867   */\n      dup7\n        /* \"#utility.yul\":23852:23859   */\n      dup4\n        /* \"#utility.yul\":23849:23868   */\n      lt\n        /* \"#utility.yul\":23846:24025   */\n      iszero\n      tag_465\n      jumpi\n        /* \"#utility.yul\":23919:23928   */\n      dup5\n        /* \"#utility.yul\":23914:23917   */\n      dup10\n        /* \"#utility.yul\":23910:23929   */\n      add\n        /* \"#utility.yul\":23904:23930   */\n      mload\n        /* \"#utility.yul\":23962:24010   */\n      tag_466\n        /* \"#utility.yul\":24004:24008   */\n      0x1f\n        /* \"#utility.yul\":23996:24002   */\n      dup10\n        /* \"#utility.yul\":23992:24009   */\n      and\n        /* \"#utility.yul\":23981:23990   */\n      dup3\n        /* \"#utility.yul\":23962:24010   */\n      tag_230\n      jump\t// in\n    tag_466:\n        /* \"#utility.yul\":23954:23960   */\n      dup4\n        /* \"#utility.yul\":23947:24011   */\n      sstore\n        /* \"#utility.yul\":23869:24025   */\n      pop\n        /* \"#utility.yul\":23846:24025   */\n    tag_465:\n        /* \"#utility.yul\":24071:24072   */\n      0x01\n        /* \"#utility.yul\":24067:24068   */\n      0x02\n        /* \"#utility.yul\":24059:24065   */\n      dup9\n        /* \"#utility.yul\":24055:24069   */\n      mul\n        /* \"#utility.yul\":24051:24073   */\n      add\n        /* \"#utility.yul\":24045:24049   */\n      dup9\n        /* \"#utility.yul\":24038:24074   */\n      sstore\n        /* \"#utility.yul\":23473:24084   */\n      pop\n      pop\n      pop\n        /* \"#utility.yul\":23436:24323   */\n    tag_457:\n      pop\n        /* \"#utility.yul\":23026:24329   */\n      pop\n      pop\n      pop\n        /* \"#utility.yul\":22934:24329   */\n      pop\n      pop\n      jump\t// out\n        /* \"#utility.yul\":24335:24507   */\n    tag_232:\n        /* \"#utility.yul\":24475:24499   */\n      0x53656c6c6572206e6f7420726567697374657265642100000000000000000000\n        /* \"#utility.yul\":24471:24472   */\n      0x00\n        /* \"#utility.yul\":24463:24469   */\n      dup3\n        /* \"#utility.yul\":24459:24473   */\n      add\n        /* \"#utility.yul\":24452:24500   */\n      mstore\n        /* \"#utility.yul\":24335:24507   */\n      pop\n      jump\t// out\n        /* \"#utility.yul\":24513:24879   */\n    tag_233:\n        /* \"#utility.yul\":24655:24658   */\n      0x00\n        /* \"#utility.yul\":24676:24743   */\n      tag_469\n        /* \"#utility.yul\":24740:24742   */\n      0x16\n        /* \"#utility.yul\":24735:24738   */\n      dup4\n        /* \"#utility.yul\":24676:24743   */\n      tag_202\n      jump\t// in\n    tag_469:\n        /* \"#utility.yul\":24669:24743   */\n      swap2\n      pop\n        /* \"#utility.yul\":24752:24845   */\n      tag_470\n        /* \"#utility.yul\":24841:24844   */\n      dup3\n        /* \"#utility.yul\":24752:24845   */\n      tag_232\n      jump\t// in\n    tag_470:\n        /* \"#utility.yul\":24870:24872   */\n      0x20\n        /* \"#utility.yul\":24865:24868   */\n      dup3\n        /* \"#utility.yul\":24861:24873   */\n      add\n        /* \"#utility.yul\":24854:24873   */\n      swap1\n      pop\n        /* \"#utility.yul\":24513:24879   */\n      swap2\n      swap1\n      pop\n      jump\t// out\n        /* \"#utility.yul\":24885:25304   */\n    tag_165:\n        /* \"#utility.yul\":25051:25055   */\n      0x00\n        /* \"#utility.yul\":25089:25091   */\n      0x20\n        /* \"#utility.yul\":25078:25087   */\n      dup3\n        /* \"#utility.yul\":25074:25092   */\n      add\n        /* \"#utility.yul\":25066:25092   */\n      swap1\n      pop\n        /* \"#utility.yul\":25138:25147   */\n      dup2\n        /* \"#utility.yul\":25132:25136   */\n      dup2\n        /* \"#utility.yul\":25128:25148   */\n      sub\n        /* \"#utility.yul\":25124:25125   */\n      0x00\n        /* \"#utility.yul\":25113:25122   */\n      dup4\n        /* \"#utility.yul\":25109:25126   */\n      add\n        /* \"#utility.yul\":25102:25149   */\n      mstore\n        /* \"#utility.yul\":25166:25297   */\n      tag_472\n        /* \"#utility.yul\":25292:25296   */\n      dup2\n        /* \"#utility.yul\":25166:25297   */\n      tag_233\n      jump\t// in\n    tag_472:\n        /* \"#utility.yul\":25158:25297   */\n      swap1\n      pop\n        /* \"#utility.yul\":24885:25304   */\n      swap2\n      swap1\n      pop\n      jump\t// out\n\n    auxdata: 0xa264697066735822122074b0d683405bc55cf224b990da24cf2d436b0d547585d1f331e8618158d47dc764736f6c634300081a0033\n}\n",
				"bytecode": {
					"linkReferences": {},
					"object": "6080604052348015600e575f80fd5b50611e388061001c5f395ff3fe608060405234801561000f575f80fd5b506004361061007b575f3560e01c8063903a945111610059578063903a9451146100ff578063b1c8ad0d1461012f578063b7b6e54314610167578063dce9b619146101855761007b565b80636c844a7b1461007f5780636d47ab72146100af5780637e8555ed146100e3575b5f80fd5b610099600480360381019061009491906112ee565b6101a1565b6040516100a691906114d1565b60405180910390f35b6100c960048036038101906100c4919061151b565b6105a2565b6040516100da95949392919061158e565b60405180910390f35b6100fd60048036038101906100f89190611602565b610871565b005b6101196004803603810190610114919061172f565b610998565b604051610126919061175a565b60405180910390f35b610149600480360381019061014491906112ee565b610a3e565b60405161015e99989796959493929190611798565b60405180910390f35b61016f610de3565b60405161017c9190611908565b60405180910390f35b61019f600480360381019061019a9190611928565b610eb7565b005b6101a9611142565b6001826040516101b99190611abb565b9081526020016040518091039020604051806101200160405290815f820180546101e290611afe565b80601f016020809104026020016040519081016040528092919081815260200182805461020e90611afe565b80156102595780601f1061023057610100808354040283529160200191610259565b820191905f5260205f20905b81548152906001019060200180831161023c57829003601f168201915b5050505050815260200160018201805461027290611afe565b80601f016020809104026020016040519081016040528092919081815260200182805461029e90611afe565b80156102e95780601f106102c0576101008083540402835291602001916102e9565b820191905f5260205f20905b8154815290600101906020018083116102cc57829003601f168201915b50505050508152602001600282015481526020016003820154815260200160048201805461031690611afe565b80601f016020809104026020016040519081016040528092919081815260200182805461034290611afe565b801561038d5780601f106103645761010080835404028352916020019161038d565b820191905f5260205f20905b81548152906001019060200180831161037057829003601f168201915b505050505081526020016005820180546103a690611afe565b80601f01602080910402602001604051908101604052809291908181526020018280546103d290611afe565b801561041d5780601f106103f45761010080835404028352916020019161041d565b820191905f5260205f20905b81548152906001019060200180831161040057829003601f168201915b5050505050815260200160068201805461043690611afe565b80601f016020809104026020016040519081016040528092919081815260200182805461046290611afe565b80156104ad5780601f10610484576101008083540402835291602001916104ad565b820191905f5260205f20905b81548152906001019060200180831161049057829003601f168201915b505050505081526020016007820180546104c690611afe565b80601f01602080910402602001604051908101604052809291908181526020018280546104f290611afe565b801561053d5780601f106105145761010080835404028352916020019161053d565b820191905f5260205f20905b81548152906001019060200180831161052057829003601f168201915b50505050508152602001600882015f9054906101000a900473ffffffffffffffffffffffffffffffffffffffff1673ffffffffffffffffffffffffffffffffffffffff1673ffffffffffffffffffffffffffffffffffffffff16815250509050919050565b5f602052805f5260405f205f91509050805f0180546105c090611afe565b80601f01602080910402602001604051908101604052809291908181526020018280546105ec90611afe565b80156106375780601f1061060e57610100808354040283529160200191610637565b820191905f5260205f20905b81548152906001019060200180831161061a57829003601f168201915b50505050509080600101805461064c90611afe565b80601f016020809104026020016040519081016040528092919081815260200182805461067890611afe565b80156106c35780601f1061069a576101008083540402835291602001916106c3565b820191905f5260205f20905b8154815290600101906020018083116106a657829003601f168201915b5050505050908060020180546106d890611afe565b80601f016020809104026020016040519081016040528092919081815260200182805461070490611afe565b801561074f5780601f106107265761010080835404028352916020019161074f565b820191905f5260205f20905b81548152906001019060200180831161073257829003601f168201915b50505050509080600301805461076490611afe565b80601f016020809104026020016040519081016040528092919081815260200182805461079090611afe565b80156107db5780601f106107b2576101008083540402835291602001916107db565b820191905f5260205f20905b8154815290600101906020018083116107be57829003601f168201915b5050505050908060040180546107f090611afe565b80601f016020809104026020016040519081016040528092919081815260200182805461081c90611afe565b80156108675780601f1061083e57610100808354040283529160200191610867565b820191905f5260205f20905b81548152906001019060200180831161084a57829003601f168201915b5050505050905085565b6040518060a00160405280868152602001858152602001848152602001838152602001828152505f803373ffffffffffffffffffffffffffffffffffffffff1673ffffffffffffffffffffffffffffffffffffffff1681526020019081526020015f205f820151815f0190816108e79190611ccb565b5060208201518160010190816108fd9190611ccb565b5060408201518160020190816109139190611ccb565b5060608201518160030190816109299190611ccb565b50608082015181600401908161093f9190611ccb565b509050503373ffffffffffffffffffffffffffffffffffffffff167fecef9454c60fab6a60b6f2aa319263c0f711cdb927c213e76687f7853b59784286604051610989919061175a565b60405180910390a25050505050565b600281815481106109a7575f80fd5b905f5260205f20015f9150905080546109bf90611afe565b80601f01602080910402602001604051908101604052809291908181526020018280546109eb90611afe565b8015610a365780601f10610a0d57610100808354040283529160200191610a36565b820191905f5260205f20905b815481529060010190602001808311610a1957829003601f168201915b505050505081565b6001818051602081018201805184825260208301602085012081835280955050505050505f91509050805f018054610a7590611afe565b80601f0160208091040260200160405190810160405280929190818152602001828054610aa190611afe565b8015610aec5780601f10610ac357610100808354040283529160200191610aec565b820191905f5260205f20905b815481529060010190602001808311610acf57829003601f168201915b505050505090806001018054610b0190611afe565b80601f0160208091040260200160405190810160405280929190818152602001828054610b2d90611afe565b8015610b785780601f10610b4f57610100808354040283529160200191610b78565b820191905f5260205f20905b815481529060010190602001808311610b5b57829003601f168201915b505050505090806002015490806003015490806004018054610b9990611afe565b80601f0160208091040260200160405190810160405280929190818152602001828054610bc590611afe565b8015610c105780601f10610be757610100808354040283529160200191610c10565b820191905f5260205f20905b815481529060010190602001808311610bf357829003601f168201915b505050505090806005018054610c2590611afe565b80601f0160208091040260200160405190810160405280929190818152602001828054610c5190611afe565b8015610c9c5780601f10610c7357610100808354040283529160200191610c9c565b820191905f5260205f20905b815481529060010190602001808311610c7f57829003601f168201915b505050505090806006018054610cb190611afe565b80601f0160208091040260200160405190810160405280929190818152602001828054610cdd90611afe565b8015610d285780601f10610cff57610100808354040283529160200191610d28565b820191905f5260205f20905b815481529060010190602001808311610d0b57829003601f168201915b505050505090806007018054610d3d90611afe565b80601f0160208091040260200160405190810160405280929190818152602001828054610d6990611afe565b8015610db45780601f10610d8b57610100808354040283529160200191610db4565b820191905f5260205f20905b815481529060010190602001808311610d9757829003601f168201915b505050505090806008015f9054906101000a900473ffffffffffffffffffffffffffffffffffffffff16905089565b60606002805480602002602001604051908101604052809291908181526020015f905b82821015610eae578382905f5260205f20018054610e2390611afe565b80601f0160208091040260200160405190810160405280929190818152602001828054610e4f90611afe565b8015610e9a5780601f10610e7157610100808354040283529160200191610e9a565b820191905f5260205f20905b815481529060010190602001808311610e7d57829003601f168201915b505050505081526020019060010190610e06565b50505050905090565b5f805f3373ffffffffffffffffffffffffffffffffffffffff1673ffffffffffffffffffffffffffffffffffffffff1681526020019081526020015f205f018054610f0190611afe565b905003610f43576040517f08c379a0000000000000000000000000000000000000000000000000000000008152600401610f3a90611de4565b60405180910390fd5b6040518061012001604052808981526020018881526020018781526020018681526020018581526020018481526020018381526020018281526020013373ffffffffffffffffffffffffffffffffffffffff16815250600183604051610fa99190611abb565b90815260200160405180910390205f820151815f019081610fca9190611ccb565b506020820151816001019081610fe09190611ccb565b506040820151816002015560608201518160030155608082015181600401908161100a9190611ccb565b5060a08201518160050190816110209190611ccb565b5060c08201518160060190816110369190611ccb565b5060e082015181600701908161104c9190611ccb565b50610100820151816008015f6101000a81548173ffffffffffffffffffffffffffffffffffffffff021916908373ffffffffffffffffffffffffffffffffffffffff160217905550905050600282908060018154018082558091505060019003905f5260205f20015f9091909190915090816110c89190611ccb565b503373ffffffffffffffffffffffffffffffffffffffff16816040516110ee9190611abb565b6040518091039020836040516111049190611abb565b60405180910390207f8fc0b98e2a4d15d56022a359dfad20c1a2f2dae54da50c061967e456c4c3d65560405160405180910390a45050505050505050565b60405180610120016040528060608152602001606081526020015f81526020015f8152602001606081526020016060815260200160608152602001606081526020015f73ffffffffffffffffffffffffffffffffffffffff1681525090565b5f604051905090565b5f80fd5b5f80fd5b5f80fd5b5f80fd5b5f601f19601f8301169050919050565b7f4e487b71000000000000000000000000000000000000000000000000000000005f52604160045260245ffd5b611200826111ba565b810181811067ffffffffffffffff8211171561121f5761121e6111ca565b5b80604052505050565b5f6112316111a1565b905061123d82826111f7565b919050565b5f67ffffffffffffffff82111561125c5761125b6111ca565b5b611265826111ba565b9050602081019050919050565b828183375f83830152505050565b5f61129261128d84611242565b611228565b9050828152602081018484840111156112ae576112ad6111b6565b5b6112b9848285611272565b509392505050565b5f82601f8301126112d5576112d46111b2565b5b81356112e5848260208601611280565b91505092915050565b5f60208284031215611303576113026111aa565b5b5f82013567ffffffffffffffff8111156113205761131f6111ae565b5b61132c848285016112c1565b91505092915050565b5f81519050919050565b5f82825260208201905092915050565b8281835e5f83830152505050565b5f61136782611335565b611371818561133f565b935061138181856020860161134f565b61138a816111ba565b840191505092915050565b5f819050919050565b6113a781611395565b82525050565b5f73ffffffffffffffffffffffffffffffffffffffff82169050919050565b5f6113d6826113ad565b9050919050565b6113e6816113cc565b82525050565b5f61012083015f8301518482035f860152611407828261135d565b91505060208301518482036020860152611421828261135d565b9150506040830151611436604086018261139e565b506060830151611449606086018261139e565b5060808301518482036080860152611461828261135d565b91505060a083015184820360a086015261147b828261135d565b91505060c083015184820360c0860152611495828261135d565b91505060e083015184820360e08601526114af828261135d565b9150506101008301516114c66101008601826113dd565b508091505092915050565b5f6020820190508181035f8301526114e981846113ec565b905092915050565b6114fa816113cc565b8114611504575f80fd5b50565b5f81359050611515816114f1565b92915050565b5f602082840312156115305761152f6111aa565b5b5f61153d84828501611507565b91505092915050565b5f82825260208201905092915050565b5f61156082611335565b61156a8185611546565b935061157a81856020860161134f565b611583816111ba565b840191505092915050565b5f60a0820190508181035f8301526115a68188611556565b905081810360208301526115ba8187611556565b905081810360408301526115ce8186611556565b905081810360608301526115e28185611556565b905081810360808301526115f68184611556565b90509695505050505050565b5f805f805f60a0868803121561161b5761161a6111aa565b5b5f86013567ffffffffffffffff811115611638576116376111ae565b5b611644888289016112c1565b955050602086013567ffffffffffffffff811115611665576116646111ae565b5b611671888289016112c1565b945050604086013567ffffffffffffffff811115611692576116916111ae565b5b61169e888289016112c1565b935050606086013567ffffffffffffffff8111156116bf576116be6111ae565b5b6116cb888289016112c1565b925050608086013567ffffffffffffffff8111156116ec576116eb6111ae565b5b6116f8888289016112c1565b9150509295509295909350565b61170e81611395565b8114611718575f80fd5b50565b5f8135905061172981611705565b92915050565b5f60208284031215611744576117436111aa565b5b5f6117518482850161171b565b91505092915050565b5f6020820190508181035f8301526117728184611556565b905092915050565b61178381611395565b82525050565b611792816113cc565b82525050565b5f610120820190508181035f8301526117b1818c611556565b905081810360208301526117c5818b611556565b90506117d4604083018a61177a565b6117e1606083018961177a565b81810360808301526117f38188611556565b905081810360a08301526118078187611556565b905081810360c083015261181b8186611556565b905081810360e083015261182f8185611556565b905061183f610100830184611789565b9a9950505050505050505050565b5f81519050919050565b5f82825260208201905092915050565b5f819050602082019050919050565b5f611881838361135d565b905092915050565b5f602082019050919050565b5f61189f8261184d565b6118a98185611857565b9350836020820285016118bb85611867565b805f5b858110156118f657848403895281516118d78582611876565b94506118e283611889565b925060208a019950506001810190506118be565b50829750879550505050505092915050565b5f6020820190508181035f8301526119208184611895565b905092915050565b5f805f805f805f80610100898b031215611945576119446111aa565b5b5f89013567ffffffffffffffff811115611962576119616111ae565b5b61196e8b828c016112c1565b985050602089013567ffffffffffffffff81111561198f5761198e6111ae565b5b61199b8b828c016112c1565b97505060406119ac8b828c0161171b565b96505060606119bd8b828c0161171b565b955050608089013567ffffffffffffffff8111156119de576119dd6111ae565b5b6119ea8b828c016112c1565b94505060a089013567ffffffffffffffff811115611a0b57611a0a6111ae565b5b611a178b828c016112c1565b93505060c089013567ffffffffffffffff811115611a3857611a376111ae565b5b611a448b828c016112c1565b92505060e089013567ffffffffffffffff811115611a6557611a646111ae565b5b611a718b828c016112c1565b9150509295985092959890939650565b5f81905092915050565b5f611a9582611335565b611a9f8185611a81565b9350611aaf81856020860161134f565b80840191505092915050565b5f611ac68284611a8b565b915081905092915050565b7f4e487b71000000000000000000000000000000000000000000000000000000005f52602260045260245ffd5b5f6002820490506001821680611b1557607f821691505b602082108103611b2857611b27611ad1565b5b50919050565b5f819050815f5260205f209050919050565b5f6020601f8301049050919050565b5f82821b905092915050565b5f60088302611b8a7fffffffffffffffffffffffffffffffffffffffffffffffffffffffffffffffff82611b4f565b611b948683611b4f565b95508019841693508086168417925050509392505050565b5f819050919050565b5f611bcf611bca611bc584611395565b611bac565b611395565b9050919050565b5f819050919050565b611be883611bb5565b611bfc611bf482611bd6565b848454611b5b565b825550505050565b5f90565b611c10611c04565b611c1b818484611bdf565b505050565b5b81811015611c3e57611c335f82611c08565b600181019050611c21565b5050565b601f821115611c8357611c5481611b2e565b611c5d84611b40565b81016020851015611c6c578190505b611c80611c7885611b40565b830182611c20565b50505b505050565b5f82821c905092915050565b5f611ca35f1984600802611c88565b1980831691505092915050565b5f611cbb8383611c94565b9150826002028217905092915050565b611cd482611335565b67ffffffffffffffff811115611ced57611cec6111ca565b5b611cf78254611afe565b611d02828285611c42565b5f60209050601f831160018114611d33575f8415611d21578287015190505b611d2b8582611cb0565b865550611d92565b601f198416611d4186611b2e565b5f5b82811015611d6857848901518255600182019150602085019450602081019050611d43565b86831015611d855784890151611d81601f891682611c94565b8355505b6001600288020188555050505b505050505050565b7f53656c6c6572206e6f74207265676973746572656421000000000000000000005f82015250565b5f611dce601683611546565b9150611dd982611d9a565b602082019050919050565b5f6020820190508181035f830152611dfb81611dc2565b905091905056fea264697066735822122074b0d683405bc55cf224b990da24cf2d436b0d547585d1f331e8618158d47dc764736f6c634300081a0033",
					"opcodes": "PUSH1 0x80 PUSH1 0x40 MSTORE CALLVALUE DUP1 ISZERO PUSH1 0xE JUMPI PUSH0 DUP1 REVERT JUMPDEST POP PUSH2 0x1E38 DUP1 PUSH2 0x1C PUSH0 CODECOPY PUSH0 RETURN INVALID PUSH1 0x80 PUSH1 0x40 MSTORE CALLVALUE DUP1 ISZERO PUSH2 0xF JUMPI PUSH0 DUP1 REVERT JUMPDEST POP PUSH1 0x4 CALLDATASIZE LT PUSH2 0x7B JUMPI PUSH0 CALLDATALOAD PUSH1 0xE0 SHR DUP1 PUSH4 0x903A9451 GT PUSH2 0x59 JUMPI DUP1 PUSH4 0x903A9451 EQ PUSH2 0xFF JUMPI DUP1 PUSH4 0xB1C8AD0D EQ PUSH2 0x12F JUMPI DUP1 PUSH4 0xB7B6E543 EQ PUSH2 0x167 JUMPI DUP1 PUSH4 0xDCE9B619 EQ PUSH2 0x185 JUMPI PUSH2 0x7B JUMP JUMPDEST DUP1 PUSH4 0x6C844A7B EQ PUSH2 0x7F JUMPI DUP1 PUSH4 0x6D47AB72 EQ PUSH2 0xAF JUMPI DUP1 PUSH4 0x7E8555ED EQ PUSH2 0xE3 JUMPI JUMPDEST PUSH0 DUP1 REVERT JUMPDEST PUSH2 0x99 PUSH1 0x4 DUP1 CALLDATASIZE SUB DUP2 ADD SWAP1 PUSH2 0x94 SWAP2 SWAP1 PUSH2 0x12EE JUMP JUMPDEST PUSH2 0x1A1 JUMP JUMPDEST PUSH1 0x40 MLOAD PUSH2 0xA6 SWAP2 SWAP1 PUSH2 0x14D1 JUMP JUMPDEST PUSH1 0x40 MLOAD DUP1 SWAP2 SUB SWAP1 RETURN JUMPDEST PUSH2 0xC9 PUSH1 0x4 DUP1 CALLDATASIZE SUB DUP2 ADD SWAP1 PUSH2 0xC4 SWAP2 SWAP1 PUSH2 0x151B JUMP JUMPDEST PUSH2 0x5A2 JUMP JUMPDEST PUSH1 0x40 MLOAD PUSH2 0xDA SWAP6 SWAP5 SWAP4 SWAP3 SWAP2 SWAP1 PUSH2 0x158E JUMP JUMPDEST PUSH1 0x40 MLOAD DUP1 SWAP2 SUB SWAP1 RETURN JUMPDEST PUSH2 0xFD PUSH1 0x4 DUP1 CALLDATASIZE SUB DUP2 ADD SWAP1 PUSH2 0xF8 SWAP2 SWAP1 PUSH2 0x1602 JUMP JUMPDEST PUSH2 0x871 JUMP JUMPDEST STOP JUMPDEST PUSH2 0x119 PUSH1 0x4 DUP1 CALLDATASIZE SUB DUP2 ADD SWAP1 PUSH2 0x114 SWAP2 SWAP1 PUSH2 0x172F JUMP JUMPDEST PUSH2 0x998 JUMP JUMPDEST PUSH1 0x40 MLOAD PUSH2 0x126 SWAP2 SWAP1 PUSH2 0x175A JUMP JUMPDEST PUSH1 0x40 MLOAD DUP1 SWAP2 SUB SWAP1 RETURN JUMPDEST PUSH2 0x149 PUSH1 0x4 DUP1 CALLDATASIZE SUB DUP2 ADD SWAP1 PUSH2 0x144 SWAP2 SWAP1 PUSH2 0x12EE JUMP JUMPDEST PUSH2 0xA3E JUMP JUMPDEST PUSH1 0x40 MLOAD PUSH2 0x15E SWAP10 SWAP9 SWAP8 SWAP7 SWAP6 SWAP5 SWAP4 SWAP3 SWAP2 SWAP1 PUSH2 0x1798 JUMP JUMPDEST PUSH1 0x40 MLOAD DUP1 SWAP2 SUB SWAP1 RETURN JUMPDEST PUSH2 0x16F PUSH2 0xDE3 JUMP JUMPDEST PUSH1 0x40 MLOAD PUSH2 0x17C SWAP2 SWAP1 PUSH2 0x1908 JUMP JUMPDEST PUSH1 0x40 MLOAD DUP1 SWAP2 SUB SWAP1 RETURN JUMPDEST PUSH2 0x19F PUSH1 0x4 DUP1 CALLDATASIZE SUB DUP2 ADD SWAP1 PUSH2 0x19A SWAP2 SWAP1 PUSH2 0x1928 JUMP JUMPDEST PUSH2 0xEB7 JUMP JUMPDEST STOP JUMPDEST PUSH2 0x1A9 PUSH2 0x1142 JUMP JUMPDEST PUSH1 0x1 DUP3 PUSH1 0x40 MLOAD PUSH2 0x1B9 SWAP2 SWAP1 PUSH2 0x1ABB JUMP JUMPDEST SWAP1 DUP2 MSTORE PUSH1 0x20 ADD PUSH1 0x40 MLOAD DUP1 SWAP2 SUB SWAP1 KECCAK256 PUSH1 0x40 MLOAD DUP1 PUSH2 0x120 ADD PUSH1 0x40 MSTORE SWAP1 DUP2 PUSH0 DUP3 ADD DUP1 SLOAD PUSH2 0x1E2 SWAP1 PUSH2 0x1AFE JUMP JUMPDEST DUP1 PUSH1 0x1F ADD PUSH1 0x20 DUP1 SWAP2 DIV MUL PUSH1 0x20 ADD PUSH1 0x40 MLOAD SWAP1 DUP2 ADD PUSH1 0x40 MSTORE DUP1 SWAP3 SWAP2 SWAP1 DUP2 DUP2 MSTORE PUSH1 0x20 ADD DUP3 DUP1 SLOAD PUSH2 0x20E SWAP1 PUSH2 0x1AFE JUMP JUMPDEST DUP1 ISZERO PUSH2 0x259 JUMPI DUP1 PUSH1 0x1F LT PUSH2 0x230 JUMPI PUSH2 0x100 DUP1 DUP4 SLOAD DIV MUL DUP4 MSTORE SWAP2 PUSH1 0x20 ADD SWAP2 PUSH2 0x259 JUMP JUMPDEST DUP3 ADD SWAP2 SWAP1 PUSH0 MSTORE PUSH1 0x20 PUSH0 KECCAK256 SWAP1 JUMPDEST DUP2 SLOAD DUP2 MSTORE SWAP1 PUSH1 0x1 ADD SWAP1 PUSH1 0x20 ADD DUP1 DUP4 GT PUSH2 0x23C JUMPI DUP3 SWAP1 SUB PUSH1 0x1F AND DUP3 ADD SWAP2 JUMPDEST POP POP POP POP POP DUP2 MSTORE PUSH1 0x20 ADD PUSH1 0x1 DUP3 ADD DUP1 SLOAD PUSH2 0x272 SWAP1 PUSH2 0x1AFE JUMP JUMPDEST DUP1 PUSH1 0x1F ADD PUSH1 0x20 DUP1 SWAP2 DIV MUL PUSH1 0x20 ADD PUSH1 0x40 MLOAD SWAP1 DUP2 ADD PUSH1 0x40 MSTORE DUP1 SWAP3 SWAP2 SWAP1 DUP2 DUP2 MSTORE PUSH1 0x20 ADD DUP3 DUP1 SLOAD PUSH2 0x29E SWAP1 PUSH2 0x1AFE JUMP JUMPDEST DUP1 ISZERO PUSH2 0x2E9 JUMPI DUP1 PUSH1 0x1F LT PUSH2 0x2C0 JUMPI PUSH2 0x100 DUP1 DUP4 SLOAD DIV MUL DUP4 MSTORE SWAP2 PUSH1 0x20 ADD SWAP2 PUSH2 0x2E9 JUMP JUMPDEST DUP3 ADD SWAP2 SWAP1 PUSH0 MSTORE PUSH1 0x20 PUSH0 KECCAK256 SWAP1 JUMPDEST DUP2 SLOAD DUP2 MSTORE SWAP1 PUSH1 0x1 ADD SWAP1 PUSH1 0x20 ADD DUP1 DUP4 GT PUSH2 0x2CC JUMPI DUP3 SWAP1 SUB PUSH1 0x1F AND DUP3 ADD SWAP2 JUMPDEST POP POP POP POP POP DUP2 MSTORE PUSH1 0x20 ADD PUSH1 0x2 DUP3 ADD SLOAD DUP2 MSTORE PUSH1 0x20 ADD PUSH1 0x3 DUP3 ADD SLOAD DUP2 MSTORE PUSH1 0x20 ADD PUSH1 0x4 DUP3 ADD DUP1 SLOAD PUSH2 0x316 SWAP1 PUSH2 0x1AFE JUMP JUMPDEST DUP1 PUSH1 0x1F ADD PUSH1 0x20 DUP1 SWAP2 DIV MUL PUSH1 0x20 ADD PUSH1 0x40 MLOAD SWAP1 DUP2 ADD PUSH1 0x40 MSTORE DUP1 SWAP3 SWAP2 SWAP1 DUP2 DUP2 MSTORE PUSH1 0x20 ADD DUP3 DUP1 SLOAD PUSH2 0x342 SWAP1 PUSH2 0x1AFE JUMP JUMPDEST DUP1 ISZERO PUSH2 0x38D JUMPI DUP1 PUSH1 0x1F LT PUSH2 0x364 JUMPI PUSH2 0x100 DUP1 DUP4 SLOAD DIV MUL DUP4 MSTORE SWAP2 PUSH1 0x20 ADD SWAP2 PUSH2 0x38D JUMP JUMPDEST DUP3 ADD SWAP2 SWAP1 PUSH0 MSTORE PUSH1 0x20 PUSH0 KECCAK256 SWAP1 JUMPDEST DUP2 SLOAD DUP2 MSTORE SWAP1 PUSH1 0x1 ADD SWAP1 PUSH1 0x20 ADD DUP1 DUP4 GT PUSH2 0x370 JUMPI DUP3 SWAP1 SUB PUSH1 0x1F AND DUP3 ADD SWAP2 JUMPDEST POP POP POP POP POP DUP2 MSTORE PUSH1 0x20 ADD PUSH1 0x5 DUP3 ADD DUP1 SLOAD PUSH2 0x3A6 SWAP1 PUSH2 0x1AFE JUMP JUMPDEST DUP1 PUSH1 0x1F ADD PUSH1 0x20 DUP1 SWAP2 DIV MUL PUSH1 0x20 ADD PUSH1 0x40 MLOAD SWAP1 DUP2 ADD PUSH1 0x40 MSTORE DUP1 SWAP3 SWAP2 SWAP1 DUP2 DUP2 MSTORE PUSH1 0x20 ADD DUP3 DUP1 SLOAD PUSH2 0x3D2 SWAP1 PUSH2 0x1AFE JUMP JUMPDEST DUP1 ISZERO PUSH2 0x41D JUMPI DUP1 PUSH1 0x1F LT PUSH2 0x3F4 JUMPI PUSH2 0x100 DUP1 DUP4 SLOAD DIV MUL DUP4 MSTORE SWAP2 PUSH1 0x20 ADD SWAP2 PUSH2 0x41D JUMP JUMPDEST DUP3 ADD SWAP2 SWAP1 PUSH0 MSTORE PUSH1 0x20 PUSH0 KECCAK256 SWAP1 JUMPDEST DUP2 SLOAD DUP2 MSTORE SWAP1 PUSH1 0x1 ADD SWAP1 PUSH1 0x20 ADD DUP1 DUP4 GT PUSH2 0x400 JUMPI DUP3 SWAP1 SUB PUSH1 0x1F AND DUP3 ADD SWAP2 JUMPDEST POP POP POP POP POP DUP2 MSTORE PUSH1 0x20 ADD PUSH1 0x6 DUP3 ADD DUP1 SLOAD PUSH2 0x436 SWAP1 PUSH2 0x1AFE JUMP JUMPDEST DUP1 PUSH1 0x1F ADD PUSH1 0x20 DUP1 SWAP2 DIV MUL PUSH1 0x20 ADD PUSH1 0x40 MLOAD SWAP1 DUP2 ADD PUSH1 0x40 MSTORE DUP1 SWAP3 SWAP2 SWAP1 DUP2 DUP2 MSTORE PUSH1 0x20 ADD DUP3 DUP1 SLOAD PUSH2 0x462 SWAP1 PUSH2 0x1AFE JUMP JUMPDEST DUP1 ISZERO PUSH2 0x4AD JUMPI DUP1 PUSH1 0x1F LT PUSH2 0x484 JUMPI PUSH2 0x100 DUP1 DUP4 SLOAD DIV MUL DUP4 MSTORE SWAP2 PUSH1 0x20 ADD SWAP2 PUSH2 0x4AD JUMP JUMPDEST DUP3 ADD SWAP2 SWAP1 PUSH0 MSTORE PUSH1 0x20 PUSH0 KECCAK256 SWAP1 JUMPDEST DUP2 SLOAD DUP2 MSTORE SWAP1 PUSH1 0x1 ADD SWAP1 PUSH1 0x20 ADD DUP1 DUP4 GT PUSH2 0x490 JUMPI DUP3 SWAP1 SUB PUSH1 0x1F AND DUP3 ADD SWAP2 JUMPDEST POP POP POP POP POP DUP2 MSTORE PUSH1 0x20 ADD PUSH1 0x7 DUP3 ADD DUP1 SLOAD PUSH2 0x4C6 SWAP1 PUSH2 0x1AFE JUMP JUMPDEST DUP1 PUSH1 0x1F ADD PUSH1 0x20 DUP1 SWAP2 DIV MUL PUSH1 0x20 ADD PUSH1 0x40 MLOAD SWAP1 DUP2 ADD PUSH1 0x40 MSTORE DUP1 SWAP3 SWAP2 SWAP1 DUP2 DUP2 MSTORE PUSH1 0x20 ADD DUP3 DUP1 SLOAD PUSH2 0x4F2 SWAP1 PUSH2 0x1AFE JUMP JUMPDEST DUP1 ISZERO PUSH2 0x53D JUMPI DUP1 PUSH1 0x1F LT PUSH2 0x514 JUMPI PUSH2 0x100 DUP1 DUP4 SLOAD DIV MUL DUP4 MSTORE SWAP2 PUSH1 0x20 ADD SWAP2 PUSH2 0x53D JUMP JUMPDEST DUP3 ADD SWAP2 SWAP1 PUSH0 MSTORE PUSH1 0x20 PUSH0 KECCAK256 SWAP1 JUMPDEST DUP2 SLOAD DUP2 MSTORE SWAP1 PUSH1 0x1 ADD SWAP1 PUSH1 0x20 ADD DUP1 DUP4 GT PUSH2 0x520 JUMPI DUP3 SWAP1 SUB PUSH1 0x1F AND DUP3 ADD SWAP2 JUMPDEST POP POP POP POP POP DUP2 MSTORE PUSH1 0x20 ADD PUSH1 0x8 DUP3 ADD PUSH0 SWAP1 SLOAD SWAP1 PUSH2 0x100 EXP SWAP1 DIV PUSH20 0xFFFFFFFFFFFFFFFFFFFFFFFFFFFFFFFFFFFFFFFF AND PUSH20 0xFFFFFFFFFFFFFFFFFFFFFFFFFFFFFFFFFFFFFFFF AND PUSH20 0xFFFFFFFFFFFFFFFFFFFFFFFFFFFFFFFFFFFFFFFF AND DUP2 MSTORE POP POP SWAP1 POP SWAP2 SWAP1 POP JUMP JUMPDEST PUSH0 PUSH1 0x20 MSTORE DUP1 PUSH0 MSTORE PUSH1 0x40 PUSH0 KECCAK256 PUSH0 SWAP2 POP SWAP1 POP DUP1 PUSH0 ADD DUP1 SLOAD PUSH2 0x5C0 SWAP1 PUSH2 0x1AFE JUMP JUMPDEST DUP1 PUSH1 0x1F ADD PUSH1 0x20 DUP1 SWAP2 DIV MUL PUSH1 0x20 ADD PUSH1 0x40 MLOAD SWAP1 DUP2 ADD PUSH1 0x40 MSTORE DUP1 SWAP3 SWAP2 SWAP1 DUP2 DUP2 MSTORE PUSH1 0x20 ADD DUP3 DUP1 SLOAD PUSH2 0x5EC SWAP1 PUSH2 0x1AFE JUMP JUMPDEST DUP1 ISZERO PUSH2 0x637 JUMPI DUP1 PUSH1 0x1F LT PUSH2 0x60E JUMPI PUSH2 0x100 DUP1 DUP4 SLOAD DIV MUL DUP4 MSTORE SWAP2 PUSH1 0x20 ADD SWAP2 PUSH2 0x637 JUMP JUMPDEST DUP3 ADD SWAP2 SWAP1 PUSH0 MSTORE PUSH1 0x20 PUSH0 KECCAK256 SWAP1 JUMPDEST DUP2 SLOAD DUP2 MSTORE SWAP1 PUSH1 0x1 ADD SWAP1 PUSH1 0x20 ADD DUP1 DUP4 GT PUSH2 0x61A JUMPI DUP3 SWAP1 SUB PUSH1 0x1F AND DUP3 ADD SWAP2 JUMPDEST POP POP POP POP POP SWAP1 DUP1 PUSH1 0x1 ADD DUP1 SLOAD PUSH2 0x64C SWAP1 PUSH2 0x1AFE JUMP JUMPDEST DUP1 PUSH1 0x1F ADD PUSH1 0x20 DUP1 SWAP2 DIV MUL PUSH1 0x20 ADD PUSH1 0x40 MLOAD SWAP1 DUP2 ADD PUSH1 0x40 MSTORE DUP1 SWAP3 SWAP2 SWAP1 DUP2 DUP2 MSTORE PUSH1 0x20 ADD DUP3 DUP1 SLOAD PUSH2 0x678 SWAP1 PUSH2 0x1AFE JUMP JUMPDEST DUP1 ISZERO PUSH2 0x6C3 JUMPI DUP1 PUSH1 0x1F LT PUSH2 0x69A JUMPI PUSH2 0x100 DUP1 DUP4 SLOAD DIV MUL DUP4 MSTORE SWAP2 PUSH1 0x20 ADD SWAP2 PUSH2 0x6C3 JUMP JUMPDEST DUP3 ADD SWAP2 SWAP1 PUSH0 MSTORE PUSH1 0x20 PUSH0 KECCAK256 SWAP1 JUMPDEST DUP2 SLOAD DUP2 MSTORE SWAP1 PUSH1 0x1 ADD SWAP1 PUSH1 0x20 ADD DUP1 DUP4 GT PUSH2 0x6A6 JUMPI DUP3 SWAP1 SUB PUSH1 0x1F AND DUP3 ADD SWAP2 JUMPDEST POP POP POP POP POP SWAP1 DUP1 PUSH1 0x2 ADD DUP1 SLOAD PUSH2 0x6D8 SWAP1 PUSH2 0x1AFE JUMP JUMPDEST DUP1 PUSH1 0x1F ADD PUSH1 0x20 DUP1 SWAP2 DIV MUL PUSH1 0x20 ADD PUSH1 0x40 MLOAD SWAP1 DUP2 ADD PUSH1 0x40 MSTORE DUP1 SWAP3 SWAP2 SWAP1 DUP2 DUP2 MSTORE PUSH1 0x20 ADD DUP3 DUP1 SLOAD PUSH2 0x704 SWAP1 PUSH2 0x1AFE JUMP JUMPDEST DUP1 ISZERO PUSH2 0x74F JUMPI DUP1 PUSH1 0x1F LT PUSH2 0x726 JUMPI PUSH2 0x100 DUP1 DUP4 SLOAD DIV MUL DUP4 MSTORE SWAP2 PUSH1 0x20 ADD SWAP2 PUSH2 0x74F JUMP JUMPDEST DUP3 ADD SWAP2 SWAP1 PUSH0 MSTORE PUSH1 0x20 PUSH0 KECCAK256 SWAP1 JUMPDEST DUP2 SLOAD DUP2 MSTORE SWAP1 PUSH1 0x1 ADD SWAP1 PUSH1 0x20 ADD DUP1 DUP4 GT PUSH2 0x732 JUMPI DUP3 SWAP1 SUB PUSH1 0x1F AND DUP3 ADD SWAP2 JUMPDEST POP POP POP POP POP SWAP1 DUP1 PUSH1 0x3 ADD DUP1 SLOAD PUSH2 0x764 SWAP1 PUSH2 0x1AFE JUMP JUMPDEST DUP1 PUSH1 0x1F ADD PUSH1 0x20 DUP1 SWAP2 DIV MUL PUSH1 0x20 ADD PUSH1 0x40 MLOAD SWAP1 DUP2 ADD PUSH1 0x40 MSTORE DUP1 SWAP3 SWAP2 SWAP1 DUP2 DUP2 MSTORE PUSH1 0x20 ADD DUP3 DUP1 SLOAD PUSH2 0x790 SWAP1 PUSH2 0x1AFE JUMP JUMPDEST DUP1 ISZERO PUSH2 0x7DB JUMPI DUP1 PUSH1 0x1F LT PUSH2 0x7B2 JUMPI PUSH2 0x100 DUP1 DUP4 SLOAD DIV MUL DUP4 MSTORE SWAP2 PUSH1 0x20 ADD SWAP2 PUSH2 0x7DB JUMP JUMPDEST DUP3 ADD SWAP2 SWAP1 PUSH0 MSTORE PUSH1 0x20 PUSH0 KECCAK256 SWAP1 JUMPDEST DUP2 SLOAD DUP2 MSTORE SWAP1 PUSH1 0x1 ADD SWAP1 PUSH1 0x20 ADD DUP1 DUP4 GT PUSH2 0x7BE JUMPI DUP3 SWAP1 SUB PUSH1 0x1F AND DUP3 ADD SWAP2 JUMPDEST POP POP POP POP POP SWAP1 DUP1 PUSH1 0x4 ADD DUP1 SLOAD PUSH2 0x7F0 SWAP1 PUSH2 0x1AFE JUMP JUMPDEST DUP1 PUSH1 0x1F ADD PUSH1 0x20 DUP1 SWAP2 DIV MUL PUSH1 0x20 ADD PUSH1 0x40 MLOAD SWAP1 DUP2 ADD PUSH1 0x40 MSTORE DUP1 SWAP3 SWAP2 SWAP1 DUP2 DUP2 MSTORE PUSH1 0x20 ADD DUP3 DUP1 SLOAD PUSH2 0x81C SWAP1 PUSH2 0x1AFE JUMP JUMPDEST DUP1 ISZERO PUSH2 0x867 JUMPI DUP1 PUSH1 0x1F LT PUSH2 0x83E JUMPI PUSH2 0x100 DUP1 DUP4 SLOAD DIV MUL DUP4 MSTORE SWAP2 PUSH1 0x20 ADD SWAP2 PUSH2 0x867 JUMP JUMPDEST DUP3 ADD SWAP2 SWAP1 PUSH0 MSTORE PUSH1 0x20 PUSH0 KECCAK256 SWAP1 JUMPDEST DUP2 SLOAD DUP2 MSTORE SWAP1 PUSH1 0x1 ADD SWAP1 PUSH1 0x20 ADD DUP1 DUP4 GT PUSH2 0x84A JUMPI DUP3 SWAP1 SUB PUSH1 0x1F AND DUP3 ADD SWAP2 JUMPDEST POP POP POP POP POP SWAP1 POP DUP6 JUMP JUMPDEST PUSH1 0x40 MLOAD DUP1 PUSH1 0xA0 ADD PUSH1 0x40 MSTORE DUP1 DUP7 DUP2 MSTORE PUSH1 0x20 ADD DUP6 DUP2 MSTORE PUSH1 0x20 ADD DUP5 DUP2 MSTORE PUSH1 0x20 ADD DUP4 DUP2 MSTORE PUSH1 0x20 ADD DUP3 DUP2 MSTORE POP PUSH0 DUP1 CALLER PUSH20 0xFFFFFFFFFFFFFFFFFFFFFFFFFFFFFFFFFFFFFFFF AND PUSH20 0xFFFFFFFFFFFFFFFFFFFFFFFFFFFFFFFFFFFFFFFF AND DUP2 MSTORE PUSH1 0x20 ADD SWAP1 DUP2 MSTORE PUSH1 0x20 ADD PUSH0 KECCAK256 PUSH0 DUP3 ADD MLOAD DUP2 PUSH0 ADD SWAP1 DUP2 PUSH2 0x8E7 SWAP2 SWAP1 PUSH2 0x1CCB JUMP JUMPDEST POP PUSH1 0x20 DUP3 ADD MLOAD DUP2 PUSH1 0x1 ADD SWAP1 DUP2 PUSH2 0x8FD SWAP2 SWAP1 PUSH2 0x1CCB JUMP JUMPDEST POP PUSH1 0x40 DUP3 ADD MLOAD DUP2 PUSH1 0x2 ADD SWAP1 DUP2 PUSH2 0x913 SWAP2 SWAP1 PUSH2 0x1CCB JUMP JUMPDEST POP PUSH1 0x60 DUP3 ADD MLOAD DUP2 PUSH1 0x3 ADD SWAP1 DUP2 PUSH2 0x929 SWAP2 SWAP1 PUSH2 0x1CCB JUMP JUMPDEST POP PUSH1 0x80 DUP3 ADD MLOAD DUP2 PUSH1 0x4 ADD SWAP1 DUP2 PUSH2 0x93F SWAP2 SWAP1 PUSH2 0x1CCB JUMP JUMPDEST POP SWAP1 POP POP CALLER PUSH20 0xFFFFFFFFFFFFFFFFFFFFFFFFFFFFFFFFFFFFFFFF AND PUSH32 0xECEF9454C60FAB6A60B6F2AA319263C0F711CDB927C213E76687F7853B597842 DUP7 PUSH1 0x40 MLOAD PUSH2 0x989 SWAP2 SWAP1 PUSH2 0x175A JUMP JUMPDEST PUSH1 0x40 MLOAD DUP1 SWAP2 SUB SWAP1 LOG2 POP POP POP POP POP JUMP JUMPDEST PUSH1 0x2 DUP2 DUP2 SLOAD DUP2 LT PUSH2 0x9A7 JUMPI PUSH0 DUP1 REVERT JUMPDEST SWAP1 PUSH0 MSTORE PUSH1 0x20 PUSH0 KECCAK256 ADD PUSH0 SWAP2 POP SWAP1 POP DUP1 SLOAD PUSH2 0x9BF SWAP1 PUSH2 0x1AFE JUMP JUMPDEST DUP1 PUSH1 0x1F ADD PUSH1 0x20 DUP1 SWAP2 DIV MUL PUSH1 0x20 ADD PUSH1 0x40 MLOAD SWAP1 DUP2 ADD PUSH1 0x40 MSTORE DUP1 SWAP3 SWAP2 SWAP1 DUP2 DUP2 MSTORE PUSH1 0x20 ADD DUP3 DUP1 SLOAD PUSH2 0x9EB SWAP1 PUSH2 0x1AFE JUMP JUMPDEST DUP1 ISZERO PUSH2 0xA36 JUMPI DUP1 PUSH1 0x1F LT PUSH2 0xA0D JUMPI PUSH2 0x100 DUP1 DUP4 SLOAD DIV MUL DUP4 MSTORE SWAP2 PUSH1 0x20 ADD SWAP2 PUSH2 0xA36 JUMP JUMPDEST DUP3 ADD SWAP2 SWAP1 PUSH0 MSTORE PUSH1 0x20 PUSH0 KECCAK256 SWAP1 JUMPDEST DUP2 SLOAD DUP2 MSTORE SWAP1 PUSH1 0x1 ADD SWAP1 PUSH1 0x20 ADD DUP1 DUP4 GT PUSH2 0xA19 JUMPI DUP3 SWAP1 SUB PUSH1 0x1F AND DUP3 ADD SWAP2 JUMPDEST POP POP POP POP POP DUP2 JUMP JUMPDEST PUSH1 0x1 DUP2 DUP1 MLOAD PUSH1 0x20 DUP2 ADD DUP3 ADD DUP1 MLOAD DUP5 DUP3 MSTORE PUSH1 0x20 DUP4 ADD PUSH1 0x20 DUP6 ADD KECCAK256 DUP2 DUP4 MSTORE DUP1 SWAP6 POP POP POP POP POP POP PUSH0 SWAP2 POP SWAP1 POP DUP1 PUSH0 ADD DUP1 SLOAD PUSH2 0xA75 SWAP1 PUSH2 0x1AFE JUMP JUMPDEST DUP1 PUSH1 0x1F ADD PUSH1 0x20 DUP1 SWAP2 DIV MUL PUSH1 0x20 ADD PUSH1 0x40 MLOAD SWAP1 DUP2 ADD PUSH1 0x40 MSTORE DUP1 SWAP3 SWAP2 SWAP1 DUP2 DUP2 MSTORE PUSH1 0x20 ADD DUP3 DUP1 SLOAD PUSH2 0xAA1 SWAP1 PUSH2 0x1AFE JUMP JUMPDEST DUP1 ISZERO PUSH2 0xAEC JUMPI DUP1 PUSH1 0x1F LT PUSH2 0xAC3 JUMPI PUSH2 0x100 DUP1 DUP4 SLOAD DIV MUL DUP4 MSTORE SWAP2 PUSH1 0x20 ADD SWAP2 PUSH2 0xAEC JUMP JUMPDEST DUP3 ADD SWAP2 SWAP1 PUSH0 MSTORE PUSH1 0x20 PUSH0 KECCAK256 SWAP1 JUMPDEST DUP2 SLOAD DUP2 MSTORE SWAP1 PUSH1 0x1 ADD SWAP1 PUSH1 0x20 ADD DUP1 DUP4 GT PUSH2 0xACF JUMPI DUP3 SWAP1 SUB PUSH1 0x1F AND DUP3 ADD SWAP2 JUMPDEST POP POP POP POP POP SWAP1 DUP1 PUSH1 0x1 ADD DUP1 SLOAD PUSH2 0xB01 SWAP1 PUSH2 0x1AFE JUMP JUMPDEST DUP1 PUSH1 0x1F ADD PUSH1 0x20 DUP1 SWAP2 DIV MUL PUSH1 0x20 ADD PUSH1 0x40 MLOAD SWAP1 DUP2 ADD PUSH1 0x40 MSTORE DUP1 SWAP3 SWAP2 SWAP1 DUP2 DUP2 MSTORE PUSH1 0x20 ADD DUP3 DUP1 SLOAD PUSH2 0xB2D SWAP1 PUSH2 0x1AFE JUMP JUMPDEST DUP1 ISZERO PUSH2 0xB78 JUMPI DUP1 PUSH1 0x1F LT PUSH2 0xB4F JUMPI PUSH2 0x100 DUP1 DUP4 SLOAD DIV MUL DUP4 MSTORE SWAP2 PUSH1 0x20 ADD SWAP2 PUSH2 0xB78 JUMP JUMPDEST DUP3 ADD SWAP2 SWAP1 PUSH0 MSTORE PUSH1 0x20 PUSH0 KECCAK256 SWAP1 JUMPDEST DUP2 SLOAD DUP2 MSTORE SWAP1 PUSH1 0x1 ADD SWAP1 PUSH1 0x20 ADD DUP1 DUP4 GT PUSH2 0xB5B JUMPI DUP3 SWAP1 SUB PUSH1 0x1F AND DUP3 ADD SWAP2 JUMPDEST POP POP POP POP POP SWAP1 DUP1 PUSH1 0x2 ADD SLOAD SWAP1 DUP1 PUSH1 0x3 ADD SLOAD SWAP1 DUP1 PUSH1 0x4 ADD DUP1 SLOAD PUSH2 0xB99 SWAP1 PUSH2 0x1AFE JUMP JUMPDEST DUP1 PUSH1 0x1F ADD PUSH1 0x20 DUP1 SWAP2 DIV MUL PUSH1 0x20 ADD PUSH1 0x40 MLOAD SWAP1 DUP2 ADD PUSH1 0x40 MSTORE DUP1 SWAP3 SWAP2 SWAP1 DUP2 DUP2 MSTORE PUSH1 0x20 ADD DUP3 DUP1 SLOAD PUSH2 0xBC5 SWAP1 PUSH2 0x1AFE JUMP JUMPDEST DUP1 ISZERO PUSH2 0xC10 JUMPI DUP1 PUSH1 0x1F LT PUSH2 0xBE7 JUMPI PUSH2 0x100 DUP1 DUP4 SLOAD DIV MUL DUP4 MSTORE SWAP2 PUSH1 0x20 ADD SWAP2 PUSH2 0xC10 JUMP JUMPDEST DUP3 ADD SWAP2 SWAP1 PUSH0 MSTORE PUSH1 0x20 PUSH0 KECCAK256 SWAP1 JUMPDEST DUP2 SLOAD DUP2 MSTORE SWAP1 PUSH1 0x1 ADD SWAP1 PUSH1 0x20 ADD DUP1 DUP4 GT PUSH2 0xBF3 JUMPI DUP3 SWAP1 SUB PUSH1 0x1F AND DUP3 ADD SWAP2 JUMPDEST POP POP POP POP POP SWAP1 DUP1 PUSH1 0x5 ADD DUP1 SLOAD PUSH2 0xC25 SWAP1 PUSH2 0x1AFE JUMP JUMPDEST DUP1 PUSH1 0x1F ADD PUSH1 0x20 DUP1 SWAP2 DIV MUL PUSH1 0x20 ADD PUSH1 0x40 MLOAD SWAP1 DUP2 ADD PUSH1 0x40 MSTORE DUP1 SWAP3 SWAP2 SWAP1 DUP2 DUP2 MSTORE PUSH1 0x20 ADD DUP3 DUP1 SLOAD PUSH2 0xC51 SWAP1 PUSH2 0x1AFE JUMP JUMPDEST DUP1 ISZERO PUSH2 0xC9C JUMPI DUP1 PUSH1 0x1F LT PUSH2 0xC73 JUMPI PUSH2 0x100 DUP1 DUP4 SLOAD DIV MUL DUP4 MSTORE SWAP2 PUSH1 0x20 ADD SWAP2 PUSH2 0xC9C JUMP JUMPDEST DUP3 ADD SWAP2 SWAP1 PUSH0 MSTORE PUSH1 0x20 PUSH0 KECCAK256 SWAP1 JUMPDEST DUP2 SLOAD DUP2 MSTORE SWAP1 PUSH1 0x1 ADD SWAP1 PUSH1 0x20 ADD DUP1 DUP4 GT PUSH2 0xC7F JUMPI DUP3 SWAP1 SUB PUSH1 0x1F AND DUP3 ADD SWAP2 JUMPDEST POP POP POP POP POP SWAP1 DUP1 PUSH1 0x6 ADD DUP1 SLOAD PUSH2 0xCB1 SWAP1 PUSH2 0x1AFE JUMP JUMPDEST DUP1 PUSH1 0x1F ADD PUSH1 0x20 DUP1 SWAP2 DIV MUL PUSH1 0x20 ADD PUSH1 0x40 MLOAD SWAP1 DUP2 ADD PUSH1 0x40 MSTORE DUP1 SWAP3 SWAP2 SWAP1 DUP2 DUP2 MSTORE PUSH1 0x20 ADD DUP3 DUP1 SLOAD PUSH2 0xCDD SWAP1 PUSH2 0x1AFE JUMP JUMPDEST DUP1 ISZERO PUSH2 0xD28 JUMPI DUP1 PUSH1 0x1F LT PUSH2 0xCFF JUMPI PUSH2 0x100 DUP1 DUP4 SLOAD DIV MUL DUP4 MSTORE SWAP2 PUSH1 0x20 ADD SWAP2 PUSH2 0xD28 JUMP JUMPDEST DUP3 ADD SWAP2 SWAP1 PUSH0 MSTORE PUSH1 0x20 PUSH0 KECCAK256 SWAP1 JUMPDEST DUP2 SLOAD DUP2 MSTORE SWAP1 PUSH1 0x1 ADD SWAP1 PUSH1 0x20 ADD DUP1 DUP4 GT PUSH2 0xD0B JUMPI DUP3 SWAP1 SUB PUSH1 0x1F AND DUP3 ADD SWAP2 JUMPDEST POP POP POP POP POP SWAP1 DUP1 PUSH1 0x7 ADD DUP1 SLOAD PUSH2 0xD3D SWAP1 PUSH2 0x1AFE JUMP JUMPDEST DUP1 PUSH1 0x1F ADD PUSH1 0x20 DUP1 SWAP2 DIV MUL PUSH1 0x20 ADD PUSH1 0x40 MLOAD SWAP1 DUP2 ADD PUSH1 0x40 MSTORE DUP1 SWAP3 SWAP2 SWAP1 DUP2 DUP2 MSTORE PUSH1 0x20 ADD DUP3 DUP1 SLOAD PUSH2 0xD69 SWAP1 PUSH2 0x1AFE JUMP JUMPDEST DUP1 ISZERO PUSH2 0xDB4 JUMPI DUP1 PUSH1 0x1F LT PUSH2 0xD8B JUMPI PUSH2 0x100 DUP1 DUP4 SLOAD DIV MUL DUP4 MSTORE SWAP2 PUSH1 0x20 ADD SWAP2 PUSH2 0xDB4 JUMP JUMPDEST DUP3 ADD SWAP2 SWAP1 PUSH0 MSTORE PUSH1 0x20 PUSH0 KECCAK256 SWAP1 JUMPDEST DUP2 SLOAD DUP2 MSTORE SWAP1 PUSH1 0x1 ADD SWAP1 PUSH1 0x20 ADD DUP1 DUP4 GT PUSH2 0xD97 JUMPI DUP3 SWAP1 SUB PUSH1 0x1F AND DUP3 ADD SWAP2 JUMPDEST POP POP POP POP POP SWAP1 DUP1 PUSH1 0x8 ADD PUSH0 SWAP1 SLOAD SWAP1 PUSH2 0x100 EXP SWAP1 DIV PUSH20 0xFFFFFFFFFFFFFFFFFFFFFFFFFFFFFFFFFFFFFFFF AND SWAP1 POP DUP10 JUMP JUMPDEST PUSH1 0x60 PUSH1 0x2 DUP1 SLOAD DUP1 PUSH1 0x20 MUL PUSH1 0x20 ADD PUSH1 0x40 MLOAD SWAP1 DUP2 ADD PUSH1 0x40 MSTORE DUP1 SWAP3 SWAP2 SWAP1 DUP2 DUP2 MSTORE PUSH1 0x20 ADD PUSH0 SWAP1 JUMPDEST DUP3 DUP3 LT ISZERO PUSH2 0xEAE JUMPI DUP4 DUP3 SWAP1 PUSH0 MSTORE PUSH1 0x20 PUSH0 KECCAK256 ADD DUP1 SLOAD PUSH2 0xE23 SWAP1 PUSH2 0x1AFE JUMP JUMPDEST DUP1 PUSH1 0x1F ADD PUSH1 0x20 DUP1 SWAP2 DIV MUL PUSH1 0x20 ADD PUSH1 0x40 MLOAD SWAP1 DUP2 ADD PUSH1 0x40 MSTORE DUP1 SWAP3 SWAP2 SWAP1 DUP2 DUP2 MSTORE PUSH1 0x20 ADD DUP3 DUP1 SLOAD PUSH2 0xE4F SWAP1 PUSH2 0x1AFE JUMP JUMPDEST DUP1 ISZERO PUSH2 0xE9A JUMPI DUP1 PUSH1 0x1F LT PUSH2 0xE71 JUMPI PUSH2 0x100 DUP1 DUP4 SLOAD DIV MUL DUP4 MSTORE SWAP2 PUSH1 0x20 ADD SWAP2 PUSH2 0xE9A JUMP JUMPDEST DUP3 ADD SWAP2 SWAP1 PUSH0 MSTORE PUSH1 0x20 PUSH0 KECCAK256 SWAP1 JUMPDEST DUP2 SLOAD DUP2 MSTORE SWAP1 PUSH1 0x1 ADD SWAP1 PUSH1 0x20 ADD DUP1 DUP4 GT PUSH2 0xE7D JUMPI DUP3 SWAP1 SUB PUSH1 0x1F AND DUP3 ADD SWAP2 JUMPDEST POP POP POP POP POP DUP2 MSTORE PUSH1 0x20 ADD SWAP1 PUSH1 0x1 ADD SWAP1 PUSH2 0xE06 JUMP JUMPDEST POP POP POP POP SWAP1 POP SWAP1 JUMP JUMPDEST PUSH0 DUP1 PUSH0 CALLER PUSH20 0xFFFFFFFFFFFFFFFFFFFFFFFFFFFFFFFFFFFFFFFF AND PUSH20 0xFFFFFFFFFFFFFFFFFFFFFFFFFFFFFFFFFFFFFFFF AND DUP2 MSTORE PUSH1 0x20 ADD SWAP1 DUP2 MSTORE PUSH1 0x20 ADD PUSH0 KECCAK256 PUSH0 ADD DUP1 SLOAD PUSH2 0xF01 SWAP1 PUSH2 0x1AFE JUMP JUMPDEST SWAP1 POP SUB PUSH2 0xF43 JUMPI PUSH1 0x40 MLOAD PUSH32 0x8C379A000000000000000000000000000000000000000000000000000000000 DUP2 MSTORE PUSH1 0x4 ADD PUSH2 0xF3A SWAP1 PUSH2 0x1DE4 JUMP JUMPDEST PUSH1 0x40 MLOAD DUP1 SWAP2 SUB SWAP1 REVERT JUMPDEST PUSH1 0x40 MLOAD DUP1 PUSH2 0x120 ADD PUSH1 0x40 MSTORE DUP1 DUP10 DUP2 MSTORE PUSH1 0x20 ADD DUP9 DUP2 MSTORE PUSH1 0x20 ADD DUP8 DUP2 MSTORE PUSH1 0x20 ADD DUP7 DUP2 MSTORE PUSH1 0x20 ADD DUP6 DUP2 MSTORE PUSH1 0x20 ADD DUP5 DUP2 MSTORE PUSH1 0x20 ADD DUP4 DUP2 MSTORE PUSH1 0x20 ADD DUP3 DUP2 MSTORE PUSH1 0x20 ADD CALLER PUSH20 0xFFFFFFFFFFFFFFFFFFFFFFFFFFFFFFFFFFFFFFFF AND DUP2 MSTORE POP PUSH1 0x1 DUP4 PUSH1 0x40 MLOAD PUSH2 0xFA9 SWAP2 SWAP1 PUSH2 0x1ABB JUMP JUMPDEST SWAP1 DUP2 MSTORE PUSH1 0x20 ADD PUSH1 0x40 MLOAD DUP1 SWAP2 SUB SWAP1 KECCAK256 PUSH0 DUP3 ADD MLOAD DUP2 PUSH0 ADD SWAP1 DUP2 PUSH2 0xFCA SWAP2 SWAP1 PUSH2 0x1CCB JUMP JUMPDEST POP PUSH1 0x20 DUP3 ADD MLOAD DUP2 PUSH1 0x1 ADD SWAP1 DUP2 PUSH2 0xFE0 SWAP2 SWAP1 PUSH2 0x1CCB JUMP JUMPDEST POP PUSH1 0x40 DUP3 ADD MLOAD DUP2 PUSH1 0x2 ADD SSTORE PUSH1 0x60 DUP3 ADD MLOAD DUP2 PUSH1 0x3 ADD SSTORE PUSH1 0x80 DUP3 ADD MLOAD DUP2 PUSH1 0x4 ADD SWAP1 DUP2 PUSH2 0x100A SWAP2 SWAP1 PUSH2 0x1CCB JUMP JUMPDEST POP PUSH1 0xA0 DUP3 ADD MLOAD DUP2 PUSH1 0x5 ADD SWAP1 DUP2 PUSH2 0x1020 SWAP2 SWAP1 PUSH2 0x1CCB JUMP JUMPDEST POP PUSH1 0xC0 DUP3 ADD MLOAD DUP2 PUSH1 0x6 ADD SWAP1 DUP2 PUSH2 0x1036 SWAP2 SWAP1 PUSH2 0x1CCB JUMP JUMPDEST POP PUSH1 0xE0 DUP3 ADD MLOAD DUP2 PUSH1 0x7 ADD SWAP1 DUP2 PUSH2 0x104C SWAP2 SWAP1 PUSH2 0x1CCB JUMP JUMPDEST POP PUSH2 0x100 DUP3 ADD MLOAD DUP2 PUSH1 0x8 ADD PUSH0 PUSH2 0x100 EXP DUP2 SLOAD DUP2 PUSH20 0xFFFFFFFFFFFFFFFFFFFFFFFFFFFFFFFFFFFFFFFF MUL NOT AND SWAP1 DUP4 PUSH20 0xFFFFFFFFFFFFFFFFFFFFFFFFFFFFFFFFFFFFFFFF AND MUL OR SWAP1 SSTORE POP SWAP1 POP POP PUSH1 0x2 DUP3 SWAP1 DUP1 PUSH1 0x1 DUP2 SLOAD ADD DUP1 DUP3 SSTORE DUP1 SWAP2 POP POP PUSH1 0x1 SWAP1 SUB SWAP1 PUSH0 MSTORE PUSH1 0x20 PUSH0 KECCAK256 ADD PUSH0 SWAP1 SWAP2 SWAP1 SWAP2 SWAP1 SWAP2 POP SWAP1 DUP2 PUSH2 0x10C8 SWAP2 SWAP1 PUSH2 0x1CCB JUMP JUMPDEST POP CALLER PUSH20 0xFFFFFFFFFFFFFFFFFFFFFFFFFFFFFFFFFFFFFFFF AND DUP2 PUSH1 0x40 MLOAD PUSH2 0x10EE SWAP2 SWAP1 PUSH2 0x1ABB JUMP JUMPDEST PUSH1 0x40 MLOAD DUP1 SWAP2 SUB SWAP1 KECCAK256 DUP4 PUSH1 0x40 MLOAD PUSH2 0x1104 SWAP2 SWAP1 PUSH2 0x1ABB JUMP JUMPDEST PUSH1 0x40 MLOAD DUP1 SWAP2 SUB SWAP1 KECCAK256 PUSH32 0x8FC0B98E2A4D15D56022A359DFAD20C1A2F2DAE54DA50C061967E456C4C3D655 PUSH1 0x40 MLOAD PUSH1 0x40 MLOAD DUP1 SWAP2 SUB SWAP1 LOG4 POP POP POP POP POP POP POP POP JUMP JUMPDEST PUSH1 0x40 MLOAD DUP1 PUSH2 0x120 ADD PUSH1 0x40 MSTORE DUP1 PUSH1 0x60 DUP2 MSTORE PUSH1 0x20 ADD PUSH1 0x60 DUP2 MSTORE PUSH1 0x20 ADD PUSH0 DUP2 MSTORE PUSH1 0x20 ADD PUSH0 DUP2 MSTORE PUSH1 0x20 ADD PUSH1 0x60 DUP2 MSTORE PUSH1 0x20 ADD PUSH1 0x60 DUP2 MSTORE PUSH1 0x20 ADD PUSH1 0x60 DUP2 MSTORE PUSH1 0x20 ADD PUSH1 0x60 DUP2 MSTORE PUSH1 0x20 ADD PUSH0 PUSH20 0xFFFFFFFFFFFFFFFFFFFFFFFFFFFFFFFFFFFFFFFF AND DUP2 MSTORE POP SWAP1 JUMP JUMPDEST PUSH0 PUSH1 0x40 MLOAD SWAP1 POP SWAP1 JUMP JUMPDEST PUSH0 DUP1 REVERT JUMPDEST PUSH0 DUP1 REVERT JUMPDEST PUSH0 DUP1 REVERT JUMPDEST PUSH0 DUP1 REVERT JUMPDEST PUSH0 PUSH1 0x1F NOT PUSH1 0x1F DUP4 ADD AND SWAP1 POP SWAP2 SWAP1 POP JUMP JUMPDEST PUSH32 0x4E487B7100000000000000000000000000000000000000000000000000000000 PUSH0 MSTORE PUSH1 0x41 PUSH1 0x4 MSTORE PUSH1 0x24 PUSH0 REVERT JUMPDEST PUSH2 0x1200 DUP3 PUSH2 0x11BA JUMP JUMPDEST DUP2 ADD DUP2 DUP2 LT PUSH8 0xFFFFFFFFFFFFFFFF DUP3 GT OR ISZERO PUSH2 0x121F JUMPI PUSH2 0x121E PUSH2 0x11CA JUMP JUMPDEST JUMPDEST DUP1 PUSH1 0x40 MSTORE POP POP POP JUMP JUMPDEST PUSH0 PUSH2 0x1231 PUSH2 0x11A1 JUMP JUMPDEST SWAP1 POP PUSH2 0x123D DUP3 DUP3 PUSH2 0x11F7 JUMP JUMPDEST SWAP2 SWAP1 POP JUMP JUMPDEST PUSH0 PUSH8 0xFFFFFFFFFFFFFFFF DUP3 GT ISZERO PUSH2 0x125C JUMPI PUSH2 0x125B PUSH2 0x11CA JUMP JUMPDEST JUMPDEST PUSH2 0x1265 DUP3 PUSH2 0x11BA JUMP JUMPDEST SWAP1 POP PUSH1 0x20 DUP2 ADD SWAP1 POP SWAP2 SWAP1 POP JUMP JUMPDEST DUP3 DUP2 DUP4 CALLDATACOPY PUSH0 DUP4 DUP4 ADD MSTORE POP POP POP JUMP JUMPDEST PUSH0 PUSH2 0x1292 PUSH2 0x128D DUP5 PUSH2 0x1242 JUMP JUMPDEST PUSH2 0x1228 JUMP JUMPDEST SWAP1 POP DUP3 DUP2 MSTORE PUSH1 0x20 DUP2 ADD DUP5 DUP5 DUP5 ADD GT ISZERO PUSH2 0x12AE JUMPI PUSH2 0x12AD PUSH2 0x11B6 JUMP JUMPDEST JUMPDEST PUSH2 0x12B9 DUP5 DUP3 DUP6 PUSH2 0x1272 JUMP JUMPDEST POP SWAP4 SWAP3 POP POP POP JUMP JUMPDEST PUSH0 DUP3 PUSH1 0x1F DUP4 ADD SLT PUSH2 0x12D5 JUMPI PUSH2 0x12D4 PUSH2 0x11B2 JUMP JUMPDEST JUMPDEST DUP2 CALLDATALOAD PUSH2 0x12E5 DUP5 DUP3 PUSH1 0x20 DUP7 ADD PUSH2 0x1280 JUMP JUMPDEST SWAP2 POP POP SWAP3 SWAP2 POP POP JUMP JUMPDEST PUSH0 PUSH1 0x20 DUP3 DUP5 SUB SLT ISZERO PUSH2 0x1303 JUMPI PUSH2 0x1302 PUSH2 0x11AA JUMP JUMPDEST JUMPDEST PUSH0 DUP3 ADD CALLDATALOAD PUSH8 0xFFFFFFFFFFFFFFFF DUP2 GT ISZERO PUSH2 0x1320 JUMPI PUSH2 0x131F PUSH2 0x11AE JUMP JUMPDEST JUMPDEST PUSH2 0x132C DUP5 DUP3 DUP6 ADD PUSH2 0x12C1 JUMP JUMPDEST SWAP2 POP POP SWAP3 SWAP2 POP POP JUMP JUMPDEST PUSH0 DUP2 MLOAD SWAP1 POP SWAP2 SWAP1 POP JUMP JUMPDEST PUSH0 DUP3 DUP3 MSTORE PUSH1 0x20 DUP3 ADD SWAP1 POP SWAP3 SWAP2 POP POP JUMP JUMPDEST DUP3 DUP2 DUP4 MCOPY PUSH0 DUP4 DUP4 ADD MSTORE POP POP POP JUMP JUMPDEST PUSH0 PUSH2 0x1367 DUP3 PUSH2 0x1335 JUMP JUMPDEST PUSH2 0x1371 DUP2 DUP6 PUSH2 0x133F JUMP JUMPDEST SWAP4 POP PUSH2 0x1381 DUP2 DUP6 PUSH1 0x20 DUP7 ADD PUSH2 0x134F JUMP JUMPDEST PUSH2 0x138A DUP2 PUSH2 0x11BA JUMP JUMPDEST DUP5 ADD SWAP2 POP POP SWAP3 SWAP2 POP POP JUMP JUMPDEST PUSH0 DUP2 SWAP1 POP SWAP2 SWAP1 POP JUMP JUMPDEST PUSH2 0x13A7 DUP2 PUSH2 0x1395 JUMP JUMPDEST DUP3 MSTORE POP POP JUMP JUMPDEST PUSH0 PUSH20 0xFFFFFFFFFFFFFFFFFFFFFFFFFFFFFFFFFFFFFFFF DUP3 AND SWAP1 POP SWAP2 SWAP1 POP JUMP JUMPDEST PUSH0 PUSH2 0x13D6 DUP3 PUSH2 0x13AD JUMP JUMPDEST SWAP1 POP SWAP2 SWAP1 POP JUMP JUMPDEST PUSH2 0x13E6 DUP2 PUSH2 0x13CC JUMP JUMPDEST DUP3 MSTORE POP POP JUMP JUMPDEST PUSH0 PUSH2 0x120 DUP4 ADD PUSH0 DUP4 ADD MLOAD DUP5 DUP3 SUB PUSH0 DUP7 ADD MSTORE PUSH2 0x1407 DUP3 DUP3 PUSH2 0x135D JUMP JUMPDEST SWAP2 POP POP PUSH1 0x20 DUP4 ADD MLOAD DUP5 DUP3 SUB PUSH1 0x20 DUP7 ADD MSTORE PUSH2 0x1421 DUP3 DUP3 PUSH2 0x135D JUMP JUMPDEST SWAP2 POP POP PUSH1 0x40 DUP4 ADD MLOAD PUSH2 0x1436 PUSH1 0x40 DUP7 ADD DUP3 PUSH2 0x139E JUMP JUMPDEST POP PUSH1 0x60 DUP4 ADD MLOAD PUSH2 0x1449 PUSH1 0x60 DUP7 ADD DUP3 PUSH2 0x139E JUMP JUMPDEST POP PUSH1 0x80 DUP4 ADD MLOAD DUP5 DUP3 SUB PUSH1 0x80 DUP7 ADD MSTORE PUSH2 0x1461 DUP3 DUP3 PUSH2 0x135D JUMP JUMPDEST SWAP2 POP POP PUSH1 0xA0 DUP4 ADD MLOAD DUP5 DUP3 SUB PUSH1 0xA0 DUP7 ADD MSTORE PUSH2 0x147B DUP3 DUP3 PUSH2 0x135D JUMP JUMPDEST SWAP2 POP POP PUSH1 0xC0 DUP4 ADD MLOAD DUP5 DUP3 SUB PUSH1 0xC0 DUP7 ADD MSTORE PUSH2 0x1495 DUP3 DUP3 PUSH2 0x135D JUMP JUMPDEST SWAP2 POP POP PUSH1 0xE0 DUP4 ADD MLOAD DUP5 DUP3 SUB PUSH1 0xE0 DUP7 ADD MSTORE PUSH2 0x14AF DUP3 DUP3 PUSH2 0x135D JUMP JUMPDEST SWAP2 POP POP PUSH2 0x100 DUP4 ADD MLOAD PUSH2 0x14C6 PUSH2 0x100 DUP7 ADD DUP3 PUSH2 0x13DD JUMP JUMPDEST POP DUP1 SWAP2 POP POP SWAP3 SWAP2 POP POP JUMP JUMPDEST PUSH0 PUSH1 0x20 DUP3 ADD SWAP1 POP DUP2 DUP2 SUB PUSH0 DUP4 ADD MSTORE PUSH2 0x14E9 DUP2 DUP5 PUSH2 0x13EC JUMP JUMPDEST SWAP1 POP SWAP3 SWAP2 POP POP JUMP JUMPDEST PUSH2 0x14FA DUP2 PUSH2 0x13CC JUMP JUMPDEST DUP2 EQ PUSH2 0x1504 JUMPI PUSH0 DUP1 REVERT JUMPDEST POP JUMP JUMPDEST PUSH0 DUP2 CALLDATALOAD SWAP1 POP PUSH2 0x1515 DUP2 PUSH2 0x14F1 JUMP JUMPDEST SWAP3 SWAP2 POP POP JUMP JUMPDEST PUSH0 PUSH1 0x20 DUP3 DUP5 SUB SLT ISZERO PUSH2 0x1530 JUMPI PUSH2 0x152F PUSH2 0x11AA JUMP JUMPDEST JUMPDEST PUSH0 PUSH2 0x153D DUP5 DUP3 DUP6 ADD PUSH2 0x1507 JUMP JUMPDEST SWAP2 POP POP SWAP3 SWAP2 POP POP JUMP JUMPDEST PUSH0 DUP3 DUP3 MSTORE PUSH1 0x20 DUP3 ADD SWAP1 POP SWAP3 SWAP2 POP POP JUMP JUMPDEST PUSH0 PUSH2 0x1560 DUP3 PUSH2 0x1335 JUMP JUMPDEST PUSH2 0x156A DUP2 DUP6 PUSH2 0x1546 JUMP JUMPDEST SWAP4 POP PUSH2 0x157A DUP2 DUP6 PUSH1 0x20 DUP7 ADD PUSH2 0x134F JUMP JUMPDEST PUSH2 0x1583 DUP2 PUSH2 0x11BA JUMP JUMPDEST DUP5 ADD SWAP2 POP POP SWAP3 SWAP2 POP POP JUMP JUMPDEST PUSH0 PUSH1 0xA0 DUP3 ADD SWAP1 POP DUP2 DUP2 SUB PUSH0 DUP4 ADD MSTORE PUSH2 0x15A6 DUP2 DUP9 PUSH2 0x1556 JUMP JUMPDEST SWAP1 POP DUP2 DUP2 SUB PUSH1 0x20 DUP4 ADD MSTORE PUSH2 0x15BA DUP2 DUP8 PUSH2 0x1556 JUMP JUMPDEST SWAP1 POP DUP2 DUP2 SUB PUSH1 0x40 DUP4 ADD MSTORE PUSH2 0x15CE DUP2 DUP7 PUSH2 0x1556 JUMP JUMPDEST SWAP1 POP DUP2 DUP2 SUB PUSH1 0x60 DUP4 ADD MSTORE PUSH2 0x15E2 DUP2 DUP6 PUSH2 0x1556 JUMP JUMPDEST SWAP1 POP DUP2 DUP2 SUB PUSH1 0x80 DUP4 ADD MSTORE PUSH2 0x15F6 DUP2 DUP5 PUSH2 0x1556 JUMP JUMPDEST SWAP1 POP SWAP7 SWAP6 POP POP POP POP POP POP JUMP JUMPDEST PUSH0 DUP1 PUSH0 DUP1 PUSH0 PUSH1 0xA0 DUP7 DUP9 SUB SLT ISZERO PUSH2 0x161B JUMPI PUSH2 0x161A PUSH2 0x11AA JUMP JUMPDEST JUMPDEST PUSH0 DUP7 ADD CALLDATALOAD PUSH8 0xFFFFFFFFFFFFFFFF DUP2 GT ISZERO PUSH2 0x1638 JUMPI PUSH2 0x1637 PUSH2 0x11AE JUMP JUMPDEST JUMPDEST PUSH2 0x1644 DUP9 DUP3 DUP10 ADD PUSH2 0x12C1 JUMP JUMPDEST SWAP6 POP POP PUSH1 0x20 DUP7 ADD CALLDATALOAD PUSH8 0xFFFFFFFFFFFFFFFF DUP2 GT ISZERO PUSH2 0x1665 JUMPI PUSH2 0x1664 PUSH2 0x11AE JUMP JUMPDEST JUMPDEST PUSH2 0x1671 DUP9 DUP3 DUP10 ADD PUSH2 0x12C1 JUMP JUMPDEST SWAP5 POP POP PUSH1 0x40 DUP7 ADD CALLDATALOAD PUSH8 0xFFFFFFFFFFFFFFFF DUP2 GT ISZERO PUSH2 0x1692 JUMPI PUSH2 0x1691 PUSH2 0x11AE JUMP JUMPDEST JUMPDEST PUSH2 0x169E DUP9 DUP3 DUP10 ADD PUSH2 0x12C1 JUMP JUMPDEST SWAP4 POP POP PUSH1 0x60 DUP7 ADD CALLDATALOAD PUSH8 0xFFFFFFFFFFFFFFFF DUP2 GT ISZERO PUSH2 0x16BF JUMPI PUSH2 0x16BE PUSH2 0x11AE JUMP JUMPDEST JUMPDEST PUSH2 0x16CB DUP9 DUP3 DUP10 ADD PUSH2 0x12C1 JUMP JUMPDEST SWAP3 POP POP PUSH1 0x80 DUP7 ADD CALLDATALOAD PUSH8 0xFFFFFFFFFFFFFFFF DUP2 GT ISZERO PUSH2 0x16EC JUMPI PUSH2 0x16EB PUSH2 0x11AE JUMP JUMPDEST JUMPDEST PUSH2 0x16F8 DUP9 DUP3 DUP10 ADD PUSH2 0x12C1 JUMP JUMPDEST SWAP2 POP POP SWAP3 SWAP6 POP SWAP3 SWAP6 SWAP1 SWAP4 POP JUMP JUMPDEST PUSH2 0x170E DUP2 PUSH2 0x1395 JUMP JUMPDEST DUP2 EQ PUSH2 0x1718 JUMPI PUSH0 DUP1 REVERT JUMPDEST POP JUMP JUMPDEST PUSH0 DUP2 CALLDATALOAD SWAP1 POP PUSH2 0x1729 DUP2 PUSH2 0x1705 JUMP JUMPDEST SWAP3 SWAP2 POP POP JUMP JUMPDEST PUSH0 PUSH1 0x20 DUP3 DUP5 SUB SLT ISZERO PUSH2 0x1744 JUMPI PUSH2 0x1743 PUSH2 0x11AA JUMP JUMPDEST JUMPDEST PUSH0 PUSH2 0x1751 DUP5 DUP3 DUP6 ADD PUSH2 0x171B JUMP JUMPDEST SWAP2 POP POP SWAP3 SWAP2 POP POP JUMP JUMPDEST PUSH0 PUSH1 0x20 DUP3 ADD SWAP1 POP DUP2 DUP2 SUB PUSH0 DUP4 ADD MSTORE PUSH2 0x1772 DUP2 DUP5 PUSH2 0x1556 JUMP JUMPDEST SWAP1 POP SWAP3 SWAP2 POP POP JUMP JUMPDEST PUSH2 0x1783 DUP2 PUSH2 0x1395 JUMP JUMPDEST DUP3 MSTORE POP POP JUMP JUMPDEST PUSH2 0x1792 DUP2 PUSH2 0x13CC JUMP JUMPDEST DUP3 MSTORE POP POP JUMP JUMPDEST PUSH0 PUSH2 0x120 DUP3 ADD SWAP1 POP DUP2 DUP2 SUB PUSH0 DUP4 ADD MSTORE PUSH2 0x17B1 DUP2 DUP13 PUSH2 0x1556 JUMP JUMPDEST SWAP1 POP DUP2 DUP2 SUB PUSH1 0x20 DUP4 ADD MSTORE PUSH2 0x17C5 DUP2 DUP12 PUSH2 0x1556 JUMP JUMPDEST SWAP1 POP PUSH2 0x17D4 PUSH1 0x40 DUP4 ADD DUP11 PUSH2 0x177A JUMP JUMPDEST PUSH2 0x17E1 PUSH1 0x60 DUP4 ADD DUP10 PUSH2 0x177A JUMP JUMPDEST DUP2 DUP2 SUB PUSH1 0x80 DUP4 ADD MSTORE PUSH2 0x17F3 DUP2 DUP9 PUSH2 0x1556 JUMP JUMPDEST SWAP1 POP DUP2 DUP2 SUB PUSH1 0xA0 DUP4 ADD MSTORE PUSH2 0x1807 DUP2 DUP8 PUSH2 0x1556 JUMP JUMPDEST SWAP1 POP DUP2 DUP2 SUB PUSH1 0xC0 DUP4 ADD MSTORE PUSH2 0x181B DUP2 DUP7 PUSH2 0x1556 JUMP JUMPDEST SWAP1 POP DUP2 DUP2 SUB PUSH1 0xE0 DUP4 ADD MSTORE PUSH2 0x182F DUP2 DUP6 PUSH2 0x1556 JUMP JUMPDEST SWAP1 POP PUSH2 0x183F PUSH2 0x100 DUP4 ADD DUP5 PUSH2 0x1789 JUMP JUMPDEST SWAP11 SWAP10 POP POP POP POP POP POP POP POP POP POP JUMP JUMPDEST PUSH0 DUP2 MLOAD SWAP1 POP SWAP2 SWAP1 POP JUMP JUMPDEST PUSH0 DUP3 DUP3 MSTORE PUSH1 0x20 DUP3 ADD SWAP1 POP SWAP3 SWAP2 POP POP JUMP JUMPDEST PUSH0 DUP2 SWAP1 POP PUSH1 0x20 DUP3 ADD SWAP1 POP SWAP2 SWAP1 POP JUMP JUMPDEST PUSH0 PUSH2 0x1881 DUP4 DUP4 PUSH2 0x135D JUMP JUMPDEST SWAP1 POP SWAP3 SWAP2 POP POP JUMP JUMPDEST PUSH0 PUSH1 0x20 DUP3 ADD SWAP1 POP SWAP2 SWAP1 POP JUMP JUMPDEST PUSH0 PUSH2 0x189F DUP3 PUSH2 0x184D JUMP JUMPDEST PUSH2 0x18A9 DUP2 DUP6 PUSH2 0x1857 JUMP JUMPDEST SWAP4 POP DUP4 PUSH1 0x20 DUP3 MUL DUP6 ADD PUSH2 0x18BB DUP6 PUSH2 0x1867 JUMP JUMPDEST DUP1 PUSH0 JUMPDEST DUP6 DUP2 LT ISZERO PUSH2 0x18F6 JUMPI DUP5 DUP5 SUB DUP10 MSTORE DUP2 MLOAD PUSH2 0x18D7 DUP6 DUP3 PUSH2 0x1876 JUMP JUMPDEST SWAP5 POP PUSH2 0x18E2 DUP4 PUSH2 0x1889 JUMP JUMPDEST SWAP3 POP PUSH1 0x20 DUP11 ADD SWAP10 POP POP PUSH1 0x1 DUP2 ADD SWAP1 POP PUSH2 0x18BE JUMP JUMPDEST POP DUP3 SWAP8 POP DUP8 SWAP6 POP POP POP POP POP POP SWAP3 SWAP2 POP POP JUMP JUMPDEST PUSH0 PUSH1 0x20 DUP3 ADD SWAP1 POP DUP2 DUP2 SUB PUSH0 DUP4 ADD MSTORE PUSH2 0x1920 DUP2 DUP5 PUSH2 0x1895 JUMP JUMPDEST SWAP1 POP SWAP3 SWAP2 POP POP JUMP JUMPDEST PUSH0 DUP1 PUSH0 DUP1 PUSH0 DUP1 PUSH0 DUP1 PUSH2 0x100 DUP10 DUP12 SUB SLT ISZERO PUSH2 0x1945 JUMPI PUSH2 0x1944 PUSH2 0x11AA JUMP JUMPDEST JUMPDEST PUSH0 DUP10 ADD CALLDATALOAD PUSH8 0xFFFFFFFFFFFFFFFF DUP2 GT ISZERO PUSH2 0x1962 JUMPI PUSH2 0x1961 PUSH2 0x11AE JUMP JUMPDEST JUMPDEST PUSH2 0x196E DUP12 DUP3 DUP13 ADD PUSH2 0x12C1 JUMP JUMPDEST SWAP9 POP POP PUSH1 0x20 DUP10 ADD CALLDATALOAD PUSH8 0xFFFFFFFFFFFFFFFF DUP2 GT ISZERO PUSH2 0x198F JUMPI PUSH2 0x198E PUSH2 0x11AE JUMP JUMPDEST JUMPDEST PUSH2 0x199B DUP12 DUP3 DUP13 ADD PUSH2 0x12C1 JUMP JUMPDEST SWAP8 POP POP PUSH1 0x40 PUSH2 0x19AC DUP12 DUP3 DUP13 ADD PUSH2 0x171B JUMP JUMPDEST SWAP7 POP POP PUSH1 0x60 PUSH2 0x19BD DUP12 DUP3 DUP13 ADD PUSH2 0x171B JUMP JUMPDEST SWAP6 POP POP PUSH1 0x80 DUP10 ADD CALLDATALOAD PUSH8 0xFFFFFFFFFFFFFFFF DUP2 GT ISZERO PUSH2 0x19DE JUMPI PUSH2 0x19DD PUSH2 0x11AE JUMP JUMPDEST JUMPDEST PUSH2 0x19EA DUP12 DUP3 DUP13 ADD PUSH2 0x12C1 JUMP JUMPDEST SWAP5 POP POP PUSH1 0xA0 DUP10 ADD CALLDATALOAD PUSH8 0xFFFFFFFFFFFFFFFF DUP2 GT ISZERO PUSH2 0x1A0B JUMPI PUSH2 0x1A0A PUSH2 0x11AE JUMP JUMPDEST JUMPDEST PUSH2 0x1A17 DUP12 DUP3 DUP13 ADD PUSH2 0x12C1 JUMP JUMPDEST SWAP4 POP POP PUSH1 0xC0 DUP10 ADD CALLDATALOAD PUSH8 0xFFFFFFFFFFFFFFFF DUP2 GT ISZERO PUSH2 0x1A38 JUMPI PUSH2 0x1A37 PUSH2 0x11AE JUMP JUMPDEST JUMPDEST PUSH2 0x1A44 DUP12 DUP3 DUP13 ADD PUSH2 0x12C1 JUMP JUMPDEST SWAP3 POP POP PUSH1 0xE0 DUP10 ADD CALLDATALOAD PUSH8 0xFFFFFFFFFFFFFFFF DUP2 GT ISZERO PUSH2 0x1A65 JUMPI PUSH2 0x1A64 PUSH2 0x11AE JUMP JUMPDEST JUMPDEST PUSH2 0x1A71 DUP12 DUP3 DUP13 ADD PUSH2 0x12C1 JUMP JUMPDEST SWAP2 POP POP SWAP3 SWAP6 SWAP9 POP SWAP3 SWAP6 SWAP9 SWAP1 SWAP4 SWAP7 POP JUMP JUMPDEST PUSH0 DUP2 SWAP1 POP SWAP3 SWAP2 POP POP JUMP JUMPDEST PUSH0 PUSH2 0x1A95 DUP3 PUSH2 0x1335 JUMP JUMPDEST PUSH2 0x1A9F DUP2 DUP6 PUSH2 0x1A81 JUMP JUMPDEST SWAP4 POP PUSH2 0x1AAF DUP2 DUP6 PUSH1 0x20 DUP7 ADD PUSH2 0x134F JUMP JUMPDEST DUP1 DUP5 ADD SWAP2 POP POP SWAP3 SWAP2 POP POP JUMP JUMPDEST PUSH0 PUSH2 0x1AC6 DUP3 DUP5 PUSH2 0x1A8B JUMP JUMPDEST SWAP2 POP DUP2 SWAP1 POP SWAP3 SWAP2 POP POP JUMP JUMPDEST PUSH32 0x4E487B7100000000000000000000000000000000000000000000000000000000 PUSH0 MSTORE PUSH1 0x22 PUSH1 0x4 MSTORE PUSH1 0x24 PUSH0 REVERT JUMPDEST PUSH0 PUSH1 0x2 DUP3 DIV SWAP1 POP PUSH1 0x1 DUP3 AND DUP1 PUSH2 0x1B15 JUMPI PUSH1 0x7F DUP3 AND SWAP2 POP JUMPDEST PUSH1 0x20 DUP3 LT DUP2 SUB PUSH2 0x1B28 JUMPI PUSH2 0x1B27 PUSH2 0x1AD1 JUMP JUMPDEST JUMPDEST POP SWAP2 SWAP1 POP JUMP JUMPDEST PUSH0 DUP2 SWAP1 POP DUP2 PUSH0 MSTORE PUSH1 0x20 PUSH0 KECCAK256 SWAP1 POP SWAP2 SWAP1 POP JUMP JUMPDEST PUSH0 PUSH1 0x20 PUSH1 0x1F DUP4 ADD DIV SWAP1 POP SWAP2 SWAP1 POP JUMP JUMPDEST PUSH0 DUP3 DUP3 SHL SWAP1 POP SWAP3 SWAP2 POP POP JUMP JUMPDEST PUSH0 PUSH1 0x8 DUP4 MUL PUSH2 0x1B8A PUSH32 0xFFFFFFFFFFFFFFFFFFFFFFFFFFFFFFFFFFFFFFFFFFFFFFFFFFFFFFFFFFFFFFFF DUP3 PUSH2 0x1B4F JUMP JUMPDEST PUSH2 0x1B94 DUP7 DUP4 PUSH2 0x1B4F JUMP JUMPDEST SWAP6 POP DUP1 NOT DUP5 AND SWAP4 POP DUP1 DUP7 AND DUP5 OR SWAP3 POP POP POP SWAP4 SWAP3 POP POP POP JUMP JUMPDEST PUSH0 DUP2 SWAP1 POP SWAP2 SWAP1 POP JUMP JUMPDEST PUSH0 PUSH2 0x1BCF PUSH2 0x1BCA PUSH2 0x1BC5 DUP5 PUSH2 0x1395 JUMP JUMPDEST PUSH2 0x1BAC JUMP JUMPDEST PUSH2 0x1395 JUMP JUMPDEST SWAP1 POP SWAP2 SWAP1 POP JUMP JUMPDEST PUSH0 DUP2 SWAP1 POP SWAP2 SWAP1 POP JUMP JUMPDEST PUSH2 0x1BE8 DUP4 PUSH2 0x1BB5 JUMP JUMPDEST PUSH2 0x1BFC PUSH2 0x1BF4 DUP3 PUSH2 0x1BD6 JUMP JUMPDEST DUP5 DUP5 SLOAD PUSH2 0x1B5B JUMP JUMPDEST DUP3 SSTORE POP POP POP POP JUMP JUMPDEST PUSH0 SWAP1 JUMP JUMPDEST PUSH2 0x1C10 PUSH2 0x1C04 JUMP JUMPDEST PUSH2 0x1C1B DUP2 DUP5 DUP5 PUSH2 0x1BDF JUMP JUMPDEST POP POP POP JUMP JUMPDEST JUMPDEST DUP2 DUP2 LT ISZERO PUSH2 0x1C3E JUMPI PUSH2 0x1C33 PUSH0 DUP3 PUSH2 0x1C08 JUMP JUMPDEST PUSH1 0x1 DUP2 ADD SWAP1 POP PUSH2 0x1C21 JUMP JUMPDEST POP POP JUMP JUMPDEST PUSH1 0x1F DUP3 GT ISZERO PUSH2 0x1C83 JUMPI PUSH2 0x1C54 DUP2 PUSH2 0x1B2E JUMP JUMPDEST PUSH2 0x1C5D DUP5 PUSH2 0x1B40 JUMP JUMPDEST DUP2 ADD PUSH1 0x20 DUP6 LT ISZERO PUSH2 0x1C6C JUMPI DUP2 SWAP1 POP JUMPDEST PUSH2 0x1C80 PUSH2 0x1C78 DUP6 PUSH2 0x1B40 JUMP JUMPDEST DUP4 ADD DUP3 PUSH2 0x1C20 JUMP JUMPDEST POP POP JUMPDEST POP POP POP JUMP JUMPDEST PUSH0 DUP3 DUP3 SHR SWAP1 POP SWAP3 SWAP2 POP POP JUMP JUMPDEST PUSH0 PUSH2 0x1CA3 PUSH0 NOT DUP5 PUSH1 0x8 MUL PUSH2 0x1C88 JUMP JUMPDEST NOT DUP1 DUP4 AND SWAP2 POP POP SWAP3 SWAP2 POP POP JUMP JUMPDEST PUSH0 PUSH2 0x1CBB DUP4 DUP4 PUSH2 0x1C94 JUMP JUMPDEST SWAP2 POP DUP3 PUSH1 0x2 MUL DUP3 OR SWAP1 POP SWAP3 SWAP2 POP POP JUMP JUMPDEST PUSH2 0x1CD4 DUP3 PUSH2 0x1335 JUMP JUMPDEST PUSH8 0xFFFFFFFFFFFFFFFF DUP2 GT ISZERO PUSH2 0x1CED JUMPI PUSH2 0x1CEC PUSH2 0x11CA JUMP JUMPDEST JUMPDEST PUSH2 0x1CF7 DUP3 SLOAD PUSH2 0x1AFE JUMP JUMPDEST PUSH2 0x1D02 DUP3 DUP3 DUP6 PUSH2 0x1C42 JUMP JUMPDEST PUSH0 PUSH1 0x20 SWAP1 POP PUSH1 0x1F DUP4 GT PUSH1 0x1 DUP2 EQ PUSH2 0x1D33 JUMPI PUSH0 DUP5 ISZERO PUSH2 0x1D21 JUMPI DUP3 DUP8 ADD MLOAD SWAP1 POP JUMPDEST PUSH2 0x1D2B DUP6 DUP3 PUSH2 0x1CB0 JUMP JUMPDEST DUP7 SSTORE POP PUSH2 0x1D92 JUMP JUMPDEST PUSH1 0x1F NOT DUP5 AND PUSH2 0x1D41 DUP7 PUSH2 0x1B2E JUMP JUMPDEST PUSH0 JUMPDEST DUP3 DUP2 LT ISZERO PUSH2 0x1D68 JUMPI DUP5 DUP10 ADD MLOAD DUP3 SSTORE PUSH1 0x1 DUP3 ADD SWAP2 POP PUSH1 0x20 DUP6 ADD SWAP5 POP PUSH1 0x20 DUP2 ADD SWAP1 POP PUSH2 0x1D43 JUMP JUMPDEST DUP7 DUP4 LT ISZERO PUSH2 0x1D85 JUMPI DUP5 DUP10 ADD MLOAD PUSH2 0x1D81 PUSH1 0x1F DUP10 AND DUP3 PUSH2 0x1C94 JUMP JUMPDEST DUP4 SSTORE POP JUMPDEST PUSH1 0x1 PUSH1 0x2 DUP9 MUL ADD DUP9 SSTORE POP POP POP JUMPDEST POP POP POP POP POP POP JUMP JUMPDEST PUSH32 0x53656C6C6572206E6F7420726567697374657265642100000000000000000000 PUSH0 DUP3 ADD MSTORE POP JUMP JUMPDEST PUSH0 PUSH2 0x1DCE PUSH1 0x16 DUP4 PUSH2 0x1546 JUMP JUMPDEST SWAP2 POP PUSH2 0x1DD9 DUP3 PUSH2 0x1D9A JUMP JUMPDEST PUSH1 0x20 DUP3 ADD SWAP1 POP SWAP2 SWAP1 POP JUMP JUMPDEST PUSH0 PUSH1 0x20 DUP3 ADD SWAP1 POP DUP2 DUP2 SUB PUSH0 DUP4 ADD MSTORE PUSH2 0x1DFB DUP2 PUSH2 0x1DC2 JUMP JUMPDEST SWAP1 POP SWAP2 SWAP1 POP JUMP INVALID LOG2 PUSH5 0x6970667358 0x22 SLT KECCAK256 PUSH21 0xB0D683405BC55CF224B990DA24CF2D436B0D547585 0xD1 RETURN BALANCE 0xE8 PUSH2 0x8158 0xD4 PUSH30 0xC764736F6C634300081A0033000000000000000000000000000000000000 "
				},
				"gasEstimates": {
					"creation": {
						"codeDepositCost": "1547200",
						"executionCost": "1615",
						"totalCost": "1548815"
					},
					"external": {
						"addLand(string,string,uint256,uint256,string,string,string,string)": "infinite",
						"getAllLands()": "infinite",
						"getLand(string)": "infinite",
						"landIds(uint256)": "infinite",
						"lands(string)": "infinite",
						"registerSeller(string,string,string,string,string)": "infinite",
						"sellers(address)": "infinite"
					}
				},
				"methodIdentifiers": {
					"addLand(string,string,uint256,uint256,string,string,string,string)": "dce9b619",
					"getAllLands()": "b7b6e543",
					"getLand(string)": "6c844a7b",
					"landIds(uint256)": "903a9451",
					"lands(string)": "b1c8ad0d",
					"registerSeller(string,string,string,string,string)": "7e8555ed",
					"sellers(address)": "6d47ab72"
				}
			},
			"storageLayout": {
				"storage": [
					{
						"astId": 36,
						"contract": "landupload.sol:LandRegistry",
						"label": "sellers",
						"offset": 0,
						"slot": "0",
						"type": "t_mapping(t_address,t_struct(Seller)12_storage)"
					},
					{
						"astId": 41,
						"contract": "landupload.sol:LandRegistry",
						"label": "lands",
						"offset": 0,
						"slot": "1",
						"type": "t_mapping(t_string_memory_ptr,t_struct(Land)31_storage)"
					},
					{
						"astId": 44,
						"contract": "landupload.sol:LandRegistry",
						"label": "landIds",
						"offset": 0,
						"slot": "2",
						"type": "t_array(t_string_storage)dyn_storage"
					}
				],
				"types": {
					"t_address": {
						"encoding": "inplace",
						"label": "address",
						"numberOfBytes": "20"
					},
					"t_array(t_string_storage)dyn_storage": {
						"base": "t_string_storage",
						"encoding": "dynamic_array",
						"label": "string[]",
						"numberOfBytes": "32"
					},
					"t_mapping(t_address,t_struct(Seller)12_storage)": {
						"encoding": "mapping",
						"key": "t_address",
						"label": "mapping(address => struct LandRegistry.Seller)",
						"numberOfBytes": "32",
						"value": "t_struct(Seller)12_storage"
					},
					"t_mapping(t_string_memory_ptr,t_struct(Land)31_storage)": {
						"encoding": "mapping",
						"key": "t_string_memory_ptr",
						"label": "mapping(string => struct LandRegistry.Land)",
						"numberOfBytes": "32",
						"value": "t_struct(Land)31_storage"
					},
					"t_string_memory_ptr": {
						"encoding": "bytes",
						"label": "string",
						"numberOfBytes": "32"
					},
					"t_string_storage": {
						"encoding": "bytes",
						"label": "string",
						"numberOfBytes": "32"
					},
					"t_struct(Land)31_storage": {
						"encoding": "inplace",
						"label": "struct LandRegistry.Land",
						"members": [
							{
								"astId": 14,
								"contract": "landupload.sol:LandRegistry",
								"label": "area",
								"offset": 0,
								"slot": "0",
								"type": "t_string_storage"
							},
							{
								"astId": 16,
								"contract": "landupload.sol:LandRegistry",
								"label": "city",
								"offset": 0,
								"slot": "1",
								"type": "t_string_storage"
							},
							{
								"astId": 18,
								"contract": "landupload.sol:LandRegistry",
								"label": "amount",
								"offset": 0,
								"slot": "2",
								"type": "t_uint256"
							},
							{
								"astId": 20,
								"contract": "landupload.sol:LandRegistry",
								"label": "advance",
								"offset": 0,
								"slot": "3",
								"type": "t_uint256"
							},
							{
								"astId": 22,
								"contract": "landupload.sol:LandRegistry",
								"label": "imageHash",
								"offset": 0,
								"slot": "4",
								"type": "t_string_storage"
							},
							{
								"astId": 24,
								"contract": "landupload.sol:LandRegistry",
								"label": "squareFeet",
								"offset": 0,
								"slot": "5",
								"type": "t_string_storage"
							},
							{
								"astId": 26,
								"contract": "landupload.sol:LandRegistry",
								"label": "documentNo",
								"offset": 0,
								"slot": "6",
								"type": "t_string_storage"
							},
							{
								"astId": 28,
								"contract": "landupload.sol:LandRegistry",
								"label": "surveyNo",
								"offset": 0,
								"slot": "7",
								"type": "t_string_storage"
							},
							{
								"astId": 30,
								"contract": "landupload.sol:LandRegistry",
								"label": "owner",
								"offset": 0,
								"slot": "8",
								"type": "t_address"
							}
						],
						"numberOfBytes": "288"
					},
					"t_struct(Seller)12_storage": {
						"encoding": "inplace",
						"label": "struct LandRegistry.Seller",
						"members": [
							{
								"astId": 3,
								"contract": "landupload.sol:LandRegistry",
								"label": "aadhaar",
								"offset": 0,
								"slot": "0",
								"type": "t_string_storage"
							},
							{
								"astId": 5,
								"contract": "landupload.sol:LandRegistry",
								"label": "name",
								"offset": 0,
								"slot": "1",
								"type": "t_string_storage"
							},
							{
								"astId": 7,
								"contract": "landupload.sol:LandRegistry",
								"label": "mobile",
								"offset": 0,
								"slot": "2",
								"type": "t_string_storage"
							},
							{
								"astId": 9,
								"contract": "landupload.sol:LandRegistry",
								"label": "addr",
								"offset": 0,
								"slot": "3",
								"type": "t_string_storage"
							},
							{
								"astId": 11,
								"contract": "landupload.sol:LandRegistry",
								"label": "email",
								"offset": 0,
								"slot": "4",
								"type": "t_string_storage"
							}
						],
						"numberOfBytes": "160"
					},
					"t_uint256": {
						"encoding": "inplace",
						"label": "uint256",
						"numberOfBytes": "32"
					}
				}
			},
			"userdoc": {
				"kind": "user",
				"methods": {},
				"version": 1
			}
		}
	}
}