{
	"flathouse.sol": {
		"SellerRegistry": {
			"abi": [
				{
					"anonymous": false,
					"inputs": [
						{
							"indexed": true,
							"internalType": "string",
							"name": "aadhaar",
							"type": "string"
						},
						{
							"indexed": false,
							"internalType": "string",
							"name": "name",
							"type": "string"
						},
						{
							"indexed": false,
							"internalType": "address",
							"name": "owner",
							"type": "address"
						}
					],
					"name": "SellerAdded",
					"type": "event"
				},
				{
					"inputs": [
						{
							"internalType": "string",
							"name": "_aadhaar",
							"type": "string"
						},
						{
							"internalType": "string",
							"name": "_name",
							"type": "string"
						},
						{
							"internalType": "string",
							"name": "_email",
							"type": "string"
						},
						{
							"internalType": "string",
							"name": "_address",
							"type": "string"
						}
					],
					"name": "addSeller",
					"outputs": [],
					"stateMutability": "nonpayable",
					"type": "function"
				},
				{
					"inputs": [
						{
							"internalType": "string",
							"name": "_aadhaar",
							"type": "string"
						}
					],
					"name": "getSeller",
					"outputs": [
						{
							"components": [
								{
									"internalType": "string",
									"name": "aadhaar",
									"type": "string"
								},
								{
									"internalType": "string",
									"name": "name",
									"type": "string"
								},
								{
									"internalType": "string",
									"name": "email",
									"type": "string"
								},
								{
									"internalType": "string",
									"name": "faddress",
									"type": "string"
								},
								{
									"internalType": "address",
									"name": "owner",
									"type": "address"
								}
							],
							"internalType": "struct SellerRegistry.Seller",
							"name": "",
							"type": "tuple"
						}
					],
					"stateMutability": "view",
					"type": "function"
				},
				{
					"inputs": [
						{
							"internalType": "string",
							"name": "",
							"type": "string"
						}
					],
					"name": "sellers",
					"outputs": [
						{
							"internalType": "string",
							"name": "aadhaar",
							"type": "string"
						},
						{
							"internalType": "string",
							"name": "name",
							"type": "string"
						},
						{
							"internalType": "string",
							"name": "email",
							"type": "string"
						},
						{
							"internalType": "string",
							"name": "faddress",
							"type": "string"
						},
						{
							"internalType": "address",
							"name": "owner",
							"type": "address"
						}
					],
					"stateMutability": "view",
					"type": "function"
				}
			],
			"devdoc": {
				"kind": "dev",
				"methods": {},
				"version": 1
			},
			"evm": {
				"assembly": "    /* \"flathouse.sol\":60:1023  contract SellerRegistry {... */\n  mstore(0x40, 0x80)\n  callvalue\n  dup1\n  iszero\n  tag_1\n  jumpi\n  0x00\n  dup1\n  revert\ntag_1:\n  pop\n  dataSize(sub_0)\n  dup1\n  dataOffset(sub_0)\n  0x00\n  codecopy\n  0x00\n  return\nstop\n\nsub_0: assembly {\n        /* \"flathouse.sol\":60:1023  contract SellerRegistry {... */\n      mstore(0x40, 0x80)\n      callvalue\n      dup1\n      iszero\n      tag_1\n      jumpi\n      0x00\n      dup1\n      revert\n    tag_1:\n      pop\n      jumpi(tag_2, lt(calldatasize, 0x04))\n      shr(0xe0, calldataload(0x00))\n      dup1\n      0x0859c6d2\n      eq\n      tag_3\n      jumpi\n      dup1\n      0x8060ea6b\n      eq\n      tag_4\n      jumpi\n      dup1\n      0xa3902940\n      eq\n      tag_5\n      jumpi\n    tag_2:\n      0x00\n      dup1\n      revert\n        /* \"flathouse.sol\":372:890  function addSeller(... */\n    tag_3:\n      tag_6\n      0x04\n      dup1\n      calldatasize\n      sub\n      dup2\n      add\n      swap1\n      tag_7\n      swap2\n      swap1\n      tag_8\n      jump\t// in\n    tag_7:\n      tag_9\n      jump\t// in\n    tag_6:\n      stop\n        /* \"flathouse.sol\":241:281  mapping(string => Seller) public sellers */\n    tag_4:\n      tag_10\n      0x04\n      dup1\n      calldatasize\n      sub\n      dup2\n      add\n      swap1\n      tag_11\n      swap2\n      swap1\n      tag_12\n      jump\t// in\n    tag_11:\n      tag_13\n      jump\t// in\n    tag_10:\n      mload(0x40)\n      tag_14\n      swap6\n      swap5\n      swap4\n      swap3\n      swap2\n      swap1\n      tag_15\n      jump\t// in\n    tag_14:\n      mload(0x40)\n      dup1\n      swap2\n      sub\n      swap1\n      return\n        /* \"flathouse.sol\":898:1020  function getSeller(string memory _aadhaar) public view returns (Seller memory) {... */\n    tag_5:\n      tag_16\n      0x04\n      dup1\n      calldatasize\n      sub\n      dup2\n      add\n      swap1\n      tag_17\n      swap2\n      swap1\n      tag_12\n      jump\t// in\n    tag_17:\n      tag_18\n      jump\t// in\n    tag_16:\n      mload(0x40)\n      tag_19\n      swap2\n      swap1\n      tag_20\n      jump\t// in\n    tag_19:\n      mload(0x40)\n      dup1\n      swap2\n      sub\n      swap1\n      return\n        /* \"flathouse.sol\":372:890  function addSeller(... */\n    tag_9:\n        /* \"flathouse.sol\":594:595  0 */\n      0x00\n        /* \"flathouse.sol\":557:564  sellers */\n      dup1\n        /* \"flathouse.sol\":565:573  _aadhaar */\n      dup6\n        /* \"flathouse.sol\":557:574  sellers[_aadhaar] */\n      mload(0x40)\n      tag_22\n      swap2\n      swap1\n      tag_23\n      jump\t// in\n    tag_22:\n      swap1\n      dup2\n      mstore\n      0x20\n      add\n      mload(0x40)\n      dup1\n      swap2\n      sub\n      swap1\n      keccak256\n        /* \"flathouse.sol\":557:582  sellers[_aadhaar].aadhaar */\n      0x00\n      add\n        /* \"flathouse.sol\":551:590  bytes(sellers[_aadhaar].aadhaar).length */\n      dup1\n      sload\n      tag_24\n      swap1\n      tag_25\n      jump\t// in\n    tag_24:\n      swap1\n      pop\n        /* \"flathouse.sol\":551:595  bytes(sellers[_aadhaar].aadhaar).length == 0 */\n      eq\n        /* \"flathouse.sol\":543:621  require(bytes(sellers[_aadhaar].aadhaar).length == 0, \"Seller already exists\") */\n      tag_26\n      jumpi\n      mload(0x40)\n      0x08c379a000000000000000000000000000000000000000000000000000000000\n      dup2\n      mstore\n      0x04\n      add\n      tag_27\n      swap1\n      tag_28\n      jump\t// in\n    tag_27:\n      mload(0x40)\n      dup1\n      swap2\n      sub\n      swap1\n      revert\n    tag_26:\n        /* \"flathouse.sol\":654:824  Seller({... */\n      mload(0x40)\n      dup1\n      0xa0\n      add\n      0x40\n      mstore\n      dup1\n        /* \"flathouse.sol\":685:693  _aadhaar */\n      dup6\n        /* \"flathouse.sol\":654:824  Seller({... */\n      dup2\n      mstore\n      0x20\n      add\n        /* \"flathouse.sol\":714:719  _name */\n      dup5\n        /* \"flathouse.sol\":654:824  Seller({... */\n      dup2\n      mstore\n      0x20\n      add\n        /* \"flathouse.sol\":741:747  _email */\n      dup4\n        /* \"flathouse.sol\":654:824  Seller({... */\n      dup2\n      mstore\n      0x20\n      add\n        /* \"flathouse.sol\":772:780  _address */\n      dup3\n        /* \"flathouse.sol\":654:824  Seller({... */\n      dup2\n      mstore\n      0x20\n      add\n        /* \"flathouse.sol\":802:812  msg.sender */\n      caller\n        /* \"flathouse.sol\":654:824  Seller({... */\n      0xffffffffffffffffffffffffffffffffffffffff\n      and\n      dup2\n      mstore\n      pop\n        /* \"flathouse.sol\":634:641  sellers */\n      0x00\n        /* \"flathouse.sol\":642:650  _aadhaar */\n      dup6\n        /* \"flathouse.sol\":634:651  sellers[_aadhaar] */\n      mload(0x40)\n      tag_29\n      swap2\n      swap1\n      tag_23\n      jump\t// in\n    tag_29:\n      swap1\n      dup2\n      mstore\n      0x20\n      add\n      mload(0x40)\n      dup1\n      swap2\n      sub\n      swap1\n      keccak256\n        /* \"flathouse.sol\":634:824  sellers[_aadhaar] = Seller({... */\n      0x00\n      dup3\n      add\n      mload\n      dup2\n      0x00\n      add\n      swap1\n      dup2\n      tag_30\n      swap2\n      swap1\n      tag_31\n      jump\t// in\n    tag_30:\n      pop\n      0x20\n      dup3\n      add\n      mload\n      dup2\n      0x01\n      add\n      swap1\n      dup2\n      tag_32\n      swap2\n      swap1\n      tag_31\n      jump\t// in\n    tag_32:\n      pop\n      0x40\n      dup3\n      add\n      mload\n      dup2\n      0x02\n      add\n      swap1\n      dup2\n      tag_33\n      swap2\n      swap1\n      tag_31\n      jump\t// in\n    tag_33:\n      pop\n      0x60\n      dup3\n      add\n      mload\n      dup2\n      0x03\n      add\n      swap1\n      dup2\n      tag_34\n      swap2\n      swap1\n      tag_31\n      jump\t// in\n    tag_34:\n      pop\n      0x80\n      dup3\n      add\n      mload\n      dup2\n      0x04\n      add\n      exp(0x0100, 0x00)\n      dup2\n      sload\n      dup2\n      0xffffffffffffffffffffffffffffffffffffffff\n      mul\n      not\n      and\n      swap1\n      dup4\n      0xffffffffffffffffffffffffffffffffffffffff\n      and\n      mul\n      or\n      swap1\n      sstore\n      pop\n      swap1\n      pop\n      pop\n        /* \"flathouse.sol\":854:862  _aadhaar */\n      dup4\n        /* \"flathouse.sol\":842:882  SellerAdded(_aadhaar, _name, msg.sender) */\n      mload(0x40)\n      tag_35\n      swap2\n      swap1\n      tag_23\n      jump\t// in\n    tag_35:\n      mload(0x40)\n      dup1\n      swap2\n      sub\n      swap1\n      keccak256\n      0x211b57cd93343fc99d99bbd57fd377c63f4203b8984f2ed4f1b136910d46125e\n        /* \"flathouse.sol\":864:869  _name */\n      dup5\n        /* \"flathouse.sol\":871:881  msg.sender */\n      caller\n        /* \"flathouse.sol\":842:882  SellerAdded(_aadhaar, _name, msg.sender) */\n      mload(0x40)\n      tag_36\n      swap3\n      swap2\n      swap1\n      tag_37\n      jump\t// in\n    tag_36:\n      mload(0x40)\n      dup1\n      swap2\n      sub\n      swap1\n      log2\n        /* \"flathouse.sol\":372:890  function addSeller(... */\n      pop\n      pop\n      pop\n      pop\n      jump\t// out\n        /* \"flathouse.sol\":241:281  mapping(string => Seller) public sellers */\n    tag_13:\n      0x00\n      dup2\n      dup1\n      mload\n      0x20\n      dup2\n      add\n      dup3\n      add\n      dup1\n      mload\n      dup5\n      dup3\n      mstore\n      0x20\n      dup4\n      add\n      0x20\n      dup6\n      add\n      keccak256\n      dup2\n      dup4\n      mstore\n      dup1\n      swap6\n      pop\n      pop\n      pop\n      pop\n      pop\n      pop\n      0x00\n      swap2\n      pop\n      swap1\n      pop\n      dup1\n      0x00\n      add\n      dup1\n      sload\n      tag_38\n      swap1\n      tag_25\n      jump\t// in\n    tag_38:\n      dup1\n      0x1f\n      add\n      0x20\n      dup1\n      swap2\n      div\n      mul\n      0x20\n      add\n      mload(0x40)\n      swap1\n      dup2\n      add\n      0x40\n      mstore\n      dup1\n      swap3\n      swap2\n      swap1\n      dup2\n      dup2\n      mstore\n      0x20\n      add\n      dup3\n      dup1\n      sload\n      tag_39\n      swap1\n      tag_25\n      jump\t// in\n    tag_39:\n      dup1\n      iszero\n      tag_40\n      jumpi\n      dup1\n      0x1f\n      lt\n      tag_41\n      jumpi\n      0x0100\n      dup1\n      dup4\n      sload\n      div\n      mul\n      dup4\n      mstore\n      swap2\n      0x20\n      add\n      swap2\n      jump(tag_40)\n    tag_41:\n      dup3\n      add\n      swap2\n      swap1\n      0x00\n      mstore\n      keccak256(0x00, 0x20)\n      swap1\n    tag_42:\n      dup2\n      sload\n      dup2\n      mstore\n      swap1\n      0x01\n      add\n      swap1\n      0x20\n      add\n      dup1\n      dup4\n      gt\n      tag_42\n      jumpi\n      dup3\n      swap1\n      sub\n      0x1f\n      and\n      dup3\n      add\n      swap2\n    tag_40:\n      pop\n      pop\n      pop\n      pop\n      pop\n      swap1\n      dup1\n      0x01\n      add\n      dup1\n      sload\n      tag_43\n      swap1\n      tag_25\n      jump\t// in\n    tag_43:\n      dup1\n      0x1f\n      add\n      0x20\n      dup1\n      swap2\n      div\n      mul\n      0x20\n      add\n      mload(0x40)\n      swap1\n      dup2\n      add\n      0x40\n      mstore\n      dup1\n      swap3\n      swap2\n      swap1\n      dup2\n      dup2\n      mstore\n      0x20\n      add\n      dup3\n      dup1\n      sload\n      tag_44\n      swap1\n      tag_25\n      jump\t// in\n    tag_44:\n      dup1\n      iszero\n      tag_45\n      jumpi\n      dup1\n      0x1f\n      lt\n      tag_46\n      jumpi\n      0x0100\n      dup1\n      dup4\n      sload\n      div\n      mul\n      dup4\n      mstore\n      swap2\n      0x20\n      add\n      swap2\n      jump(tag_45)\n    tag_46:\n      dup3\n      add\n      swap2\n      swap1\n      0x00\n      mstore\n      keccak256(0x00, 0x20)\n      swap1\n    tag_47:\n      dup2\n      sload\n      dup2\n      mstore\n      swap1\n      0x01\n      add\n      swap1\n      0x20\n      add\n      dup1\n      dup4\n      gt\n      tag_47\n      jumpi\n      dup3\n      swap1\n      sub\n      0x1f\n      and\n      dup3\n      add\n      swap2\n    tag_45:\n      pop\n      pop\n      pop\n      pop\n      pop\n      swap1\n      dup1\n      0x02\n      add\n      dup1\n      sload\n      tag_48\n      swap1\n      tag_25\n      jump\t// in\n    tag_48:\n      dup1\n      0x1f\n      add\n      0x20\n      dup1\n      swap2\n      div\n      mul\n      0x20\n      add\n      mload(0x40)\n      swap1\n      dup2\n      add\n      0x40\n      mstore\n      dup1\n      swap3\n      swap2\n      swap1\n      dup2\n      dup2\n      mstore\n      0x20\n      add\n      dup3\n      dup1\n      sload\n      tag_49\n      swap1\n      tag_25\n      jump\t// in\n    tag_49:\n      dup1\n      iszero\n      tag_50\n      jumpi\n      dup1\n      0x1f\n      lt\n      tag_51\n      jumpi\n      0x0100\n      dup1\n      dup4\n      sload\n      div\n      mul\n      dup4\n      mstore\n      swap2\n      0x20\n      add\n      swap2\n      jump(tag_50)\n    tag_51:\n      dup3\n      add\n      swap2\n      swap1\n      0x00\n      mstore\n      keccak256(0x00, 0x20)\n      swap1\n    tag_52:\n      dup2\n      sload\n      dup2\n      mstore\n      swap1\n      0x01\n      add\n      swap1\n      0x20\n      add\n      dup1\n      dup4\n      gt\n      tag_52\n      jumpi\n      dup3\n      swap1\n      sub\n      0x1f\n      and\n      dup3\n      add\n      swap2\n    tag_50:\n      pop\n      pop\n      pop\n      pop\n      pop\n      swap1\n      dup1\n      0x03\n      add\n      dup1\n      sload\n      tag_53\n      swap1\n      tag_25\n      jump\t// in\n    tag_53:\n      dup1\n      0x1f\n      add\n      0x20\n      dup1\n      swap2\n      div\n      mul\n      0x20\n      add\n      mload(0x40)\n      swap1\n      dup2\n      add\n      0x40\n      mstore\n      dup1\n      swap3\n      swap2\n      swap1\n      dup2\n      dup2\n      mstore\n      0x20\n      add\n      dup3\n      dup1\n      sload\n      tag_54\n      swap1\n      tag_25\n      jump\t// in\n    tag_54:\n      dup1\n      iszero\n      tag_55\n      jumpi\n      dup1\n      0x1f\n      lt\n      tag_56\n      jumpi\n      0x0100\n      dup1\n      dup4\n      sload\n      div\n      mul\n      dup4\n      mstore\n      swap2\n      0x20\n      add\n      swap2\n      jump(tag_55)\n    tag_56:\n      dup3\n      add\n      swap2\n      swap1\n      0x00\n      mstore\n      keccak256(0x00, 0x20)\n      swap1\n    tag_57:\n      dup2\n      sload\n      dup2\n      mstore\n      swap1\n      0x01\n      add\n      swap1\n      0x20\n      add\n      dup1\n      dup4\n      gt\n      tag_57\n      jumpi\n      dup3\n      swap1\n      sub\n      0x1f\n      and\n      dup3\n      add\n      swap2\n    tag_55:\n      pop\n      pop\n      pop\n      pop\n      pop\n      swap1\n      dup1\n      0x04\n      add\n      0x00\n      swap1\n      sload\n      swap1\n      0x0100\n      exp\n      swap1\n      div\n      0xffffffffffffffffffffffffffffffffffffffff\n      and\n      swap1\n      pop\n      dup6\n      jump\t// out\n        /* \"flathouse.sol\":898:1020  function getSeller(string memory _aadhaar) public view returns (Seller memory) {... */\n    tag_18:\n        /* \"flathouse.sol\":962:975  Seller memory */\n      tag_58\n      tag_59\n      jump\t// in\n    tag_58:\n        /* \"flathouse.sol\":995:1002  sellers */\n      0x00\n        /* \"flathouse.sol\":1003:1011  _aadhaar */\n      dup3\n        /* \"flathouse.sol\":995:1012  sellers[_aadhaar] */\n      mload(0x40)\n      tag_61\n      swap2\n      swap1\n      tag_23\n      jump\t// in\n    tag_61:\n      swap1\n      dup2\n      mstore\n      0x20\n      add\n      mload(0x40)\n      dup1\n      swap2\n      sub\n      swap1\n      keccak256\n        /* \"flathouse.sol\":988:1012  return sellers[_aadhaar] */\n      mload(0x40)\n      dup1\n      0xa0\n      add\n      0x40\n      mstore\n      swap1\n      dup2\n      0x00\n      dup3\n      add\n      dup1\n      sload\n      tag_62\n      swap1\n      tag_25\n      jump\t// in\n    tag_62:\n      dup1\n      0x1f\n      add\n      0x20\n      dup1\n      swap2\n      div\n      mul\n      0x20\n      add\n      mload(0x40)\n      swap1\n      dup2\n      add\n      0x40\n      mstore\n      dup1\n      swap3\n      swap2\n      swap1\n      dup2\n      dup2\n      mstore\n      0x20\n      add\n      dup3\n      dup1\n      sload\n      tag_63\n      swap1\n      tag_25\n      jump\t// in\n    tag_63:\n      dup1\n      iszero\n      tag_64\n      jumpi\n      dup1\n      0x1f\n      lt\n      tag_65\n      jumpi\n      0x0100\n      dup1\n      dup4\n      sload\n      div\n      mul\n      dup4\n      mstore\n      swap2\n      0x20\n      add\n      swap2\n      jump(tag_64)\n    tag_65:\n      dup3\n      add\n      swap2\n      swap1\n      0x00\n      mstore\n      keccak256(0x00, 0x20)\n      swap1\n    tag_66:\n      dup2\n      sload\n      dup2\n      mstore\n      swap1\n      0x01\n      add\n      swap1\n      0x20\n      add\n      dup1\n      dup4\n      gt\n      tag_66\n      jumpi\n      dup3\n      swap1\n      sub\n      0x1f\n      and\n      dup3\n      add\n      swap2\n    tag_64:\n      pop\n      pop\n      pop\n      pop\n      pop\n      dup2\n      mstore\n      0x20\n      add\n      0x01\n      dup3\n      add\n      dup1\n      sload\n      tag_67\n      swap1\n      tag_25\n      jump\t// in\n    tag_67:\n      dup1\n      0x1f\n      add\n      0x20\n      dup1\n      swap2\n      div\n      mul\n      0x20\n      add\n      mload(0x40)\n      swap1\n      dup2\n      add\n      0x40\n      mstore\n      dup1\n      swap3\n      swap2\n      swap1\n      dup2\n      dup2\n      mstore\n      0x20\n      add\n      dup3\n      dup1\n      sload\n      tag_68\n      swap1\n      tag_25\n      jump\t// in\n    tag_68:\n      dup1\n      iszero\n      tag_69\n      jumpi\n      dup1\n      0x1f\n      lt\n      tag_70\n      jumpi\n      0x0100\n      dup1\n      dup4\n      sload\n      div\n      mul\n      dup4\n      mstore\n      swap2\n      0x20\n      add\n      swap2\n      jump(tag_69)\n    tag_70:\n      dup3\n      add\n      swap2\n      swap1\n      0x00\n      mstore\n      keccak256(0x00, 0x20)\n      swap1\n    tag_71:\n      dup2\n      sload\n      dup2\n      mstore\n      swap1\n      0x01\n      add\n      swap1\n      0x20\n      add\n      dup1\n      dup4\n      gt\n      tag_71\n      jumpi\n      dup3\n      swap1\n      sub\n      0x1f\n      and\n      dup3\n      add\n      swap2\n    tag_69:\n      pop\n      pop\n      pop\n      pop\n      pop\n      dup2\n      mstore\n      0x20\n      add\n      0x02\n      dup3\n      add\n      dup1\n      sload\n      tag_72\n      swap1\n      tag_25\n      jump\t// in\n    tag_72:\n      dup1\n      0x1f\n      add\n      0x20\n      dup1\n      swap2\n      div\n      mul\n      0x20\n      add\n      mload(0x40)\n      swap1\n      dup2\n      add\n      0x40\n      mstore\n      dup1\n      swap3\n      swap2\n      swap1\n      dup2\n      dup2\n      mstore\n      0x20\n      add\n      dup3\n      dup1\n      sload\n      tag_73\n      swap1\n      tag_25\n      jump\t// in\n    tag_73:\n      dup1\n      iszero\n      tag_74\n      jumpi\n      dup1\n      0x1f\n      lt\n      tag_75\n      jumpi\n      0x0100\n      dup1\n      dup4\n      sload\n      div\n      mul\n      dup4\n      mstore\n      swap2\n      0x20\n      add\n      swap2\n      jump(tag_74)\n    tag_75:\n      dup3\n      add\n      swap2\n      swap1\n      0x00\n      mstore\n      keccak256(0x00, 0x20)\n      swap1\n    tag_76:\n      dup2\n      sload\n      dup2\n      mstore\n      swap1\n      0x01\n      add\n      swap1\n      0x20\n      add\n      dup1\n      dup4\n      gt\n      tag_76\n      jumpi\n      dup3\n      swap1\n      sub\n      0x1f\n      and\n      dup3\n      add\n      swap2\n    tag_74:\n      pop\n      pop\n      pop\n      pop\n      pop\n      dup2\n      mstore\n      0x20\n      add\n      0x03\n      dup3\n      add\n      dup1\n      sload\n      tag_77\n      swap1\n      tag_25\n      jump\t// in\n    tag_77:\n      dup1\n      0x1f\n      add\n      0x20\n      dup1\n      swap2\n      div\n      mul\n      0x20\n      add\n      mload(0x40)\n      swap1\n      dup2\n      add\n      0x40\n      mstore\n      dup1\n      swap3\n      swap2\n      swap1\n      dup2\n      dup2\n      mstore\n      0x20\n      add\n      dup3\n      dup1\n      sload\n      tag_78\n      swap1\n      tag_25\n      jump\t// in\n    tag_78:\n      dup1\n      iszero\n      tag_79\n      jumpi\n      dup1\n      0x1f\n      lt\n      tag_80\n      jumpi\n      0x0100\n      dup1\n      dup4\n      sload\n      div\n      mul\n      dup4\n      mstore\n      swap2\n      0x20\n      add\n      swap2\n      jump(tag_79)\n    tag_80:\n      dup3\n      add\n      swap2\n      swap1\n      0x00\n      mstore\n      keccak256(0x00, 0x20)\n      swap1\n    tag_81:\n      dup2\n      sload\n      dup2\n      mstore\n      swap1\n      0x01\n      add\n      swap1\n      0x20\n      add\n      dup1\n      dup4\n      gt\n      tag_81\n      jumpi\n      dup3\n      swap1\n      sub\n      0x1f\n      and\n      dup3\n      add\n      swap2\n    tag_79:\n      pop\n      pop\n      pop\n      pop\n      pop\n      dup2\n      mstore\n      0x20\n      add\n      0x04\n      dup3\n      add\n      0x00\n      swap1\n      sload\n      swap1\n      0x0100\n      exp\n      swap1\n      div\n      0xffffffffffffffffffffffffffffffffffffffff\n      and\n      0xffffffffffffffffffffffffffffffffffffffff\n      and\n      0xffffffffffffffffffffffffffffffffffffffff\n      and\n      dup2\n      mstore\n      pop\n      pop\n      swap1\n      pop\n        /* \"flathouse.sol\":898:1020  function getSeller(string memory _aadhaar) public view returns (Seller memory) {... */\n      swap2\n      swap1\n      pop\n      jump\t// out\n    tag_59:\n      mload(0x40)\n      dup1\n      0xa0\n      add\n      0x40\n      mstore\n      dup1\n      0x60\n      dup2\n      mstore\n      0x20\n      add\n      0x60\n      dup2\n      mstore\n      0x20\n      add\n      0x60\n      dup2\n      mstore\n      0x20\n      add\n      0x60\n      dup2\n      mstore\n      0x20\n      add\n      and(0xffffffffffffffffffffffffffffffffffffffff, 0x00)\n      dup2\n      mstore\n      pop\n      swap1\n      jump\t// out\n        /* \"#utility.yul\":7:82   */\n    tag_82:\n        /* \"#utility.yul\":40:46   */\n      0x00\n        /* \"#utility.yul\":73:75   */\n      0x40\n        /* \"#utility.yul\":67:76   */\n      mload\n        /* \"#utility.yul\":57:76   */\n      swap1\n      pop\n        /* \"#utility.yul\":7:82   */\n      swap1\n      jump\t// out\n        /* \"#utility.yul\":88:205   */\n    tag_83:\n        /* \"#utility.yul\":197:198   */\n      0x00\n        /* \"#utility.yul\":194:195   */\n      dup1\n        /* \"#utility.yul\":187:199   */\n      revert\n        /* \"#utility.yul\":211:328   */\n    tag_84:\n        /* \"#utility.yul\":320:321   */\n      0x00\n        /* \"#utility.yul\":317:318   */\n      dup1\n        /* \"#utility.yul\":310:322   */\n      revert\n        /* \"#utility.yul\":334:451   */\n    tag_85:\n        /* \"#utility.yul\":443:444   */\n      0x00\n        /* \"#utility.yul\":440:441   */\n      dup1\n        /* \"#utility.yul\":433:445   */\n      revert\n        /* \"#utility.yul\":457:574   */\n    tag_86:\n        /* \"#utility.yul\":566:567   */\n      0x00\n        /* \"#utility.yul\":563:564   */\n      dup1\n        /* \"#utility.yul\":556:568   */\n      revert\n        /* \"#utility.yul\":580:682   */\n    tag_87:\n        /* \"#utility.yul\":621:627   */\n      0x00\n        /* \"#utility.yul\":672:674   */\n      0x1f\n        /* \"#utility.yul\":668:675   */\n      not\n        /* \"#utility.yul\":663:665   */\n      0x1f\n        /* \"#utility.yul\":656:661   */\n      dup4\n        /* \"#utility.yul\":652:666   */\n      add\n        /* \"#utility.yul\":648:676   */\n      and\n        /* \"#utility.yul\":638:676   */\n      swap1\n      pop\n        /* \"#utility.yul\":580:682   */\n      swap2\n      swap1\n      pop\n      jump\t// out\n        /* \"#utility.yul\":688:868   */\n    tag_88:\n        /* \"#utility.yul\":736:813   */\n      0x4e487b7100000000000000000000000000000000000000000000000000000000\n        /* \"#utility.yul\":733:734   */\n      0x00\n        /* \"#utility.yul\":726:814   */\n      mstore\n        /* \"#utility.yul\":833:837   */\n      0x41\n        /* \"#utility.yul\":830:831   */\n      0x04\n        /* \"#utility.yul\":823:838   */\n      mstore\n        /* \"#utility.yul\":857:861   */\n      0x24\n        /* \"#utility.yul\":854:855   */\n      0x00\n        /* \"#utility.yul\":847:862   */\n      revert\n        /* \"#utility.yul\":874:1155   */\n    tag_89:\n        /* \"#utility.yul\":957:984   */\n      tag_136\n        /* \"#utility.yul\":979:983   */\n      dup3\n        /* \"#utility.yul\":957:984   */\n      tag_87\n      jump\t// in\n    tag_136:\n        /* \"#utility.yul\":949:955   */\n      dup2\n        /* \"#utility.yul\":945:985   */\n      add\n        /* \"#utility.yul\":1087:1093   */\n      dup2\n        /* \"#utility.yul\":1075:1085   */\n      dup2\n        /* \"#utility.yul\":1072:1094   */\n      lt\n        /* \"#utility.yul\":1051:1069   */\n      0xffffffffffffffff\n        /* \"#utility.yul\":1039:1049   */\n      dup3\n        /* \"#utility.yul\":1036:1070   */\n      gt\n        /* \"#utility.yul\":1033:1095   */\n      or\n        /* \"#utility.yul\":1030:1118   */\n      iszero\n      tag_137\n      jumpi\n        /* \"#utility.yul\":1098:1116   */\n      tag_138\n      tag_88\n      jump\t// in\n    tag_138:\n        /* \"#utility.yul\":1030:1118   */\n    tag_137:\n        /* \"#utility.yul\":1138:1148   */\n      dup1\n        /* \"#utility.yul\":1134:1136   */\n      0x40\n        /* \"#utility.yul\":1127:1149   */\n      mstore\n        /* \"#utility.yul\":917:1155   */\n      pop\n        /* \"#utility.yul\":874:1155   */\n      pop\n      pop\n      jump\t// out\n        /* \"#utility.yul\":1161:1290   */\n    tag_90:\n        /* \"#utility.yul\":1195:1201   */\n      0x00\n        /* \"#utility.yul\":1222:1242   */\n      tag_140\n      tag_82\n      jump\t// in\n    tag_140:\n        /* \"#utility.yul\":1212:1242   */\n      swap1\n      pop\n        /* \"#utility.yul\":1251:1284   */\n      tag_141\n        /* \"#utility.yul\":1279:1283   */\n      dup3\n        /* \"#utility.yul\":1271:1277   */\n      dup3\n        /* \"#utility.yul\":1251:1284   */\n      tag_89\n      jump\t// in\n    tag_141:\n        /* \"#utility.yul\":1161:1290   */\n      swap2\n      swap1\n      pop\n      jump\t// out\n        /* \"#utility.yul\":1296:1604   */\n    tag_91:\n        /* \"#utility.yul\":1358:1362   */\n      0x00\n        /* \"#utility.yul\":1448:1466   */\n      0xffffffffffffffff\n        /* \"#utility.yul\":1440:1446   */\n      dup3\n        /* \"#utility.yul\":1437:1467   */\n      gt\n        /* \"#utility.yul\":1434:1490   */\n      iszero\n      tag_143\n      jumpi\n        /* \"#utility.yul\":1470:1488   */\n      tag_144\n      tag_88\n      jump\t// in\n    tag_144:\n        /* \"#utility.yul\":1434:1490   */\n    tag_143:\n        /* \"#utility.yul\":1508:1537   */\n      tag_145\n        /* \"#utility.yul\":1530:1536   */\n      dup3\n        /* \"#utility.yul\":1508:1537   */\n      tag_87\n      jump\t// in\n    tag_145:\n        /* \"#utility.yul\":1500:1537   */\n      swap1\n      pop\n        /* \"#utility.yul\":1592:1596   */\n      0x20\n        /* \"#utility.yul\":1586:1590   */\n      dup2\n        /* \"#utility.yul\":1582:1597   */\n      add\n        /* \"#utility.yul\":1574:1597   */\n      swap1\n      pop\n        /* \"#utility.yul\":1296:1604   */\n      swap2\n      swap1\n      pop\n      jump\t// out\n        /* \"#utility.yul\":1610:1758   */\n    tag_92:\n        /* \"#utility.yul\":1708:1714   */\n      dup3\n        /* \"#utility.yul\":1703:1706   */\n      dup2\n        /* \"#utility.yul\":1698:1701   */\n      dup4\n        /* \"#utility.yul\":1685:1715   */\n      calldatacopy\n        /* \"#utility.yul\":1749:1750   */\n      0x00\n        /* \"#utility.yul\":1740:1746   */\n      dup4\n        /* \"#utility.yul\":1735:1738   */\n      dup4\n        /* \"#utility.yul\":1731:1747   */\n      add\n        /* \"#utility.yul\":1724:1751   */\n      mstore\n        /* \"#utility.yul\":1610:1758   */\n      pop\n      pop\n      pop\n      jump\t// out\n        /* \"#utility.yul\":1764:2189   */\n    tag_93:\n        /* \"#utility.yul\":1842:1847   */\n      0x00\n        /* \"#utility.yul\":1867:1933   */\n      tag_148\n        /* \"#utility.yul\":1883:1932   */\n      tag_149\n        /* \"#utility.yul\":1925:1931   */\n      dup5\n        /* \"#utility.yul\":1883:1932   */\n      tag_91\n      jump\t// in\n    tag_149:\n        /* \"#utility.yul\":1867:1933   */\n      tag_90\n      jump\t// in\n    tag_148:\n        /* \"#utility.yul\":1858:1933   */\n      swap1\n      pop\n        /* \"#utility.yul\":1956:1962   */\n      dup3\n        /* \"#utility.yul\":1949:1954   */\n      dup2\n        /* \"#utility.yul\":1942:1963   */\n      mstore\n        /* \"#utility.yul\":1994:1998   */\n      0x20\n        /* \"#utility.yul\":1987:1992   */\n      dup2\n        /* \"#utility.yul\":1983:1999   */\n      add\n        /* \"#utility.yul\":2032:2035   */\n      dup5\n        /* \"#utility.yul\":2023:2029   */\n      dup5\n        /* \"#utility.yul\":2018:2021   */\n      dup5\n        /* \"#utility.yul\":2014:2030   */\n      add\n        /* \"#utility.yul\":2011:2036   */\n      gt\n        /* \"#utility.yul\":2008:2120   */\n      iszero\n      tag_150\n      jumpi\n        /* \"#utility.yul\":2039:2118   */\n      tag_151\n      tag_86\n      jump\t// in\n    tag_151:\n        /* \"#utility.yul\":2008:2120   */\n    tag_150:\n        /* \"#utility.yul\":2129:2183   */\n      tag_152\n        /* \"#utility.yul\":2176:2182   */\n      dup5\n        /* \"#utility.yul\":2171:2174   */\n      dup3\n        /* \"#utility.yul\":2166:2169   */\n      dup6\n        /* \"#utility.yul\":2129:2183   */\n      tag_92\n      jump\t// in\n    tag_152:\n        /* \"#utility.yul\":1848:2189   */\n      pop\n        /* \"#utility.yul\":1764:2189   */\n      swap4\n      swap3\n      pop\n      pop\n      pop\n      jump\t// out\n        /* \"#utility.yul\":2209:2549   */\n    tag_94:\n        /* \"#utility.yul\":2265:2270   */\n      0x00\n        /* \"#utility.yul\":2314:2317   */\n      dup3\n        /* \"#utility.yul\":2307:2311   */\n      0x1f\n        /* \"#utility.yul\":2299:2305   */\n      dup4\n        /* \"#utility.yul\":2295:2312   */\n      add\n        /* \"#utility.yul\":2291:2318   */\n      slt\n        /* \"#utility.yul\":2281:2403   */\n      tag_154\n      jumpi\n        /* \"#utility.yul\":2322:2401   */\n      tag_155\n      tag_85\n      jump\t// in\n    tag_155:\n        /* \"#utility.yul\":2281:2403   */\n    tag_154:\n        /* \"#utility.yul\":2439:2445   */\n      dup2\n        /* \"#utility.yul\":2426:2446   */\n      calldataload\n        /* \"#utility.yul\":2464:2543   */\n      tag_156\n        /* \"#utility.yul\":2539:2542   */\n      dup5\n        /* \"#utility.yul\":2531:2537   */\n      dup3\n        /* \"#utility.yul\":2524:2528   */\n      0x20\n        /* \"#utility.yul\":2516:2522   */\n      dup7\n        /* \"#utility.yul\":2512:2529   */\n      add\n        /* \"#utility.yul\":2464:2543   */\n      tag_93\n      jump\t// in\n    tag_156:\n        /* \"#utility.yul\":2455:2543   */\n      swap2\n      pop\n        /* \"#utility.yul\":2271:2549   */\n      pop\n        /* \"#utility.yul\":2209:2549   */\n      swap3\n      swap2\n      pop\n      pop\n      jump\t// out\n        /* \"#utility.yul\":2555:4040   */\n    tag_8:\n        /* \"#utility.yul\":2681:2687   */\n      0x00\n        /* \"#utility.yul\":2689:2695   */\n      dup1\n        /* \"#utility.yul\":2697:2703   */\n      0x00\n        /* \"#utility.yul\":2705:2711   */\n      dup1\n        /* \"#utility.yul\":2754:2757   */\n      0x80\n        /* \"#utility.yul\":2742:2751   */\n      dup6\n        /* \"#utility.yul\":2733:2740   */\n      dup8\n        /* \"#utility.yul\":2729:2752   */\n      sub\n        /* \"#utility.yul\":2725:2758   */\n      slt\n        /* \"#utility.yul\":2722:2842   */\n      iszero\n      tag_158\n      jumpi\n        /* \"#utility.yul\":2761:2840   */\n      tag_159\n      tag_83\n      jump\t// in\n    tag_159:\n        /* \"#utility.yul\":2722:2842   */\n    tag_158:\n        /* \"#utility.yul\":2909:2910   */\n      0x00\n        /* \"#utility.yul\":2898:2907   */\n      dup6\n        /* \"#utility.yul\":2894:2911   */\n      add\n        /* \"#utility.yul\":2881:2912   */\n      calldataload\n        /* \"#utility.yul\":2939:2957   */\n      0xffffffffffffffff\n        /* \"#utility.yul\":2931:2937   */\n      dup2\n        /* \"#utility.yul\":2928:2958   */\n      gt\n        /* \"#utility.yul\":2925:3042   */\n      iszero\n      tag_160\n      jumpi\n        /* \"#utility.yul\":2961:3040   */\n      tag_161\n      tag_84\n      jump\t// in\n    tag_161:\n        /* \"#utility.yul\":2925:3042   */\n    tag_160:\n        /* \"#utility.yul\":3066:3129   */\n      tag_162\n        /* \"#utility.yul\":3121:3128   */\n      dup8\n        /* \"#utility.yul\":3112:3118   */\n      dup3\n        /* \"#utility.yul\":3101:3110   */\n      dup9\n        /* \"#utility.yul\":3097:3119   */\n      add\n        /* \"#utility.yul\":3066:3129   */\n      tag_94\n      jump\t// in\n    tag_162:\n        /* \"#utility.yul\":3056:3129   */\n      swap5\n      pop\n        /* \"#utility.yul\":2852:3139   */\n      pop\n        /* \"#utility.yul\":3206:3208   */\n      0x20\n        /* \"#utility.yul\":3195:3204   */\n      dup6\n        /* \"#utility.yul\":3191:3209   */\n      add\n        /* \"#utility.yul\":3178:3210   */\n      calldataload\n        /* \"#utility.yul\":3237:3255   */\n      0xffffffffffffffff\n        /* \"#utility.yul\":3229:3235   */\n      dup2\n        /* \"#utility.yul\":3226:3256   */\n      gt\n        /* \"#utility.yul\":3223:3340   */\n      iszero\n      tag_163\n      jumpi\n        /* \"#utility.yul\":3259:3338   */\n      tag_164\n      tag_84\n      jump\t// in\n    tag_164:\n        /* \"#utility.yul\":3223:3340   */\n    tag_163:\n        /* \"#utility.yul\":3364:3427   */\n      tag_165\n        /* \"#utility.yul\":3419:3426   */\n      dup8\n        /* \"#utility.yul\":3410:3416   */\n      dup3\n        /* \"#utility.yul\":3399:3408   */\n      dup9\n        /* \"#utility.yul\":3395:3417   */\n      add\n        /* \"#utility.yul\":3364:3427   */\n      tag_94\n      jump\t// in\n    tag_165:\n        /* \"#utility.yul\":3354:3427   */\n      swap4\n      pop\n        /* \"#utility.yul\":3149:3437   */\n      pop\n        /* \"#utility.yul\":3504:3506   */\n      0x40\n        /* \"#utility.yul\":3493:3502   */\n      dup6\n        /* \"#utility.yul\":3489:3507   */\n      add\n        /* \"#utility.yul\":3476:3508   */\n      calldataload\n        /* \"#utility.yul\":3535:3553   */\n      0xffffffffffffffff\n        /* \"#utility.yul\":3527:3533   */\n      dup2\n        /* \"#utility.yul\":3524:3554   */\n      gt\n        /* \"#utility.yul\":3521:3638   */\n      iszero\n      tag_166\n      jumpi\n        /* \"#utility.yul\":3557:3636   */\n      tag_167\n      tag_84\n      jump\t// in\n    tag_167:\n        /* \"#utility.yul\":3521:3638   */\n    tag_166:\n        /* \"#utility.yul\":3662:3725   */\n      tag_168\n        /* \"#utility.yul\":3717:3724   */\n      dup8\n        /* \"#utility.yul\":3708:3714   */\n      dup3\n        /* \"#utility.yul\":3697:3706   */\n      dup9\n        /* \"#utility.yul\":3693:3715   */\n      add\n        /* \"#utility.yul\":3662:3725   */\n      tag_94\n      jump\t// in\n    tag_168:\n        /* \"#utility.yul\":3652:3725   */\n      swap3\n      pop\n        /* \"#utility.yul\":3447:3735   */\n      pop\n        /* \"#utility.yul\":3802:3804   */\n      0x60\n        /* \"#utility.yul\":3791:3800   */\n      dup6\n        /* \"#utility.yul\":3787:3805   */\n      add\n        /* \"#utility.yul\":3774:3806   */\n      calldataload\n        /* \"#utility.yul\":3833:3851   */\n      0xffffffffffffffff\n        /* \"#utility.yul\":3825:3831   */\n      dup2\n        /* \"#utility.yul\":3822:3852   */\n      gt\n        /* \"#utility.yul\":3819:3936   */\n      iszero\n      tag_169\n      jumpi\n        /* \"#utility.yul\":3855:3934   */\n      tag_170\n      tag_84\n      jump\t// in\n    tag_170:\n        /* \"#utility.yul\":3819:3936   */\n    tag_169:\n        /* \"#utility.yul\":3960:4023   */\n      tag_171\n        /* \"#utility.yul\":4015:4022   */\n      dup8\n        /* \"#utility.yul\":4006:4012   */\n      dup3\n        /* \"#utility.yul\":3995:4004   */\n      dup9\n        /* \"#utility.yul\":3991:4013   */\n      add\n        /* \"#utility.yul\":3960:4023   */\n      tag_94\n      jump\t// in\n    tag_171:\n        /* \"#utility.yul\":3950:4023   */\n      swap2\n      pop\n        /* \"#utility.yul\":3745:4033   */\n      pop\n        /* \"#utility.yul\":2555:4040   */\n      swap3\n      swap6\n      swap2\n      swap5\n      pop\n      swap3\n      pop\n      jump\t// out\n        /* \"#utility.yul\":4046:4555   */\n    tag_12:\n        /* \"#utility.yul\":4115:4121   */\n      0x00\n        /* \"#utility.yul\":4164:4166   */\n      0x20\n        /* \"#utility.yul\":4152:4161   */\n      dup3\n        /* \"#utility.yul\":4143:4150   */\n      dup5\n        /* \"#utility.yul\":4139:4162   */\n      sub\n        /* \"#utility.yul\":4135:4167   */\n      slt\n        /* \"#utility.yul\":4132:4251   */\n      iszero\n      tag_173\n      jumpi\n        /* \"#utility.yul\":4170:4249   */\n      tag_174\n      tag_83\n      jump\t// in\n    tag_174:\n        /* \"#utility.yul\":4132:4251   */\n    tag_173:\n        /* \"#utility.yul\":4318:4319   */\n      0x00\n        /* \"#utility.yul\":4307:4316   */\n      dup3\n        /* \"#utility.yul\":4303:4320   */\n      add\n        /* \"#utility.yul\":4290:4321   */\n      calldataload\n        /* \"#utility.yul\":4348:4366   */\n      0xffffffffffffffff\n        /* \"#utility.yul\":4340:4346   */\n      dup2\n        /* \"#utility.yul\":4337:4367   */\n      gt\n        /* \"#utility.yul\":4334:4451   */\n      iszero\n      tag_175\n      jumpi\n        /* \"#utility.yul\":4370:4449   */\n      tag_176\n      tag_84\n      jump\t// in\n    tag_176:\n        /* \"#utility.yul\":4334:4451   */\n    tag_175:\n        /* \"#utility.yul\":4475:4538   */\n      tag_177\n        /* \"#utility.yul\":4530:4537   */\n      dup5\n        /* \"#utility.yul\":4521:4527   */\n      dup3\n        /* \"#utility.yul\":4510:4519   */\n      dup6\n        /* \"#utility.yul\":4506:4528   */\n      add\n        /* \"#utility.yul\":4475:4538   */\n      tag_94\n      jump\t// in\n    tag_177:\n        /* \"#utility.yul\":4465:4538   */\n      swap2\n      pop\n        /* \"#utility.yul\":4261:4548   */\n      pop\n        /* \"#utility.yul\":4046:4555   */\n      swap3\n      swap2\n      pop\n      pop\n      jump\t// out\n        /* \"#utility.yul\":4561:4660   */\n    tag_95:\n        /* \"#utility.yul\":4613:4619   */\n      0x00\n        /* \"#utility.yul\":4647:4652   */\n      dup2\n        /* \"#utility.yul\":4641:4653   */\n      mload\n        /* \"#utility.yul\":4631:4653   */\n      swap1\n      pop\n        /* \"#utility.yul\":4561:4660   */\n      swap2\n      swap1\n      pop\n      jump\t// out\n        /* \"#utility.yul\":4666:4835   */\n    tag_96:\n        /* \"#utility.yul\":4750:4761   */\n      0x00\n        /* \"#utility.yul\":4784:4790   */\n      dup3\n        /* \"#utility.yul\":4779:4782   */\n      dup3\n        /* \"#utility.yul\":4772:4791   */\n      mstore\n        /* \"#utility.yul\":4824:4828   */\n      0x20\n        /* \"#utility.yul\":4819:4822   */\n      dup3\n        /* \"#utility.yul\":4815:4829   */\n      add\n        /* \"#utility.yul\":4800:4829   */\n      swap1\n      pop\n        /* \"#utility.yul\":4666:4835   */\n      swap3\n      swap2\n      pop\n      pop\n      jump\t// out\n        /* \"#utility.yul\":4841:4980   */\n    tag_97:\n        /* \"#utility.yul\":4930:4936   */\n      dup3\n        /* \"#utility.yul\":4925:4928   */\n      dup2\n        /* \"#utility.yul\":4920:4923   */\n      dup4\n        /* \"#utility.yul\":4914:4937   */\n      mcopy\n        /* \"#utility.yul\":4971:4972   */\n      0x00\n        /* \"#utility.yul\":4962:4968   */\n      dup4\n        /* \"#utility.yul\":4957:4960   */\n      dup4\n        /* \"#utility.yul\":4953:4969   */\n      add\n        /* \"#utility.yul\":4946:4973   */\n      mstore\n        /* \"#utility.yul\":4841:4980   */\n      pop\n      pop\n      pop\n      jump\t// out\n        /* \"#utility.yul\":4986:5363   */\n    tag_98:\n        /* \"#utility.yul\":5074:5077   */\n      0x00\n        /* \"#utility.yul\":5102:5141   */\n      tag_182\n        /* \"#utility.yul\":5135:5140   */\n      dup3\n        /* \"#utility.yul\":5102:5141   */\n      tag_95\n      jump\t// in\n    tag_182:\n        /* \"#utility.yul\":5157:5228   */\n      tag_183\n        /* \"#utility.yul\":5221:5227   */\n      dup2\n        /* \"#utility.yul\":5216:5219   */\n      dup6\n        /* \"#utility.yul\":5157:5228   */\n      tag_96\n      jump\t// in\n    tag_183:\n        /* \"#utility.yul\":5150:5228   */\n      swap4\n      pop\n        /* \"#utility.yul\":5237:5302   */\n      tag_184\n        /* \"#utility.yul\":5295:5301   */\n      dup2\n        /* \"#utility.yul\":5290:5293   */\n      dup6\n        /* \"#utility.yul\":5283:5287   */\n      0x20\n        /* \"#utility.yul\":5276:5281   */\n      dup7\n        /* \"#utility.yul\":5272:5288   */\n      add\n        /* \"#utility.yul\":5237:5302   */\n      tag_97\n      jump\t// in\n    tag_184:\n        /* \"#utility.yul\":5327:5356   */\n      tag_185\n        /* \"#utility.yul\":5349:5355   */\n      dup2\n        /* \"#utility.yul\":5327:5356   */\n      tag_87\n      jump\t// in\n    tag_185:\n        /* \"#utility.yul\":5322:5325   */\n      dup5\n        /* \"#utility.yul\":5318:5357   */\n      add\n        /* \"#utility.yul\":5311:5357   */\n      swap2\n      pop\n        /* \"#utility.yul\":5078:5363   */\n      pop\n        /* \"#utility.yul\":4986:5363   */\n      swap3\n      swap2\n      pop\n      pop\n      jump\t// out\n        /* \"#utility.yul\":5369:5495   */\n    tag_99:\n        /* \"#utility.yul\":5406:5413   */\n      0x00\n        /* \"#utility.yul\":5446:5488   */\n      0xffffffffffffffffffffffffffffffffffffffff\n        /* \"#utility.yul\":5439:5444   */\n      dup3\n        /* \"#utility.yul\":5435:5489   */\n      and\n        /* \"#utility.yul\":5424:5489   */\n      swap1\n      pop\n        /* \"#utility.yul\":5369:5495   */\n      swap2\n      swap1\n      pop\n      jump\t// out\n        /* \"#utility.yul\":5501:5597   */\n    tag_100:\n        /* \"#utility.yul\":5538:5545   */\n      0x00\n        /* \"#utility.yul\":5567:5591   */\n      tag_188\n        /* \"#utility.yul\":5585:5590   */\n      dup3\n        /* \"#utility.yul\":5567:5591   */\n      tag_99\n      jump\t// in\n    tag_188:\n        /* \"#utility.yul\":5556:5591   */\n      swap1\n      pop\n        /* \"#utility.yul\":5501:5597   */\n      swap2\n      swap1\n      pop\n      jump\t// out\n        /* \"#utility.yul\":5603:5721   */\n    tag_101:\n        /* \"#utility.yul\":5690:5714   */\n      tag_190\n        /* \"#utility.yul\":5708:5713   */\n      dup2\n        /* \"#utility.yul\":5690:5714   */\n      tag_100\n      jump\t// in\n    tag_190:\n        /* \"#utility.yul\":5685:5688   */\n      dup3\n        /* \"#utility.yul\":5678:5715   */\n      mstore\n        /* \"#utility.yul\":5603:5721   */\n      pop\n      pop\n      jump\t// out\n        /* \"#utility.yul\":5727:6755   */\n    tag_15:\n        /* \"#utility.yul\":6012:6016   */\n      0x00\n        /* \"#utility.yul\":6050:6053   */\n      0xa0\n        /* \"#utility.yul\":6039:6048   */\n      dup3\n        /* \"#utility.yul\":6035:6054   */\n      add\n        /* \"#utility.yul\":6027:6054   */\n      swap1\n      pop\n        /* \"#utility.yul\":6100:6109   */\n      dup2\n        /* \"#utility.yul\":6094:6098   */\n      dup2\n        /* \"#utility.yul\":6090:6110   */\n      sub\n        /* \"#utility.yul\":6086:6087   */\n      0x00\n        /* \"#utility.yul\":6075:6084   */\n      dup4\n        /* \"#utility.yul\":6071:6088   */\n      add\n        /* \"#utility.yul\":6064:6111   */\n      mstore\n        /* \"#utility.yul\":6128:6206   */\n      tag_192\n        /* \"#utility.yul\":6201:6205   */\n      dup2\n        /* \"#utility.yul\":6192:6198   */\n      dup9\n        /* \"#utility.yul\":6128:6206   */\n      tag_98\n      jump\t// in\n    tag_192:\n        /* \"#utility.yul\":6120:6206   */\n      swap1\n      pop\n        /* \"#utility.yul\":6253:6262   */\n      dup2\n        /* \"#utility.yul\":6247:6251   */\n      dup2\n        /* \"#utility.yul\":6243:6263   */\n      sub\n        /* \"#utility.yul\":6238:6240   */\n      0x20\n        /* \"#utility.yul\":6227:6236   */\n      dup4\n        /* \"#utility.yul\":6223:6241   */\n      add\n        /* \"#utility.yul\":6216:6264   */\n      mstore\n        /* \"#utility.yul\":6281:6359   */\n      tag_193\n        /* \"#utility.yul\":6354:6358   */\n      dup2\n        /* \"#utility.yul\":6345:6351   */\n      dup8\n        /* \"#utility.yul\":6281:6359   */\n      tag_98\n      jump\t// in\n    tag_193:\n        /* \"#utility.yul\":6273:6359   */\n      swap1\n      pop\n        /* \"#utility.yul\":6406:6415   */\n      dup2\n        /* \"#utility.yul\":6400:6404   */\n      dup2\n        /* \"#utility.yul\":6396:6416   */\n      sub\n        /* \"#utility.yul\":6391:6393   */\n      0x40\n        /* \"#utility.yul\":6380:6389   */\n      dup4\n        /* \"#utility.yul\":6376:6394   */\n      add\n        /* \"#utility.yul\":6369:6417   */\n      mstore\n        /* \"#utility.yul\":6434:6512   */\n      tag_194\n        /* \"#utility.yul\":6507:6511   */\n      dup2\n        /* \"#utility.yul\":6498:6504   */\n      dup7\n        /* \"#utility.yul\":6434:6512   */\n      tag_98\n      jump\t// in\n    tag_194:\n        /* \"#utility.yul\":6426:6512   */\n      swap1\n      pop\n        /* \"#utility.yul\":6559:6568   */\n      dup2\n        /* \"#utility.yul\":6553:6557   */\n      dup2\n        /* \"#utility.yul\":6549:6569   */\n      sub\n        /* \"#utility.yul\":6544:6546   */\n      0x60\n        /* \"#utility.yul\":6533:6542   */\n      dup4\n        /* \"#utility.yul\":6529:6547   */\n      add\n        /* \"#utility.yul\":6522:6570   */\n      mstore\n        /* \"#utility.yul\":6587:6665   */\n      tag_195\n        /* \"#utility.yul\":6660:6664   */\n      dup2\n        /* \"#utility.yul\":6651:6657   */\n      dup6\n        /* \"#utility.yul\":6587:6665   */\n      tag_98\n      jump\t// in\n    tag_195:\n        /* \"#utility.yul\":6579:6665   */\n      swap1\n      pop\n        /* \"#utility.yul\":6675:6748   */\n      tag_196\n        /* \"#utility.yul\":6743:6746   */\n      0x80\n        /* \"#utility.yul\":6732:6741   */\n      dup4\n        /* \"#utility.yul\":6728:6747   */\n      add\n        /* \"#utility.yul\":6719:6725   */\n      dup5\n        /* \"#utility.yul\":6675:6748   */\n      tag_101\n      jump\t// in\n    tag_196:\n        /* \"#utility.yul\":5727:6755   */\n      swap7\n      swap6\n      pop\n      pop\n      pop\n      pop\n      pop\n      pop\n      jump\t// out\n        /* \"#utility.yul\":6761:6920   */\n    tag_102:\n        /* \"#utility.yul\":6835:6846   */\n      0x00\n        /* \"#utility.yul\":6869:6875   */\n      dup3\n        /* \"#utility.yul\":6864:6867   */\n      dup3\n        /* \"#utility.yul\":6857:6876   */\n      mstore\n        /* \"#utility.yul\":6909:6913   */\n      0x20\n        /* \"#utility.yul\":6904:6907   */\n      dup3\n        /* \"#utility.yul\":6900:6914   */\n      add\n        /* \"#utility.yul\":6885:6914   */\n      swap1\n      pop\n        /* \"#utility.yul\":6761:6920   */\n      swap3\n      swap2\n      pop\n      pop\n      jump\t// out\n        /* \"#utility.yul\":6926:7283   */\n    tag_103:\n        /* \"#utility.yul\":7004:7007   */\n      0x00\n        /* \"#utility.yul\":7032:7071   */\n      tag_199\n        /* \"#utility.yul\":7065:7070   */\n      dup3\n        /* \"#utility.yul\":7032:7071   */\n      tag_95\n      jump\t// in\n    tag_199:\n        /* \"#utility.yul\":7087:7148   */\n      tag_200\n        /* \"#utility.yul\":7141:7147   */\n      dup2\n        /* \"#utility.yul\":7136:7139   */\n      dup6\n        /* \"#utility.yul\":7087:7148   */\n      tag_102\n      jump\t// in\n    tag_200:\n        /* \"#utility.yul\":7080:7148   */\n      swap4\n      pop\n        /* \"#utility.yul\":7157:7222   */\n      tag_201\n        /* \"#utility.yul\":7215:7221   */\n      dup2\n        /* \"#utility.yul\":7210:7213   */\n      dup6\n        /* \"#utility.yul\":7203:7207   */\n      0x20\n        /* \"#utility.yul\":7196:7201   */\n      dup7\n        /* \"#utility.yul\":7192:7208   */\n      add\n        /* \"#utility.yul\":7157:7222   */\n      tag_97\n      jump\t// in\n    tag_201:\n        /* \"#utility.yul\":7247:7276   */\n      tag_202\n        /* \"#utility.yul\":7269:7275   */\n      dup2\n        /* \"#utility.yul\":7247:7276   */\n      tag_87\n      jump\t// in\n    tag_202:\n        /* \"#utility.yul\":7242:7245   */\n      dup5\n        /* \"#utility.yul\":7238:7277   */\n      add\n        /* \"#utility.yul\":7231:7277   */\n      swap2\n      pop\n        /* \"#utility.yul\":7008:7283   */\n      pop\n        /* \"#utility.yul\":6926:7283   */\n      swap3\n      swap2\n      pop\n      pop\n      jump\t// out\n        /* \"#utility.yul\":7289:7397   */\n    tag_104:\n        /* \"#utility.yul\":7366:7390   */\n      tag_204\n        /* \"#utility.yul\":7384:7389   */\n      dup2\n        /* \"#utility.yul\":7366:7390   */\n      tag_100\n      jump\t// in\n    tag_204:\n        /* \"#utility.yul\":7361:7364   */\n      dup3\n        /* \"#utility.yul\":7354:7391   */\n      mstore\n        /* \"#utility.yul\":7289:7397   */\n      pop\n      pop\n      jump\t// out\n        /* \"#utility.yul\":7471:8815   */\n    tag_105:\n        /* \"#utility.yul\":7584:7587   */\n      0x00\n        /* \"#utility.yul\":7620:7624   */\n      0xa0\n        /* \"#utility.yul\":7615:7618   */\n      dup4\n        /* \"#utility.yul\":7611:7625   */\n      add\n        /* \"#utility.yul\":7710:7714   */\n      0x00\n        /* \"#utility.yul\":7703:7708   */\n      dup4\n        /* \"#utility.yul\":7699:7715   */\n      add\n        /* \"#utility.yul\":7693:7716   */\n      mload\n        /* \"#utility.yul\":7763:7766   */\n      dup5\n        /* \"#utility.yul\":7757:7761   */\n      dup3\n        /* \"#utility.yul\":7753:7767   */\n      sub\n        /* \"#utility.yul\":7746:7750   */\n      0x00\n        /* \"#utility.yul\":7741:7744   */\n      dup7\n        /* \"#utility.yul\":7737:7751   */\n      add\n        /* \"#utility.yul\":7730:7768   */\n      mstore\n        /* \"#utility.yul\":7789:7862   */\n      tag_206\n        /* \"#utility.yul\":7857:7861   */\n      dup3\n        /* \"#utility.yul\":7843:7855   */\n      dup3\n        /* \"#utility.yul\":7789:7862   */\n      tag_103\n      jump\t// in\n    tag_206:\n        /* \"#utility.yul\":7781:7862   */\n      swap2\n      pop\n        /* \"#utility.yul\":7635:7873   */\n      pop\n        /* \"#utility.yul\":7955:7959   */\n      0x20\n        /* \"#utility.yul\":7948:7953   */\n      dup4\n        /* \"#utility.yul\":7944:7960   */\n      add\n        /* \"#utility.yul\":7938:7961   */\n      mload\n        /* \"#utility.yul\":8008:8011   */\n      dup5\n        /* \"#utility.yul\":8002:8006   */\n      dup3\n        /* \"#utility.yul\":7998:8012   */\n      sub\n        /* \"#utility.yul\":7991:7995   */\n      0x20\n        /* \"#utility.yul\":7986:7989   */\n      dup7\n        /* \"#utility.yul\":7982:7996   */\n      add\n        /* \"#utility.yul\":7975:8013   */\n      mstore\n        /* \"#utility.yul\":8034:8107   */\n      tag_207\n        /* \"#utility.yul\":8102:8106   */\n      dup3\n        /* \"#utility.yul\":8088:8100   */\n      dup3\n        /* \"#utility.yul\":8034:8107   */\n      tag_103\n      jump\t// in\n    tag_207:\n        /* \"#utility.yul\":8026:8107   */\n      swap2\n      pop\n        /* \"#utility.yul\":7883:8118   */\n      pop\n        /* \"#utility.yul\":8201:8205   */\n      0x40\n        /* \"#utility.yul\":8194:8199   */\n      dup4\n        /* \"#utility.yul\":8190:8206   */\n      add\n        /* \"#utility.yul\":8184:8207   */\n      mload\n        /* \"#utility.yul\":8254:8257   */\n      dup5\n        /* \"#utility.yul\":8248:8252   */\n      dup3\n        /* \"#utility.yul\":8244:8258   */\n      sub\n        /* \"#utility.yul\":8237:8241   */\n      0x40\n        /* \"#utility.yul\":8232:8235   */\n      dup7\n        /* \"#utility.yul\":8228:8242   */\n      add\n        /* \"#utility.yul\":8221:8259   */\n      mstore\n        /* \"#utility.yul\":8280:8353   */\n      tag_208\n        /* \"#utility.yul\":8348:8352   */\n      dup3\n        /* \"#utility.yul\":8334:8346   */\n      dup3\n        /* \"#utility.yul\":8280:8353   */\n      tag_103\n      jump\t// in\n    tag_208:\n        /* \"#utility.yul\":8272:8353   */\n      swap2\n      pop\n        /* \"#utility.yul\":8128:8364   */\n      pop\n        /* \"#utility.yul\":8450:8454   */\n      0x60\n        /* \"#utility.yul\":8443:8448   */\n      dup4\n        /* \"#utility.yul\":8439:8455   */\n      add\n        /* \"#utility.yul\":8433:8456   */\n      mload\n        /* \"#utility.yul\":8503:8506   */\n      dup5\n        /* \"#utility.yul\":8497:8501   */\n      dup3\n        /* \"#utility.yul\":8493:8507   */\n      sub\n        /* \"#utility.yul\":8486:8490   */\n      0x60\n        /* \"#utility.yul\":8481:8484   */\n      dup7\n        /* \"#utility.yul\":8477:8491   */\n      add\n        /* \"#utility.yul\":8470:8508   */\n      mstore\n        /* \"#utility.yul\":8529:8602   */\n      tag_209\n        /* \"#utility.yul\":8597:8601   */\n      dup3\n        /* \"#utility.yul\":8583:8595   */\n      dup3\n        /* \"#utility.yul\":8529:8602   */\n      tag_103\n      jump\t// in\n    tag_209:\n        /* \"#utility.yul\":8521:8602   */\n      swap2\n      pop\n        /* \"#utility.yul\":8374:8613   */\n      pop\n        /* \"#utility.yul\":8696:8700   */\n      0x80\n        /* \"#utility.yul\":8689:8694   */\n      dup4\n        /* \"#utility.yul\":8685:8701   */\n      add\n        /* \"#utility.yul\":8679:8702   */\n      mload\n        /* \"#utility.yul\":8715:8778   */\n      tag_210\n        /* \"#utility.yul\":8772:8776   */\n      0x80\n        /* \"#utility.yul\":8767:8770   */\n      dup7\n        /* \"#utility.yul\":8763:8777   */\n      add\n        /* \"#utility.yul\":8749:8761   */\n      dup3\n        /* \"#utility.yul\":8715:8778   */\n      tag_104\n      jump\t// in\n    tag_210:\n        /* \"#utility.yul\":8623:8788   */\n      pop\n        /* \"#utility.yul\":8805:8809   */\n      dup1\n        /* \"#utility.yul\":8798:8809   */\n      swap2\n      pop\n        /* \"#utility.yul\":7589:8815   */\n      pop\n        /* \"#utility.yul\":7471:8815   */\n      swap3\n      swap2\n      pop\n      pop\n      jump\t// out\n        /* \"#utility.yul\":8821:9182   */\n    tag_20:\n        /* \"#utility.yul\":8958:8962   */\n      0x00\n        /* \"#utility.yul\":8996:8998   */\n      0x20\n        /* \"#utility.yul\":8985:8994   */\n      dup3\n        /* \"#utility.yul\":8981:8999   */\n      add\n        /* \"#utility.yul\":8973:8999   */\n      swap1\n      pop\n        /* \"#utility.yul\":9045:9054   */\n      dup2\n        /* \"#utility.yul\":9039:9043   */\n      dup2\n        /* \"#utility.yul\":9035:9055   */\n      sub\n        /* \"#utility.yul\":9031:9032   */\n      0x00\n        /* \"#utility.yul\":9020:9029   */\n      dup4\n        /* \"#utility.yul\":9016:9033   */\n      add\n        /* \"#utility.yul\":9009:9056   */\n      mstore\n        /* \"#utility.yul\":9073:9175   */\n      tag_212\n        /* \"#utility.yul\":9170:9174   */\n      dup2\n        /* \"#utility.yul\":9161:9167   */\n      dup5\n        /* \"#utility.yul\":9073:9175   */\n      tag_105\n      jump\t// in\n    tag_212:\n        /* \"#utility.yul\":9065:9175   */\n      swap1\n      pop\n        /* \"#utility.yul\":8821:9182   */\n      swap3\n      swap2\n      pop\n      pop\n      jump\t// out\n        /* \"#utility.yul\":9188:9336   */\n    tag_106:\n        /* \"#utility.yul\":9290:9301   */\n      0x00\n        /* \"#utility.yul\":9327:9330   */\n      dup2\n        /* \"#utility.yul\":9312:9330   */\n      swap1\n      pop\n        /* \"#utility.yul\":9188:9336   */\n      swap3\n      swap2\n      pop\n      pop\n      jump\t// out\n        /* \"#utility.yul\":9342:9732   */\n    tag_107:\n        /* \"#utility.yul\":9448:9451   */\n      0x00\n        /* \"#utility.yul\":9476:9515   */\n      tag_215\n        /* \"#utility.yul\":9509:9514   */\n      dup3\n        /* \"#utility.yul\":9476:9515   */\n      tag_95\n      jump\t// in\n    tag_215:\n        /* \"#utility.yul\":9531:9620   */\n      tag_216\n        /* \"#utility.yul\":9613:9619   */\n      dup2\n        /* \"#utility.yul\":9608:9611   */\n      dup6\n        /* \"#utility.yul\":9531:9620   */\n      tag_106\n      jump\t// in\n    tag_216:\n        /* \"#utility.yul\":9524:9620   */\n      swap4\n      pop\n        /* \"#utility.yul\":9629:9694   */\n      tag_217\n        /* \"#utility.yul\":9687:9693   */\n      dup2\n        /* \"#utility.yul\":9682:9685   */\n      dup6\n        /* \"#utility.yul\":9675:9679   */\n      0x20\n        /* \"#utility.yul\":9668:9673   */\n      dup7\n        /* \"#utility.yul\":9664:9680   */\n      add\n        /* \"#utility.yul\":9629:9694   */\n      tag_97\n      jump\t// in\n    tag_217:\n        /* \"#utility.yul\":9719:9725   */\n      dup1\n        /* \"#utility.yul\":9714:9717   */\n      dup5\n        /* \"#utility.yul\":9710:9726   */\n      add\n        /* \"#utility.yul\":9703:9726   */\n      swap2\n      pop\n        /* \"#utility.yul\":9452:9732   */\n      pop\n        /* \"#utility.yul\":9342:9732   */\n      swap3\n      swap2\n      pop\n      pop\n      jump\t// out\n        /* \"#utility.yul\":9738:10013   */\n    tag_23:\n        /* \"#utility.yul\":9870:9873   */\n      0x00\n        /* \"#utility.yul\":9892:9987   */\n      tag_219\n        /* \"#utility.yul\":9983:9986   */\n      dup3\n        /* \"#utility.yul\":9974:9980   */\n      dup5\n        /* \"#utility.yul\":9892:9987   */\n      tag_107\n      jump\t// in\n    tag_219:\n        /* \"#utility.yul\":9885:9987   */\n      swap2\n      pop\n        /* \"#utility.yul\":10004:10007   */\n      dup2\n        /* \"#utility.yul\":9997:10007   */\n      swap1\n      pop\n        /* \"#utility.yul\":9738:10013   */\n      swap3\n      swap2\n      pop\n      pop\n      jump\t// out\n        /* \"#utility.yul\":10019:10199   */\n    tag_108:\n        /* \"#utility.yul\":10067:10144   */\n      0x4e487b7100000000000000000000000000000000000000000000000000000000\n        /* \"#utility.yul\":10064:10065   */\n      0x00\n        /* \"#utility.yul\":10057:10145   */\n      mstore\n        /* \"#utility.yul\":10164:10168   */\n      0x22\n        /* \"#utility.yul\":10161:10162   */\n      0x04\n        /* \"#utility.yul\":10154:10169   */\n      mstore\n        /* \"#utility.yul\":10188:10192   */\n      0x24\n        /* \"#utility.yul\":10185:10186   */\n      0x00\n        /* \"#utility.yul\":10178:10193   */\n      revert\n        /* \"#utility.yul\":10205:10525   */\n    tag_25:\n        /* \"#utility.yul\":10249:10255   */\n      0x00\n        /* \"#utility.yul\":10286:10287   */\n      0x02\n        /* \"#utility.yul\":10280:10284   */\n      dup3\n        /* \"#utility.yul\":10276:10288   */\n      div\n        /* \"#utility.yul\":10266:10288   */\n      swap1\n      pop\n        /* \"#utility.yul\":10333:10334   */\n      0x01\n        /* \"#utility.yul\":10327:10331   */\n      dup3\n        /* \"#utility.yul\":10323:10335   */\n      and\n        /* \"#utility.yul\":10354:10372   */\n      dup1\n        /* \"#utility.yul\":10344:10425   */\n      tag_222\n      jumpi\n        /* \"#utility.yul\":10410:10414   */\n      0x7f\n        /* \"#utility.yul\":10402:10408   */\n      dup3\n        /* \"#utility.yul\":10398:10415   */\n      and\n        /* \"#utility.yul\":10388:10415   */\n      swap2\n      pop\n        /* \"#utility.yul\":10344:10425   */\n    tag_222:\n        /* \"#utility.yul\":10472:10474   */\n      0x20\n        /* \"#utility.yul\":10464:10470   */\n      dup3\n        /* \"#utility.yul\":10461:10475   */\n      lt\n        /* \"#utility.yul\":10441:10459   */\n      dup2\n        /* \"#utility.yul\":10438:10476   */\n      sub\n        /* \"#utility.yul\":10435:10519   */\n      tag_223\n      jumpi\n        /* \"#utility.yul\":10491:10509   */\n      tag_224\n      tag_108\n      jump\t// in\n    tag_224:\n        /* \"#utility.yul\":10435:10519   */\n    tag_223:\n        /* \"#utility.yul\":10256:10525   */\n      pop\n        /* \"#utility.yul\":10205:10525   */\n      swap2\n      swap1\n      pop\n      jump\t// out\n        /* \"#utility.yul\":10531:10702   */\n    tag_109:\n        /* \"#utility.yul\":10671:10694   */\n      0x53656c6c657220616c7265616479206578697374730000000000000000000000\n        /* \"#utility.yul\":10667:10668   */\n      0x00\n        /* \"#utility.yul\":10659:10665   */\n      dup3\n        /* \"#utility.yul\":10655:10669   */\n      add\n        /* \"#utility.yul\":10648:10695   */\n      mstore\n        /* \"#utility.yul\":10531:10702   */\n      pop\n      jump\t// out\n        /* \"#utility.yul\":10708:11074   */\n    tag_110:\n        /* \"#utility.yul\":10850:10853   */\n      0x00\n        /* \"#utility.yul\":10871:10938   */\n      tag_227\n        /* \"#utility.yul\":10935:10937   */\n      0x15\n        /* \"#utility.yul\":10930:10933   */\n      dup4\n        /* \"#utility.yul\":10871:10938   */\n      tag_96\n      jump\t// in\n    tag_227:\n        /* \"#utility.yul\":10864:10938   */\n      swap2\n      pop\n        /* \"#utility.yul\":10947:11040   */\n      tag_228\n        /* \"#utility.yul\":11036:11039   */\n      dup3\n        /* \"#utility.yul\":10947:11040   */\n      tag_109\n      jump\t// in\n    tag_228:\n        /* \"#utility.yul\":11065:11067   */\n      0x20\n        /* \"#utility.yul\":11060:11063   */\n      dup3\n        /* \"#utility.yul\":11056:11068   */\n      add\n        /* \"#utility.yul\":11049:11068   */\n      swap1\n      pop\n        /* \"#utility.yul\":10708:11074   */\n      swap2\n      swap1\n      pop\n      jump\t// out\n        /* \"#utility.yul\":11080:11499   */\n    tag_28:\n        /* \"#utility.yul\":11246:11250   */\n      0x00\n        /* \"#utility.yul\":11284:11286   */\n      0x20\n        /* \"#utility.yul\":11273:11282   */\n      dup3\n        /* \"#utility.yul\":11269:11287   */\n      add\n        /* \"#utility.yul\":11261:11287   */\n      swap1\n      pop\n        /* \"#utility.yul\":11333:11342   */\n      dup2\n        /* \"#utility.yul\":11327:11331   */\n      dup2\n        /* \"#utility.yul\":11323:11343   */\n      sub\n        /* \"#utility.yul\":11319:11320   */\n      0x00\n        /* \"#utility.yul\":11308:11317   */\n      dup4\n        /* \"#utility.yul\":11304:11321   */\n      add\n        /* \"#utility.yul\":11297:11344   */\n      mstore\n        /* \"#utility.yul\":11361:11492   */\n      tag_230\n        /* \"#utility.yul\":11487:11491   */\n      dup2\n        /* \"#utility.yul\":11361:11492   */\n      tag_110\n      jump\t// in\n    tag_230:\n        /* \"#utility.yul\":11353:11492   */\n      swap1\n      pop\n        /* \"#utility.yul\":11080:11499   */\n      swap2\n      swap1\n      pop\n      jump\t// out\n        /* \"#utility.yul\":11505:11646   */\n    tag_111:\n        /* \"#utility.yul\":11554:11558   */\n      0x00\n        /* \"#utility.yul\":11577:11580   */\n      dup2\n        /* \"#utility.yul\":11569:11580   */\n      swap1\n      pop\n        /* \"#utility.yul\":11600:11603   */\n      dup2\n        /* \"#utility.yul\":11597:11598   */\n      0x00\n        /* \"#utility.yul\":11590:11604   */\n      mstore\n        /* \"#utility.yul\":11634:11638   */\n      0x20\n        /* \"#utility.yul\":11631:11632   */\n      0x00\n        /* \"#utility.yul\":11621:11639   */\n      keccak256\n        /* \"#utility.yul\":11613:11639   */\n      swap1\n      pop\n        /* \"#utility.yul\":11505:11646   */\n      swap2\n      swap1\n      pop\n      jump\t// out\n        /* \"#utility.yul\":11652:11745   */\n    tag_112:\n        /* \"#utility.yul\":11689:11695   */\n      0x00\n        /* \"#utility.yul\":11736:11738   */\n      0x20\n        /* \"#utility.yul\":11731:11733   */\n      0x1f\n        /* \"#utility.yul\":11724:11729   */\n      dup4\n        /* \"#utility.yul\":11720:11734   */\n      add\n        /* \"#utility.yul\":11716:11739   */\n      div\n        /* \"#utility.yul\":11706:11739   */\n      swap1\n      pop\n        /* \"#utility.yul\":11652:11745   */\n      swap2\n      swap1\n      pop\n      jump\t// out\n        /* \"#utility.yul\":11751:11858   */\n    tag_113:\n        /* \"#utility.yul\":11795:11803   */\n      0x00\n        /* \"#utility.yul\":11845:11850   */\n      dup3\n        /* \"#utility.yul\":11839:11843   */\n      dup3\n        /* \"#utility.yul\":11835:11851   */\n      shl\n        /* \"#utility.yul\":11814:11851   */\n      swap1\n      pop\n        /* \"#utility.yul\":11751:11858   */\n      swap3\n      swap2\n      pop\n      pop\n      jump\t// out\n        /* \"#utility.yul\":11864:12257   */\n    tag_114:\n        /* \"#utility.yul\":11933:11939   */\n      0x00\n        /* \"#utility.yul\":11983:11984   */\n      0x08\n        /* \"#utility.yul\":11971:11981   */\n      dup4\n        /* \"#utility.yul\":11967:11985   */\n      mul\n        /* \"#utility.yul\":12006:12103   */\n      tag_235\n        /* \"#utility.yul\":12036:12102   */\n      0xffffffffffffffffffffffffffffffffffffffffffffffffffffffffffffffff\n        /* \"#utility.yul\":12025:12034   */\n      dup3\n        /* \"#utility.yul\":12006:12103   */\n      tag_113\n      jump\t// in\n    tag_235:\n        /* \"#utility.yul\":12124:12163   */\n      tag_236\n        /* \"#utility.yul\":12154:12162   */\n      dup7\n        /* \"#utility.yul\":12143:12152   */\n      dup4\n        /* \"#utility.yul\":12124:12163   */\n      tag_113\n      jump\t// in\n    tag_236:\n        /* \"#utility.yul\":12112:12163   */\n      swap6\n      pop\n        /* \"#utility.yul\":12196:12200   */\n      dup1\n        /* \"#utility.yul\":12192:12201   */\n      not\n        /* \"#utility.yul\":12185:12190   */\n      dup5\n        /* \"#utility.yul\":12181:12202   */\n      and\n        /* \"#utility.yul\":12172:12202   */\n      swap4\n      pop\n        /* \"#utility.yul\":12245:12249   */\n      dup1\n        /* \"#utility.yul\":12235:12243   */\n      dup7\n        /* \"#utility.yul\":12231:12250   */\n      and\n        /* \"#utility.yul\":12224:12229   */\n      dup5\n        /* \"#utility.yul\":12221:12251   */\n      or\n        /* \"#utility.yul\":12211:12251   */\n      swap3\n      pop\n        /* \"#utility.yul\":11940:12257   */\n      pop\n      pop\n        /* \"#utility.yul\":11864:12257   */\n      swap4\n      swap3\n      pop\n      pop\n      pop\n      jump\t// out\n        /* \"#utility.yul\":12263:12340   */\n    tag_115:\n        /* \"#utility.yul\":12300:12307   */\n      0x00\n        /* \"#utility.yul\":12329:12334   */\n      dup2\n        /* \"#utility.yul\":12318:12334   */\n      swap1\n      pop\n        /* \"#utility.yul\":12263:12340   */\n      swap2\n      swap1\n      pop\n      jump\t// out\n        /* \"#utility.yul\":12346:12406   */\n    tag_116:\n        /* \"#utility.yul\":12374:12377   */\n      0x00\n        /* \"#utility.yul\":12395:12400   */\n      dup2\n        /* \"#utility.yul\":12388:12400   */\n      swap1\n      pop\n        /* \"#utility.yul\":12346:12406   */\n      swap2\n      swap1\n      pop\n      jump\t// out\n        /* \"#utility.yul\":12412:12554   */\n    tag_117:\n        /* \"#utility.yul\":12462:12471   */\n      0x00\n        /* \"#utility.yul\":12495:12548   */\n      tag_240\n        /* \"#utility.yul\":12513:12547   */\n      tag_241\n        /* \"#utility.yul\":12522:12546   */\n      tag_242\n        /* \"#utility.yul\":12540:12545   */\n      dup5\n        /* \"#utility.yul\":12522:12546   */\n      tag_115\n      jump\t// in\n    tag_242:\n        /* \"#utility.yul\":12513:12547   */\n      tag_116\n      jump\t// in\n    tag_241:\n        /* \"#utility.yul\":12495:12548   */\n      tag_115\n      jump\t// in\n    tag_240:\n        /* \"#utility.yul\":12482:12548   */\n      swap1\n      pop\n        /* \"#utility.yul\":12412:12554   */\n      swap2\n      swap1\n      pop\n      jump\t// out\n        /* \"#utility.yul\":12560:12635   */\n    tag_118:\n        /* \"#utility.yul\":12603:12606   */\n      0x00\n        /* \"#utility.yul\":12624:12629   */\n      dup2\n        /* \"#utility.yul\":12617:12629   */\n      swap1\n      pop\n        /* \"#utility.yul\":12560:12635   */\n      swap2\n      swap1\n      pop\n      jump\t// out\n        /* \"#utility.yul\":12641:12910   */\n    tag_119:\n        /* \"#utility.yul\":12751:12790   */\n      tag_245\n        /* \"#utility.yul\":12782:12789   */\n      dup4\n        /* \"#utility.yul\":12751:12790   */\n      tag_117\n      jump\t// in\n    tag_245:\n        /* \"#utility.yul\":12812:12903   */\n      tag_246\n        /* \"#utility.yul\":12861:12902   */\n      tag_247\n        /* \"#utility.yul\":12885:12901   */\n      dup3\n        /* \"#utility.yul\":12861:12902   */\n      tag_118\n      jump\t// in\n    tag_247:\n        /* \"#utility.yul\":12853:12859   */\n      dup5\n        /* \"#utility.yul\":12846:12850   */\n      dup5\n        /* \"#utility.yul\":12840:12851   */\n      sload\n        /* \"#utility.yul\":12812:12903   */\n      tag_114\n      jump\t// in\n    tag_246:\n        /* \"#utility.yul\":12806:12810   */\n      dup3\n        /* \"#utility.yul\":12799:12904   */\n      sstore\n        /* \"#utility.yul\":12717:12910   */\n      pop\n        /* \"#utility.yul\":12641:12910   */\n      pop\n      pop\n      pop\n      jump\t// out\n        /* \"#utility.yul\":12916:12989   */\n    tag_120:\n        /* \"#utility.yul\":12961:12964   */\n      0x00\n        /* \"#utility.yul\":12916:12989   */\n      swap1\n      jump\t// out\n        /* \"#utility.yul\":12995:13184   */\n    tag_121:\n        /* \"#utility.yul\":13072:13104   */\n      tag_250\n      tag_120\n      jump\t// in\n    tag_250:\n        /* \"#utility.yul\":13113:13178   */\n      tag_251\n        /* \"#utility.yul\":13171:13177   */\n      dup2\n        /* \"#utility.yul\":13163:13169   */\n      dup5\n        /* \"#utility.yul\":13157:13161   */\n      dup5\n        /* \"#utility.yul\":13113:13178   */\n      tag_119\n      jump\t// in\n    tag_251:\n        /* \"#utility.yul\":13048:13184   */\n      pop\n        /* \"#utility.yul\":12995:13184   */\n      pop\n      pop\n      jump\t// out\n        /* \"#utility.yul\":13190:13376   */\n    tag_122:\n        /* \"#utility.yul\":13250:13370   */\n    tag_253:\n        /* \"#utility.yul\":13267:13270   */\n      dup2\n        /* \"#utility.yul\":13260:13265   */\n      dup2\n        /* \"#utility.yul\":13257:13271   */\n      lt\n        /* \"#utility.yul\":13250:13370   */\n      iszero\n      tag_255\n      jumpi\n        /* \"#utility.yul\":13321:13360   */\n      tag_256\n        /* \"#utility.yul\":13358:13359   */\n      0x00\n        /* \"#utility.yul\":13351:13356   */\n      dup3\n        /* \"#utility.yul\":13321:13360   */\n      tag_121\n      jump\t// in\n    tag_256:\n        /* \"#utility.yul\":13294:13295   */\n      0x01\n        /* \"#utility.yul\":13287:13292   */\n      dup2\n        /* \"#utility.yul\":13283:13296   */\n      add\n        /* \"#utility.yul\":13274:13296   */\n      swap1\n      pop\n        /* \"#utility.yul\":13250:13370   */\n      jump(tag_253)\n    tag_255:\n        /* \"#utility.yul\":13190:13376   */\n      pop\n      pop\n      jump\t// out\n        /* \"#utility.yul\":13382:13925   */\n    tag_123:\n        /* \"#utility.yul\":13483:13485   */\n      0x1f\n        /* \"#utility.yul\":13478:13481   */\n      dup3\n        /* \"#utility.yul\":13475:13486   */\n      gt\n        /* \"#utility.yul\":13472:13918   */\n      iszero\n      tag_258\n      jumpi\n        /* \"#utility.yul\":13517:13555   */\n      tag_259\n        /* \"#utility.yul\":13549:13554   */\n      dup2\n        /* \"#utility.yul\":13517:13555   */\n      tag_111\n      jump\t// in\n    tag_259:\n        /* \"#utility.yul\":13601:13630   */\n      tag_260\n        /* \"#utility.yul\":13619:13629   */\n      dup5\n        /* \"#utility.yul\":13601:13630   */\n      tag_112\n      jump\t// in\n    tag_260:\n        /* \"#utility.yul\":13591:13599   */\n      dup2\n        /* \"#utility.yul\":13587:13631   */\n      add\n        /* \"#utility.yul\":13784:13786   */\n      0x20\n        /* \"#utility.yul\":13772:13782   */\n      dup6\n        /* \"#utility.yul\":13769:13787   */\n      lt\n        /* \"#utility.yul\":13766:13815   */\n      iszero\n      tag_261\n      jumpi\n        /* \"#utility.yul\":13805:13813   */\n      dup2\n        /* \"#utility.yul\":13790:13813   */\n      swap1\n      pop\n        /* \"#utility.yul\":13766:13815   */\n    tag_261:\n        /* \"#utility.yul\":13828:13908   */\n      tag_262\n        /* \"#utility.yul\":13884:13906   */\n      tag_263\n        /* \"#utility.yul\":13902:13905   */\n      dup6\n        /* \"#utility.yul\":13884:13906   */\n      tag_112\n      jump\t// in\n    tag_263:\n        /* \"#utility.yul\":13874:13882   */\n      dup4\n        /* \"#utility.yul\":13870:13907   */\n      add\n        /* \"#utility.yul\":13857:13868   */\n      dup3\n        /* \"#utility.yul\":13828:13908   */\n      tag_122\n      jump\t// in\n    tag_262:\n        /* \"#utility.yul\":13487:13918   */\n      pop\n      pop\n        /* \"#utility.yul\":13472:13918   */\n    tag_258:\n        /* \"#utility.yul\":13382:13925   */\n      pop\n      pop\n      pop\n      jump\t// out\n        /* \"#utility.yul\":13931:14048   */\n    tag_124:\n        /* \"#utility.yul\":13985:13993   */\n      0x00\n        /* \"#utility.yul\":14035:14040   */\n      dup3\n        /* \"#utility.yul\":14029:14033   */\n      dup3\n        /* \"#utility.yul\":14025:14041   */\n      shr\n        /* \"#utility.yul\":14004:14041   */\n      swap1\n      pop\n        /* \"#utility.yul\":13931:14048   */\n      swap3\n      swap2\n      pop\n      pop\n      jump\t// out\n        /* \"#utility.yul\":14054:14223   */\n    tag_125:\n        /* \"#utility.yul\":14098:14104   */\n      0x00\n        /* \"#utility.yul\":14131:14182   */\n      tag_266\n        /* \"#utility.yul\":14179:14180   */\n      0x00\n        /* \"#utility.yul\":14175:14181   */\n      not\n        /* \"#utility.yul\":14167:14172   */\n      dup5\n        /* \"#utility.yul\":14164:14165   */\n      0x08\n        /* \"#utility.yul\":14160:14173   */\n      mul\n        /* \"#utility.yul\":14131:14182   */\n      tag_124\n      jump\t// in\n    tag_266:\n        /* \"#utility.yul\":14127:14183   */\n      not\n        /* \"#utility.yul\":14212:14216   */\n      dup1\n        /* \"#utility.yul\":14206:14210   */\n      dup4\n        /* \"#utility.yul\":14202:14217   */\n      and\n        /* \"#utility.yul\":14192:14217   */\n      swap2\n      pop\n        /* \"#utility.yul\":14105:14223   */\n      pop\n        /* \"#utility.yul\":14054:14223   */\n      swap3\n      swap2\n      pop\n      pop\n      jump\t// out\n        /* \"#utility.yul\":14228:14523   */\n    tag_126:\n        /* \"#utility.yul\":14304:14308   */\n      0x00\n        /* \"#utility.yul\":14450:14479   */\n      tag_268\n        /* \"#utility.yul\":14475:14478   */\n      dup4\n        /* \"#utility.yul\":14469:14473   */\n      dup4\n        /* \"#utility.yul\":14450:14479   */\n      tag_125\n      jump\t// in\n    tag_268:\n        /* \"#utility.yul\":14442:14479   */\n      swap2\n      pop\n        /* \"#utility.yul\":14512:14515   */\n      dup3\n        /* \"#utility.yul\":14509:14510   */\n      0x02\n        /* \"#utility.yul\":14505:14516   */\n      mul\n        /* \"#utility.yul\":14499:14503   */\n      dup3\n        /* \"#utility.yul\":14496:14517   */\n      or\n        /* \"#utility.yul\":14488:14517   */\n      swap1\n      pop\n        /* \"#utility.yul\":14228:14523   */\n      swap3\n      swap2\n      pop\n      pop\n      jump\t// out\n        /* \"#utility.yul\":14528:15923   */\n    tag_31:\n        /* \"#utility.yul\":14645:14682   */\n      tag_270\n        /* \"#utility.yul\":14678:14681   */\n      dup3\n        /* \"#utility.yul\":14645:14682   */\n      tag_95\n      jump\t// in\n    tag_270:\n        /* \"#utility.yul\":14747:14765   */\n      0xffffffffffffffff\n        /* \"#utility.yul\":14739:14745   */\n      dup2\n        /* \"#utility.yul\":14736:14766   */\n      gt\n        /* \"#utility.yul\":14733:14789   */\n      iszero\n      tag_271\n      jumpi\n        /* \"#utility.yul\":14769:14787   */\n      tag_272\n      tag_88\n      jump\t// in\n    tag_272:\n        /* \"#utility.yul\":14733:14789   */\n    tag_271:\n        /* \"#utility.yul\":14813:14851   */\n      tag_273\n        /* \"#utility.yul\":14845:14849   */\n      dup3\n        /* \"#utility.yul\":14839:14850   */\n      sload\n        /* \"#utility.yul\":14813:14851   */\n      tag_25\n      jump\t// in\n    tag_273:\n        /* \"#utility.yul\":14898:14965   */\n      tag_274\n        /* \"#utility.yul\":14958:14964   */\n      dup3\n        /* \"#utility.yul\":14950:14956   */\n      dup3\n        /* \"#utility.yul\":14944:14948   */\n      dup6\n        /* \"#utility.yul\":14898:14965   */\n      tag_123\n      jump\t// in\n    tag_274:\n        /* \"#utility.yul\":14992:14993   */\n      0x00\n        /* \"#utility.yul\":15016:15020   */\n      0x20\n        /* \"#utility.yul\":15003:15020   */\n      swap1\n      pop\n        /* \"#utility.yul\":15048:15050   */\n      0x1f\n        /* \"#utility.yul\":15040:15046   */\n      dup4\n        /* \"#utility.yul\":15037:15051   */\n      gt\n        /* \"#utility.yul\":15065:15066   */\n      0x01\n        /* \"#utility.yul\":15060:15678   */\n      dup2\n      eq\n      tag_276\n      jumpi\n        /* \"#utility.yul\":15722:15723   */\n      0x00\n        /* \"#utility.yul\":15739:15745   */\n      dup5\n        /* \"#utility.yul\":15736:15813   */\n      iszero\n      tag_277\n      jumpi\n        /* \"#utility.yul\":15788:15797   */\n      dup3\n        /* \"#utility.yul\":15783:15786   */\n      dup8\n        /* \"#utility.yul\":15779:15798   */\n      add\n        /* \"#utility.yul\":15773:15799   */\n      mload\n        /* \"#utility.yul\":15764:15799   */\n      swap1\n      pop\n        /* \"#utility.yul\":15736:15813   */\n    tag_277:\n        /* \"#utility.yul\":15839:15906   */\n      tag_278\n        /* \"#utility.yul\":15899:15905   */\n      dup6\n        /* \"#utility.yul\":15892:15897   */\n      dup3\n        /* \"#utility.yul\":15839:15906   */\n      tag_126\n      jump\t// in\n    tag_278:\n        /* \"#utility.yul\":15833:15837   */\n      dup7\n        /* \"#utility.yul\":15826:15907   */\n      sstore\n        /* \"#utility.yul\":15695:15917   */\n      pop\n        /* \"#utility.yul\":15030:15917   */\n      jump(tag_275)\n        /* \"#utility.yul\":15060:15678   */\n    tag_276:\n        /* \"#utility.yul\":15112:15116   */\n      0x1f\n        /* \"#utility.yul\":15108:15117   */\n      not\n        /* \"#utility.yul\":15100:15106   */\n      dup5\n        /* \"#utility.yul\":15096:15118   */\n      and\n        /* \"#utility.yul\":15146:15183   */\n      tag_279\n        /* \"#utility.yul\":15178:15182   */\n      dup7\n        /* \"#utility.yul\":15146:15183   */\n      tag_111\n      jump\t// in\n    tag_279:\n        /* \"#utility.yul\":15205:15206   */\n      0x00\n        /* \"#utility.yul\":15219:15427   */\n    tag_280:\n        /* \"#utility.yul\":15233:15240   */\n      dup3\n        /* \"#utility.yul\":15230:15231   */\n      dup2\n        /* \"#utility.yul\":15227:15241   */\n      lt\n        /* \"#utility.yul\":15219:15427   */\n      iszero\n      tag_282\n      jumpi\n        /* \"#utility.yul\":15312:15321   */\n      dup5\n        /* \"#utility.yul\":15307:15310   */\n      dup10\n        /* \"#utility.yul\":15303:15322   */\n      add\n        /* \"#utility.yul\":15297:15323   */\n      mload\n        /* \"#utility.yul\":15289:15295   */\n      dup3\n        /* \"#utility.yul\":15282:15324   */\n      sstore\n        /* \"#utility.yul\":15363:15364   */\n      0x01\n        /* \"#utility.yul\":15355:15361   */\n      dup3\n        /* \"#utility.yul\":15351:15365   */\n      add\n        /* \"#utility.yul\":15341:15365   */\n      swap2\n      pop\n        /* \"#utility.yul\":15410:15412   */\n      0x20\n        /* \"#utility.yul\":15399:15408   */\n      dup6\n        /* \"#utility.yul\":15395:15413   */\n      add\n        /* \"#utility.yul\":15382:15413   */\n      swap5\n      pop\n        /* \"#utility.yul\":15256:15260   */\n      0x20\n        /* \"#utility.yul\":15253:15254   */\n      dup2\n        /* \"#utility.yul\":15249:15261   */\n      add\n        /* \"#utility.yul\":15244:15261   */\n      swap1\n      pop\n        /* \"#utility.yul\":15219:15427   */\n      jump(tag_280)\n    tag_282:\n        /* \"#utility.yul\":15455:15461   */\n      dup7\n        /* \"#utility.yul\":15446:15453   */\n      dup4\n        /* \"#utility.yul\":15443:15462   */\n      lt\n        /* \"#utility.yul\":15440:15619   */\n      iszero\n      tag_283\n      jumpi\n        /* \"#utility.yul\":15513:15522   */\n      dup5\n        /* \"#utility.yul\":15508:15511   */\n      dup10\n        /* \"#utility.yul\":15504:15523   */\n      add\n        /* \"#utility.yul\":15498:15524   */\n      mload\n        /* \"#utility.yul\":15556:15604   */\n      tag_284\n        /* \"#utility.yul\":15598:15602   */\n      0x1f\n        /* \"#utility.yul\":15590:15596   */\n      dup10\n        /* \"#utility.yul\":15586:15603   */\n      and\n        /* \"#utility.yul\":15575:15584   */\n      dup3\n        /* \"#utility.yul\":15556:15604   */\n      tag_125\n      jump\t// in\n    tag_284:\n        /* \"#utility.yul\":15548:15554   */\n      dup4\n        /* \"#utility.yul\":15541:15605   */\n      sstore\n        /* \"#utility.yul\":15463:15619   */\n      pop\n        /* \"#utility.yul\":15440:15619   */\n    tag_283:\n        /* \"#utility.yul\":15665:15666   */\n      0x01\n        /* \"#utility.yul\":15661:15662   */\n      0x02\n        /* \"#utility.yul\":15653:15659   */\n      dup9\n        /* \"#utility.yul\":15649:15663   */\n      mul\n        /* \"#utility.yul\":15645:15667   */\n      add\n        /* \"#utility.yul\":15639:15643   */\n      dup9\n        /* \"#utility.yul\":15632:15668   */\n      sstore\n        /* \"#utility.yul\":15067:15678   */\n      pop\n      pop\n      pop\n        /* \"#utility.yul\":15030:15917   */\n    tag_275:\n      pop\n        /* \"#utility.yul\":14620:15923   */\n      pop\n      pop\n      pop\n        /* \"#utility.yul\":14528:15923   */\n      pop\n      pop\n      jump\t// out\n        /* \"#utility.yul\":15929:16352   */\n    tag_37:\n        /* \"#utility.yul\":16070:16074   */\n      0x00\n        /* \"#utility.yul\":16108:16110   */\n      0x40\n        /* \"#utility.yul\":16097:16106   */\n      dup3\n        /* \"#utility.yul\":16093:16111   */\n      add\n        /* \"#utility.yul\":16085:16111   */\n      swap1\n      pop\n        /* \"#utility.yul\":16157:16166   */\n      dup2\n        /* \"#utility.yul\":16151:16155   */\n      dup2\n        /* \"#utility.yul\":16147:16167   */\n      sub\n        /* \"#utility.yul\":16143:16144   */\n      0x00\n        /* \"#utility.yul\":16132:16141   */\n      dup4\n        /* \"#utility.yul\":16128:16145   */\n      add\n        /* \"#utility.yul\":16121:16168   */\n      mstore\n        /* \"#utility.yul\":16185:16263   */\n      tag_286\n        /* \"#utility.yul\":16258:16262   */\n      dup2\n        /* \"#utility.yul\":16249:16255   */\n      dup6\n        /* \"#utility.yul\":16185:16263   */\n      tag_98\n      jump\t// in\n    tag_286:\n        /* \"#utility.yul\":16177:16263   */\n      swap1\n      pop\n        /* \"#utility.yul\":16273:16345   */\n      tag_287\n        /* \"#utility.yul\":16341:16343   */\n      0x20\n        /* \"#utility.yul\":16330:16339   */\n      dup4\n        /* \"#utility.yul\":16326:16344   */\n      add\n        /* \"#utility.yul\":16317:16323   */\n      dup5\n        /* \"#utility.yul\":16273:16345   */\n      tag_101\n      jump\t// in\n    tag_287:\n        /* \"#utility.yul\":15929:16352   */\n      swap4\n      swap3\n      pop\n      pop\n      pop\n      jump\t// out\n\n    auxdata: 0xa2646970667358221220e545e9dd741e8850c53d741d0f672249da21230dd4453e3f799a00233748501364736f6c634300081a0033\n}\n",
				"bytecode": {
					"linkReferences": {},
					"object": "6080604052348015600e575f80fd5b5061106e8061001c5f395ff3fe608060405234801561000f575f80fd5b506004361061003f575f3560e01c80630859c6d2146100435780638060ea6b1461005f578063a390294014610093575b5f80fd5b61005d6004803603810190610058919061095a565b6100c3565b005b61007960048036038101906100749190610a2e565b61027e565b60405161008a959493929190610b14565b60405180910390f35b6100ad60048036038101906100a89190610a2e565b6104fe565b6040516100ba9190610c60565b60405180910390f35b5f80856040516100d39190610cba565b90815260200160405180910390205f0180546100ee90610cfd565b905014610130576040517f08c379a000000000000000000000000000000000000000000000000000000000815260040161012790610d77565b60405180910390fd5b6040518060a001604052808581526020018481526020018381526020018281526020013373ffffffffffffffffffffffffffffffffffffffff168152505f8560405161017c9190610cba565b90815260200160405180910390205f820151815f01908161019d9190610f3b565b5060208201518160010190816101b39190610f3b565b5060408201518160020190816101c99190610f3b565b5060608201518160030190816101df9190610f3b565b506080820151816004015f6101000a81548173ffffffffffffffffffffffffffffffffffffffff021916908373ffffffffffffffffffffffffffffffffffffffff160217905550905050836040516102379190610cba565b60405180910390207f211b57cd93343fc99d99bbd57fd377c63f4203b8984f2ed4f1b136910d46125e843360405161027092919061100a565b60405180910390a250505050565b5f818051602081018201805184825260208301602085012081835280955050505050505f91509050805f0180546102b490610cfd565b80601f01602080910402602001604051908101604052809291908181526020018280546102e090610cfd565b801561032b5780601f106103025761010080835404028352916020019161032b565b820191905f5260205f20905b81548152906001019060200180831161030e57829003601f168201915b50505050509080600101805461034090610cfd565b80601f016020809104026020016040519081016040528092919081815260200182805461036c90610cfd565b80156103b75780601f1061038e576101008083540402835291602001916103b7565b820191905f5260205f20905b81548152906001019060200180831161039a57829003601f168201915b5050505050908060020180546103cc90610cfd565b80601f01602080910402602001604051908101604052809291908181526020018280546103f890610cfd565b80156104435780601f1061041a57610100808354040283529160200191610443565b820191905f5260205f20905b81548152906001019060200180831161042657829003601f168201915b50505050509080600301805461045890610cfd565b80601f016020809104026020016040519081016040528092919081815260200182805461048490610cfd565b80156104cf5780601f106104a6576101008083540402835291602001916104cf565b820191905f5260205f20905b8154815290600101906020018083116104b257829003601f168201915b505050505090806004015f9054906101000a900473ffffffffffffffffffffffffffffffffffffffff16905085565b6105066107c9565b5f826040516105159190610cba565b90815260200160405180910390206040518060a00160405290815f8201805461053d90610cfd565b80601f016020809104026020016040519081016040528092919081815260200182805461056990610cfd565b80156105b45780601f1061058b576101008083540402835291602001916105b4565b820191905f5260205f20905b81548152906001019060200180831161059757829003601f168201915b505050505081526020016001820180546105cd90610cfd565b80601f01602080910402602001604051908101604052809291908181526020018280546105f990610cfd565b80156106445780601f1061061b57610100808354040283529160200191610644565b820191905f5260205f20905b81548152906001019060200180831161062757829003601f168201915b5050505050815260200160028201805461065d90610cfd565b80601f016020809104026020016040519081016040528092919081815260200182805461068990610cfd565b80156106d45780601f106106ab576101008083540402835291602001916106d4565b820191905f5260205f20905b8154815290600101906020018083116106b757829003601f168201915b505050505081526020016003820180546106ed90610cfd565b80601f016020809104026020016040519081016040528092919081815260200182805461071990610cfd565b80156107645780601f1061073b57610100808354040283529160200191610764565b820191905f5260205f20905b81548152906001019060200180831161074757829003601f168201915b50505050508152602001600482015f9054906101000a900473ffffffffffffffffffffffffffffffffffffffff1673ffffffffffffffffffffffffffffffffffffffff1673ffffffffffffffffffffffffffffffffffffffff16815250509050919050565b6040518060a00160405280606081526020016060815260200160608152602001606081526020015f73ffffffffffffffffffffffffffffffffffffffff1681525090565b5f604051905090565b5f80fd5b5f80fd5b5f80fd5b5f80fd5b5f601f19601f8301169050919050565b7f4e487b71000000000000000000000000000000000000000000000000000000005f52604160045260245ffd5b61086c82610826565b810181811067ffffffffffffffff8211171561088b5761088a610836565b5b80604052505050565b5f61089d61080d565b90506108a98282610863565b919050565b5f67ffffffffffffffff8211156108c8576108c7610836565b5b6108d182610826565b9050602081019050919050565b828183375f83830152505050565b5f6108fe6108f9846108ae565b610894565b90508281526020810184848401111561091a57610919610822565b5b6109258482856108de565b509392505050565b5f82601f8301126109415761094061081e565b5b81356109518482602086016108ec565b91505092915050565b5f805f806080858703121561097257610971610816565b5b5f85013567ffffffffffffffff81111561098f5761098e61081a565b5b61099b8782880161092d565b945050602085013567ffffffffffffffff8111156109bc576109bb61081a565b5b6109c88782880161092d565b935050604085013567ffffffffffffffff8111156109e9576109e861081a565b5b6109f58782880161092d565b925050606085013567ffffffffffffffff811115610a1657610a1561081a565b5b610a228782880161092d565b91505092959194509250565b5f60208284031215610a4357610a42610816565b5b5f82013567ffffffffffffffff811115610a6057610a5f61081a565b5b610a6c8482850161092d565b91505092915050565b5f81519050919050565b5f82825260208201905092915050565b8281835e5f83830152505050565b5f610aa782610a75565b610ab18185610a7f565b9350610ac1818560208601610a8f565b610aca81610826565b840191505092915050565b5f73ffffffffffffffffffffffffffffffffffffffff82169050919050565b5f610afe82610ad5565b9050919050565b610b0e81610af4565b82525050565b5f60a0820190508181035f830152610b2c8188610a9d565b90508181036020830152610b408187610a9d565b90508181036040830152610b548186610a9d565b90508181036060830152610b688185610a9d565b9050610b776080830184610b05565b9695505050505050565b5f82825260208201905092915050565b5f610b9b82610a75565b610ba58185610b81565b9350610bb5818560208601610a8f565b610bbe81610826565b840191505092915050565b610bd281610af4565b82525050565b5f60a083015f8301518482035f860152610bf28282610b91565b91505060208301518482036020860152610c0c8282610b91565b91505060408301518482036040860152610c268282610b91565b91505060608301518482036060860152610c408282610b91565b9150506080830151610c556080860182610bc9565b508091505092915050565b5f6020820190508181035f830152610c788184610bd8565b905092915050565b5f81905092915050565b5f610c9482610a75565b610c9e8185610c80565b9350610cae818560208601610a8f565b80840191505092915050565b5f610cc58284610c8a565b915081905092915050565b7f4e487b71000000000000000000000000000000000000000000000000000000005f52602260045260245ffd5b5f6002820490506001821680610d1457607f821691505b602082108103610d2757610d26610cd0565b5b50919050565b7f53656c6c657220616c72656164792065786973747300000000000000000000005f82015250565b5f610d61601583610a7f565b9150610d6c82610d2d565b602082019050919050565b5f6020820190508181035f830152610d8e81610d55565b9050919050565b5f819050815f5260205f209050919050565b5f6020601f8301049050919050565b5f82821b905092915050565b5f60088302610df17fffffffffffffffffffffffffffffffffffffffffffffffffffffffffffffffff82610db6565b610dfb8683610db6565b95508019841693508086168417925050509392505050565b5f819050919050565b5f819050919050565b5f610e3f610e3a610e3584610e13565b610e1c565b610e13565b9050919050565b5f819050919050565b610e5883610e25565b610e6c610e6482610e46565b848454610dc2565b825550505050565b5f90565b610e80610e74565b610e8b818484610e4f565b505050565b5b81811015610eae57610ea35f82610e78565b600181019050610e91565b5050565b601f821115610ef357610ec481610d95565b610ecd84610da7565b81016020851015610edc578190505b610ef0610ee885610da7565b830182610e90565b50505b505050565b5f82821c905092915050565b5f610f135f1984600802610ef8565b1980831691505092915050565b5f610f2b8383610f04565b9150826002028217905092915050565b610f4482610a75565b67ffffffffffffffff811115610f5d57610f5c610836565b5b610f678254610cfd565b610f72828285610eb2565b5f60209050601f831160018114610fa3575f8415610f91578287015190505b610f9b8582610f20565b865550611002565b601f198416610fb186610d95565b5f5b82811015610fd857848901518255600182019150602085019450602081019050610fb3565b86831015610ff55784890151610ff1601f891682610f04565b8355505b6001600288020188555050505b505050505050565b5f6040820190508181035f8301526110228185610a9d565b90506110316020830184610b05565b939250505056fea2646970667358221220e545e9dd741e8850c53d741d0f672249da21230dd4453e3f799a00233748501364736f6c634300081a0033",
					"opcodes": "PUSH1 0x80 PUSH1 0x40 MSTORE CALLVALUE DUP1 ISZERO PUSH1 0xE JUMPI PUSH0 DUP1 REVERT JUMPDEST POP PUSH2 0x106E DUP1 PUSH2 0x1C PUSH0 CODECOPY PUSH0 RETURN INVALID PUSH1 0x80 PUSH1 0x40 MSTORE CALLVALUE DUP1 ISZERO PUSH2 0xF JUMPI PUSH0 DUP1 REVERT JUMPDEST POP PUSH1 0x4 CALLDATASIZE LT PUSH2 0x3F JUMPI PUSH0 CALLDATALOAD PUSH1 0xE0 SHR DUP1 PUSH4 0x859C6D2 EQ PUSH2 0x43 JUMPI DUP1 PUSH4 0x8060EA6B EQ PUSH2 0x5F JUMPI DUP1 PUSH4 0xA3902940 EQ PUSH2 0x93 JUMPI JUMPDEST PUSH0 DUP1 REVERT JUMPDEST PUSH2 0x5D PUSH1 0x4 DUP1 CALLDATASIZE SUB DUP2 ADD SWAP1 PUSH2 0x58 SWAP2 SWAP1 PUSH2 0x95A JUMP JUMPDEST PUSH2 0xC3 JUMP JUMPDEST STOP JUMPDEST PUSH2 0x79 PUSH1 0x4 DUP1 CALLDATASIZE SUB DUP2 ADD SWAP1 PUSH2 0x74 SWAP2 SWAP1 PUSH2 0xA2E JUMP JUMPDEST PUSH2 0x27E JUMP JUMPDEST PUSH1 0x40 MLOAD PUSH2 0x8A SWAP6 SWAP5 SWAP4 SWAP3 SWAP2 SWAP1 PUSH2 0xB14 JUMP JUMPDEST PUSH1 0x40 MLOAD DUP1 SWAP2 SUB SWAP1 RETURN JUMPDEST PUSH2 0xAD PUSH1 0x4 DUP1 CALLDATASIZE SUB DUP2 ADD SWAP1 PUSH2 0xA8 SWAP2 SWAP1 PUSH2 0xA2E JUMP JUMPDEST PUSH2 0x4FE JUMP JUMPDEST PUSH1 0x40 MLOAD PUSH2 0xBA SWAP2 SWAP1 PUSH2 0xC60 JUMP JUMPDEST PUSH1 0x40 MLOAD DUP1 SWAP2 SUB SWAP1 RETURN JUMPDEST PUSH0 DUP1 DUP6 PUSH1 0x40 MLOAD PUSH2 0xD3 SWAP2 SWAP1 PUSH2 0xCBA JUMP JUMPDEST SWAP1 DUP2 MSTORE PUSH1 0x20 ADD PUSH1 0x40 MLOAD DUP1 SWAP2 SUB SWAP1 KECCAK256 PUSH0 ADD DUP1 SLOAD PUSH2 0xEE SWAP1 PUSH2 0xCFD JUMP JUMPDEST SWAP1 POP EQ PUSH2 0x130 JUMPI PUSH1 0x40 MLOAD PUSH32 0x8C379A000000000000000000000000000000000000000000000000000000000 DUP2 MSTORE PUSH1 0x4 ADD PUSH2 0x127 SWAP1 PUSH2 0xD77 JUMP JUMPDEST PUSH1 0x40 MLOAD DUP1 SWAP2 SUB SWAP1 REVERT JUMPDEST PUSH1 0x40 MLOAD DUP1 PUSH1 0xA0 ADD PUSH1 0x40 MSTORE DUP1 DUP6 DUP2 MSTORE PUSH1 0x20 ADD DUP5 DUP2 MSTORE PUSH1 0x20 ADD DUP4 DUP2 MSTORE PUSH1 0x20 ADD DUP3 DUP2 MSTORE PUSH1 0x20 ADD CALLER PUSH20 0xFFFFFFFFFFFFFFFFFFFFFFFFFFFFFFFFFFFFFFFF AND DUP2 MSTORE POP PUSH0 DUP6 PUSH1 0x40 MLOAD PUSH2 0x17C SWAP2 SWAP1 PUSH2 0xCBA JUMP JUMPDEST SWAP1 DUP2 MSTORE PUSH1 0x20 ADD PUSH1 0x40 MLOAD DUP1 SWAP2 SUB SWAP1 KECCAK256 PUSH0 DUP3 ADD MLOAD DUP2 PUSH0 ADD SWAP1 DUP2 PUSH2 0x19D SWAP2 SWAP1 PUSH2 0xF3B JUMP JUMPDEST POP PUSH1 0x20 DUP3 ADD MLOAD DUP2 PUSH1 0x1 ADD SWAP1 DUP2 PUSH2 0x1B3 SWAP2 SWAP1 PUSH2 0xF3B JUMP JUMPDEST POP PUSH1 0x40 DUP3 ADD MLOAD DUP2 PUSH1 0x2 ADD SWAP1 DUP2 PUSH2 0x1C9 SWAP2 SWAP1 PUSH2 0xF3B JUMP JUMPDEST POP PUSH1 0x60 DUP3 ADD MLOAD DUP2 PUSH1 0x3 ADD SWAP1 DUP2 PUSH2 0x1DF SWAP2 SWAP1 PUSH2 0xF3B JUMP JUMPDEST POP PUSH1 0x80 DUP3 ADD MLOAD DUP2 PUSH1 0x4 ADD PUSH0 PUSH2 0x100 EXP DUP2 SLOAD DUP2 PUSH20 0xFFFFFFFFFFFFFFFFFFFFFFFFFFFFFFFFFFFFFFFF MUL NOT AND SWAP1 DUP4 PUSH20 0xFFFFFFFFFFFFFFFFFFFFFFFFFFFFFFFFFFFFFFFF AND MUL OR SWAP1 SSTORE POP SWAP1 POP POP DUP4 PUSH1 0x40 MLOAD PUSH2 0x237 SWAP2 SWAP1 PUSH2 0xCBA JUMP JUMPDEST PUSH1 0x40 MLOAD DUP1 SWAP2 SUB SWAP1 KECCAK256 PUSH32 0x211B57CD93343FC99D99BBD57FD377C63F4203B8984F2ED4F1B136910D46125E DUP5 CALLER PUSH1 0x40 MLOAD PUSH2 0x270 SWAP3 SWAP2 SWAP1 PUSH2 0x100A JUMP JUMPDEST PUSH1 0x40 MLOAD DUP1 SWAP2 SUB SWAP1 LOG2 POP POP POP POP JUMP JUMPDEST PUSH0 DUP2 DUP1 MLOAD PUSH1 0x20 DUP2 ADD DUP3 ADD DUP1 MLOAD DUP5 DUP3 MSTORE PUSH1 0x20 DUP4 ADD PUSH1 0x20 DUP6 ADD KECCAK256 DUP2 DUP4 MSTORE DUP1 SWAP6 POP POP POP POP POP POP PUSH0 SWAP2 POP SWAP1 POP DUP1 PUSH0 ADD DUP1 SLOAD PUSH2 0x2B4 SWAP1 PUSH2 0xCFD JUMP JUMPDEST DUP1 PUSH1 0x1F ADD PUSH1 0x20 DUP1 SWAP2 DIV MUL PUSH1 0x20 ADD PUSH1 0x40 MLOAD SWAP1 DUP2 ADD PUSH1 0x40 MSTORE DUP1 SWAP3 SWAP2 SWAP1 DUP2 DUP2 MSTORE PUSH1 0x20 ADD DUP3 DUP1 SLOAD PUSH2 0x2E0 SWAP1 PUSH2 0xCFD JUMP JUMPDEST DUP1 ISZERO PUSH2 0x32B JUMPI DUP1 PUSH1 0x1F LT PUSH2 0x302 JUMPI PUSH2 0x100 DUP1 DUP4 SLOAD DIV MUL DUP4 MSTORE SWAP2 PUSH1 0x20 ADD SWAP2 PUSH2 0x32B JUMP JUMPDEST DUP3 ADD SWAP2 SWAP1 PUSH0 MSTORE PUSH1 0x20 PUSH0 KECCAK256 SWAP1 JUMPDEST DUP2 SLOAD DUP2 MSTORE SWAP1 PUSH1 0x1 ADD SWAP1 PUSH1 0x20 ADD DUP1 DUP4 GT PUSH2 0x30E JUMPI DUP3 SWAP1 SUB PUSH1 0x1F AND DUP3 ADD SWAP2 JUMPDEST POP POP POP POP POP SWAP1 DUP1 PUSH1 0x1 ADD DUP1 SLOAD PUSH2 0x340 SWAP1 PUSH2 0xCFD JUMP JUMPDEST DUP1 PUSH1 0x1F ADD PUSH1 0x20 DUP1 SWAP2 DIV MUL PUSH1 0x20 ADD PUSH1 0x40 MLOAD SWAP1 DUP2 ADD PUSH1 0x40 MSTORE DUP1 SWAP3 SWAP2 SWAP1 DUP2 DUP2 MSTORE PUSH1 0x20 ADD DUP3 DUP1 SLOAD PUSH2 0x36C SWAP1 PUSH2 0xCFD JUMP JUMPDEST DUP1 ISZERO PUSH2 0x3B7 JUMPI DUP1 PUSH1 0x1F LT PUSH2 0x38E JUMPI PUSH2 0x100 DUP1 DUP4 SLOAD DIV MUL DUP4 MSTORE SWAP2 PUSH1 0x20 ADD SWAP2 PUSH2 0x3B7 JUMP JUMPDEST DUP3 ADD SWAP2 SWAP1 PUSH0 MSTORE PUSH1 0x20 PUSH0 KECCAK256 SWAP1 JUMPDEST DUP2 SLOAD DUP2 MSTORE SWAP1 PUSH1 0x1 ADD SWAP1 PUSH1 0x20 ADD DUP1 DUP4 GT PUSH2 0x39A JUMPI DUP3 SWAP1 SUB PUSH1 0x1F AND DUP3 ADD SWAP2 JUMPDEST POP POP POP POP POP SWAP1 DUP1 PUSH1 0x2 ADD DUP1 SLOAD PUSH2 0x3CC SWAP1 PUSH2 0xCFD JUMP JUMPDEST DUP1 PUSH1 0x1F ADD PUSH1 0x20 DUP1 SWAP2 DIV MUL PUSH1 0x20 ADD PUSH1 0x40 MLOAD SWAP1 DUP2 ADD PUSH1 0x40 MSTORE DUP1 SWAP3 SWAP2 SWAP1 DUP2 DUP2 MSTORE PUSH1 0x20 ADD DUP3 DUP1 SLOAD PUSH2 0x3F8 SWAP1 PUSH2 0xCFD JUMP JUMPDEST DUP1 ISZERO PUSH2 0x443 JUMPI DUP1 PUSH1 0x1F LT PUSH2 0x41A JUMPI PUSH2 0x100 DUP1 DUP4 SLOAD DIV MUL DUP4 MSTORE SWAP2 PUSH1 0x20 ADD SWAP2 PUSH2 0x443 JUMP JUMPDEST DUP3 ADD SWAP2 SWAP1 PUSH0 MSTORE PUSH1 0x20 PUSH0 KECCAK256 SWAP1 JUMPDEST DUP2 SLOAD DUP2 MSTORE SWAP1 PUSH1 0x1 ADD SWAP1 PUSH1 0x20 ADD DUP1 DUP4 GT PUSH2 0x426 JUMPI DUP3 SWAP1 SUB PUSH1 0x1F AND DUP3 ADD SWAP2 JUMPDEST POP POP POP POP POP SWAP1 DUP1 PUSH1 0x3 ADD DUP1 SLOAD PUSH2 0x458 SWAP1 PUSH2 0xCFD JUMP JUMPDEST DUP1 PUSH1 0x1F ADD PUSH1 0x20 DUP1 SWAP2 DIV MUL PUSH1 0x20 ADD PUSH1 0x40 MLOAD SWAP1 DUP2 ADD PUSH1 0x40 MSTORE DUP1 SWAP3 SWAP2 SWAP1 DUP2 DUP2 MSTORE PUSH1 0x20 ADD DUP3 DUP1 SLOAD PUSH2 0x484 SWAP1 PUSH2 0xCFD JUMP JUMPDEST DUP1 ISZERO PUSH2 0x4CF JUMPI DUP1 PUSH1 0x1F LT PUSH2 0x4A6 JUMPI PUSH2 0x100 DUP1 DUP4 SLOAD DIV MUL DUP4 MSTORE SWAP2 PUSH1 0x20 ADD SWAP2 PUSH2 0x4CF JUMP JUMPDEST DUP3 ADD SWAP2 SWAP1 PUSH0 MSTORE PUSH1 0x20 PUSH0 KECCAK256 SWAP1 JUMPDEST DUP2 SLOAD DUP2 MSTORE SWAP1 PUSH1 0x1 ADD SWAP1 PUSH1 0x20 ADD DUP1 DUP4 GT PUSH2 0x4B2 JUMPI DUP3 SWAP1 SUB PUSH1 0x1F AND DUP3 ADD SWAP2 JUMPDEST POP POP POP POP POP SWAP1 DUP1 PUSH1 0x4 ADD PUSH0 SWAP1 SLOAD SWAP1 PUSH2 0x100 EXP SWAP1 DIV PUSH20 0xFFFFFFFFFFFFFFFFFFFFFFFFFFFFFFFFFFFFFFFF AND SWAP1 POP DUP6 JUMP JUMPDEST PUSH2 0x506 PUSH2 0x7C9 JUMP JUMPDEST PUSH0 DUP3 PUSH1 0x40 MLOAD PUSH2 0x515 SWAP2 SWAP1 PUSH2 0xCBA JUMP JUMPDEST SWAP1 DUP2 MSTORE PUSH1 0x20 ADD PUSH1 0x40 MLOAD DUP1 SWAP2 SUB SWAP1 KECCAK256 PUSH1 0x40 MLOAD DUP1 PUSH1 0xA0 ADD PUSH1 0x40 MSTORE SWAP1 DUP2 PUSH0 DUP3 ADD DUP1 SLOAD PUSH2 0x53D SWAP1 PUSH2 0xCFD JUMP JUMPDEST DUP1 PUSH1 0x1F ADD PUSH1 0x20 DUP1 SWAP2 DIV MUL PUSH1 0x20 ADD PUSH1 0x40 MLOAD SWAP1 DUP2 ADD PUSH1 0x40 MSTORE DUP1 SWAP3 SWAP2 SWAP1 DUP2 DUP2 MSTORE PUSH1 0x20 ADD DUP3 DUP1 SLOAD PUSH2 0x569 SWAP1 PUSH2 0xCFD JUMP JUMPDEST DUP1 ISZERO PUSH2 0x5B4 JUMPI DUP1 PUSH1 0x1F LT PUSH2 0x58B JUMPI PUSH2 0x100 DUP1 DUP4 SLOAD DIV MUL DUP4 MSTORE SWAP2 PUSH1 0x20 ADD SWAP2 PUSH2 0x5B4 JUMP JUMPDEST DUP3 ADD SWAP2 SWAP1 PUSH0 MSTORE PUSH1 0x20 PUSH0 KECCAK256 SWAP1 JUMPDEST DUP2 SLOAD DUP2 MSTORE SWAP1 PUSH1 0x1 ADD SWAP1 PUSH1 0x20 ADD DUP1 DUP4 GT PUSH2 0x597 JUMPI DUP3 SWAP1 SUB PUSH1 0x1F AND DUP3 ADD SWAP2 JUMPDEST POP POP POP POP POP DUP2 MSTORE PUSH1 0x20 ADD PUSH1 0x1 DUP3 ADD DUP1 SLOAD PUSH2 0x5CD SWAP1 PUSH2 0xCFD JUMP JUMPDEST DUP1 PUSH1 0x1F ADD PUSH1 0x20 DUP1 SWAP2 DIV MUL PUSH1 0x20 ADD PUSH1 0x40 MLOAD SWAP1 DUP2 ADD PUSH1 0x40 MSTORE DUP1 SWAP3 SWAP2 SWAP1 DUP2 DUP2 MSTORE PUSH1 0x20 ADD DUP3 DUP1 SLOAD PUSH2 0x5F9 SWAP1 PUSH2 0xCFD JUMP JUMPDEST DUP1 ISZERO PUSH2 0x644 JUMPI DUP1 PUSH1 0x1F LT PUSH2 0x61B JUMPI PUSH2 0x100 DUP1 DUP4 SLOAD DIV MUL DUP4 MSTORE SWAP2 PUSH1 0x20 ADD SWAP2 PUSH2 0x644 JUMP JUMPDEST DUP3 ADD SWAP2 SWAP1 PUSH0 MSTORE PUSH1 0x20 PUSH0 KECCAK256 SWAP1 JUMPDEST DUP2 SLOAD DUP2 MSTORE SWAP1 PUSH1 0x1 ADD SWAP1 PUSH1 0x20 ADD DUP1 DUP4 GT PUSH2 0x627 JUMPI DUP3 SWAP1 SUB PUSH1 0x1F AND DUP3 ADD SWAP2 JUMPDEST POP POP POP POP POP DUP2 MSTORE PUSH1 0x20 ADD PUSH1 0x2 DUP3 ADD DUP1 SLOAD PUSH2 0x65D SWAP1 PUSH2 0xCFD JUMP JUMPDEST DUP1 PUSH1 0x1F ADD PUSH1 0x20 DUP1 SWAP2 DIV MUL PUSH1 0x20 ADD PUSH1 0x40 MLOAD SWAP1 DUP2 ADD PUSH1 0x40 MSTORE DUP1 SWAP3 SWAP2 SWAP1 DUP2 DUP2 MSTORE PUSH1 0x20 ADD DUP3 DUP1 SLOAD PUSH2 0x689 SWAP1 PUSH2 0xCFD JUMP JUMPDEST DUP1 ISZERO PUSH2 0x6D4 JUMPI DUP1 PUSH1 0x1F LT PUSH2 0x6AB JUMPI PUSH2 0x100 DUP1 DUP4 SLOAD DIV MUL DUP4 MSTORE SWAP2 PUSH1 0x20 ADD SWAP2 PUSH2 0x6D4 JUMP JUMPDEST DUP3 ADD SWAP2 SWAP1 PUSH0 MSTORE PUSH1 0x20 PUSH0 KECCAK256 SWAP1 JUMPDEST DUP2 SLOAD DUP2 MSTORE SWAP1 PUSH1 0x1 ADD SWAP1 PUSH1 0x20 ADD DUP1 DUP4 GT PUSH2 0x6B7 JUMPI DUP3 SWAP1 SUB PUSH1 0x1F AND DUP3 ADD SWAP2 JUMPDEST POP POP POP POP POP DUP2 MSTORE PUSH1 0x20 ADD PUSH1 0x3 DUP3 ADD DUP1 SLOAD PUSH2 0x6ED SWAP1 PUSH2 0xCFD JUMP JUMPDEST DUP1 PUSH1 0x1F ADD PUSH1 0x20 DUP1 SWAP2 DIV MUL PUSH1 0x20 ADD PUSH1 0x40 MLOAD SWAP1 DUP2 ADD PUSH1 0x40 MSTORE DUP1 SWAP3 SWAP2 SWAP1 DUP2 DUP2 MSTORE PUSH1 0x20 ADD DUP3 DUP1 SLOAD PUSH2 0x719 SWAP1 PUSH2 0xCFD JUMP JUMPDEST DUP1 ISZERO PUSH2 0x764 JUMPI DUP1 PUSH1 0x1F LT PUSH2 0x73B JUMPI PUSH2 0x100 DUP1 DUP4 SLOAD DIV MUL DUP4 MSTORE SWAP2 PUSH1 0x20 ADD SWAP2 PUSH2 0x764 JUMP JUMPDEST DUP3 ADD SWAP2 SWAP1 PUSH0 MSTORE PUSH1 0x20 PUSH0 KECCAK256 SWAP1 JUMPDEST DUP2 SLOAD DUP2 MSTORE SWAP1 PUSH1 0x1 ADD SWAP1 PUSH1 0x20 ADD DUP1 DUP4 GT PUSH2 0x747 JUMPI DUP3 SWAP1 SUB PUSH1 0x1F AND DUP3 ADD SWAP2 JUMPDEST POP POP POP POP POP DUP2 MSTORE PUSH1 0x20 ADD PUSH1 0x4 DUP3 ADD PUSH0 SWAP1 SLOAD SWAP1 PUSH2 0x100 EXP SWAP1 DIV PUSH20 0xFFFFFFFFFFFFFFFFFFFFFFFFFFFFFFFFFFFFFFFF AND PUSH20 0xFFFFFFFFFFFFFFFFFFFFFFFFFFFFFFFFFFFFFFFF AND PUSH20 0xFFFFFFFFFFFFFFFFFFFFFFFFFFFFFFFFFFFFFFFF AND DUP2 MSTORE POP POP SWAP1 POP SWAP2 SWAP1 POP JUMP JUMPDEST PUSH1 0x40 MLOAD DUP1 PUSH1 0xA0 ADD PUSH1 0x40 MSTORE DUP1 PUSH1 0x60 DUP2 MSTORE PUSH1 0x20 ADD PUSH1 0x60 DUP2 MSTORE PUSH1 0x20 ADD PUSH1 0x60 DUP2 MSTORE PUSH1 0x20 ADD PUSH1 0x60 DUP2 MSTORE PUSH1 0x20 ADD PUSH0 PUSH20 0xFFFFFFFFFFFFFFFFFFFFFFFFFFFFFFFFFFFFFFFF AND DUP2 MSTORE POP SWAP1 JUMP JUMPDEST PUSH0 PUSH1 0x40 MLOAD SWAP1 POP SWAP1 JUMP JUMPDEST PUSH0 DUP1 REVERT JUMPDEST PUSH0 DUP1 REVERT JUMPDEST PUSH0 DUP1 REVERT JUMPDEST PUSH0 DUP1 REVERT JUMPDEST PUSH0 PUSH1 0x1F NOT PUSH1 0x1F DUP4 ADD AND SWAP1 POP SWAP2 SWAP1 POP JUMP JUMPDEST PUSH32 0x4E487B7100000000000000000000000000000000000000000000000000000000 PUSH0 MSTORE PUSH1 0x41 PUSH1 0x4 MSTORE PUSH1 0x24 PUSH0 REVERT JUMPDEST PUSH2 0x86C DUP3 PUSH2 0x826 JUMP JUMPDEST DUP2 ADD DUP2 DUP2 LT PUSH8 0xFFFFFFFFFFFFFFFF DUP3 GT OR ISZERO PUSH2 0x88B JUMPI PUSH2 0x88A PUSH2 0x836 JUMP JUMPDEST JUMPDEST DUP1 PUSH1 0x40 MSTORE POP POP POP JUMP JUMPDEST PUSH0 PUSH2 0x89D PUSH2 0x80D JUMP JUMPDEST SWAP1 POP PUSH2 0x8A9 DUP3 DUP3 PUSH2 0x863 JUMP JUMPDEST SWAP2 SWAP1 POP JUMP JUMPDEST PUSH0 PUSH8 0xFFFFFFFFFFFFFFFF DUP3 GT ISZERO PUSH2 0x8C8 JUMPI PUSH2 0x8C7 PUSH2 0x836 JUMP JUMPDEST JUMPDEST PUSH2 0x8D1 DUP3 PUSH2 0x826 JUMP JUMPDEST SWAP1 POP PUSH1 0x20 DUP2 ADD SWAP1 POP SWAP2 SWAP1 POP JUMP JUMPDEST DUP3 DUP2 DUP4 CALLDATACOPY PUSH0 DUP4 DUP4 ADD MSTORE POP POP POP JUMP JUMPDEST PUSH0 PUSH2 0x8FE PUSH2 0x8F9 DUP5 PUSH2 0x8AE JUMP JUMPDEST PUSH2 0x894 JUMP JUMPDEST SWAP1 POP DUP3 DUP2 MSTORE PUSH1 0x20 DUP2 ADD DUP5 DUP5 DUP5 ADD GT ISZERO PUSH2 0x91A JUMPI PUSH2 0x919 PUSH2 0x822 JUMP JUMPDEST JUMPDEST PUSH2 0x925 DUP5 DUP3 DUP6 PUSH2 0x8DE JUMP JUMPDEST POP SWAP4 SWAP3 POP POP POP JUMP JUMPDEST PUSH0 DUP3 PUSH1 0x1F DUP4 ADD SLT PUSH2 0x941 JUMPI PUSH2 0x940 PUSH2 0x81E JUMP JUMPDEST JUMPDEST DUP2 CALLDATALOAD PUSH2 0x951 DUP5 DUP3 PUSH1 0x20 DUP7 ADD PUSH2 0x8EC JUMP JUMPDEST SWAP2 POP POP SWAP3 SWAP2 POP POP JUMP JUMPDEST PUSH0 DUP1 PUSH0 DUP1 PUSH1 0x80 DUP6 DUP8 SUB SLT ISZERO PUSH2 0x972 JUMPI PUSH2 0x971 PUSH2 0x816 JUMP JUMPDEST JUMPDEST PUSH0 DUP6 ADD CALLDATALOAD PUSH8 0xFFFFFFFFFFFFFFFF DUP2 GT ISZERO PUSH2 0x98F JUMPI PUSH2 0x98E PUSH2 0x81A JUMP JUMPDEST JUMPDEST PUSH2 0x99B DUP8 DUP3 DUP9 ADD PUSH2 0x92D JUMP JUMPDEST SWAP5 POP POP PUSH1 0x20 DUP6 ADD CALLDATALOAD PUSH8 0xFFFFFFFFFFFFFFFF DUP2 GT ISZERO PUSH2 0x9BC JUMPI PUSH2 0x9BB PUSH2 0x81A JUMP JUMPDEST JUMPDEST PUSH2 0x9C8 DUP8 DUP3 DUP9 ADD PUSH2 0x92D JUMP JUMPDEST SWAP4 POP POP PUSH1 0x40 DUP6 ADD CALLDATALOAD PUSH8 0xFFFFFFFFFFFFFFFF DUP2 GT ISZERO PUSH2 0x9E9 JUMPI PUSH2 0x9E8 PUSH2 0x81A JUMP JUMPDEST JUMPDEST PUSH2 0x9F5 DUP8 DUP3 DUP9 ADD PUSH2 0x92D JUMP JUMPDEST SWAP3 POP POP PUSH1 0x60 DUP6 ADD CALLDATALOAD PUSH8 0xFFFFFFFFFFFFFFFF DUP2 GT ISZERO PUSH2 0xA16 JUMPI PUSH2 0xA15 PUSH2 0x81A JUMP JUMPDEST JUMPDEST PUSH2 0xA22 DUP8 DUP3 DUP9 ADD PUSH2 0x92D JUMP JUMPDEST SWAP2 POP POP SWAP3 SWAP6 SWAP2 SWAP5 POP SWAP3 POP JUMP JUMPDEST PUSH0 PUSH1 0x20 DUP3 DUP5 SUB SLT ISZERO PUSH2 0xA43 JUMPI PUSH2 0xA42 PUSH2 0x816 JUMP JUMPDEST JUMPDEST PUSH0 DUP3 ADD CALLDATALOAD PUSH8 0xFFFFFFFFFFFFFFFF DUP2 GT ISZERO PUSH2 0xA60 JUMPI PUSH2 0xA5F PUSH2 0x81A JUMP JUMPDEST JUMPDEST PUSH2 0xA6C DUP5 DUP3 DUP6 ADD PUSH2 0x92D JUMP JUMPDEST SWAP2 POP POP SWAP3 SWAP2 POP POP JUMP JUMPDEST PUSH0 DUP2 MLOAD SWAP1 POP SWAP2 SWAP1 POP JUMP JUMPDEST PUSH0 DUP3 DUP3 MSTORE PUSH1 0x20 DUP3 ADD SWAP1 POP SWAP3 SWAP2 POP POP JUMP JUMPDEST DUP3 DUP2 DUP4 MCOPY PUSH0 DUP4 DUP4 ADD MSTORE POP POP POP JUMP JUMPDEST PUSH0 PUSH2 0xAA7 DUP3 PUSH2 0xA75 JUMP JUMPDEST PUSH2 0xAB1 DUP2 DUP6 PUSH2 0xA7F JUMP JUMPDEST SWAP4 POP PUSH2 0xAC1 DUP2 DUP6 PUSH1 0x20 DUP7 ADD PUSH2 0xA8F JUMP JUMPDEST PUSH2 0xACA DUP2 PUSH2 0x826 JUMP JUMPDEST DUP5 ADD SWAP2 POP POP SWAP3 SWAP2 POP POP JUMP JUMPDEST PUSH0 PUSH20 0xFFFFFFFFFFFFFFFFFFFFFFFFFFFFFFFFFFFFFFFF DUP3 AND SWAP1 POP SWAP2 SWAP1 POP JUMP JUMPDEST PUSH0 PUSH2 0xAFE DUP3 PUSH2 0xAD5 JUMP JUMPDEST SWAP1 POP SWAP2 SWAP1 POP JUMP JUMPDEST PUSH2 0xB0E DUP2 PUSH2 0xAF4 JUMP JUMPDEST DUP3 MSTORE POP POP JUMP JUMPDEST PUSH0 PUSH1 0xA0 DUP3 ADD SWAP1 POP DUP2 DUP2 SUB PUSH0 DUP4 ADD MSTORE PUSH2 0xB2C DUP2 DUP9 PUSH2 0xA9D JUMP JUMPDEST SWAP1 POP DUP2 DUP2 SUB PUSH1 0x20 DUP4 ADD MSTORE PUSH2 0xB40 DUP2 DUP8 PUSH2 0xA9D JUMP JUMPDEST SWAP1 POP DUP2 DUP2 SUB PUSH1 0x40 DUP4 ADD MSTORE PUSH2 0xB54 DUP2 DUP7 PUSH2 0xA9D JUMP JUMPDEST SWAP1 POP DUP2 DUP2 SUB PUSH1 0x60 DUP4 ADD MSTORE PUSH2 0xB68 DUP2 DUP6 PUSH2 0xA9D JUMP JUMPDEST SWAP1 POP PUSH2 0xB77 PUSH1 0x80 DUP4 ADD DUP5 PUSH2 0xB05 JUMP JUMPDEST SWAP7 SWAP6 POP POP POP POP POP POP JUMP JUMPDEST PUSH0 DUP3 DUP3 MSTORE PUSH1 0x20 DUP3 ADD SWAP1 POP SWAP3 SWAP2 POP POP JUMP JUMPDEST PUSH0 PUSH2 0xB9B DUP3 PUSH2 0xA75 JUMP JUMPDEST PUSH2 0xBA5 DUP2 DUP6 PUSH2 0xB81 JUMP JUMPDEST SWAP4 POP PUSH2 0xBB5 DUP2 DUP6 PUSH1 0x20 DUP7 ADD PUSH2 0xA8F JUMP JUMPDEST PUSH2 0xBBE DUP2 PUSH2 0x826 JUMP JUMPDEST DUP5 ADD SWAP2 POP POP SWAP3 SWAP2 POP POP JUMP JUMPDEST PUSH2 0xBD2 DUP2 PUSH2 0xAF4 JUMP JUMPDEST DUP3 MSTORE POP POP JUMP JUMPDEST PUSH0 PUSH1 0xA0 DUP4 ADD PUSH0 DUP4 ADD MLOAD DUP5 DUP3 SUB PUSH0 DUP7 ADD MSTORE PUSH2 0xBF2 DUP3 DUP3 PUSH2 0xB91 JUMP JUMPDEST SWAP2 POP POP PUSH1 0x20 DUP4 ADD MLOAD DUP5 DUP3 SUB PUSH1 0x20 DUP7 ADD MSTORE PUSH2 0xC0C DUP3 DUP3 PUSH2 0xB91 JUMP JUMPDEST SWAP2 POP POP PUSH1 0x40 DUP4 ADD MLOAD DUP5 DUP3 SUB PUSH1 0x40 DUP7 ADD MSTORE PUSH2 0xC26 DUP3 DUP3 PUSH2 0xB91 JUMP JUMPDEST SWAP2 POP POP PUSH1 0x60 DUP4 ADD MLOAD DUP5 DUP3 SUB PUSH1 0x60 DUP7 ADD MSTORE PUSH2 0xC40 DUP3 DUP3 PUSH2 0xB91 JUMP JUMPDEST SWAP2 POP POP PUSH1 0x80 DUP4 ADD MLOAD PUSH2 0xC55 PUSH1 0x80 DUP7 ADD DUP3 PUSH2 0xBC9 JUMP JUMPDEST POP DUP1 SWAP2 POP POP SWAP3 SWAP2 POP POP JUMP JUMPDEST PUSH0 PUSH1 0x20 DUP3 ADD SWAP1 POP DUP2 DUP2 SUB PUSH0 DUP4 ADD MSTORE PUSH2 0xC78 DUP2 DUP5 PUSH2 0xBD8 JUMP JUMPDEST SWAP1 POP SWAP3 SWAP2 POP POP JUMP JUMPDEST PUSH0 DUP2 SWAP1 POP SWAP3 SWAP2 POP POP JUMP JUMPDEST PUSH0 PUSH2 0xC94 DUP3 PUSH2 0xA75 JUMP JUMPDEST PUSH2 0xC9E DUP2 DUP6 PUSH2 0xC80 JUMP JUMPDEST SWAP4 POP PUSH2 0xCAE DUP2 DUP6 PUSH1 0x20 DUP7 ADD PUSH2 0xA8F JUMP JUMPDEST DUP1 DUP5 ADD SWAP2 POP POP SWAP3 SWAP2 POP POP JUMP JUMPDEST PUSH0 PUSH2 0xCC5 DUP3 DUP5 PUSH2 0xC8A JUMP JUMPDEST SWAP2 POP DUP2 SWAP1 POP SWAP3 SWAP2 POP POP JUMP JUMPDEST PUSH32 0x4E487B7100000000000000000000000000000000000000000000000000000000 PUSH0 MSTORE PUSH1 0x22 PUSH1 0x4 MSTORE PUSH1 0x24 PUSH0 REVERT JUMPDEST PUSH0 PUSH1 0x2 DUP3 DIV SWAP1 POP PUSH1 0x1 DUP3 AND DUP1 PUSH2 0xD14 JUMPI PUSH1 0x7F DUP3 AND SWAP2 POP JUMPDEST PUSH1 0x20 DUP3 LT DUP2 SUB PUSH2 0xD27 JUMPI PUSH2 0xD26 PUSH2 0xCD0 JUMP JUMPDEST JUMPDEST POP SWAP2 SWAP1 POP JUMP JUMPDEST PUSH32 0x53656C6C657220616C7265616479206578697374730000000000000000000000 PUSH0 DUP3 ADD MSTORE POP JUMP JUMPDEST PUSH0 PUSH2 0xD61 PUSH1 0x15 DUP4 PUSH2 0xA7F JUMP JUMPDEST SWAP2 POP PUSH2 0xD6C DUP3 PUSH2 0xD2D JUMP JUMPDEST PUSH1 0x20 DUP3 ADD SWAP1 POP SWAP2 SWAP1 POP JUMP JUMPDEST PUSH0 PUSH1 0x20 DUP3 ADD SWAP1 POP DUP2 DUP2 SUB PUSH0 DUP4 ADD MSTORE PUSH2 0xD8E DUP2 PUSH2 0xD55 JUMP JUMPDEST SWAP1 POP SWAP2 SWAP1 POP JUMP JUMPDEST PUSH0 DUP2 SWAP1 POP DUP2 PUSH0 MSTORE PUSH1 0x20 PUSH0 KECCAK256 SWAP1 POP SWAP2 SWAP1 POP JUMP JUMPDEST PUSH0 PUSH1 0x20 PUSH1 0x1F DUP4 ADD DIV SWAP1 POP SWAP2 SWAP1 POP JUMP JUMPDEST PUSH0 DUP3 DUP3 SHL SWAP1 POP SWAP3 SWAP2 POP POP JUMP JUMPDEST PUSH0 PUSH1 0x8 DUP4 MUL PUSH2 0xDF1 PUSH32 0xFFFFFFFFFFFFFFFFFFFFFFFFFFFFFFFFFFFFFFFFFFFFFFFFFFFFFFFFFFFFFFFF DUP3 PUSH2 0xDB6 JUMP JUMPDEST PUSH2 0xDFB DUP7 DUP4 PUSH2 0xDB6 JUMP JUMPDEST SWAP6 POP DUP1 NOT DUP5 AND SWAP4 POP DUP1 DUP7 AND DUP5 OR SWAP3 POP POP POP SWAP4 SWAP3 POP POP POP JUMP JUMPDEST PUSH0 DUP2 SWAP1 POP SWAP2 SWAP1 POP JUMP JUMPDEST PUSH0 DUP2 SWAP1 POP SWAP2 SWAP1 POP JUMP JUMPDEST PUSH0 PUSH2 0xE3F PUSH2 0xE3A PUSH2 0xE35 DUP5 PUSH2 0xE13 JUMP JUMPDEST PUSH2 0xE1C JUMP JUMPDEST PUSH2 0xE13 JUMP JUMPDEST SWAP1 POP SWAP2 SWAP1 POP JUMP JUMPDEST PUSH0 DUP2 SWAP1 POP SWAP2 SWAP1 POP JUMP JUMPDEST PUSH2 0xE58 DUP4 PUSH2 0xE25 JUMP JUMPDEST PUSH2 0xE6C PUSH2 0xE64 DUP3 PUSH2 0xE46 JUMP JUMPDEST DUP5 DUP5 SLOAD PUSH2 0xDC2 JUMP JUMPDEST DUP3 SSTORE POP POP POP POP JUMP JUMPDEST PUSH0 SWAP1 JUMP JUMPDEST PUSH2 0xE80 PUSH2 0xE74 JUMP JUMPDEST PUSH2 0xE8B DUP2 DUP5 DUP5 PUSH2 0xE4F JUMP JUMPDEST POP POP POP JUMP JUMPDEST JUMPDEST DUP2 DUP2 LT ISZERO PUSH2 0xEAE JUMPI PUSH2 0xEA3 PUSH0 DUP3 PUSH2 0xE78 JUMP JUMPDEST PUSH1 0x1 DUP2 ADD SWAP1 POP PUSH2 0xE91 JUMP JUMPDEST POP POP JUMP JUMPDEST PUSH1 0x1F DUP3 GT ISZERO PUSH2 0xEF3 JUMPI PUSH2 0xEC4 DUP2 PUSH2 0xD95 JUMP JUMPDEST PUSH2 0xECD DUP5 PUSH2 0xDA7 JUMP JUMPDEST DUP2 ADD PUSH1 0x20 DUP6 LT ISZERO PUSH2 0xEDC JUMPI DUP2 SWAP1 POP JUMPDEST PUSH2 0xEF0 PUSH2 0xEE8 DUP6 PUSH2 0xDA7 JUMP JUMPDEST DUP4 ADD DUP3 PUSH2 0xE90 JUMP JUMPDEST POP POP JUMPDEST POP POP POP JUMP JUMPDEST PUSH0 DUP3 DUP3 SHR SWAP1 POP SWAP3 SWAP2 POP POP JUMP JUMPDEST PUSH0 PUSH2 0xF13 PUSH0 NOT DUP5 PUSH1 0x8 MUL PUSH2 0xEF8 JUMP JUMPDEST NOT DUP1 DUP4 AND SWAP2 POP POP SWAP3 SWAP2 POP POP JUMP JUMPDEST PUSH0 PUSH2 0xF2B DUP4 DUP4 PUSH2 0xF04 JUMP JUMPDEST SWAP2 POP DUP3 PUSH1 0x2 MUL DUP3 OR SWAP1 POP SWAP3 SWAP2 POP POP JUMP JUMPDEST PUSH2 0xF44 DUP3 PUSH2 0xA75 JUMP JUMPDEST PUSH8 0xFFFFFFFFFFFFFFFF DUP2 GT ISZERO PUSH2 0xF5D JUMPI PUSH2 0xF5C PUSH2 0x836 JUMP JUMPDEST JUMPDEST PUSH2 0xF67 DUP3 SLOAD PUSH2 0xCFD JUMP JUMPDEST PUSH2 0xF72 DUP3 DUP3 DUP6 PUSH2 0xEB2 JUMP JUMPDEST PUSH0 PUSH1 0x20 SWAP1 POP PUSH1 0x1F DUP4 GT PUSH1 0x1 DUP2 EQ PUSH2 0xFA3 JUMPI PUSH0 DUP5 ISZERO PUSH2 0xF91 JUMPI DUP3 DUP8 ADD MLOAD SWAP1 POP JUMPDEST PUSH2 0xF9B DUP6 DUP3 PUSH2 0xF20 JUMP JUMPDEST DUP7 SSTORE POP PUSH2 0x1002 JUMP JUMPDEST PUSH1 0x1F NOT DUP5 AND PUSH2 0xFB1 DUP7 PUSH2 0xD95 JUMP JUMPDEST PUSH0 JUMPDEST DUP3 DUP2 LT ISZERO PUSH2 0xFD8 JUMPI DUP5 DUP10 ADD MLOAD DUP3 SSTORE PUSH1 0x1 DUP3 ADD SWAP2 POP PUSH1 0x20 DUP6 ADD SWAP5 POP PUSH1 0x20 DUP2 ADD SWAP1 POP PUSH2 0xFB3 JUMP JUMPDEST DUP7 DUP4 LT ISZERO PUSH2 0xFF5 JUMPI DUP5 DUP10 ADD MLOAD PUSH2 0xFF1 PUSH1 0x1F DUP10 AND DUP3 PUSH2 0xF04 JUMP JUMPDEST DUP4 SSTORE POP JUMPDEST PUSH1 0x1 PUSH1 0x2 DUP9 MUL ADD DUP9 SSTORE POP POP POP JUMPDEST POP POP POP POP POP POP JUMP JUMPDEST PUSH0 PUSH1 0x40 DUP3 ADD SWAP1 POP DUP2 DUP2 SUB PUSH0 DUP4 ADD MSTORE PUSH2 0x1022 DUP2 DUP6 PUSH2 0xA9D JUMP JUMPDEST SWAP1 POP PUSH2 0x1031 PUSH1 0x20 DUP4 ADD DUP5 PUSH2 0xB05 JUMP JUMPDEST SWAP4 SWAP3 POP POP POP JUMP INVALID LOG2 PUSH5 0x6970667358 0x22 SLT KECCAK256 0xE5 GASLIMIT 0xE9 0xDD PUSH21 0x1E8850C53D741D0F672249DA21230DD4453E3F799A STOP 0x23 CALLDATACOPY BASEFEE POP SGT PUSH5 0x736F6C6343 STOP ADDMOD BYTE STOP CALLER "
				},
				"gasEstimates": {
					"creation": {
						"codeDepositCost": "841200",
						"executionCost": "875",
						"totalCost": "842075"
					},
					"external": {
						"addSeller(string,string,string,string)": "infinite",
						"getSeller(string)": "infinite",
						"sellers(string)": "infinite"
					}
				},
				"methodIdentifiers": {
					"addSeller(string,string,string,string)": "0859c6d2",
					"getSeller(string)": "a3902940",
					"sellers(string)": "8060ea6b"
				}
			},
			"storageLayout": {
				"storage": [
					{
						"astId": 17,
						"contract": "flathouse.sol:SellerRegistry",
						"label": "sellers",
						"offset": 0,
						"slot": "0",
						"type": "t_mapping(t_string_memory_ptr,t_struct(Seller)12_storage)"
					}
				],
				"types": {
					"t_address": {
						"encoding": "inplace",
						"label": "address",
						"numberOfBytes": "20"
					},
					"t_mapping(t_string_memory_ptr,t_struct(Seller)12_storage)": {
						"encoding": "mapping",
						"key": "t_string_memory_ptr",
						"label": "mapping(string => struct SellerRegistry.Seller)",
						"numberOfBytes": "32",
						"value": "t_struct(Seller)12_storage"
					},
					"t_string_memory_ptr": {
						"encoding": "bytes",
						"label": "string",
						"numberOfBytes": "32"
					},
					"t_string_storage": {
						"encoding": "bytes",
						"label": "string",
						"numberOfBytes": "32"
					},
					"t_struct(Seller)12_storage": {
						"encoding": "inplace",
						"label": "struct SellerRegistry.Seller",
						"members": [
							{
								"astId": 3,
								"contract": "flathouse.sol:SellerRegistry",
								"label": "aadhaar",
								"offset": 0,
								"slot": "0",
								"type": "t_string_storage"
							},
							{
								"astId": 5,
								"contract": "flathouse.sol:SellerRegistry",
								"label": "name",
								"offset": 0,
								"slot": "1",
								"type": "t_string_storage"
							},
							{
								"astId": 7,
								"contract": "flathouse.sol:SellerRegistry",
								"label": "email",
								"offset": 0,
								"slot": "2",
								"type": "t_string_storage"
							},
							{
								"astId": 9,
								"contract": "flathouse.sol:SellerRegistry",
								"label": "faddress",
								"offset": 0,
								"slot": "3",
								"type": "t_string_storage"
							},
							{
								"astId": 11,
								"contract": "flathouse.sol:SellerRegistry",
								"label": "owner",
								"offset": 0,
								"slot": "4",
								"type": "t_address"
							}
						],
						"numberOfBytes": "160"
					}
				}
			},
			"userdoc": {
				"kind": "user",
				"methods": {},
				"version": 1
			}
		}
	}
}